:100000000C945D000C9485000C9485000C94850084
:100010000C9485000C9485000C9485000C9485004C
:100020000C9485000C9485000C9485000C9485003C
:100030000C9485000C9485000C9485000C9485002C
:100040000C9477020C9485000C94E7020C94C10286
:100050000C9485000C9485000C9485000C9485000C
:100060000C9485000C94850000000008000201003B
:100070000003040700000000000000000000000072
:10008000250028002B0000000000240027002A0083
:10009000040404040404040402020202020203032E
:1000A0000303030301020408102040800102040836
:1000B0001020010204081020190311241FBECFEFE5
:1000C000D8E0DEBFCDBF11E0A0E0B1E0E6EDF8E0A2
:1000D00002C005900D92AC32B107D9F721E0ACE235
:1000E000B1E001C01D92AB3DB207E1F710E0CDE5F4
:1000F000D0E004C02197FE010E946304CC35D107F3
:10010000C9F70E9474030C9469040C94000090E0F9
:10011000FC01EC55FF4F249180579F4FFC018491C7
:10012000882399F090E0880F991FFC01EA57FF4F50
:10013000A591B491FC01E458FF4F859194918FB73C
:10014000F894EC91E22BEC938FBF089590E0FC01C2
:10015000E859FF4F2491FC01EC55FF4F3491FC010D
:10016000E057FF4FE491EE23C9F0222339F023300A
:1001700001F1A8F4213019F1223029F1F0E0EE0F5D
:10018000FF1FE458FF4FA591B4918FB7F894EC91FD
:10019000611126C030953E233C938FBF08952730D0
:1001A000A9F02830C9F0243049F7809180008F7D74
:1001B00003C0809180008F7780938000DFCF84B56B
:1001C0008F7784BDDBCF84B58F7DFBCF8091B0006E
:1001D0008F778093B000D2CF8091B0008F7DF9CF20
:1001E0003E2BDACF3FB7F8948091310190913201E4
:1001F000A0913301B091340126B5A89B05C02F3FD3
:1002000019F00196A11DB11D3FBFBA2FA92F982F3C
:100210008827BC01CD01620F711D811D911D42E037
:10022000660F771F881F991F4A95D1F708958F92FF
:100230009F92AF92BF92CF92DF92EF92FF920E9475
:10024000F2004B015C0184EFC82EDD24D394E12C35
:10025000F12C0E94F200681979098A099B09683E0D
:10026000734081059105A8F321E0C21AD108E10885
:10027000F10888EE880E83E0981EA11CB11CC11401
:10028000D104E104F10429F7FF90EF90DF90CF90C3
:10029000BF90AF909F908F900895AF92BF92CF92F2
:1002A000DF92EF92FF920F931F93CF93DF936C0136
:1002B0007B018B01040F151FEB015E01AE18BF0817
:1002C000C017D10759F06991D601ED91FC910190C9
:1002D000F081E02DC6010995892B79F7C501DF91E1
:1002E000CF911F910F91FF90EF90DF90CF90BF9033
:1002F000AF900895FC01538D448D252F30E0842F5D
:1003000090E0821B930B541710F0CF96089501973D
:100310000895FC01918D828D981761F0A28DAE0F2A
:10032000BF2FB11D5D968C91928D9F5F9F73928FB1
:1003300090E008958FEF9FEF0895FC01918D828DDD
:10034000981731F0828DE80FF11D858D90E00895AA
:100350008FEF9FEF0895FC01918D228D892F90E002
:10036000805C9F4F821B91098F739927089585E3C5
:1003700091E00E94AB0121E0892B09F420E0822F5B
:10038000089580E090E0892B29F00E94B701811147
:100390000C9400000895FC01A48DA80FB92FB11D85
:1003A000A35ABF4F2C91848D90E001968F739927AB
:1003B000848FA689B7892C93A089B1898C91837089
:1003C00080648C93938D848D981306C00288F38982
:1003D000E02D80818F7D80830895EF92FF920F93AF
:1003E0001F93CF93DF93EC0181E0888F9B8D8C8DE1
:1003F00098131AC0E889F989808185FF15C09FB7D5
:10040000F894EE89FF896083E889F9898081837097
:10041000806480839FBF81E090E0DF91CF911F9146
:100420000F91FF90EF900895F62E0B8D10E00F5F67
:100430001F4F0F731127E02E8C8D8E110CC00FB63D
:1004400007FCFACFE889F989808185FFF5CFCE01D5
:100450000E94CB01F1CFEB8DEC0FFD2FF11DE35A84
:10046000FF4FF0829FB7F8940B8FEA89FB89808158
:100470008062CFCFCF93DF93EC01888D8823B9F0D2
:10048000AA89BB89E889F9898C9185FD03C080819F
:1004900086FD0DC00FB607FCF7CF8C9185FFF2CF1C
:1004A000808185FFEDCFCE010E94CB01E9CFDF91A6
:1004B000CF910895CF93DF93FC0101900020E9F7DD
:1004C0003197AF01481B590BBC0185E391E00E94B5
:1004D0004D01EC0142E050E062E171E085E391E022
:1004E0000E944D018C0F9D1FDF91CF9108951F92A7
:1004F0000F920FB60F9211242F933F938F939F93D8
:10050000AF93BF9380912D0190912E01A0912F0167
:10051000B091300130912C0123E0230F2D3758F595
:100520000196A11DB11D20932C0180932D01909364
:100530002E01A0932F01B093300180913101909151
:100540003201A0913301B09134010196A11DB11D7A
:100550008093310190933201A0933301B093340121
:10056000BF91AF919F918F913F912F910F900FBEAF
:100570000F901F90189526E8230F0296A11DB11D1C
:10058000D2CF1F920F920FB60F9211242F933F9349
:100590004F935F936F937F938F939F93AF93BF938B
:1005A000EF93FF9385E391E00E94CB01FF91EF91E0
:1005B000BF91AF919F918F917F916F915F914F917B
:1005C0003F912F910F900FBE0F901F9018951F9283
:1005D0000F920FB60F9211242F938F939F93EF9347
:1005E000FF93E0914501F09146018081E0914B013C
:1005F000F0914C0182FD1BC0908180914E018F5F74
:100600008F7320914F01821741F0E0914E01F0E08D
:10061000EB5CFE4F958F80934E01FF91EF919F9180
:100620008F912F910F900FBE0F901F901895808182
:10063000F4CF109238011092370188EE93E0A0E0D9
:10064000B0E08093390190933A01A0933B01B093BD
:100650003C0184E091E0909336018093350185EC74
:1006600090E0909342018093410184EC90E090935C
:1006700044018093430180EC90E090934601809385
:10068000450181EC90E0909348018093470182EC12
:1006900090E090934A018093490186EC90E090931A
:1006A0004C0180934B0110924E0110924F01109219
:1006B000500110925101A2EDB1E090E080E041E2E2
:1006C000FC013E9621E030E08630910510F430E0E8
:1006D00020E0E20FF31F40935700E491ED93019661
:1006E0008930910569F70895789484B5826084BD56
:1006F00084B5816084BD85B5826085BD85B5816026
:1007000085BD80916E00816080936E0010928100A3
:10071000809181008260809381008091810081605E
:10072000809381008091800081608093800080911F
:10073000B10084608093B1008091B00081608093AB
:10074000B00080917A00846080937A0080917A0072
:10075000826080937A0080917A00816080937A0031
:1007600080917A00806880937A001092C100E091B5
:100770004501F091460182E08083E0914101F091D2
:1007800042011082E0914301F09144018FEC80839B
:1007900010924D01E0914901F0914A0186E0808379
:1007A000E0914701F0914801808180618083E09170
:1007B0004701F0914801808188608083E091470182
:1007C000F0914801808180688083E0914701F09139
:1007D000480180818F7D808384E00E94870085E0CE
:1007E0000E94870087E00E94870086E00E948700C1
:1007F00081E00E94870082E00E948700C0E0D0E094
:1008000060E084E00E94A60061E085E00E94A6000E
:1008100061E087E00E94A60060E086E00E94A600FA
:1008200085E191E00E945A020E94170160E084E095
:100830000E94A60060E085E00E94A60060E087E0DC
:100840000E94A60060E086E00E94A6008DE191E093
:100850000E945A020E94170161E084E00E94A600F3
:1008600060E085E00E94A60060E087E00E94A600AC
:1008700061E086E00E94A60082E291E00E945A02B6
:100880000E94170160E084E00E94A60060E085E01D
:100890000E94A60061E087E00E94A60061E086E079
:1008A0000E94A6008DE191E00E945A020E94170169
:1008B000209709F4A5CF0E94B701882309F4A0CF9F
:1008C0000E9400009DCFEE0FFF1F0590F491E02DD8
:0608D0000994F894FFCF2B
:1008D60000000000ED014D017A013A02AB018901E9
:1008E6009D010D0A00464F52574152440053544F42
:0C08F60050004241434B57415244000067
:00000001FF
