:100000000C94AE030C94D6030C94D6030C94D60334
:100010000C94D6030C94D6030C94D6030C94D603FC
:100020000C94D6030C94D6030C94D6030C94CA11EA
:100030000C94D6030C94D6030C94D6030C94D603DC
:100040000C9428110C94D6030C9498110C947211F2
:100050000C94D6030C94D6030C94D6030C94D603BC
:100060000C94D6030C94D6034D6F76696E672042CC
:1000700061636B776172642E2E2E004D6F76696E10
:1000800067204261636B776172642E2E2E00526985
:10009000676874205475726E004C656674205475E0
:1000A000726E0052696768747369646520536F6E7D
:1000B0006172204C6F636174696F6E2E004C6566CF
:1000C000747369646520536F6E6172204C6F636155
:1000D00074696F6E2E004F62737461636C652041AA
:1000E000766F6964616E63652E2E2E004D6F7669A2
:1000F0006E6720666F72776172642E2E2E00206309
:100100006D2E0044697374616E63653A2000506C13
:10011000757365204563686F2072656369657665F0
:1001200064210053656E64696E6720506C75736559
:100130002100536572766F205465737420446F6E8E
:100140006521002064656772656528732920706FDA
:10015000736974696F6E00536572766F2061743ACB
:1001600020002064656772656528732920706F73AD
:100170006974696F6E00536572766F2061743A20FE
:10018000005374617274696E6720536572766F20D4
:10019000546573742100000000002300260029002C
:1001A000506C656173652072656D6F76652054686B
:1001B00065726D6F64796E616D6963204B6579203E
:1001C00066726F6D2050494E2031342E00506C65A0
:1001D00061736520656E74657220696E20796F7534
:1001E00072206B657920636F64652E0049536372DA
:1001F00065616D34496365437265616D00486F7474
:1002000043616E64792100506C6561736520696E8D
:100210007365727420546865726D6F64796E616D78
:100220006963204B657920696E746F2050494E20B8
:1002300031342E00005EBCE2613FDD83C29C7E2033
:10024000A3FD1F41009D23BE46DB65F88C11AF3234
:10025000CA57E974303030303030303000464646CE
:10026000464646464646464646464646460030468A
:1002700046464646464646464646464646004D6F34
:1002800064652069732073657420746F3A2000449C
:100290006F20796F752077616E7420746F20656EA2
:1002A00061626C65206465627567206D657373615A
:1002B00067696E673F2028792F6E2900506C656151
:1002C000736520656E74657220616E20616E676C67
:1002D000652076616C75652066726F6D20302074C4
:1002E0006F2031383020646567726565732E005366
:1002F0006574206D6F646520627920747970696E11
:100300006720612076616C7565206265747765652C
:100310006E203020616E642039393A2D00446F2000
:10032000796F752077616E7420746F2073657475B2
:100330007020746865206D6F646520666F7220742C
:10034000686973206465766963653F202028792F8A
:100350006E29004E6F0059657300526F626F7261B3
:1003600063657220416C706861204D75E284A22043
:10037000696E697469617465642E2E0044656275E6
:100380006720456E61626C65643A2000526F626F4F
:10039000726163657220416C706861204D75E28402
:1003A000A22069732073657420746F206D6F64657B
:1003B0003A2000526F626F726163657220416C7007
:1003C0006861204D75E284A220456E64696E6720E5
:1003D0004265652044616E6365212E2E00526F6276
:1003E0006F726163657220416C706861204D75E2C7
:1003F00084A2205374617274696E6720426565201F
:1004000044616E6365212E2E00526F626F726163CC
:10041000657220416C706861204D75E284A220698C
:10042000732061626F757420746F20696E697469DE
:100430006174652E2E00416C6C206F7468657220AB
:1004400074726164656D61726B7320616E6420709B
:10045000726F64756374206E616D657320626520D0
:100460007468652074726164656D61726B73206F6E
:10047000662074686569722072657370656374695B
:100480007665206F776E6572732E00526F626F72A1
:100490006163657220416C70686120616E642052F6
:1004A0006F626F726163657220416C706861204D8C
:1004B0007520617265207265676973746572656421
:1004C0002074726164656D61726B7320616E642F5C
:1004D0006F722074726164656D61726B73206F66F8
:1004E00020494E4E4F424154452C204C4C432E2027
:1004F000696E2074686520556E6974656420537454
:10050000617465732C204E6577205A65616C616E4D
:10051000642C204175737472616C69612C20496E82
:100520006469612C2043616E6164612C20536175A4
:100530006469204172616269612C204974616C793F
:1005400020616E64206F7468657220636F756E74CD
:10055000726965732E00436F7079726967687420E1
:10056000C2A920323031332D3230323320494E4E41
:100570004F424154452C204C4C432E20416C6C2062
:100580007269676874732072657365727665642E2C
:100590000049443A20004C656674204D6F746F72B8
:1005A0002053746F70706564004C656674204D6FE5
:1005B000746F72204261636B7761726473004C6583
:1005C0006674204D6F746F722053746F7070656421
:1005D000004C656674204D6F746F7220466F7277A1
:1005E000617264005269676874204D6F746F722085
:1005F00053746F70706564005269676874204D6F42
:10060000746F72204261636B776172647300526928
:10061000676874204D6F746F722053746F707065CB
:1006200064005269676874204D6F746F7220466F62
:10063000727761726400536F6E61722054657374D7
:1006400020446F6E6521005374617274696E672077
:10065000536F6E6172205465737421005365727616
:100660006F205465737420446F6E652100426F746F
:1006700068204D6F746F72204261636B77617264A2
:100680007300426F7468204D6F746F7220466F72F2
:1006900077617264005374617274696E6720426F8F
:1006A0007468204D6F746F7220546573742100203C
:1006B0006465677265652873292E00536F6E6172D9
:1006C00020536572766F207061726B65642061746F
:1006D0003A20002069732064657465637465642E34
:1006E000205573696E672064656661756C74204D72
:1006F0006F64652E004E6F2073756368206D6F64A4
:10070000652061733A200000000000240027002AC1
:100710000000000000250028002B0004040404044D
:10072000040404020202020202030303030303019E
:100730000204081020408001020408102001020475
:100740000810200000000800020100000304070058
:100750000000000000000000CB12401811241FBE52
:10076000CFEFD8E0DEBFCDBF11E0A0E0B1E0E4ED17
:10077000FBE302C005900D92A438B107D9F722E03F
:10078000A4E8B1E001C01D92A23AB207E1F713E07C
:10079000CDEAD3E004C02197FE010E945C1BCC3A55
:1007A000D107C9F70E946D130C94DD1D0C94000055
:1007B0008F929F92AF92BF92CF92DF92EF92FF9271
:1007C0008091970258E5C52E52E0D52EC81AD1085F
:1007D00087FDD394CC0CDD1CCC0CDD1C0D2C000C47
:1007E000EE08FF088091960278E8872E912C881AEF
:1007F000910887FD9394880C991C880C991C092CEE
:10080000000CAA08BB08809195028F3FD1F190E0BF
:10081000FC01EE0FFF1FE80FF91FE059FD4F81812A
:10082000928133E0880F991F3A95E1F7B0E0A0E09C
:1008300044E0B595A795979587954A95D1F7029687
:100840009C012F5F3F4F032E000C440B550B2819C2
:1008500039094A095B09A4EBB0E00E944F1AA701CD
:100860009601281939094A095B090E94301AC90101
:10087000FF90EF90DF90CF90BF90AF909F908F90C0
:10088000089590E080E0DCCFCF92DF92EF92FF926C
:10089000DC01A03282E0B807D4F5A53BB10514F025
:1008A000A4EBB0E04091960228E830E0241B310927
:1008B00047FD3395220F331F220F331F6901330F7A
:1008C000EE08FF084091970228E532E0241B310929
:1008D00047FD3395220F331F220F331F032E000CC9
:1008E000440B550B2C193D094E095F09B7FF02C097
:1008F000B0E0A0E00E945A1A24EB30E040E050E063
:100900000E94301AC20ED31EE41EF51ED601E091DD
:100910009502EC3080F52091960288E890E0821BE9
:10092000910927FD9395880F991F880F991FA81784
:10093000B90784F02091970288E592E0821B910923
:1009400027FD9395880F991F880F991FA817B9073E
:100950000CF4CD010297880F991F4FB7F8942E2FF2
:1009600030E0F901EE0FFF1FE20FF31FE059FD4FDA
:10097000928381834FBFFF90EF90DF90CF900895D7
:1009800090E0FC01ED5BF84F2491FC01E15DF84F34
:100990003491FC01E55EF84FE491EE23C9F0222387
:1009A00039F0233001F1A8F4213019F1223029F176
:1009B000F0E0EE0FFF1FEF5EF84FA591B4918FB7F7
:1009C000F894EC91611126C030953E233C938FBF83
:1009D00008952730A9F02830C9F0243049F78091D4
:1009E00080008F7D03C0809180008F77809380008E
:1009F000DFCF84B58F7784BDDBCF84B58F7DFBCF10
:100A00008091B0008F778093B000D2CF8091B000FA
:100A10008F7DF9CF3E2BDACFCF93DF9390E0FC01AF
:100A2000E15DF84F2491855E984FFC018491882305
:100A3000D1F090E0880F991FFC01E95FF84FA59174
:100A4000B491FC01EF5EF84FC591D49161110EC0D5
:100A50009FB7F8948C91E22FE0958E238C93288198
:100A6000E223E8839FBFDF91CF9108958FB7F89479
:100A7000EC91E22BEC938FBFF6CF3FB7F8948091C7
:100A80008D0190918E01A0918F01B091900126B5BA
:100A9000A89B05C02F3F19F00196A11DB11D3FBFB6
:100AA000BA2FA92F982F8827BC01CD01620F711D85
:100AB000811D911D42E0660F771F881F991F4A957F
:100AC000D1F708958F929F92AF92BF92CF92DF920B
:100AD000EF92FF926B017C010E943D054B015C018E
:100AE000C114D104E104F104B9F00E943D05681974
:100AF00079098A099B09683E73408105910580F355
:100B000021E0C21AD108E108F10888EE880E83E0DE
:100B1000981EA11CB11CE4CFFF90EF90DF90CF9006
:100B2000BF90AF909F908F9008950895EF92FF929D
:100B30000F931F93CF93DF938C017B01D0E0C0E034
:100B4000F701EC0FFD1F6491662361F0D801ED9170
:100B5000FC910190F081E02DC8010995892B11F0DD
:100B60002196EECFCE01DF91CF911F910F91FF9093
:100B7000EF900895AF92BF92CF92DF92EF92FF92E3
:100B80000F931F93CF93DF936C017B018B01040FB5
:100B9000151FEB015E01AE18BF08C017D10759F051
:100BA0006991D601ED91FC910190F081E02DC60193
:100BB0000995892B79F7C501DF91CF911F910F918D
:100BC000FF90EF90DF90CF90BF90AF900895FC0121
:100BD000538D448D252F30E0842F90E0821B930BA2
:100BE000541710F0CF96089501970895FC01918D48
:100BF000828D981761F0A28DAE0FBF2FB11D5D964B
:100C00008C91928D9F5F9F73928F90E008958FEFEC
:100C10009FEF08952FB7F8948091910190919201E0
:100C2000A0919301B09194012FBF80939D01909367
:100C30009E01A0939F01B093A00185E991E00E94DD
:100C4000F60597FF26C02FB7F894809191019091F7
:100C50009201A0919301B09194012FBF40919D0109
:100C600050919E0160919F017091A001841B950B92
:100C7000A60BB70B4091990150919A0160919B018D
:100C800070919C0184179507A607B707B0F28FEF04
:100C90009FEF0895FC01918D828D981731F0828D20
:100CA000E80FF11D858D90E008958FEF9FEF089577
:100CB000FC01918D228D892F90E0805C9F4F821BDB
:100CC00091098F739927089585E991E00E9458064C
:100CD00021E0892B09F420E0822F089580E090E044
:100CE000892B29F00E94640681110C94000008955C
:100CF000FC01A48DA80FB92FB11DA35ABF4F2C9191
:100D0000848D90E001968F739927848FA689B78987
:100D10002C93A089B1898C91837080648C93938D7E
:100D2000848D981306C00288F389E02D80818F7D21
:100D300080830895EF92FF920F931F93CF93DF93D9
:100D4000EC0181E0888F9B8D8C8D98131AC0E88907
:100D5000F989808185FF15C09FB7F894EE89FF89D6
:100D60006083E889F98980818370806480839FBF74
:100D700081E090E0DF91CF911F910F91FF90EF9074
:100D80000895F62E0B8D10E00F5F1F4F0F73112784
:100D9000E02E8C8D8E110CC00FB607FCFACFE889BF
:100DA000F989808185FFF5CFCE010E947806F1CFC9
:100DB000EB8DEC0FFD2FF11DE35AFF4FF0829FB733
:100DC000F8940B8FEA89FB8980818062CFCFCF9323
:100DD000DF93EC01888D8823B9F0AA89BB89E88963
:100DE000F9898C9185FD03C0808186FD0DC00FB609
:100DF00007FCF7CF8C9185FFF2CF808185FFEDCF87
:100E0000CE010E947806E9CFDF91CF91089590E05E
:100E100080E00895089583E692E00C94130783E63A
:100E200092E00C94160790E080E0089590E080E056
:100E30000895DC0180E0615090F09D919827E92FA2
:100E4000EF70F0E0EC5CFD4F2491E92FE295EF703C
:100E5000F0E0EC5BFD4FE491822F8E27ECCF0895FC
:100E6000DC012C911196ED91FC91F8948181822BFB
:100E700081839281322F30959323928387E090E093
:100E80000197F1F781818323818383E290E00197C9
:100E9000F1F790817894EFECF0E03197F1F792233D
:100EA00081E009F480E00895FC0190810180F281E5
:100EB000E02D292F209560FF14C0F89482818223B1
:100EC00082838181892B8183A3E2B0E01197F1F7BE
:100ED0008281982B9283789487ED90E00197F1F7C7
:100EE0000895F8948281822382838181892B818372
:100EF000AFEFB0E01197F1F78281982B928378944D
:100F00008FE090E0EBCFEF92FF920F931F93CF9380
:100F1000DF93EC01E62E08E010E0FF24F39461E09B
:100F20008E2D8F2109F460E0CE010E945407FF0C42
:100F300001501109A1F7F894E981FA819181888122
:100F4000809589238183E981FA81928188818095C6
:100F5000892382837894DF91CF911F910F91FF9025
:100F6000EF900895EF92FF920F931F93CF93DF932B
:100F70008C017B0165E50E948307E70188E0E80EAC
:100F8000F11C6991C8010E948307CE15DF05C9F7DE
:100F9000DF91CF911F910F91FF90EF900895FC0189
:100FA00090810180F281E02DF8948181292F209594
:100FB0008223818378943DE743E050E0315029F16A
:100FC000DA011197F1F780818923C1F3F8948281C6
:100FD000822382838181892B81837894ABE7B7E078
:100FE0001197F1F7F894818182238183A3E1B1E025
:100FF0001197F1F78081982381E009F080E07894DF
:10100000E3E6F6E03197F1F7089580E0089561E0B6
:1010100087E00E94C00460E086E00E94C00460E0B7
:1010200084E00E94C00460E085E00C94C00460E0AD
:1010300086E00E94C00460E084E00E94C00461E099
:1010400087E00E94C00461E085E00C94C00460E089
:1010500085E00E94C00460E087E00E94C00461E077
:1010600086E00E94C00461E084E00C94C00460E06B
:1010700087E00E94C00460E086E00E94C00460E057
:1010800085E00E94C00460E084E00C94C004BF923C
:10109000CF92DF92EF92FF920F931F93CF93DF9344
:1010A000EC01B62EC72E8D85811105C0CE010E94A0
:1010B000CF0781110EC01B861D861C8680E0DF9144
:1010C000CF911F910F91FF90EF90DF90CF90BF9045
:1010D000089560EFCE010E94830701E0E12CD12C3E
:1010E00011E0CE010E943007F82ECE010E94300799
:1010F00091E0F91218C0813099F51134E0F2DB86E5
:10110000D11002C081E08D878B818823A1F22396C4
:10111000EB2DFC2DCF01089629912193E817F907B3
:10112000D9F781E0CCCFEE2DF0E0F8120FC08B851F
:101130001817A0F4DE01AE0FBF1F13968C91802309
:1011400079F4F12C193008F41C87D12EEC0FFD1F17
:101150008381902F9095892383830AC08113F1CFD7
:10116000FE01EE0DF11D8381802B8383FF24F39418
:101170006F2DCE010E9454071F5F000F11F4E394FE
:1011800001E087E08E1508F0ACCFB7CFFB010190EE
:101190000020E9F73197AF01461B570BDC01ED91B9
:1011A000FC910280F381E02D09948F929F92AF927F
:1011B000BF92CF92DF92EF92FF920F931F93CF9344
:1011C000DF93CDB7DEB7A1970FB6F894DEBF0FBEA1
:1011D000CDBF6B017C01F7FE43C06DE285E991E074
:1011E0000E949A068C0122273327A9012C193D0958
:1011F0004E095F0919A2CE0181967C019AE0892EE1
:10120000912CA12CB12CCA01B901A50194010E9415
:101210000E1A605DF70162937F01211531054105CA
:10122000510589F790E080E0309729F0BF0185E90A
:1012300091E00E94C608800F911FA1960FB6F89406
:10124000DEBF0FBECDBFDF91CF911F910F91FF90F9
:10125000EF90DF90CF90BF90AF909F908F900895C8
:10126000AC019B0119A28E010F5D1F4F8AE0C82EB1
:10127000D12CE12CF12CCA01B901A70196010E94E1
:101280000E1A605DF80162938F0121153105410549
:10129000510589F790E080E0309779F2BF0185E948
:1012A00091E00E94C608C9CF0F931F93CF93DF939D
:1012B000EC010E9496058C0168E271E0CE010E946B
:1012C000C608800F911FDF91CF911F910F91089554
:1012D0000F931F93CF93DF938C0161E871E085E951
:1012E00091E00E94540961E08DE00E94C004D0E0CA
:1012F000C0E066E771E085E991E00E949605BE01D5
:101300000D2E000C880B990B0E94D50862E671E047
:1013100085E991E00E945409CE010E9444046FE0E7
:1013200070E080E090E00E946205C00FD11FC53BD5
:10133000D105FCF260E08DE00E94C00468EE73E02D
:1013400080E090E00E94620561E08DE00E94C004B0
:10135000C4EBD0E067E571E085E991E00E94960575
:10136000BE010D2E000C880B990B0E94D50863E47A
:1013700071E085E991E00E945409CE010E94440485
:101380006FE070E080E090E00E946205C01BD10B2E
:10139000D7FFE0CF60E08DE00E94C00462E371E01F
:1013A00085E991E00E94540985E991E0DF91CF91B0
:1013B0001F910F910C94E706CF93DF93FC014481BA
:1013C00055816081718185E991E00E94BA05EC0147
:1013D00068E271E085E991E00E94C6088C0F9D1FCC
:1013E000DF91CF910895CF93DF93BC0185E991E020
:1013F0000E94C608EC0168E271E085E991E00E9474
:10140000C6088C0F9D1FDF91CF910895CF93DF9376
:10141000C0919802D0919902209761F08991882318
:1014200049F0082E000C990B0E94AD1DFE0131976A
:101430008083F4CFDF91CF910895FC012481358121
:10144000FB014481558124173507E1F4FC018081BB
:101450009181FB01608171810097D1F06115710567
:10146000A1F4232BC1F0FC01808190E008C0232B64
:1014700091F0FB01808190E091958195910921E0A7
:10148000892B09F020E0822F08950E94BE1DF7CF1E
:101490006115710561F721E0F6CFFC018081918132
:1014A000009711F00C94E81860E070E0CB0108950B
:1014B000AF92BF92CF92DF92EF92FF920F931F9362
:1014C000CF93DF93DC01CD90DC901197C114D10450
:1014D00039F01496CD91DC918C017601209761F45E
:1014E000DF91CF911F910F91FF90EF90DF90CF9000
:1014F000BF90AF90089575015701BFEFAB1ABB0ABB
:10150000F7018081082E000C990B0E940F19892B7E
:1015100091F72197CC0DDD1D8881082E000C990BC9
:101520000E940F19892B29F0CE15DF0510F02197A5
:10153000F3CFAE014F5F5F4F4E195F09D80115968B
:101540005C934E931497CE14DF0420F4B701C601C8
:101550000E94B51DD801ED91FC91119714968D91C3
:101560009C91E80FF91F1082BBCFCF93DF93FC0152
:10157000C081D181209761F08991882349F0082E9C
:10158000000C990B0E94A51DFE0131978083F4CFBA
:10159000DF91CF9108950F931F93CF93DF938C0129
:1015A000EB01FC01808191810097E1F068817981F4
:1015B00061157105A9F0428153812C813D8142174B
:1015C000530770F00E94C71D8C819D81F80195839F
:1015D00084831D821C82DF91CF911F910F9108950A
:1015E0000E945F1C88819981F801918380838A81A0
:1015F0009B81938382838C819D81958384831982CF
:1016000018821B821A82E5CFCF93DF93EC01888189
:101610009981009711F00E945F1C198218821D8227
:101620001C821B821A82DF91CF910895FC01808178
:101630009181009711F00C945F1C08950F931F93F4
:10164000CF93DF93EC0188819981009759F02A812B
:101650003B812617370730F081E0DF91CF911F9152
:101660000F9108958B016F5F7F4F0E94E81C0097D8
:1016700059F0998388831B830A832C813D81232B16
:1016800059F7FC011082E8CF80E0E7CFEF92FF929C
:101690000F931F93CF93DF936115710541F480E0A1
:1016A000DF91CF911F910F91FF90EF900895411519
:1016B0005105B1F07B01EC010C811D81040F151F58
:1016C000B8010E941E0B882351F3288139818C8137
:1016D0009D81B701820F931F0E94C71D1D830C833C
:1016E00081E0DECFEF92FF920F931F93CF93DF93B2
:1016F000EC017B018A01BA010E941E0B81110BC013
:10170000CE010E94040BCE01DF91CF911F910F916A
:10171000FF90EF9008951D830C83B7018881998114
:101720000E94C71DF0CFEF92FF920F931F93CF93AC
:10173000DF9300D0CDB7DEB78C01FC01118210829F
:10174000138212821582148250E040E06AE271E056
:101750000E94720B0E940A0697FD1EC089831A829E
:10176000F801E480F580FFEFEF1AFF0AB701C80126
:101770000E941E0B882371F3F8012081318184813E
:101780009581BE016F5F7F4F820F931F0E94C71D1F
:10179000F801F582E482DECFC8010F900F90DF914F
:1017A000CF911F910F91FF90EF900895CF93DF930A
:1017B000EC01CB0148EE53E060E070E0409399010A
:1017C00050939A0160939B0170939C010E94DC09E5
:1017D00085E991E00E945806892BD1F3CE010E9441
:1017E000930BCE010E94580ACE01DF91CF9108954C
:1017F000FC0111821082138212821582148250E041
:1018000040E06AE271E00C94720BEF92FF920F934A
:101810001F93CF93DF93CDB7DEB729970FB6F89418
:10182000DEBF0FBECDBF8C01862FF8011182108262
:10183000138212821582148240E19E012F5F3F4F76
:101840007901B90190E00E943D19F7010190002053
:10185000E9F73197AF014E195F09B701C8010E943E
:10186000720B29960FB6F894DEBF0FBECDBFDF9185
:10187000CF911F910F91FF90EF900895CF93DF9339
:10188000EC01FB018617970749F0608171816115B2
:10189000710541F0448155810E94720BCE01DF91A8
:1018A000CF9108950E94040BF9CFFC0111821082A0
:1018B00013821282158214820C943E0CEF92FF92D6
:1018C0000F931F93CF93DF93EC018B011982188242
:1018D0001B821A821D821C82CB010E941F197C016F
:1018E000BC01CE010E941E0B811109C0CE01DF9107
:1018F000CF911F910F91FF90EF900C94040BFD82FC
:10190000EC82B80188819981DF91CF911F910F916D
:10191000FF90EF900C9418190C94001A2F923F929C
:101920004F925F926F927F928F929F92AF92BF92EF
:10193000CF92DF92EF92FF920F931F93CF93DF939B
:10194000CDB7DEB7C056D1090FB6F894DEBF0FBED3
:10195000CDBF60E08EE00E940C05EDE3F7E0E4917E
:10196000EBABE9E2F7E0E491F0E0EE0FFF1FEA569F
:10197000FE4F859194919DAB8CAB1EAE21961FAE10
:1019800021971FAE1DAE1CAE1BAE1AAE19AE18AE1F
:101990001FAA1EAA39E0F32EE12C3E012AE0620EB6
:1019A000711CBE016F5B7F4FCE01C3960E9447083A
:1019B000882309F490C067E0CE018F5B9F4F0E949F
:1019C000190729969FAD29978913EBCF22968FADE2
:1019D0002297883231F008F068C0803111F08232ED
:1019E00001F7E1101DC0CE01C3960E94CF07BE01D2
:1019F0006F5B7F4FCE01C3960E94B20764EBCE01AE
:101A0000C3960E948307CE01C3960E943007182F09
:101A1000CE01C3960E94CF07111102C0EE24E394B9
:101A200022968FAD2297803109F44BC0CE01C39628
:101A30000E94CF07882309F4B4CFBE016F5B7F4FAC
:101A4000CE01C3960E94B2076EEBCE01C3960E94F0
:101A500083078E010F5F1F4F4801680198E0292E10
:101A6000312C512C44244394CE01C3960E9430075C
:101A700081115428440C31E0231A3108A9F7F401EC
:101A800051924F01E615F70549F7CE01C3960E9422
:101A9000CF07813009F085CFF80181918F01811145
:101AA000BDC18E169F06C1F77CCF8B3309F499CF49
:101AB000823409F076CF95CF8F3529F08F3709F032
:101AC00070CF8CE001C08BE0F81608F06ACFF82EDA
:101AD00068CF8AE0F9CF67E072E085E991E00E9483
:101AE0005409CE018B5A9F4F0E94F80B9E012F5F25
:101AF0003F4F49011EAE21961FAE21971FAE1DAE6E
:101B00001CAE1BAE1AAE19AE18AE1FAA1EAABE019D
:101B10006F5B7F4FCE01C3960E944708882309F46C
:101B20008FC167E0CE018F5B9F4F0E9419072996F6
:101B30009FAD2997891384C150E040E06AE271E0CB
:101B400088E992E00E94720B9E012F5B3F4F490192
:101B500001E117E2F40161914F01C8010E948C0C70
:101B6000F40131976081CE01815B9F4F0E94050C8B
:101B700068E972E0CE01875B9F4F0E94550C659625
:101B80004EAD5FAD659761966EAD7FAD6197CE014D
:101B9000875B9F4F0E94460B811105C0CE01875B7A
:101BA0009F4F0E94040BBE01675B7F4F88E992E064
:101BB0000E943E0CCE01875B9F4F0E94160BCE0108
:101BC000815B9F4F0E94160B0F5F1F4F0931F7E299
:101BD0001F0709F0BFCF0E94060A64E670E080E0AC
:101BE00090E00E94620560EA71E085E991E00E9460
:101BF0005409CE018B5A9F4F0E94160BC05ADF4FDB
:101C00000FB6F894DEBF0FBECDBFDF91CF911F910D
:101C10000F91FF90EF90DF90CF90BF90AF909F908B
:101C20008F907F906F905F904F903F902F9008958E
:101C30006CEE71E0C4010E945E0CB401CE01815BC8
:101C40009F4F0E941D0A182FC4010E94160B1123DA
:101C500009F4DEC06DEC71E0C4010E945E0CB401B9
:101C6000CE01875B9F4F0E94D60BBE01675B7F4F03
:101C7000CE01815B9F4F0E94CB0ACE01875B9F4FB5
:101C80000E94160BC4010E94160BBE01615B7F4FC0
:101C9000CE01875B9F4F0E94550C2F960EAD1FAD56
:101CA0002F970115110509F068C01982F401019000
:101CB0000020E9F73197CF0188199909A1969FAFC4
:101CC0008EAFA1972401212C312C6C961FAE6C97FE
:101CD0006D961FAE6D976E961FAE6E976F961FAE88
:101CE0006F97612C712CC20188199909A196EEADEC
:101CF000FFADA1978E179F070CF051C08AE0A82E68
:101D0000B12CC12CD12CE12CF12C00E010E0910180
:101D10006C964FAD6C976D965FAD6D976E966FAD8F
:101D20006E976F967FAD6F97C3010E94621B59013A
:101D30006A017B018C01F20181912F01082E000CB8
:101D4000990BC097E92FEE0FEE0B9C014E2F5E2FE3
:101D50006E2F7E2F8E2F9E2F0E94BA1B19016C961C
:101D60004FAF6C976D965FAF6D976E966FAF6E9736
:101D70006F967FAF6F973C01B6CF0133110510F01E
:101D800001E310E02B966EAD7FAD2B97A801C40147
:101D90000E94CE1DF401E00FF11F108287CFCE010B
:101DA000875B9F4F0E94160BCE01815B9F4F0E9465
:101DB000DC0929823A826C96FFAD6C97FB836D96A5
:101DC0002FAD6D972C836E963FAD6E973D836F96CA
:101DD0008FAD6F978E836F82788601E117E2F401F1
:101DE000F1904F01C8010E94F819F81621F06F2DEB
:101DF000C8010E94001A0F5F1F4F0931F7E21F0749
:101E000071F764E670E080E090E00E9462054DC0EA
:101E1000CE01815B9F4F0E94160B6CCE68E0C6011D
:101E20000E94190799858913BCCD8D818F3309F4E0
:101E300050CE08F041CE8F3109F0B3CD89E044CEC9
:101E400064E670E080E090E00E946205CE01815B74
:101E50009F4F0E94930B6DEF71E0C4010E945E0CD6
:101E6000B401CE01815B9F4F0E941D0A182FC4014F
:101E70000E94160B112309F4DBCE22961FAE229787
:101E800023961FAE239724961FAE249725961FAE48
:101E9000259726961FAE269727961FAE279728963A
:101EA0001FAE289729961FAE2997CE01815B9F4FC1
:101EB0000E94160B41CECF92DF92EF92FF920F93CA
:101EC0001F9380918901882331F063E271E085E9F5
:101ED00091E00E94540960E089E00E94C00483E020
:101EE00090E00197F1F761E089E00E94C00483E28D
:101EF00090E00197F1F7E9E3F7E06491E5E2F7E0BC
:101F0000E491F0E0EE0FFF1FEA56FE4F85919491A9
:101F100000E412E42FE030E0462F0E9486126115A3
:101F200071058105910529F06F5F7F4F8F4F9F4F9E
:101F30009F700E9459192DEC3CEC48E652E40E9437
:101F4000A81A0E941A1B6B017C016AE070E080E015
:101F500090E00E946205809189018823B1F06EE0D3
:101F600071E085E991E00E94540963E071E085E940
:101F700091E00E949605C701B6010E94D5086EEF58
:101F800070E085E991E00E945409C701B6011F91F4
:101F90000F91FF90EF90DF90CF9008958F929F92D6
:101FA000AF92BF92CF92DF92EF92FF9261E08DE00D
:101FB0000E94C0040E945B0F6B017C01C0928401EF
:101FC000D0928501E0928601F092870160E08DE079
:101FD0000E94C00424E1C21AD108E108F10881E995
:101FE000C81684E0D806E104F10460F48091890108
:101FF000882331F06CEE70E085E991E00E9454098D
:102000000E9417088091840190918501A09186011A
:10201000B09187010797A109B1090C97A105B105F6
:1020200008F0A5C080918901882331F066ED70E049
:1020300085E991E00E9454090E94370864EF71E03D
:1020400080E090E00E9462050E94270864EF71E042
:1020500080E090E00E9462050E94370864E670E02C
:1020600080E090E00E94620580918A0190918B014E
:10207000089709F0EAC080918901882331F06DEB5F
:1020800070E085E991E00E9454098EE190E00E94A1
:10209000440464EF71E080E090E00E9462050E94D9
:1020A0005B0F64E670E080E090E00E9462050E94B1
:1020B0005B0F4B015C0164E670E080E090E00E9401
:1020C000620580918901882331F063EA70E085E937
:1020D00091E00E94540986E990E00E94440464EF74
:1020E00071E080E090E00E9462050E945B0F64E670
:1020F00070E080E090E00E9462050E945B0F6B013F
:102100007C0164E670E080E090E00E9462058091CE
:10211000840190918501A0918601B0918701881674
:102120009906AA06BB060CF46DC08C149D04AE047F
:10213000BF040CF467C080918901882331F069E9FC
:1021400070E085E991E00E9454090E9407086AE85E
:1021500072E080E090E00E9462058AE590E00E94D3
:10216000440464EF71E080E090E00E946205809199
:10217000840190918501A0918601B0918701079714
:10218000A105B105A0F480918901882331F06BE7A6
:1021900070E085E991E00E9454090E94370864E6E6
:1021A00070E080E090E00E9462050E942708809124
:1021B000840190918501A0918601B0918701853AB3
:1021C0009440A105B10594F080918901882331F0F4
:1021D00068E670E085E991E00E9454090E942708B2
:1021E00064E670E080E090E00E94620585E991E09D
:1021F000FF90EF90DF90CF90BF90AF909F908F9027
:102200000C94E706C816D906EA06FB06DCF08091B6
:102210008901882331F06EE870E085E991E00E9441
:10222000540961E085E00E94C00460E087E00E94FC
:10223000C00460E086E00E94C00460E084E00E9488
:10224000C00485CF0E94270888CF0E94070889CF45
:102250001F920F920FB60F9211242F933F938F93DB
:102260009F93AF93BF938091910190919201A09120
:102270009301B091940130918C0123E0230F2D370D
:1022800058F50196A11DB11D20938C0180939101F9
:1022900090939201A0939301B093940180918D014A
:1022A00090918E01A0918F01B09190010196A11D96
:1022B000B11D80938D0190938E01A0938F01B093F7
:1022C0009001BF91AF919F918F913F912F910F906E
:1022D0000FBE0F901F90189526E8230F0296A11DA0
:1022E000B11DD2CF1F920F920FB60F9211242F93D0
:1022F0003F934F935F936F937F938F939F93AF938E
:10230000BF93EF93FF9385E991E00E947806FF91D8
:10231000EF91BF91AF919F918F917F916F915F915D
:102320004F913F912F910F900FBE0F901F901895D6
:102330001F920F920FB60F9211242F938F939F939A
:10234000EF93FF93E091A501F091A6018081E091C8
:10235000AB01F091AC0182FD1BC090818091AE0178
:102360008F5F8F732091AF01821741F0E091AE0132
:10237000F0E0EB56FE4F958F8093AE01FF91EF9109
:102380009F918F912F910F900FBE0F901F901895D6
:102390008081F4CF1F920F920FB60F9211242F93CA
:1023A0003F934F935F936F937F938F939F93AF93DD
:1023B000BF93CF93DF93EF93FF9380918801C091F8
:1023C0009402D0E087FF24C0109285001092840010
:1023D000809188018F5F8093880180918801082E09
:1023E000000C990B8C179D0724F4809188018C3088
:1023F000C4F18091840090918500049680349C49BA
:1024000008F47AC08091840090918500049676C08B
:1024100080918801082E000C990B8C179D07C4F63B
:10242000E09188018E2FEE0F990BFC01EE0FFF1F3C
:10243000E80FF91FE059FD4F808186FFC9CFE09179
:1024400088018E2FEE0F990BFC01EE0FFF1FE80F96
:10245000F91FE059FD4F808160E08F730E94C00436
:10246000B7CF2091840030918500E09188018E2FB4
:10247000EE0F990BFC01EE0FFF1FE80FF91FE0595B
:10248000FD4F81819281820F931F909389008093E9
:102490008800E09188018E2FEE0F990BFC01EE0F62
:1024A000FF1FE80FF91FE059FD4F808186FF11C023
:1024B000E09188018E2FEE0F990BFC01EE0FFF1FAC
:1024C000E80FF91FE059FD4F808161E08F730E9492
:1024D000C004FF91EF91DF91CF91BF91AF919F9198
:1024E0008F917F916F915F914F913F912F910F90BD
:1024F0000FBE0F901F90189580E49CE9909389007F
:10250000809388008FEF80938801E3CFCF92DF9292
:10251000EF92FF920F931F93E82FF92F05C0015000
:1025200011092109310961F1908196239417B9F3BA
:1025300005C0015011092109310911F1908196233B
:102540009413F7CFC12CD12CE12CF12C0AC08FEFC2
:10255000C81AD80AE80AF80A0C151D052E053F0509
:1025600079F080818623841791F36C2D7D2D8E2D3B
:102570009F2D1F910F91FF90EF90DF90CF900895C6
:1025800060E070E080E090E01F910F91FF90EF908D
:10259000DF90CF900895109298011092970188EEE5
:1025A00093E0A0E0B0E08093990190939A01A0930A
:1025B0009B01B0939C018EE091E0909396018093F3
:1025C000950185EC90E09093A2018093A10184ECA9
:1025D00090E09093A4018093A30180EC90E090930D
:1025E000A6018093A50181EC90E09093A8018093CF
:1025F000A70182EC90E09093AA018093A90186EC58
:1026000090E09093AC018093AB011092AE011092D8
:10261000AF011092B0011092B10188E893E1A0E0FF
:10262000B0E08093550290935602A0935702B09366
:1026300058021092610210925D0210925E02109296
:102640005F021092600210926202109234021092A5
:10265000330210923202109266021092650280E2FA
:1026600091E09093640280936302A7E6B2E090E069
:1026700080E021E2E1E0F0E08630910510F4F0E046
:10268000E0E0AC01425F5F4FE40FF51F209357007D
:10269000E491ED9301968930910561F788E992E024
:1026A0000E94F80B809194028C3098F491E0980F7E
:1026B000909394028093950290E0FC01EE0FFF1F2F
:1026C000E80FF91FE059FD4F88EB9BE0928381836F
:1026D00008958FEF809395020895CF93DF93CDB740
:1026E000DEB768970FB6F894DEBF0FBECDBF789403
:1026F00084B5826084BD84B5816084BD85B5826007
:1027000085BD85B5816085BD80916E0081608093B7
:102710006E00109281008091810082608093810020
:102720008091810081608093810080918000816030
:10273000809380008091B10084608093B10080918B
:10274000B00081608093B00080917A0084608093B3
:102750007A0080917A00826080937A0080917A007A
:10276000816080937A0080917A00806880937A00FB
:102770001092C100E091A501F091A60182E0808352
:10278000E091A101F091A2011082E091A301F091EA
:10279000A4018FEC80831092AD01E091A901F0912A
:1027A000AA0186E08083E091A701F091A8018081D1
:1027B00080618083E091A701F091A8018081886009
:1027C0008083E091A701F091A801808180688083D7
:1027D000E091A701F091A80180818F7D808366E55B
:1027E00075E085E991E00E9454096BE874E085E9A1
:1027F00091E00E94540966E374E085E991E00E944B
:102800005409CE010D960E94F80B01E117E2C801B0
:102810000E94F819682FCE0101960E94050CBE0196
:10282000635F7F4FCE0107960E94550C4D815E81FC
:1028300069817A81CE0107960E94460B811104C0FE
:10284000CE0107960E94040BBE01695F7F4FCE0147
:102850000D960E943E0CCE0107960E94160BCE01EB
:1028600001960E94160B0F5F1F4F093127E21207D6
:1028700071F6BE01635F7F4F88E992E00E94CB0A48
:10288000CE010D960E94160B0E94060A68E972E0BE
:10289000CE0143960E94550C6EE672E0CE01019681
:1028A0000E945E0CBE016F5F7F4FCE0143960E9477
:1028B0001D0A11E0811129C06DE572E0CE01079675
:1028C0000E945E0CBE01695F7F4FCE0143960E945D
:1028D0001D0A11E0811115C064E572E0CE010D966C
:1028E0000E945E0CBE01635F7F4FCE0143960E9443
:1028F0001D0A11E0811101C010E0CE010D960E9469
:10290000160BCE0107960E94160BCE0101960E946F
:10291000160B11110E948E0CCE0143960E94160BCD
:1029200061E084E00E940C0561E085E00E940C05F6
:1029300061E086E00E940C0561E087E00E940C05E2
:1029400061E089E00E940C0560E08AE00E940C05CD
:10295000809195028C3008F051C061E088E00E94BF
:102960000C0580919502282F30E0F901EE0FFF1F32
:10297000E20FF31FE059FD4F9081907C98609083A7
:1029800010929602109297022CE0622F0E94501B28
:10299000829FB001112430E020E0AB01420F531FB1
:1029A000FA01EE0FFF1FE40FF51FE059FD4F908174
:1029B00096FD16C02F5F3F4F2C30310571F7811106
:1029C0000FC01092800082E08093810010928500F9
:1029D00010928400B19A80916F00826080936F00A2
:1029E000E09195028E2F90E0FC01EE0FFF1FE80FA3
:1029F000F91FE059FD4F80818064808369E074E0B5
:102A000085E991E00E94540985E991E00E94E7067A
:102A10006DED73E085E991E00E94540961E087E083
:102A20000E94C0040E94901828EEC22E23E0D22EED
:102A3000E12CF12CA70196010E94301A68517C4FBD
:102A40008F4F9F4F0E94620560E087E00E94C004A4
:102A500061E085E00E94C0040E949018A7019601E1
:102A60000E94301A68517C4F8F4F9F4F0E94620521
:102A700060E085E00E94C00463EB73E085E991E0CB
:102A80000E94540980E197E20E94F819282F30E053
:102A900030938B0120938A01843648F010928B0189
:102AA00010928A0160E080E197E20E948C0C89E13B
:102AB00097E20E94F81991E0811101C090E0909393
:102AC00089010E94901826E930E040E050E00E9421
:102AD000301A6C597F4F8F4F9F4F0E9462056CE8F0
:102AE00073E085E991E00E94960560918A017091FA
:102AF0008B01072E000C880B990B0E94D50868E209
:102B000071E085E991E00E94C6086CE773E085E911
:102B100091E00E9496058091890163E573E0882326
:102B200011F066E573E085E991E00E9454096AE5D9
:102B300073E085E991E00E94540985E991E00E94E3
:102B4000E70660E273E080E090E00E94620580E7C3
:102B500097E1A0E0B0E08093990190939A01A0934F
:102B60009B01B0939C016DE173E085E991E00E94C7
:102B70005409CE010D960E94930BCE010D960E9432
:102B8000580ACE010D960E94B50A89899A89892B27
:102B900009F4DFC06BE271E08D859E850E94BE1D49
:102BA000892B09F0D6C06FEE72E0CE0107960E9425
:102BB0005E0CBE01695F7F4FCE0101960E94D60B6D
:102BC000BE016F5F7F4FCE010D960E94CB0ACE01F2
:102BD00001960E94160BCE0107960E94160BBE01AD
:102BE000635F7F4FCE0101960E94550CCE01019686
:102BF0000E944D0ACB0160938A0190938B0180E182
:102C000097E20E948C0C6EE772E085E991E00E94E9
:102C1000960560918A0170918B01072E000C880B3C
:102C2000990B0E94D50868E271E085E991E00E9465
:102C3000C608CE0101960E94160B89899A89892BB4
:102C400009F442C06DE271E08D859E850E94BE1D33
:102C5000892BD1F56CEB72E0CE0101960E945E0CDF
:102C6000BE016F5F7F4FCE0107960E94D60BCE014B
:102C700001960E94160BCE0107960E94580ACE01BB
:102C800007960E944D0A8FE097E20E948C0C68EC38
:102C900070E080E090E00E946205CE0107960E94FD
:102CA0004D0A6B010E94D803C816D90619F0C60157
:102CB0000E94440468EC70E080E090E00E946205AD
:102CC000CE0107960E94160B80918A0190918B018C
:102CD000883E9340A9F56FE872E0CE0101960E940C
:102CE0005E0CBE016F5F7F4FCE0107960E94D60B30
:102CF000CE0101960E94160BCE0107960E94B50ADE
:102D00008B859C85892B49F06BE271E08F819885DA
:102D10000E94BE1D61E0892B09F060E089E197E225
:102D20000E948C0C89E197E20E94F81991E08111D0
:102D300001C090E090938901CE0107960E94160B86
:102D400080918A0190918B01893E934011F40E94F9
:102D50008E0CCE010D960E94160B85E991E00E9423
:102D6000E7068AE590E00E94440468E572E080E0AE
:102D700090E00E94620500E010E061E975E085E9FD
:102D800091E00E94960588E992E00E94DC09E091BA
:102D90008A01F0918B01E930F10508F058C1ED523C
:102DA000F94E0C945C1B3D18DC164A17A717CE177A
:102DB000D31708180B183D188FE291E00E94F30911
:102DC00068EC70E080E090E00E94620560E084E0E2
:102DD0000E94C00461E085E00E94C00461ED75E0DE
:102DE00085E991E00E94540964EF71E080E090E091
:102DF0000E94620560E084E00E94C00460E085E01B
:102E00000E94C0046EEB75E085E991E00E945409D0
:102E100064EF71E080E090E00E94620560E085E090
:102E20000E94C00461E084E00E94C00469EA75E089
:102E300085E991E00E94540964EF71E080E090E040
:102E40000E94620561E084E00E94C00461E085E0C8
:102E50000E94C00466E975E085E991E00E9454098A
:102E600064EF71E080E090E00E94620581E491E00F
:102E70000E94F30985E991E00E94E706011511051A
:102E800009F47BCF0E946406882309F476CF0E9460
:102E9000000073CF88E591E00E94F30968EC70E0D0
:102EA00080E090E00E94620560E086E00E94C0043D
:102EB00061E087E00E94C00462E276E085E991E08B
:102EC0000E94540964EF71E080E090E00E94620586
:102ED00060E086E00E94C00460E087E00E94C004D9
:102EE0006EE076E085E991E00E94540964EF71E0BC
:102EF00080E090E00E94620560E087E00E94C004EC
:102F000061E086E00E94C00468EF75E085E991E029
:102F10000E94540964EF71E080E090E00E94620535
:102F200061E086E00E94C00461E087E00E94C00486
:102F300064EE75E085E991E00E94540964EF71E068
:102F400080E090E00E9462058BE691E091CF61E025
:102F50008DE00E94C00467E476E085E991E00E947C
:102F600054090E945B0F68EE73E080E090E00E94DD
:102F7000620566E376E085E991E00E94540985E9FF
:102F800091E00E94E70660E08DE00E94C00460E2EC
:102F900073E080E090E00E94620570CF81E090E0F5
:102FA0000E9468096BCF85E991E00E94E70661E025
:102FB0008DE00E94C00465E976E085E991E00E9419
:102FC00054090E94170862E876E085E991E00E94C2
:102FD000540960ED77E080E090E00E9462050E9475
:102FE00027086DE676E085E991E00E94540960EDDE
:102FF00077E080E090E00E9462056CE576E085E98C
:1030000091E00E94540960E08DE00E94C00436CF38
:103010008FE090E0C5CF8FE097E20E94F81990E032
:103020000E9444046BEB76E085E991E00E949605EE
:103030000E94D803BC01990F880B990B0E94D508F8
:103040006FEA76E085E991E00E94540917CF65EFB9
:1030500076E085E991E00E94960560918A01709181
:103060008B01072E000C880B990B0E94D50863ED8D
:1030700076E085E991E00E9454090E94CE0FFECED1
:1030800088E992E00C94160B8F929F92AF92BF92B8
:10309000CF92DF92EF92FF92CF93DF93EC016881A2
:1030A00079818A819B81611571058105910521F4E2
:1030B00064E279ED8BE597E02DE133EF41E050E0FC
:1030C0000E94301A49015A019B01AC01A7EAB1E400
:1030D0000E944F1A6B017C01ACEEB4EFA501940184
:1030E0000E945D1AC60ED71EE81EF91EF7FE06C026
:1030F00081E0C81AD108E10880E8F80AC882D982BC
:10310000EA82FB82C701B6019F77DF91CF91FF90E2
:10311000EF90DF90CF90BF90AF909F908F900895E9
:103120008F929F92AF92BF92CF92DF92EF92FF92D7
:103130006091000170910101809102019091030161
:10314000611571058105910521F464E279ED8BE546
:1031500097E02DE133EF41E050E00E94301A490141
:103160005A019B01AC01A7EAB1E40E944F1A6B011E
:103170007C01ACEEB4EFA50194010E945D1AC60E6D
:10318000D71EE81EF91EF7FE06C081E0C81AD10856
:10319000E10880E8F80AC0920001D0920101E092B3
:1031A0000201F0920301C701B6019F77FF90EF90F3
:1031B000DF90CF90BF90AF909F908F9008956093D5
:1031C000000170930101809302019093030108951F
:1031D0001F93FC0199278827BC01E89411911032B4
:1031E000E9F3193010F01E30C8F31B3251F01D32D4
:1031F00049F4689406C00E942819610F711D811D51
:10320000911D119110531A30B0F33EF490958095B2
:10321000709561957F4F8F4F9F4F1F91089591112A
:103220000C949419803219F089508550C8F708958C
:10323000FB01DC0105900D920020E1F70895FC01EF
:1032400005900020E9F7809590958E0F9F1F0895B7
:10325000592F482F372F262F660F771F881F991F4A
:10326000660F771F881F991F620F731F841F951F9A
:10327000660F771F881F991F0895BB27FB015527ED
:10328000AA27880F991FAA1FA41710F0A41B8395C3
:103290005051B9F7A05DAA3308F0A95DA19300973A
:1032A00079F7B111B1931192CB010C949719E8946D
:1032B00009C097FB3EF490958095709561957F4F7E
:1032C0008F4F9F4F9923A9F0F92F96E9BB2793952C
:1032D000F695879577956795B795F111F8CFFAF43C
:1032E000BB0F11F460FF1BC06F5F7F4F8F4F9F4F6D
:1032F00016C0882311F096E911C0772321F09EE8CB
:10330000872F762F05C0662371F096E8862F70E030
:1033100060E02AF09A95660F771F881FDAF7880F0A
:103320009695879597F90895992788270895DC0140
:10333000FC01672F71917723E1F7329704C07C91EC
:103340006D9370836291AE17BF07C8F3089597F924
:103350009F6780E870E060E008959FEF80EC08953B
:1033600000240A9416161706180609060895002464
:103370000A9412161306140605060895092E0394DE
:10338000000C11F4882352F0BB0F40F4BF2B11F452
:1033900060FF04C06F5F7F4F8F4F9F4F089557FDB1
:1033A0009058440F551F59F05F3F71F04795880FB3
:1033B00097FB991F61F09F3F79F08795089512164A
:1033C00013061406551FF2CF4695F1DF08C01616F6
:1033D00017061806991FF1CF8695710561050894A7
:1033E0000895E894BB2766277727CB0197F90895BE
:1033F000F999FECF92BD81BDF89A992780B50895BD
:10340000262FF999FECF1FBA92BD81BD20BD0FB600
:10341000F894FA9AF99A0FBE01960895A1E21A2E2D
:10342000AA1BBB1BFD010DC0AA1FBB1FEE1FFF1F68
:10343000A217B307E407F50720F0A21BB30BE40BB8
:10344000F50B661F771F881F991F1A9469F76095FF
:103450007095809590959B01AC01BD01CF010895B9
:10346000052E97FB1EF400940E94471A57FD07D0C3
:103470000E940E1A07FC03D04EF40C94471A509584
:103480004095309521953F4F4F4F5F4F0895909550
:103490008095709561957F4F8F4F9F4F08950E9443
:1034A000991AA59F900DB49F900DA49F800D911D1A
:1034B00011240895B7FF0C944F1A0E944F1A821BD3
:1034C000930B08952F923F924F925F926F927F924B
:1034D0008F929F92AF92BF92CF92DF92EF92FF9224
:1034E0000F931F93CF93DF93CDB7DEB7CA1BDB0BD0
:1034F0000FB6F894DEBF0FBECDBF09942A88398875
:1035000048885F846E847D848C849B84AA84B9847B
:10351000C884DF80EE80FD800C811B81AA81B98187
:10352000CE0FD11D0FB6F894DEBF0FBECDBFED019B
:103530000895A29FB001B39FC001A39F700D811D8C
:103540001124911DB29F700D811D1124911D0895AC
:103550000E94BC1A0C94BE190E94B71958F00E9420
:10356000B01940F029F45F3F29F00C94A7195111CC
:103570000C94F2190C94AD190E94CF1968F3992399
:10358000B1F3552391F3951B550BBB27AA2762175F
:103590007307840738F09F5F5F4F220F331F441F6C
:1035A000AA1FA9F335D00E2E3AF0E0E832D09150A0
:1035B0005040E695001CCAF72BD0FE2F29D0660F8D
:1035C000771F881FBB1F261737074807AB07B0E8D0
:1035D00009F0BB0B802DBF01FF2793585F4F3AF0D6
:1035E0009E3F510578F00C94A7190C94F2195F3F97
:1035F000E4F3983ED4F3869577956795B795F7955C
:103600009F5FC9F7880F911D9695879597F9089543
:10361000E1E0660F771F881FBB1F621773078407DF
:10362000BA0720F0621B730B840BBA0BEE1F88F7EE
:10363000E09508950E94211B6894B1110C94F21931
:1036400008950E94D71988F09F5798F0B92F9927AD
:10365000B751B0F0E1F0660F771F881F991F1AF07D
:10366000BA95C9F714C0B13091F00E94F119B1E0D8
:1036700008950C94F119672F782F8827B85F39F0D7
:10368000B93FCCF3869577956795B395D9F73EF416
:1036900090958095709561957F4F8F4F9F4F0895BE
:1036A000991B79E004C0991F961708F0961B881F94
:1036B0007A95C9F780950895EE0FFF1F0590F49154
:1036C000E02D0994DF93CF931F930F939A9DF02DD4
:1036D000219FF00D8B9DF00D8A9DE02DF10D039F34
:1036E000F00D029FE00DF11D4E9DE00DF11D5E9D60
:1036F000F00D4F9DF00D7F936F93BF92AF925F934C
:103700004F93D5010E94991A8B01AC01D7010E94F9
:10371000991AEB01E80FF91FD6010E94B11B2F91F6
:103720003F91D6010E94991AC60FD71FE81FF91FB3
:10373000AF91BF910E94B11B2F913F910E94991AA6
:10374000C60FD71FE81FF91FD6010E94991AE60F6E
:10375000F71F9801BE01CF010F911F91CF91DF910B
:1037600008950E94991A460F571FC81FD91F08F4C1
:10377000319608952A0D3B1D4C1D5D1D6E1D7F1D4C
:10378000801F911F08950F931F93CF93DF93823073
:10379000910510F482E090E0E091A002F091A10286
:1037A00030E020E0B0E0A0E0309799F42115310539
:1037B00009F44AC0281B390B24303105D8F58A8119
:1037C0009B816115710589F1FB0193838283FE0161
:1037D00011C0408151810281138148175907E0F0DF
:1037E0004817590799F4109761F012960C931297A5
:1037F00013961C933296CF01DF91CF911F910F91B9
:1038000008950093A0021093A102F4CF2115310571
:1038100051F04217530738F0A901DB019A01BD01AD
:10382000DF01F801C1CFEF01F9CF9093A10280939E
:10383000A002CDCFFE01E20FF31F8193919322509E
:10384000310939832883D7CF20919E0230919F027E
:10385000232B41F4209106013091070130939F0200
:1038600020939E022091040130910501211531051C
:1038700041F42DB73EB74091080150910901241B36
:10388000350BE0919E02F0919F02E217F307A0F43E
:103890002E1B3F0B2817390778F0AC014E5F5F4FA6
:1038A0002417350748F04E0F5F1F50939F02409337
:1038B0009E02819391939FCFF0E0E0E09CCFCF9365
:1038C000DF930097E9F0FC01329713821282A091F6
:1038D000A002B091A102ED0130E020E01097A1F428
:1038E00020813181820F931F20919E0230919F028F
:1038F0002817390709F061C0F0939F02E0939E02F8
:10390000DF91CF910895EA01CE17DF07E8F54A81EC
:103910005B819E0141155105B1F7E901FB83EA8303
:1039200049915991C40FD51FEC17FD0761F48081AF
:1039300091810296840F951FE90199838883828182
:1039400093819B838A83F0E0E0E012968D919C91B5
:1039500013970097B9F52D913C911197CD010296DF
:10396000820F931F20919E0230919F0228173907E2
:1039700039F6309751F51092A1021092A002B0933F
:103980009F02A0939E02BCCFD383C283408151810A
:10399000840F951FC817D90761F44E5F5F4F888168
:1039A0009981480F591F518340838A819B8193835A
:1039B00082832115310509F0B0CFF093A102E09385
:1039C000A0029ECFFD01DC01C0CF13821282D7CFAF
:1039D000B0E0A0E0EEEEFCE10C94641A8C010097DC
:1039E00051F4CB010E94C31B8C01C801CDB7DEB7D7
:1039F000E0E10C94801AFC01E60FF71F9C012250B5
:103A00003109E217F30708F49DC0D901CD91DC918B
:103A10001197C617D70798F0C530D10530F3CE01FE
:103A200004978617970708F3C61BD70B2297C193F5
:103A3000D1936D937C93CF010E945F1CD6CF5B0125
:103A4000AC1ABD0A4C018C0E9D1EA091A002B09133
:103A5000A102512C412CF12CE12C109731F58091D1
:103A60009E0290919F028815990509F05CC0461648
:103A7000570608F058C08091040190910501009705
:103A800041F48DB79EB74091080150910901841B04
:103A9000950BE817F90708F055C0F0939F02E093E3
:103AA0009E02F90171836083A0CF8D919C91119743
:103AB00012966C90129713967C901397A815B905DF
:103AC00059F56C0142E0C40ED11CCA14DB0420F18C
:103AD000AC014A195B09DA011296159780F06282EF
:103AE000738251834083D9016D937C93E114F10477
:103AF00071F0D7011396FC93EE93129776CF22962E
:103B00008C0F9D1FF90191838083F301EFCFF09318
:103B1000A102E093A00269CF4816590608F42C01CF
:103B20007D01D3019ACFCB010E94C31B7C0100977A
:103B300049F0AE01B8010E94B51DC8010E945F1C8A
:103B4000870153CF10E000E050CF911108958154C8
:103B50008A5108F4805E855A08959111089581561E
:103B60008A5108F4805285580895FB01DC0102C097
:103B700001900D9241505040D8F70895FB01DC01AF
:103B80008D91019080190110D9F3990B0895FB01D3
:103B9000DC0101900D920020E1F70895FB01DC01AA
:103BA0004150504048F001900D920020C9F701C0EB
:103BB0001D9241505040E0F7089513E0CDEAD3E064
:103BC00004C0FE010E945C1B2196CE3AD107C9F7C2
:043BD000F894FFCF97
:103BD400010000000000A2028000000000009A061C
:103BE400BA05E705E7065806F6054A060000000090
:103BF40016071307070795050D0A00790037004CCF
:103C0400656674204D6F746F7220436865636B2121
:103C1400004C656674204D6F746F72204368656351
:103C24006B20446F6E6521005269676874204D6F84
:103C3400746F7220436865636B210052696768740E
:103C4400204D6F746F7220436865636B20446F6E00
:043C540065210000E6
:00000001FF
