:100000000C9496020C94BE020C94BE020C94BE0298
:100010000C94BE020C94BE020C94BE020C94BE0260
:100020000C94BE020C94BE020C94BE020C942909DE
:100030000C94BE020C94BE020C94BE020C94BE0240
:100040000C9487080C94BE020C94F7080C94D10809
:100050000C94BE020C94BE020C94BE020C94BE0220
:100060000C94BE020C94BE02000000002300260087
:10007000290020636D2E0020646567726565287312
:100080002920706F736974696F6E00536572766FA3
:100090002061743A200020646567726565287329C1
:1000A00020706F736974696F6E00536572766F208C
:1000B00061743A20004D6F64652069732073657424
:1000C00020746F3A2030004D6F646520697320738F
:1000D000657420746F3A2030004D6F646520697339
:1000E0002073657420746F3A2030004D6F64652072
:1000F00069732073657420746F3A203700506C6503
:1001000061736520656E74657220616E20616E6733
:100110006C652076616C75652066726F6D2030208D
:10012000746F2031383020646567726565732E0006
:100130004D6F64652069732073657420746F3A2075
:1001400036004D6F64652069732073657420746F89
:100150003A2035004D6F6465206973207365742003
:10016000746F3A2034004D6F6465206973207365A5
:100170007420746F3A2033004D6F646520697320DA
:1001800073657420746F3A203200536574206D6F6C
:10019000646520627920747970696E6720612076C9
:1001A000616C7565206265747765656E20302061CD
:1001B0006E642039393A2D00446F20796F752077AD
:1001C000616E7420746F2073657475702074686537
:1001D000206D6F646520666F722074686973206497
:1001E00065766963653F202028792F6E2900526F5C
:1001F000626F726163657220416C706861204D7539
:10020000E284A220696E697469617465642E2E00AF
:10021000526F626F726163657220416C7068612019
:100220004D75E284A22069732073657420746F2079
:100230006D6F64653A2000526F626F726163657220
:1002400020416C706861204D75E284A220456E6487
:10025000696E67204265652044616E6365212E2EBC
:1002600000526F626F726163657220416C706861E9
:10027000204D75E284A2205374617274696E672008
:100280004265652044616E6365212E2E00526F62C7
:100290006F726163657220416C706861204D75E218
:1002A00084A22069732061626F757420746F206965
:1002B0006E6974696174652E2E00526F626F72618F
:1002C00063657220416C70686120616E6420526FBA
:1002D000626F726163657220416C706861204D7558
:1002E0002061726520207265676973746572656448
:1002F0002074726164656D61726B7320616E642F2E
:100300006F722074726164656D61726B73206F66C9
:1003100020494E4E4F424154452C204C4C432E20F8
:10032000696E2074686520556E6974656420537425
:10033000617465732C204E6577205A65616C616E1F
:100340006420616E64206F7468657220636F756EDF
:1003500074726965732E20416C6C206F74686572CD
:100360002074726164656D61726B7320616E6420CC
:1003700070726F64756374206E616D657320626561
:10038000207468652074726164656D61726B73209E
:100390006F66207468656972207265737065637436
:1003A000697665206F776E6572732E00436F707982
:1003B000726967687420C2A920323031332D32301F
:1003C000323320494E4E4F424154452C204C4C4331
:1003D0002E20416C6C20726967687473207265739B
:1003E00065727665642E004C656674204D6F746F7F
:1003F000722053746F70706564004C656674204D94
:100400006F746F72204261636B7761726473004C2A
:10041000656674204D6F746F722053746F707065D1
:1004200064004C656674204D6F746F7220466F7265
:1004300077617264005269676874204D6F746F72DF
:100440002053746F70706564005269676874204D42
:100450006F746F72204261636B77617264730052D4
:1004600069676874204D6F746F722053746F707079
:100470006564005269676874204D6F746F7220461E
:100480006F727761726400426F7468204D6F746F91
:1004900072204261636B776172647300426F7468AB
:1004A000204D6F746F7220466F7277617264002006
:1004B0006465677265652873292E00536F6E6172DB
:1004C00020536572766F207061726B656420617471
:1004D0003A200049443A2000000000002400270090
:1004E0002A0000000000250028002B00040404045A
:1004F00004040404020202020202030303030303CE
:1005000001020408102040800102040810200102AA
:100510000408102000000008000201000003040786
:1005200000000000000000002A0AC61011241FBEAF
:10053000CFEFD8E0DEBFCDBF12E0A0E0B1E0E0EE4B
:10054000FBE202C005900D92AC37B107D9F723E06A
:10055000ACE7B2E001C01D92A939B207E1F712E0A1
:10056000C5E9D2E004C02197FE010E94D213C4392C
:10057000D107C9F70E94DC0A0C94E3150C94000023
:100580008F929F92AF92BF92CF92DF92EF92FF92A3
:1005900080918E0358E5C52E52E0D52EC81AD10899
:1005A00087FDD394CC0CDD1CCC0CDD1C0D2C000C79
:1005B000EE08FF0880918D0378E8872E912C881A29
:1005C000910887FD9394880C991C880C991C092C20
:1005D000000CAA08BB0880918C038F3FD1F190E0FA
:1005E000FC01EE0FFF1FE80FF91FE959FC4F818155
:1005F000928133E0880F991F3A95E1F7B0E0A0E0CF
:1006000044E0B595A795979587954A95D1F70296B9
:100610009C012F5F3F4F032E000C440B550B2819F4
:1006200039094A095B09A4EBB0E00E94C512A70191
:100630009601281939094A095B090E94A612C901C5
:10064000FF90EF90DF90CF90BF90AF909F908F90F2
:10065000089590E080E0DCCFCF92DF92EF92FF929E
:10066000DC01A03282E0B807D4F5A53BB10514F057
:10067000A4EBB0E040918D0328E830E0241B310961
:1006800047FD3395220F331F220F331F6901330FAC
:10069000EE08FF0840918E0328E532E0241B310963
:1006A00047FD3395220F331F220F331F032E000CFB
:1006B000440B550B2C193D094E095F09B7FF02C0C9
:1006C000B0E0A0E00E94D01224EB30E040E050E027
:1006D0000E94A612C20ED31EE41EF51ED601E091A2
:1006E0008C03EC3080F520918D0388E890E0821B2C
:1006F000910927FD9395880F991F880F991FA817B7
:10070000B90784F020918E0388E592E0821B91095D
:1007100027FD9395880F991F880F991FA817B90770
:100720000CF4CD010297880F991F4FB7F8942E2F24
:1007300030E0F901EE0FFF1FE20FF31FE959FC4F04
:10074000928381834FBFFF90EF90DF90CF90089509
:1007500090E0FC01EC5EFA4F2491FC01E050FB4F6D
:100760003491FC01E451FB4FE491EE23C9F02223C4
:1007700039F0233001F1A8F4213019F1223029F1A8
:10078000F0E0EE0FFF1FEE51FB4FA591B4918FB734
:10079000F894EC91611126C030953E233C938FBFB5
:1007A00008952730A9F02830C9F0243049F7809106
:1007B00080008F7D03C0809180008F7780938000C0
:1007C000DFCF84B58F7784BDDBCF84B58F7DFBCF42
:1007D0008091B0008F778093B000D2CF8091B0002D
:1007E0008F7DF9CF3E2BDACFCF93DF9390E0FC01E2
:1007F000E050FB4F249184519B4FFC01849188234E
:10080000D1F090E0880F991FFC01E852FB4FA591B1
:10081000B491FC01EE51FB4FC591D49161110EC012
:100820009FB7F8948C91E22FE0958E238C932881CA
:10083000E223E8839FBFDF91CF9108958FB7F894AB
:10084000EC91E22BEC938FBFF6CF3FB7F8948091F9
:10085000840290918502A0918602B091870226B50C
:10086000A89B05C02F3F19F00196A11DB11D3FBFE8
:10087000BA2FA92F982F8827BC01CD01620F711DB7
:10088000811D911D42E0660F771F881F991F4A95B1
:10089000D1F708958F929F92AF92BF92CF92DF923D
:1008A000EF92FF926B017C010E9425044B015C01D9
:1008B000C114D104E104F104B9F00E9425046819BF
:1008C00079098A099B09683E73408105910580F387
:1008D00021E0C21AD108E108F10888EE880E83E011
:1008E000981EA11CB11CE4CFFF90EF90DF90CF9039
:1008F000BF90AF909F908F9008950895EF92FF92D0
:100900000F931F93CF93DF938C017B01D0E0C0E066
:10091000F701EC0FFD1F6491662361F0D801ED91A2
:10092000FC910190F081E02DC8010995892B11F00F
:100930002196EECFCE01DF91CF911F910F91FF90C5
:10094000EF900895AF92BF92CF92DF92EF92FF9215
:100950000F931F93CF93DF936C017B018B01040FE7
:10096000151FEB015E01AE18BF08C017D10759F083
:100970006991D601ED91FC910190F081E02DC601C5
:100980000995892B79F7C501DF91CF911F910F91BF
:10099000FF90EF90DF90CF90BF90AF900895FC0153
:1009A000538D448D252F30E0842F90E0821B930BD4
:1009B000541710F0CF96089501970895FC01918D7A
:1009C000828D981761F0A28DAE0FBF2FB11D5D967D
:1009D0008C91928D9F5F9F73928F90E008958FEF1F
:1009E0009FEF08952FB7F894809188029091890223
:1009F000A0918A02B0918B022FBF809394029093B2
:100A00009502A0939602B09397028CE892E00E9420
:100A1000DE0497FF26C02FB7F8948091880290914A
:100A20008902A0918A02B0918B022FBF409194025B
:100A3000509195026091960270919702841B950BDC
:100A4000A60BB70B409190025091910260919202D7
:100A50007091930284179507A607B707B0F28FEF3E
:100A60009FEF0895FC01918D828D981731F0828D52
:100A7000E80FF11D858D90E008958FEF9FEF0895A9
:100A8000FC01918D228D892F90E0805C9F4F821B0D
:100A900091098F73992708958CE892E00E94400590
:100AA00021E0892B09F420E0822F089580E090E076
:100AB000892B29F00E944C0581110C9400000895A7
:100AC000FC01A48DA80FB92FB11DA35ABF4F2C91C3
:100AD000848D90E001968F739927848FA689B789BA
:100AE0002C93A089B1898C91837080648C93938DB1
:100AF000848D981306C00288F389E02D80818F7D54
:100B000080830895EF92FF920F931F93CF93DF930B
:100B1000EC0181E0888F9B8D8C8D98131AC0E88939
:100B2000F989808185FF15C09FB7F894EE89FF8908
:100B30006083E889F98980818370806480839FBFA6
:100B400081E090E0DF91CF911F910F91FF90EF90A6
:100B50000895F62E0B8D10E00F5F1F4F0F731127B6
:100B6000E02E8C8D8E110CC00FB607FCFACFE889F1
:100B7000F989808185FFF5CFCE010E946005F1CF14
:100B8000EB8DEC0FFD2FF11DE35AFF4FF0829FB765
:100B9000F8940B8FEA89FB8980818062CFCFCF9355
:100BA000DF93EC01888D8823B9F0AA89BB89E88995
:100BB000F9898C9185FD03C0808186FD0DC00FB63B
:100BC00007FCF7CF8C9185FFF2CF808185FFEDCFB9
:100BD000CE010E946005E9CFDF91CF91089590E0AA
:100BE00080E0089508958AE593E00C94FB058AE57A
:100BF00093E00C94FE0590E080E0089590E080E0A2
:100C0000089560E086E00E94A80360E084E00E940E
:100C1000A80361E087E00E94A80361E085E00C94EE
:100C2000A80360E085E00E94A80360E087E00E94DE
:100C3000A80361E086E00E94A80361E084E00C94D0
:100C4000A80360E087E00E94A80360E086E00E94BD
:100C5000A80360E085E00E94A80360E084E00C94B3
:100C6000A803FB0101900020E9F73197AF01461B73
:100C7000570BDC01ED91FC910280F381E02D09948A
:100C80008F929F92AF92BF92EF92FF920F931F931A
:100C9000CF93DF93CDB7DEB7A1970FB6F894DEBF41
:100CA0000FBECDBF7C01FA01CB0119A2223008F49E
:100CB0002AE08E010F5D1F4F822E912CB12CA12CAA
:100CC000BF01A50194010E948412F901CA016A3092
:100CD0000CF5605DD8016E938D01232B242B252B01
:100CE00079F790E080E0109721F0BD01C7010E94E4
:100CF0003106A1960FB6F894DEBF0FBECDBFDF91CF
:100D0000CF911F910F91FF90EF90BF90AF909F9068
:100D10008F900895695CDECFCF92DF92EF92FF92C1
:100D2000CF93DF93AB01BC0177FF1DC06A017C014B
:100D30006DE28CE892E00E948205EC014427552781
:100D4000BA014C195D096E097F092AE08CE892E02E
:100D50000E9440068C0F9D1FDF91CF91FF90EF9076
:100D6000DF90CF9008952AE08CE892E0DF91CF9158
:100D7000FF90EF90DF90CF900C9440060F931F935D
:100D8000CF93DF93EC010E947E048C0168E271E056
:100D9000CE010E943106800F911FDF91CF911F91EC
:100DA0000F910895CF93DF93BC018CE892E00E94ED
:100DB0003106EC0168E271E08CE892E00E943106B5
:100DC0008C0F9D1FDF91CF9108950F931F93CF93A9
:100DD000DF938C018BE291E00E94D20661E08DE00E
:100DE0000E94A803D0E0C0E06AEA70E08CE892E0DC
:100DF0000E947E04BE010D2E000C880B990B0E94F0
:100E00008C0666E970E08CE892E00E94BE06CE0196
:100E10000E942C036FE070E080E090E00E944A04A2
:100E2000C00FD11FC53BD105FCF260E08DE00E94F0
:100E3000A80368EE73E080E090E00E944A0461E05D
:100E40008DE00E94A803C4EBD0E06BE870E08CE872
:100E500092E00E947E04BE010D2E000C880B990BBF
:100E60000E948C0667E770E08CE892E00E94BE0664
:100E7000CE010E942C036FE070E080E090E00E94C1
:100E80004A04C01BD10BD7FFE0CF60E08DE00E9489
:100E9000A80380E491E00E94D2068CE892E0DF9102
:100EA000CF911F910F910C94CF05682F80E197E2AD
:100EB0000C947612CF93DF93EC018881998100978F
:100EC00011F00E947414198218821D821C821B82E8
:100ED0001A82DF91CF910895FC0180819181009762
:100EE00011F00C9474140895FC0180819181009795
:100EF00011F00C946E1160E070E0CB010895FC01DC
:100F000024813581232B39F421E0FB018081882362
:100F100049F020E007C0808191810E94D31521E033
:100F2000892BB9F7822F08950F931F93CF93DF93E7
:100F3000EC0188819981009759F02A813B8126171D
:100F4000370730F081E0DF91CF911F910F91089525
:100F50008B016F5F7F4F0E94FD14009759F09983BA
:100F600088831B830A832C813D81232B59F7FC0145
:100F70001082E8CF80E0E7CFEF92FF920F931F93AC
:100F8000CF93DF93EC017B018A01BA010E949407A1
:100F900081110BC0CE010E945A07CE01DF91CF9183
:100FA0001F910F91FF90EF9008951D830C83B7015F
:100FB000888199810E94DC15F0CFEF92FF920F9308
:100FC0001F93CF93DF9300D0CDB7DEB78C01FC0128
:100FD00011821082138212821582148250E040E046
:100FE0006AE271E00E94BC070E94F20497FD1EC0F5
:100FF00089831A82F801E480F580FFEFEF1AFF0A77
:10100000B701C8010E949407882371F3F801208179
:10101000318184819581BE016F5F7F4F820F931F65
:101020000E94DC15F801F582E482DECFC8010F9042
:101030000F90DF91CF911F910F91FF90EF90089546
:10104000CF92DF92EF92FF920F931F9381E591E091
:101050000E94D20660E089E00E94A80383E090E04D
:101060000197F1F761E089E00E94A80383E290E034
:101070000197F1F7EAE0F5E06491E6EFF4E0E4913E
:10108000F0E0EE0FFF1FE859FF4F8591949100E4C7
:1010900012E42FE030E0462F0E94E509611571054A
:1010A0008105910529F06F5F7F4F8F4F9F4F9F7094
:1010B0000E94CF112DEC3CEC48E652E40E941E1336
:1010C0000E9490136B017C016AE070E080E090E088
:1010D0000E944A0480E691E00E94D20665E771E032
:1010E0008CE892E00E943106C701B6010E948C068E
:1010F00062E770E08CE892E00E94BE06C701B6018C
:101100001F910F91FF90EF90DF90CF9008951F9265
:101110000F920FB60F9211242F933F938F939F93AB
:10112000AF93BF938091880290918902A0918A0227
:10113000B0918B023091830223E0230F2D3758F5B5
:101140000196A11DB11D2093830280938802909384
:101150008902A0938A02B0938B02809184029091BD
:101160008502A0918602B09187020196A11DB11D52
:101170008093840290938502A0938602B0938702A5
:10118000BF91AF919F918F913F912F910F900FBE83
:101190000F901F90189526E8230F0296A11DB11DF0
:1011A000D2CF1F920F920FB60F9211242F933F931D
:1011B0004F935F936F937F938F939F93AF93BF935F
:1011C000EF93FF938CE892E00E946005FF91EF910E
:1011D000BF91AF919F918F917F916F915F914F914F
:1011E0003F912F910F900FBE0F901F9018951F9257
:1011F0000F920FB60F9211242F938F939F93EF931B
:10120000FF93E0919C02F0919D028081E091A20207
:10121000F091A30282FD1BC090818091A5028F5F97
:101220008F732091A602821741F0E091A502F0E0B1
:10123000E457FD4F958F8093A502FF91EF919F9109
:101240008F912F910F900FBE0F901F901895808156
:10125000F4CF1F920F920FB60F9211242F933F934A
:101260004F935F936F937F938F939F93AF93BF93AE
:10127000CF93DF93EF93FF9380917C02C0918B0318
:10128000D0E087FF24C010928500109284008091E6
:101290007C028F5F80937C0280917C02082E000C80
:1012A000990B8C179D0724F480917C028C30C4F13B
:1012B0008091840090918500049680349C4908F4C4
:1012C0007AC08091840090918500049676C08091C8
:1012D0007C02082E000C990B8C179D07C4F6E09138
:1012E0007C028E2FEE0F990BFC01EE0FFF1FE80F13
:1012F000F91FE959FC4F808186FFC9CFE0917C023C
:101300008E2FEE0F990BFC01EE0FFF1FE80FF91F58
:10131000E959FC4F808160E08F730E94A803B7CF2A
:101320002091840030918500E0917C028E2FEE0F99
:10133000990BFC01EE0FFF1FE80FF91FE959FC4F55
:1013400081819281820F931F9093890080938800FE
:10135000E0917C028E2FEE0F990BFC01EE0FFF1F28
:10136000E80FF91FE959FC4F808186FF11C0E09119
:101370007C028E2FEE0F990BFC01EE0FFF1FE80F82
:10138000F91FE959FC4F808161E08F730E94A80327
:10139000FF91EF91DF91CF91BF91AF919F918F918D
:1013A0007F916F915F914F913F912F910F900FBE61
:1013B0000F901F90189580E49CE99093890080938A
:1013C00088008FEF80937C02E3CFCF92DF92EF9281
:1013D000FF920F931F93E82FF92F05C001501109B9
:1013E0002109310961F1908196239417B9F305C061
:1013F000015011092109310911F1908196239413AB
:10140000F7CFC12CD12CE12CF12C0AC08FEFC81AD8
:10141000D80AE80AF80A0C151D052E053F0579F0D3
:1014200080818623841791F36C2D7D2D8E2D9F2D29
:101430001F910F91FF90EF90DF90CF90089560E0A3
:1014400070E080E090E01F910F91FF90EF90DF90AF
:10145000CF90089510928F0210928E0288EE93E042
:10146000A0E0B0E08093900290939102A09392024A
:10147000B09393028EE091E090938D0280938C0262
:1014800085EC90E0909399028093980284EC90E030
:1014900090939B0280939A0280EC90E090939D023F
:1014A00080939C0281EC90E090939F0280939E0237
:1014B00082EC90E09093A1028093A00286EC90E0F1
:1014C0009093A3028093A2021092A5021092A6020A
:1014D0001092A7021092A80288E893E1A0E0B0E081
:1014E00080934C0390934D03A0934E03B0934F030E
:1014F0001092580310925403109255031092560301
:10150000109257031092590310922B0310922A0342
:101510001092290310925D0310925C0380E291E027
:1015200090935B0380935A03AEE5B3E090E080E0D4
:1015300021E2E1E0F0E08630910510F4F0E0E0E037
:10154000AC01425F5F4FE40FF51F20935700E49119
:10155000ED9301968930910561F7109290031092F6
:101560008F031092920310929103109294031092A1
:10157000930350E040E06AE271E08FE893E00E945C
:10158000BC0780918B038C3098F491E0980F909376
:101590008B0380938C0390E0FC01EE0FFF1FE80F9C
:1015A000F91FE959FC4F88EB9BE0928381830895F2
:1015B0008FEF80938C030895CF93DF93CDB7DEB781
:1015C0002F970FB6F894DEBF0FBECDBF789484B5C9
:1015D000826084BD84B5816084BD85B5826085BD2F
:1015E00085B5816085BD80916E00816080936E00BD
:1015F00010928100809181008260809381008091AF
:10160000810081608093810080918000816080935F
:1016100080008091B10084608093B1008091B0001F
:1016200081608093B00080917A00846080937A001A
:1016300080917A00826080937A0080917A00816044
:1016400080937A0080917A00806880937A0010926B
:10165000C100E0919C02F0919D0282E08083E091C4
:101660009802F09199021082E0919A02F0919B0207
:101670008FEC80831092A402E091A002F091A1026D
:1016800086E08083E0919E02F0919F0280818061DC
:101690008083E0919E02F0919F0280818860808328
:1016A000E0919E02F0919F02808180688083E091AA
:1016B0009E02F0919F0280818F7D80836CEA73E0AF
:1016C0008CE892E00E94BE066AEB72E08CE892E041
:1016D0000E94BE0660E871E08CE892E00E9431064C
:1016E0001EE5A12E13E0B12E8501F80181918F0135
:1016F000803130F46BE871E08CE892E00E943106B2
:10170000F8013197408150E070E060E020E18CE822
:1017100092E00E94400669E871E08CE892E00E9445
:101720003106F3E007361F0701F768E271E08CE845
:1017300092E00E943106CE0101967C01F501819173
:101740005F011B861A861D861C861F861E8640E149
:10175000B70190E00E94B311F70101900020E9F772
:101760003197AF014E195F09B701CE010A960E9469
:10177000BC071A8219821C821B821E821D82609104
:101780008F03709190036115710539F040919303B7
:1017900050919403C7010E94BC078A849B848114E2
:1017A000910409F445C0CE84DF84C114D104A9F0AA
:1017B0008D819E81C80ED91EB601C7010E94940773
:1017C0008823B1F129813A818D819E81B401820FF4
:1017D000931F0E94DC15DE82CD8269817A816115BA
:1017E000710551F14D815E818FE893E00E94BC0745
:1017F000C7010E946C07CE010A960E946C070A1569
:101800001B0509F09BCF00918F03109190030115E8
:101810001105B9F0F80181918F01882391F0082E0C
:10182000000C990B0E94C215F80131978083F2CF0A
:10183000C7010E945A07D1CF8FE893E00E945A0750
:10184000D7CF61E084E00E94F40361E085E00E946C
:10185000F40361E086E00E94F40361E087E00E9407
:10186000F40361E089E00E94F40360E08AE00E94F2
:10187000F40380918C038C3008F051C061E088E063
:101880000E94F40380918C03282F30E0F901EE0FC1
:10189000FF1FE20FF31FE959FC4F9081907C986085
:1018A000908310928D0310928E032CE0622F0E9481
:1018B000C613829FB001112430E020E0AB01420F3B
:1018C000531FFA01EE0FFF1FE40FF51FE959FC4FFC
:1018D000908196FD16C02F5F3F4F2C30310571F778
:1018E00081110FC01092800082E0809381001092DD
:1018F000850010928400B19A80916F00826080937D
:101900006F00E0918C038E2F90E0FC01EE0FFF1F23
:10191000E80FF91FE959FC4F8081806480836DE8EE
:1019200072E08CE892E00E94BE068CE892E00E9491
:10193000CF0561E672E08CE892E00E94BE0661E0AD
:1019400087E00E94A8030E94161128EE822E23E051
:10195000922EA12CB12CA50194010E94A6126851CF
:101960007C4F8F4F9F4F0E944A0460E087E00E94A7
:10197000A80361E085E00E94A8030E941611A5015A
:1019800094010E94A61268517C4F8F4F9F4F0E9476
:101990004A0460E085E00E94A80367E372E08CE8F7
:1019A00092E00E94BE0680E197E20E946E12282F0C
:1019B00030E03093820220938102843638F0109216
:1019C00082021092810280E00E94550760E172E07D
:1019D0008CE892E00E947E04609181027091820204
:1019E000072E000C880B990B0E948C0668E271E0B0
:1019F0008CE892E00E9431066EEE71E08CE892E095
:101A00000E94BE068CE892E00E94CF0560E273E07F
:101A100080E090E00E944A0480E797E1A0E0B0E017
:101A20008093900290939102A0939202B0939302BC
:101A300068EB71E08CE892E00E94BE06CE010A9647
:101A40000E94DD07AA84BB84A114B10431F00E8585
:101A50001F85650101151105B1F40A851B85011566
:101A6000110509F446C0F80181918F01882309F41A
:101A700040C0082E000C990B0E94BA15F80131974E
:101A80008083F1CF64014601FFEF8F1A9F0AF601B0
:101A90008081082E000C990B0E949511892B91F7DB
:101AA000015011090A0D1B1DF8018081082E000C40
:101AB000990B0E949511892B31F00C151D0518F01A
:101AC00001501109F1CFA8014F5F5F4F4C195D091B
:101AD0005F874E87AC14BD0420F4B601C5010E9497
:101AE000CA15EA85FB858E859F85E80FF91F108250
:101AF000B4CF6DE871E0CE010A960E947F0788237B
:101B000009F423C16AE871E08CE892E00E94BE0605
:101B10008CE892E00E944005892BD1F3C7010E9416
:101B2000DD078A859B85009709F447C169817A8121
:101B30006115710509F43FC14C855D852D813E819C
:101B40004217530708F437C10E94DC158D819E812E
:101B50009F878E871E821D82C7010E946C076FE9D6
:101B600071E0CE010A960E947F07882361F081E030
:101B700090E090938202809381020E9455078FE843
:101B800091E00E94D20661EA71E0CE010A960E94BD
:101B90007F07882371F082E090E090938202809327
:101BA00081020E94550768E771E08CE892E00E948C
:101BB000BE0663EA71E0CE010A960E947F07882381
:101BC00071F083E090E090938202809381020E9402
:101BD000550766E671E08CE892E00E94BE0665EA71
:101BE00071E0CE010A960E947F07882371F084E09D
:101BF00090E090938202809381020E94550764E5F1
:101C000071E08CE892E00E94BE0667EA71E0CE01C6
:101C10000A960E947F07882371F085E090E09093F8
:101C20008202809381020E94550762E471E08CE891
:101C300092E00E94BE0669EA71E0CE010A960E9417
:101C40007F07882371F086E090E090938202809372
:101C500081020E94550760E371E08CE892E00E94E7
:101C6000BE066BEA71E0CE010A960E947F078823C8
:101C700061F16DEF70E08CE892E00E94BE068CE8A6
:101C800092E00E944005892BD1F3C7010E94DD0735
:101C9000C7010E9474074B010E94C0028816990672
:101CA00019F0C4010E942C0387E090E09093820217
:101CB000809381020E9455076BEE70E08CE892E001
:101CC0000E94BE06C7010E946C076BE871E0CE015E
:101CD0000A960E947F07882369F010928202109270
:101CE000810280E00E94550769ED70E08CE892E087
:101CF0000E94BE066AE271E0CE010A960E947F074A
:101D0000882369F0109282021092810280E00E9482
:101D1000550767EC70E08CE892E00E94BE06CE01A9
:101D20000A960E9474076B307105810591056CF06D
:101D3000109282021092810280E00E94550765EBAA
:101D400070E08CE892E00E94BE068CE892E00E946F
:101D5000CF05CE010A960E946C0700E010E063ED0B
:101D600074E08CE892E00E947E04409193035091CD
:101D7000940360918F03709190038CE892E00E942D
:101D8000A20468E271E08CE892E00E943106E091E2
:101D90008102F09182023197E730F10508F05AC1D3
:101DA000EC52F14F0C94D213EE0E510FAE0FDC0F2C
:101DB000E10F121015100E94741489819A819B877B
:101DC0008A878B819C819D878C878D819E819F874F
:101DD0008E871A8219821C821B82BCCE8DEA91E00A
:101DE0000E94D20668EC70E080E090E00E944A0415
:101DF00060E084E00E94A80361E085E00E94A803FF
:101E000062E274E08CE892E00E94BE0664EF71E04A
:101E100080E090E00E944A0460E084E00E94A80311
:101E200060E085E00E94A8036FE074E08CE892E037
:101E30000E94BE0664EF71E080E090E00E944A04D8
:101E400060E085E00E94A80361E084E00E94A803AE
:101E50006AEF73E08CE892E00E94BE0664EF71E0E6
:101E600080E090E00E944A0461E084E00E94A803C0
:101E700061E085E00E94A80367EE73E08CE892E0E1
:101E80000E94BE0664EF71E080E090E00E944A0488
:101E90008FEB91E00E94D2068CE892E00E94CF0581
:101EA0007FC086ED91E00E94D20668EC70E080E091
:101EB00090E00E944A0460E086E00E94A80361E08E
:101EC00087E00E94A80363E774E08CE892E00E9438
:101ED000BE0664EF71E080E090E00E944A0460E09A
:101EE00086E00E94A80360E087E00E94A8036FE5F7
:101EF00074E08CE892E00E94BE0664EF71E080E03E
:101F000090E00E944A0460E087E00E94A80361E03C
:101F100086E00E94A80369E474E08CE892E00E94E5
:101F2000BE0664EF71E080E090E00E944A0461E048
:101F300086E00E94A80361E087E00E94A80365E3B1
:101F400074E08CE892E00E94BE0664EF71E080E0ED
:101F500090E00E944A0489EE91E09CCF61E08DE020
:101F60000E94A80381E092E00E94D2060E9420080D
:101F700068EE73E080E090E00E944A0486E192E01F
:101F80000E94D2068CE892E00E94CF0560E08DE0CE
:101F90000E94A80360E273E080E090E00E944A049F
:101FA0000115110509F4DBCE0E944C05882309F4C4
:101FB000D6CE0E940000D3CE81E090E00E94E506DC
:101FC000EFCF8CE892E00E94CF0561E08DE00E94A7
:101FD000A80387E292E00E94D2060E9401066CE903
:101FE00074E08CE892E00E94BE0660ED77E080E04D
:101FF00090E00E944A040E94110667E874E08CE8B1
:1020000092E00E94BE0660ED77E080E090E00E94E2
:102010004A0480E491E00E94D20660E08DE00E94D4
:10202000A803BECF8FE090E0C9CF6BEB74E08CE8E3
:1020300092E00E947E040E94C002BC01990F880BAE
:10204000990B0E948C066FEA74E08CE892E00E9483
:10205000BE06A6CF61E08DE00E94A8030E94200882
:102060006B017C01C0927D02D0927E02E0927F02E1
:10207000F092800260E08DE00E94A803F4E1CF1AA4
:10208000D108E108F10821E9C21624E0D206E104F2
:10209000F10430F481E492E00E94D2060E9401062D
:1020A00080917D0290917E02A0917F02B09180028A
:1020B0000797A109B1090C97A105B10590F583E532
:1020C00092E00E94D2060E94210664EF71E080E057
:1020D00090E00E944A040E94110664EF71E080E0E3
:1020E00090E00E944A040E94210664E670E080E0CD
:1020F00090E00E944A0461E087E00E94A80360E04B
:1021000086E00E94A80360E084E00E94A80360E0EB
:1021100085E00E94A80364EF71E080E090E00E94F7
:102120004A0480917D0290917E02A0917F02B0913D
:1021300080020797A105B10570F489E692E00E943C
:10214000D2060E94210664E670E080E090E00E94E2
:102150004A040E94110680917D0290917E02A09116
:102160007F02B0918002853A9440A105B1050CF43C
:1021700093CE89E692E00E94D2060E94110664E6A0
:1021800070E080E090E00E944A0486CE8FE893E001
:102190000C946C078F929F92AF92BF92CF92DF9276
:1021A000EF92FF92CF93DF93EC01688179818A816E
:1021B0009B81611571058105910521F464E279ED3A
:1021C0008BE597E02DE133EF41E050E00E94A6124D
:1021D00049015A019B01AC01A7EAB1E40E94C51272
:1021E0006B017C01ACEEB4EFA50194010E94D31207
:1021F000C60ED71EE81EF91EF7FE06C081E0C81AFB
:10220000D108E10880E8F80AC882D982EA82FB8214
:10221000C701B6019F77DF91CF91FF90EF90DF90DC
:10222000CF90BF90AF909F908F9008958F929F9284
:10223000AF92BF92CF92DF92EF92FF926091000136
:102240007091010180910201909103016115710566
:102250008105910521F464E279ED8BE597E02DE1AC
:1022600033EF41E050E00E94A61249015A019B0160
:10227000AC01A7EAB1E40E94C5126B017C01ACEE8F
:10228000B4EFA50194010E94D312C60ED71EE81E1A
:10229000F91EF7FE06C081E0C81AD108E10880E8FF
:1022A000F80AC0920001D0920101E0920201F0927E
:1022B0000301C701B6019F77FF90EF90DF90CF90A9
:1022C000BF90AF909F908F9008956093000170939E
:1022D0000101809302019093030108951F93FC0173
:1022E00099278827BC01E89411911032E9F319303D
:1022F00010F01E30C8F31B3251F01D3249F46894BF
:1023000006C00E949E11610F711D811D911D1191CA
:1023100010531A30B0F33EF4909580957095619506
:102320007F4F8F4F9F4F1F91089591110C940A1268
:10233000803219F089508550C8F70895592F482FD9
:10234000372F262F660F771F881F991F660F771F5D
:10235000881F991F620F731F841F951F660F771FB9
:10236000881F991F0895BB27FB015527AA27880FAF
:10237000991FAA1FA41710F0A41B83955051B9F7F9
:10238000A05DAA3308F0A95DA193009779F7B11178
:10239000B1931192CB010C940D12E89409C097FBF4
:1023A0003EF490958095709561957F4F8F4F9F4F2C
:1023B0009923A9F0F92F96E9BB279395F695879570
:1023C00077956795B795F111F8CFFAF4BB0F11F433
:1023D00060FF1BC06F5F7F4F8F4F9F4F16C08823DA
:1023E00011F096E911C0772321F09EE8872F762F10
:1023F00005C0662371F096E8862F70E060E02AF051
:102400009A95660F771F881FDAF7880F969587953C
:1024100097F90895992788270895DC01FC01672F13
:1024200071917723E1F7329704C07C916D937083AB
:102430006291AE17BF07C8F3089597F99F6780E8C8
:1024400070E060E008959FEF80EC089500240A9406
:102450001616170618060906089500240A9412167F
:102460001306140605060895092E0394000C11F4B2
:10247000882352F0BB0F40F4BF2B11F460FF04C05F
:102480006F5F7F4F8F4F9F4F089557FD9058440FB8
:10249000551F59F05F3F71F04795880F97FB991FC3
:1024A00061F09F3F79F08795089512161306140680
:1024B000551FF2CF4695F1DF08C01616170618060D
:1024C000991FF1CF86957105610508940895E894E8
:1024D000BB2766277727CB0197F90895F999FECF97
:1024E00092BD81BDF89A992780B50895262FF99954
:1024F000FECF1FBA92BD81BD20BD0FB6F894FA9AE7
:10250000F99A0FBE01960895A1E21A2EAA1BBB1BD1
:10251000FD010DC0AA1FBB1FEE1FFF1FA217B307AF
:10252000E407F50720F0A21BB30BE40BF50B661FC5
:10253000771F881F991F1A9469F760957095809589
:1025400090959B01AC01BD01CF010895052E97FB2D
:102550001EF400940E94BD1257FD07D00E94841201
:1025600007FC03D04EF40C94BD1250954095309565
:1025700021953F4F4F4F5F4F0895909580957095EF
:1025800061957F4F8F4F9F4F08950E940F13A59F16
:10259000900DB49F900DA49F800D911D112408955E
:1025A000B7FF0C94C5120E94C512821B930B0895AD
:1025B0002F923F924F925F926F927F928F929F9253
:1025C000AF92BF92CF92DF92EF92FF920F931F9341
:1025D000CF93DF93CDB7DEB7CA1BDB0B0FB6F894F2
:1025E000DEBF0FBECDBF09942A88398848885F8432
:1025F0006E847D848C849B84AA84B984C884DF80A3
:10260000EE80FD800C811B81AA81B981CE0FD11D86
:102610000FB6F894DEBF0FBECDBFED010895A29FA7
:10262000B001B39FC001A39F700D811D1124911DA6
:10263000B29F700D811D1124911D08950E943213C7
:102640000C9434120E942D1258F00E94261240F071
:1026500029F45F3F29F00C941D1251110C9468125B
:102660000C9423120E94451268F39923B1F3552369
:1026700091F3951B550BBB27AA2762177307840795
:1026800038F09F5F5F4F220F331F441FAA1FA9F32B
:1026900035D00E2E3AF0E0E832D091505040E69519
:1026A000001CCAF72BD0FE2F29D0660F771F881F7A
:1026B000BB1F261737074807AB07B0E809F0BB0B6D
:1026C000802DBF01FF2793585F4F3AF09E3F510581
:1026D00078F00C941D120C9468125F3FE4F3983E5E
:1026E000D4F3869577956795B795F7959F5FC9F76A
:1026F000880F911D9695879597F90895E1E0660FEB
:10270000771F881FBB1F621773078407BA0720F063
:10271000621B730B840BBA0BEE1F88F7E0950895CC
:102720000E9497136894B1110C94681208950E9446
:102730004D1288F09F5798F0B92F9927B751B0F0F4
:10274000E1F0660F771F881F991F1AF0BA95C9F735
:1027500014C0B13091F00E946712B1E008950C945A
:102760006712672F782F8827B85F39F0B93FCCF30D
:10277000869577956795B395D9F73EF490958095B2
:10278000709561957F4F8F4F9F4F0895991B79E00A
:1027900004C0991F961708F0961B881F7A95C9F7F1
:1027A00080950895EE0FFF1F0590F491E02D099498
:1027B0000F931F93CF93DF938230910510F482E043
:1027C00090E0E0919703F091980330E020E0B0E0D2
:1027D000A0E0309799F42115310509F44AC0281B6F
:1027E000390B24303105D8F58A819B81611571053B
:1027F00089F1FB0193838283FE0111C040815181E5
:102800000281138148175907E0F04817590799F4D6
:10281000109761F012960C93129713961C933296B0
:10282000CF01DF91CF911F910F91089500939703EE
:1028300010939803F4CF2115310551F04217530737
:1028400038F0A901DB019A01BD01DF01F801C1CF18
:10285000EF01F9CF9093980380939703CDCFFE01BA
:10286000E20FF31F8193919322503109398328831A
:10287000D7CF2091950330919603232B41F42091DB
:102880000601309107013093960320939503209120
:102890000401309105012115310541F42DB73EB7F2
:1028A0004091080150910901241B350BE0919503DB
:1028B000F0919603E217F307A0F42E1B3F0B2817A5
:1028C000390778F0AC014E5F5F4F2417350748F0A9
:1028D0004E0F5F1F509396034093950381939193FE
:1028E0009FCFF0E0E0E09CCFCF93DF930097E9F03B
:1028F000FC01329713821282A0919703B091980342
:10290000ED0130E020E01097A1F420813181820FA9
:10291000931F20919503309196032817390709F0EA
:1029200061C0F0939603E0939503DF91CF910895F2
:10293000EA01CE17DF07E8F54A815B819E01411568
:102940005105B1F7E901FB83EA8349915991C40F1D
:10295000D51FEC17FD0761F4808191810296840FE9
:10296000951FE90199838883828193819B838A8360
:10297000F0E0E0E012968D919C9113970097B9F5E5
:102980002D913C911197CD010296820F931F2091BA
:102990009503309196032817390739F6309751F58A
:1029A0001092980310929703B0939603A093950307
:1029B000BCCFD383C28340815181840F951FC81738
:1029C000D90761F44E5F5F4F88819981480F591F85
:1029D000518340838A819B819383828321153105B2
:1029E00009F0B0CFF0939803E09397039ECFFD01D9
:1029F000DC01C0CF13821282D7CFB0E0A0E0E3E0C9
:102A0000F5E10C94DA128C01009751F4CB010E948D
:102A1000D8138C01C801CDB7DEB7E0E10C94F612F3
:102A2000FC01E60FF71F9C0122503109E217F30762
:102A300008F49DC0D901CD91DC911197C617D70735
:102A400098F0C530D10530F3CE010497861797076B
:102A500008F3C61BD70B2297C193D1936D937C9338
:102A6000CF010E947414D6CF5B01AC1ABD0A4C0191
:102A70008C0E9D1EA0919703B0919803512C412C70
:102A8000F12CE12C109731F58091950390919603EC
:102A90008815990509F05CC04616570608F058C01D
:102AA0008091040190910501009741F48DB79EB784
:102AB0004091080150910901841B950BE817F90713
:102AC00008F055C0F0939603E0939503F9017183E4
:102AD0006083A0CF8D919C91119712966C90129764
:102AE00013967C901397A815B90559F56C0142E02F
:102AF000C40ED11CCA14DB0420F1AC014A195B09D5
:102B0000DA011296159780F06282738251834083B6
:102B1000D9016D937C93E114F10471F0D701139600
:102B2000FC93EE93129776CF22968C0F9D1FF9019E
:102B300091838083F301EFCFF0939803E0939703A1
:102B400069CF4816590608F42C017D01D3019ACFAC
:102B5000CB010E94D8137C01009749F0AE01B80167
:102B60000E94CA15C8010E947414870153CF10E057
:102B700000E050CF9111089581548A5108F4805E8D
:102B8000855A08959111089581568A5108F480520A
:102B900085580895FB01DC0102C001900D9241505F
:102BA0005040D8F70895FB01DC018D910190801908
:102BB0000110D9F3990B0895FB01DC0101900D92EE
:102BC0000020E1F7089512E0C5E9D2E004C0FE015B
:102BD0000E94D2132196C639D107C9F7F894FFCFC6
:102BE0000100000000009903800000000000820541
:102BF000A204CF04CF054005DE043205000000002A
:102C0000FE05FB05EF057D040D0A00537461727427
:102C1000696E6720536572766F2054657374210066
:102C2000536572766F205465737420446F6E65210E
:102C30000053656E64696E6720506C757365210082
:102C4000506C757365204563686F207265636965B4
:102C5000766564210044697374616E63653A20008F
:102C6000556E6971756549443A2000300079004D10
:102C70006F64652069732073657420746F3A203126
:102C8000003200330034003500360037004C6566F2
:102C900074204D6F746F7220436865636B21004C24
:102CA000656674204D6F746F7220436865636B2096
:102CB000446F6E6521005269676874204D6F746FB0
:102CC0007220436865636B21005269676874204D08
:102CD0006F746F7220436865636B20446F6E65216B
:102CE000005374617274696E6720536F6E61722055
:102CF000546573742100536F6E6172205465737450
:102D000020446F6E6521005374617274696E672090
:102D1000426F7468204D6F746F7220546573742114
:102D2000004D6F76696E6720666F72776172642EF0
:102D30002E2E004F62737461636C652041766F695B
:102D400064616E63652E2E2E004D6F76696E67206E
:0C2D50004261636B776172642E2E2E00CE
:00000001FF
