:100000000C9430020C9458020C9458020C94580230
:100010000C9458020C9458020C9458020C945802F8
:100020000C9458020C9458020C9458020C94C30877
:100030000C9458020C9458020C9458020C945802D8
:100040000C9421080C9458020C9491080C946B08A1
:100050000C9458020C9458020C9458020C945802B8
:100060000C9458020C945802000000002300260053
:10007000290020636D2E0020646567726565287312
:100080002920706F736974696F6E00536572766FA3
:100090002061743A200020646567726565287329C1
:1000A00020706F736974696F6E00536572766F208C
:1000B00061743A20004D6F64652069732073657424
:1000C00020746F3A2030004D6F646520697320738F
:1000D000657420746F3A2030004D6F646520697339
:1000E0002073657420746F3A2030004D6F64652072
:1000F00069732073657420746F3A203700506C6503
:1001000061736520656E74657220616E20616E6733
:100110006C652076616C75652066726F6D2030208D
:10012000746F2031383020646567726565732E0006
:100130004D6F64652069732073657420746F3A2075
:1001400036004D6F64652069732073657420746F89
:100150003A2035004D6F6465206973207365742003
:10016000746F3A2034004D6F6465206973207365A5
:100170007420746F3A2033004D6F646520697320DA
:1001800073657420746F3A203200536574206D6F6C
:10019000646520627920747970696E6720612076C9
:1001A000616C7565206265747765656E20302061CD
:1001B0006E642039393A2D00446F20796F752077AD
:1001C000616E7420746F2073657475702074686537
:1001D000206D6F646520666F722074686973206497
:1001E00065766963653F202028792F6E2900526F5C
:1001F000626F726163657220416C70686120616E2C
:100200006420526F626F726163657220416C706826
:1002100061204D7520617265202072656769737475
:10022000657265642074726164656D61726B7320C0
:10023000616E642F6F722074726164656D61726BA0
:1002400073206F6620494E4E4F424154452C204C3E
:100250004C432E20696E2074686520556E69746564
:1002600064205374617465732C204E6577205A6541
:10027000616C616E6420616E64206F7468657220C9
:10028000636F756E74726965732E20416C6C206F9C
:10029000746865722074726164656D61726B73203D
:1002A000616E642070726F64756374206E616D6539
:1002B00073206265207468652074726164656D6185
:1002C000726B73206F662074686569722072657343
:1002D00070656374697665206F776E6572732E0042
:1002E000436F7079726967687420C2A92032303117
:1002F000332D3230323320494E4E4F424154452C3B
:10030000204C4C432E20416C6C20726967687473DA
:100310002072657365727665642E004C6566742084
:100320004D6F746F722053746F70706564004C650C
:100330006674204D6F746F72204261636B776172D7
:100340006473004C656674204D6F746F7220537433
:100350006F70706564004C656674204D6F746F72C9
:1003600020466F7277617264005269676874204D2D
:100370006F746F722053746F707065640052696798
:100380006874204D6F746F72204261636B77617285
:100390006473005269676874204D6F746F722053E4
:1003A000746F70706564005269676874204D6F7473
:1003B0006F7220466F727761726400426F746820BA
:1003C0004D6F746F72204261636B7761726473006A
:1003D000426F7468204D6F746F7220466F72776140
:1003E000726400206465677265652873292E005366
:1003F0006F6E617220536572766F207061726B65EB
:10040000642061743A200049443A20000000000052
:10041000240027002A0000000000250028002B00EF
:10042000040404040404040402020202020203039A
:1004300003030303010204081020408001020408A2
:100440001020010204081020000000080002010032
:10045000000304070000000000000000C409581059
:1004600011241FBECFEFD8E0DEBFCDBF13E0A0E068
:10047000B1E0E4E0FBE202C005900D92A834B107C0
:10048000D9F724E0A8E4B3E001C01D92A536B20775
:10049000E1F712E0CFE2D2E004C02197FE010E9412
:1004A0006413CE32D107C9F70E94760A0C947515F1
:1004B0000C9400008F929F92AF92BF92CF92DF92E6
:1004C000EF92FF9280915A0458E5C52E52E0D52E46
:1004D000C81AD10887FDD394CC0CDD1CCC0CDD1CD4
:1004E0000D2C000CEE08FF088091590478E8872E47
:1004F000912C881A910887FD9394880C991C880C7C
:10050000991C092C000CAA08BB08809158048F3F45
:10051000D1F190E0FC01EE0FFF1FE80FF91FED5C39
:10052000FB4F8181928133E0880F991F3A95E1F763
:10053000B0E0A0E044E0B595A795979587954A95DA
:10054000D1F702969C012F5F3F4F032E000C440B06
:10055000550B281939094A095B09A4EBB0E00E9440
:100560005712A7019601281939094A095B090E9407
:100570003812C901FF90EF90DF90CF90BF90AF90FD
:100580009F908F90089590E080E0DCCFCF92DF9233
:10059000EF92FF92DC01A03282E0B807D4F5A53BD0
:1005A000B10514F0A4EBB0E04091590428E830E024
:1005B000241B310947FD3395220F331F220F331FB0
:1005C0006901330FEE08FF0840915A0428E532E034
:1005D000241B310947FD3395220F331F220F331F90
:1005E000032E000C440B550B2C193D094E095F09D5
:1005F000B7FF02C0B0E0A0E00E94621224EB30E03E
:1006000040E050E00E943812C20ED31EE41EF51ED8
:10061000D601E0915804EC3080F52091590488E827
:1006200090E0821B910927FD9395880F991F880FF1
:10063000991FA817B90784F020915A0488E592E021
:10064000821B910927FD9395880F991F880F991F89
:10065000A817B9070CF4CD010297880F991F4FB75F
:10066000F8942E2F30E0F901EE0FFF1FE20FF31F79
:10067000ED5CFB4F928381834FBFFF90EF90DF9043
:10068000CF90089590E0FC01E85BFB4F2491FC01C2
:10069000EC5CFB4F3491FC01E05EFB4FE491EE23F8
:1006A000C9F0222339F0233001F1A8F4213019F1E7
:1006B000223029F1F0E0EE0FFF1FEA5EFB4FA5911B
:1006C000B4918FB7F894EC91611126C030953E2318
:1006D0003C938FBF08952730A9F02830C9F024300B
:1006E00049F7809180008F7D03C0809180008F77D3
:1006F00080938000DFCF84B58F7784BDDBCF84B556
:100700008F7DFBCF8091B0008F778093B000D2CFE8
:100710008091B0008F7DF9CF3E2BDACFCF93DF935E
:1007200090E0FC01EC5CFB4F2491805E9B4FFC0150
:1007300084918823D1F090E0880F991FFC01E45F39
:10074000FB4FA591B491FC01EA5EFB4FC591D4919A
:1007500061110EC09FB7F8948C91E22FE0958E2323
:100760008C932881E223E8839FBFDF91CF91089586
:100770008FB7F894EC91E22BEC938FBFF6CF3FB795
:10078000F8948091500390915103A0915203B0913D
:10079000530326B5A89B05C02F3F19F00196A11D54
:1007A000B11D3FBFBA2FA92F982F8827BC01CD01BB
:1007B000620F711D811D911D42E0660F771F881F1A
:1007C000991F4A95D1F708958F929F92AF92BF9249
:1007D000CF92DF92EF92FF926B017C010E94BF03E8
:1007E0004B015C01C114D104E104F104B9F00E9491
:1007F000BF03681979098A099B09683E734081051E
:10080000910580F321E0C21AD108E108F10888EED1
:10081000880E83E0981EA11CB11CE4CFFF90EF90DE
:10082000DF90CF90BF90AF909F908F9008950895E4
:10083000EF92FF920F931F93CF93DF938C017B0175
:10084000D0E0C0E0F701EC0FFD1F6491662361F07A
:10085000D801ED91FC910190F081E02DC80109953E
:10086000892B11F02196EECFCE01DF91CF911F9110
:100870000F91FF90EF900895AF92BF92CF92DF92C9
:10088000EF92FF920F931F93CF93DF936C017B0145
:100890008B01040F151FEB015E01AE18BF08C017D6
:1008A000D10759F06991D601ED91FC910190F08149
:1008B000E02DC6010995892B79F7C501DF91CF910C
:1008C0001F910F91FF90EF90DF90CF90BF90AF906E
:1008D0000895FC01538D448D252F30E0842F90E046
:1008E000821B930B541710F0CF960895019708952B
:1008F000FC01918D828D981761F0A28DAE0FBF2FF4
:10090000B11D5D968C91928D9F5F9F73928F90E049
:1009100008958FEF9FEF08952FB7F89480915403B7
:1009200090915503A0915603B09157032FBF809328
:10093000600390936103A0936203B093630388E51F
:1009400093E00E94780497FF26C02FB7F894809117
:10095000540390915503A0915603B09157032FBFB4
:100960004091600350916103609162037091630351
:10097000841B950BA60BB70B40915C0350915D0354
:1009800060915E0370915F0384179507A607B70710
:10099000B0F28FEF9FEF0895FC01918D828D981733
:1009A00031F0828DE80FF11D858D90E008958FEF75
:1009B0009FEF0895FC01918D228D892F90E0805C3E
:1009C0009F4F821B91098F739927089588E593E0C3
:1009D0000E94DA0421E0892B09F420E0822F089597
:1009E00080E090E0892B29F00E94E60481110C94AC
:1009F00000000895FC01A48DA80FB92FB11DA35AC2
:100A0000BF4F2C91848D90E001968F739927848F2E
:100A1000A689B7892C93A089B1898C918370806451
:100A20008C93938D848D981306C00288F389E02DF2
:100A300080818F7D80830895EF92FF920F931F93A3
:100A4000CF93DF93EC0181E0888F9B8D8C8D981381
:100A50001AC0E889F989808185FF15C09FB7F8948D
:100A6000EE89FF896083E889F989808183708064D9
:100A700080839FBF81E090E0DF91CF911F910F9124
:100A8000FF90EF900895F62E0B8D10E00F5F1F4F33
:100A90000F731127E02E8C8D8E110CC00FB607FC42
:100AA000FACFE889F989808185FFF5CFCE010E94D0
:100AB000FA04F1CFEB8DEC0FFD2FF11DE35AFF4F40
:100AC000F0829FB7F8940B8FEA89FB89808180625E
:100AD000CFCFCF93DF93EC01888D8823B9F0AA891B
:100AE000BB89E889F9898C9185FD03C0808186FDE9
:100AF0000DC00FB607FCF7CF8C9185FFF2CF808138
:100B000085FFEDCFCE010E94FA04E9CFDF91CF91AE
:100B1000089590E080E00895089586E294E00C94B2
:100B2000950586E294E00C94980590E080E00895A5
:100B300090E080E0089560E086E00E94420360E07B
:100B400084E00E94420361E087E00E94420361E08A
:100B500085E00C94420360E085E00E94420360E07F
:100B600087E00E94420361E086E00E94420361E068
:100B700084E00C94420360E087E00E94420360E05E
:100B800086E00E94420360E085E00E94420360E04C
:100B900084E00C944203FB0101900020E9F73197B7
:100BA000AF01461B570BDC01ED91FC910280F381F4
:100BB000E02D09948F929F92AF92BF92EF92FF9295
:100BC0000F931F93CF93DF93CDB7DEB7A1970FB6E7
:100BD000F894DEBF0FBECDBF7C01FA01CB0119A294
:100BE000223008F42AE08E010F5D1F4F822E912CD7
:100BF000B12CA12CBF01A50194010E941612F9018C
:100C0000CA016A300CF5605DD8016E938D01232B0B
:100C1000242B252B79F790E080E0109721F0BD017F
:100C2000C7010E94CB05A1960FB6F894DEBF0FBE98
:100C3000CDBFDF91CF911F910F91FF90EF90BF90AB
:100C4000AF909F908F900895695CDECFCF92DF9236
:100C5000EF92FF92CF93DF93AB01BC0177FF1DC0F2
:100C60006A017C016DE288E593E00E941C05EC01BD
:100C700044275527BA014C195D096E097F092AE0FE
:100C800088E593E00E94DA058C0F9D1FDF91CF91DC
:100C9000FF90EF90DF90CF9008952AE088E593E0F1
:100CA000DF91CF91FF90EF90DF90CF900C94DA0519
:100CB0000F931F93CF93DF93EC010E9418048C01D4
:100CC00068E271E0CE010E94CB05800F911FDF9199
:100CD000CF911F910F910895CF93DF93BC0188E5C9
:100CE00093E00E94CB05EC0168E271E088E593E0B7
:100CF0000E94CB058C0F9D1FDF91CF9108950F931C
:100D00001F93CF93DF938C018BE291E00E946C06DE
:100D100061E08DE00E944203D0E0C0E06AEA70E04A
:100D200088E593E00E941804BE010D2E000C880B8C
:100D3000990B0E94260666E970E088E593E00E9420
:100D40005806CE010E94C6026FE070E080E090E09D
:100D50000E94E403C00FD11FC53BD105FCF260E047
:100D60008DE00E94420368EE73E080E090E00E9414
:100D7000E40361E08DE00E944203C4EBD0E06BE845
:100D800070E088E593E00E941804BE010D2E000C6F
:100D9000880B990B0E94260667E770E088E593E0D0
:100DA0000E945806CE010E94C6026FE070E080E00B
:100DB00090E00E94E403C01BD10BD7FFE0CF60E0BE
:100DC0008DE00E94420380E491E00E946C0688E579
:100DD00093E0DF91CF911F910F910C946905682FDB
:100DE00080E197E20C940812CF93DF93EC018881A5
:100DF0009981009711F00E940614198218821D82B1
:100E00001C821B821A82DF91CF910895FC018081A0
:100E10009181009711F00C9406140895FC018081D3
:100E20009181009711F00C94001160E070E0CB010B
:100E30000895FC0124813581232B39F421E0FB0145
:100E40008081882349F020E007C0808191810E9441
:100E5000651521E0892BB9F7822F08950F931F9311
:100E6000CF93DF93EC0188819981009759F02A8113
:100E70003B812617370730F081E0DF91CF911F913A
:100E80000F9108958B016F5F7F4F0E948F14009721
:100E900059F0998388831B830A832C813D81232BFE
:100EA00059F7FC011082E8CF80E0E7CFEF92FF9284
:100EB0000F931F93CF93DF93EC017B018A01BA015B
:100EC0000E942E0781110BC0CE010E94F406CE01B4
:100ED000DF91CF911F910F91FF90EF9008951D83A7
:100EE0000C83B701888199810E946E15F0CFEF9233
:100EF000FF920F931F93CF93DF9300D0CDB7DEB750
:100F00008C01FC01118210821382128215821482DC
:100F100050E040E06AE271E00E9456070E948C04B3
:100F200097FD1EC089831A82F801E480F580FFEFE7
:100F3000EF1AFF0AB701C8010E942E07882371F338
:100F4000F8012081318184819581BE016F5F7F4FDF
:100F5000820F931F0E946E15F801F582E482DECFA6
:100F6000C8010F900F90DF91CF911F910F91FF90CB
:100F7000EF900895CF92DF92EF92FF920F931F931D
:100F800081E591E00E946C0660E089E00E944203E6
:100F900083E090E00197F1F761E089E00E9442036D
:100FA00083E290E00197F1F7EEE3F4E06491EAE286
:100FB000F4E0E491F0E0EE0FFF1FE859FF4F859158
:100FC000949100E412E42FE030E0462F0E947F0964
:100FD000611571058105910529F06F5F7F4F8F4F76
:100FE0009F4F9F700E9461112DEC3CEC48E652E44B
:100FF0000E94B0120E9422136B017C016AE070E033
:1010000080E090E00E94E40380E691E00E946C069C
:1010100065E771E088E593E00E94CB05C701B60162
:101020000E94260662E770E088E593E00E94580679
:10103000C701B6011F910F91FF90EF90DF90CF9005
:1010400008951F920F920FB60F9211242F933F9382
:101050008F939F93AF93BF938091540390915503C7
:10106000A0915603B091570330914F0323E0230F13
:101070002D3758F50196A11DB11D20934F03809384
:10108000540390935503A0935603B0935703809154
:10109000500390915103A0915203B09153030196D4
:1010A000A11DB11D8093500390935103A09352034F
:1010B000B0935303BF91AF919F918F913F912F9127
:1010C0000F900FBE0F901F90189526E8230F0296E1
:1010D000A11DB11DD2CF1F920F920FB60F921124F6
:1010E0002F933F934F935F936F937F938F939F9330
:1010F000AF93BF93EF93FF9388E593E00E94FA04C8
:10110000FF91EF91BF91AF919F918F917F916F91DF
:101110005F914F913F912F910F900FBE0F901F90B5
:1011200018951F920F920FB60F9211242F938F9341
:101130009F93EF93FF93E0916803F091690380819F
:10114000E0916E03F0916F0382FD1BC0908180914E
:1011500071038F5F8F7320917203821741F0E091CA
:101160007103F0E0E85AFC4F958F80937103FF9173
:10117000EF919F918F912F910F900FBE0F901F9025
:1011800018958081F4CF1F920F920FB60F92112401
:101190002F933F934F935F936F937F938F939F937F
:1011A000AF93BF93CF93DF93EF93FF938091480367
:1011B000C0915704D0E087FF24C0109285001092A0
:1011C0008400809148038F5F809348038091480397
:1011D000082E000C990B8C179D0724F4809148036E
:1011E0008C30C4F180918400909185000496803405
:1011F0009C4908F47AC080918400909185000496FF
:1012000076C080914803082E000C990B8C179D071F
:10121000C4F6E09148038E2FEE0F990BFC01EE0F00
:10122000FF1FE80FF91FED5CFB4F808186FFC9CFE0
:10123000E09148038E2FEE0F990BFC01EE0FFF1F7C
:10124000E80FF91FED5CFB4F808160E08F730E9417
:101250004203B7CF2091840030918500E09148038C
:101260008E2FEE0F990BFC01EE0FFF1FE80FF91FF9
:10127000ED5CFB4F81819281820F931F90938900D7
:1012800080938800E09148038E2FEE0F990BFC01AC
:10129000EE0FFF1FE80FF91FED5CFB4F808186FF0B
:1012A00011C0E09148038E2FEE0F990BFC01EE0F59
:1012B000FF1FE80FF91FED5CFB4F808161E08F732A
:1012C0000E944203FF91EF91DF91CF91BF91AF91C7
:1012D0009F918F917F916F915F914F913F912F914E
:1012E0000F900FBE0F901F90189580E49CE990938B
:1012F0008900809388008FEF80934803E3CFCF92DB
:10130000DF92EF92FF920F931F93E82FF92F05C002
:10131000015011092109310961F190819623941737
:10132000B9F305C0015011092109310911F190816A
:1013300096239413F7CFC12CD12CE12CF12C0AC0A9
:101340008FEFC81AD80AE80AF80A0C151D052E05F1
:101350003F0579F080818623841791F36C2D7D2DD4
:101360008E2D9F2D1F910F91FF90EF90DF90CF90CA
:10137000089560E070E080E090E01F910F91FF9091
:10138000EF90DF90CF90089510925B0310925A0374
:1013900088EE93E0A0E0B0E080935C0390935D035F
:1013A000A0935E03B0935F038EE091E090935903A6
:1013B0008093580385EC90E09093650380936403D9
:1013C00084EC90E0909367038093660380EC90E058
:1013D000909369038093680381EC90E090936B0392
:1013E00080936A0382EC90E090936D0380936C038A
:1013F00086EC90E090936F0380936E0310927103DC
:1014000010927203109273031092740388E893E1B0
:10141000A0E0B0E08093180490931904A0931A04FC
:10142000B0931B0410922404109220041092210403
:101430001092220410922304109225041092F703B4
:101440001092F6031092F5031092290410922804CA
:1014500080E291E09093270480932604AAE2B4E00E
:1014600090E080E021E2E1E0F0E08630910510F4C8
:10147000F0E0E0E0AC01425F5F4FE40FF51F209326
:101480005700E491ED9301968930910561F7109230
:101490005C0410925B0410925E0410925D04109242
:1014A000600410925F0450E040E06AE271E08BE576
:1014B00094E00E945607809157048C3098F491E094
:1014C000980F909357048093580490E0FC01EE0F1E
:1014D000FF1FE80FF91FED5CFB4F88EB9BE0928349
:1014E000818308958FEF809358040895CF93DF93FD
:1014F000CDB7DEB72F970FB6F894DEBF0FBECDBFC6
:10150000789484B5826084BD84B5816084BD85B5DE
:10151000826085BD85B5816085BD80916E008160EA
:1015200080936E0010928100809181008260809390
:101530008100809181008160809381008091800092
:101540008160809380008091B10084608093B100BD
:101550008091B00081608093B00080917A008460B7
:1015600080937A0080917A00826080937A008091E3
:101570007A00816080937A0080917A0080688093FD
:101580007A001092C100E0916803F091690382E053
:101590008083E0916403F09165031082E09166031B
:1015A000F09167038FEC808310927003E0916C03DD
:1015B000F0916D0386E08083E0916A03F0916B0304
:1015C000808180618083E0916A03F0916B03808168
:1015D00088608083E0916A03F0916B03808180686A
:1015E0008083E0916A03F0916B0380818F7D80831B
:1015F00060EE72E088E593E00E9458066EEE71E0BE
:1016000088E593E00E94580660E871E088E593E081
:101610000E94CB051AE2A12E14E0B12E8501F8013B
:1016200081918F01803130F46BE871E088E593E0BF
:101630000E94CB05F8013197408150E070E060E0F6
:1016400020E188E593E00E94DA0569E871E088E529
:1016500093E00E94CB05F4E003331F0701F768E233
:1016600071E088E593E00E94CB05CE0101967C01F4
:10167000F50181915F011B861A861D861C861F86D7
:101680001E8640E1B70190E00E944511F7010190EC
:101690000020E9F73197AF014E195F09B701CE017C
:1016A0000A960E9456071A8219821C821B821E8289
:1016B0001D8260915B0470915C046115710539F0C5
:1016C00040915F0450916004C7010E9456078A84CC
:1016D0009B848114910409F445C0CE84DF84C11435
:1016E000D104A9F08D819E81C80ED91EB601C70113
:1016F0000E942E078823B1F129813A818D819E8134
:10170000B401820F931F0E946E15DE82CD82698123
:101710007A816115710551F14D815E818BE594E00F
:101720000E945607C7010E940607CE010A960E9432
:1017300006070A151B0509F09BCF00915B04109169
:101740005C0401151105B9F0F80181918F0188231E
:1017500091F0082E000C990B0E945415F801319756
:101760008083F2CFC7010E94F406D1CF8BE594E0CD
:101770000E94F406D7CF61E084E00E948E0361E00E
:1017800085E00E948E0361E086E00E948E0361E0A6
:1017900087E00E948E0361E089E00E948E0360E092
:1017A0008AE00E948E03809158048C3008F051C06A
:1017B00061E088E00E948E0380915804282F30E079
:1017C000F901EE0FFF1FE20FF31FED5CFB4F90815D
:1017D000907C986090831092590410925A042CE0E7
:1017E000622F0E945813829FB001112430E020E044
:1017F000AB01420F531FFA01EE0FFF1FE40FF51F5D
:10180000ED5CFB4F908196FD16C02F5F3F4F2C3053
:10181000310571F781110FC01092800082E0809332
:1018200081001092850010928400B19A80916F001F
:10183000826080936F00E09158048E2F90E0FC014D
:10184000EE0FFF1FE80FF91FED5CFB4F80818064F6
:1018500080838DE891E00E946C0688E593E00E9409
:1018600069058AEB91E00E946C0661E087E00E94C6
:1018700042030E94A81028EE822E23E0922EA12C73
:10188000B12CA50194010E94381268517C4F8F4FF2
:101890009F4F0E94E40360E087E00E94420361E002
:1018A00085E00E9442030E94A810A50194010E94B5
:1018B000381268517C4F8F4F9F4F0E94E40360E0C5
:1018C00085E00E94420386EE91E00E946C0680E172
:1018D00097E20E940012282F30E030934E032093AD
:1018E0004D03843638F010924E0310924D0380E081
:1018F0000E94EF0660E172E088E593E00E94CB056C
:1019000060914D0370914E03072E000C880B990BCC
:101910000E94260668E271E088E593E00E94CB050C
:1019200087E392E00E946C0688E593E00E946905D7
:1019300060E273E080E090E00E94E40380E797E1DA
:10194000A0E0B0E080935C0390935D03A0935E03FE
:10195000B0935F0368EB71E088E593E00E9458065E
:10196000CE010A960E947707AA84BB84A114B10411
:1019700031F00E851F85650101151105B1F40A8549
:101980001B850115110509F446C0F80181918F01ED
:10199000882309F440C0082E000C990B0E944C15B6
:1019A000F80131978083F1CF64014601FFEF8F1A70
:1019B0009F0AF6018081082E000C990B0E942711C6
:1019C000892B91F7015011090A0D1B1DF801808127
:1019D000082E000C990B0E942711892B31F00C1551
:1019E0001D0518F001501109F1CFA8014F5F5F4F9D
:1019F0004C195D095F874E87AC14BD0420F4B60115
:101A0000C5010E945C15EA85FB858E859F85E80FE0
:101A1000F91F1082B4CF69E572E0CE010A960E94E8
:101A20001907882309F423C16AE871E088E593E087
:101A30000E94580688E593E00E94DA04892BD1F3CE
:101A4000C7010E9477078A859B85009709F447C1E3
:101A500069817A816115710509F43FC14C855D8505
:101A60002D813E814217530708F437C10E946E153D
:101A70008D819E819F878E871E821D82C7010E9455
:101A800006076BE672E0CE010A960E9419078823CA
:101A900061F081E090E090934E0380934D030E94AB
:101AA000EF068BE592E00E946C066DE672E0CE01D7
:101AB0000A960E941907882371F082E090E09093C3
:101AC0004E0380934D030E94EF0668E771E088E5BE
:101AD00093E00E9458066FE672E0CE010A960E94DB
:101AE0001907882371F083E090E090934E03809370
:101AF0004D030E94EF0666E671E088E593E00E94E0
:101B0000580661E772E0CE010A960E941907882301
:101B100071F084E090E090934E0380934D030E9417
:101B2000EF0664E571E088E593E00E94580663E7FC
:101B300072E0CE010A960E941907882371F085E0B1
:101B400090E090934E0380934D030E94EF0662E471
:101B500071E088E593E00E94580665E772E0CE01E7
:101B60000A960E941907882371F086E090E090930E
:101B70004E0380934D030E94EF0660E371E088E519
:101B800093E00E94580667E772E0CE010A960E9431
:101B90001907882361F16DEF70E088E593E00E94FA
:101BA000580688E593E00E94DA04892BD1F3C70137
:101BB0000E947707C7010E940E074B010E945A023C
:101BC0008816990619F0C4010E94C60287E090E0C9
:101BD00090934E0380934D030E94EF066BEE70E0EE
:101BE00088E593E00E945806C7010E9406076BE84B
:101BF00071E0CE010A960E941907882369F01092BD
:101C00004E0310924D0380E00E94EF0669ED70E0F4
:101C100088E593E00E9458066AE271E0CE010A96D8
:101C20000E941907882369F010924E0310924D0309
:101C300080E00E94EF0667EC70E088E593E00E9488
:101C40005806CE010A960E940E076B307105810579
:101C500091056CF010924E0310924D0380E00E94AB
:101C6000EF0665EB70E088E593E00E94580688E592
:101C700093E00E946905CE010A960E94060700E0E3
:101C800010E067E074E088E593E00E94180440915A
:101C90005F045091600460915B0470915C0488E57E
:101CA00093E00E943C0468E271E088E593E00E94C2
:101CB000CB05E0914D03F0914E033197E730F105EC
:101CC00008F05AC1EA59F14F0C946413800EE30EE8
:101CD000400F6E0F730FA40FA70F0E940614898187
:101CE0009A819B878A878B819C819D878C878D8138
:101CF0009E819F878E871A8219821C821B82BCCE8E
:101D000089E792E00E946C0668EC70E080E090E069
:101D10000E94E40360E084E00E94420361E085E009
:101D20000E94420366E573E088E593E00E9458064E
:101D300064EF71E080E090E00E94E40360E084E002
:101D40000E94420360E085E00E94420363E473E086
:101D500088E593E00E94580664EF71E080E090E02F
:101D60000E94E40360E085E00E94420361E084E0B9
:101D70000E9442036EE273E088E593E00E945806F9
:101D800064EF71E080E090E00E94E40361E084E0B1
:101D90000E94420361E085E00E9442036BE173E030
:101DA00088E593E00E94580664EF71E080E090E0DF
:101DB0000E94E4038BE892E00E946C0688E593E0C1
:101DC0000E9469057FC082EA92E00E946C0668EC7E
:101DD00070E080E090E00E94E40360E086E00E9412
:101DE000420361E087E00E94420367EA73E088E50E
:101DF00093E00E94580664EF71E080E090E00E945A
:101E0000E40360E086E00E94420360E087E00E9415
:101E1000420363E973E088E593E00E94580664EFAB
:101E200071E080E090E00E94E40360E087E00E94BF
:101E3000420361E086E00E9442036DE773E088E5BB
:101E400093E00E94580664EF71E080E090E00E9409
:101E5000E40361E086E00E94420361E087E00E94C3
:101E6000420369E673E088E593E00E94580664EF58
:101E700071E080E090E00E94E40385EB92E09CCF6B
:101E800061E08DE00E9442038DEC92E00E946C06BE
:101E90000E94BA0768EE73E080E090E00E94E403DD
:101EA00082EE92E00E946C0688E593E00E9469054C
:101EB00060E08DE00E94420360E273E080E090E029
:101EC0000E94E4030115110509F4DBCE0E94E6042B
:101ED000882309F4D6CE0E940000D3CE81E090E0A2
:101EE0000E947F06EFCF88E593E00E94690561E0DC
:101EF0008DE00E94420383EF92E00E946C060E94F4
:101F00009B0560ED73E088E593E00E94580660ED64
:101F100077E080E090E00E94E4030E94AB056BEB69
:101F200073E088E593E00E94580660ED77E080E07A
:101F300090E00E94E40380E491E00E946C0660E07F
:101F40008DE00E944203BECF8FE090E0C9CF6FEEDC
:101F500073E088E593E00E9418040E945A02BC01D5
:101F6000990F880B990B0E94260663EE73E088E5B3
:101F700093E00E945806A6CF61E08DE00E944203E4
:101F80000E94BA076B017C01C0924903D0924A03B8
:101F9000E0924B03F0924C0360E08DE00E9442031C
:101FA000F4E1CF1AD108E108F10821E9C21624E0D2
:101FB000D206E104F10430F48DE093E00E946C0657
:101FC0000E949B058091490390914A03A0914B0385
:101FD000B0914C030797A109B1090C97A105B10570
:101FE00090F58FE193E00E946C060E94BB0564EFC0
:101FF00071E080E090E00E94E4030E94AB0564EF92
:1020000071E080E090E00E94E4030E94BB0564E67A
:1020100070E080E090E00E94E40361E087E00E94CD
:10202000420360E086E00E94420360E084E00E9498
:10203000420360E085E00E94420364EF71E080E0CB
:1020400090E00E94E4038091490390914A03A0919B
:102050004B03B0914C030797A105B10570F485E3DC
:1020600093E00E946C060E94BB0564E670E080E08D
:1020700090E00E94E4030E94AB0580914903909197
:102080004A03A0914B03B0914C03853A9440A105BB
:10209000B1050CF493CE85E393E00E946C060E9498
:1020A000AB0564E670E080E090E00E94E40386CE39
:1020B0008BE594E00C9406078F929F92AF92BF92AB
:1020C000CF92DF92EF92FF92CF93DF93EC01688182
:1020D00079818A819B81611571058105910521F4C2
:1020E00064E279ED8BE597E02DE133EF41E050E0DC
:1020F0000E94381249015A019B01AC01A7EAB1E4E0
:102100000E9457126B017C01ACEEB4EFA501940163
:102110000E946512C60ED71EE81EF91EF7FE06C005
:1021200081E0C81AD108E10880E8F80AC882D9829B
:10213000EA82FB82C701B6019F77DF91CF91FF90C2
:10214000EF90DF90CF90BF90AF909F908F900895C9
:102150008F929F92AF92BF92CF92DF92EF92FF92B7
:102160006091000170910101809102019091030141
:10217000611571058105910521F464E279ED8BE526
:1021800097E02DE133EF41E050E00E943812490121
:102190005A019B01AC01A7EAB1E40E9457126B01FE
:1021A0007C01ACEEB4EFA50194010E946512C60E4D
:1021B000D71EE81EF91EF7FE06C081E0C81AD10836
:1021C000E10880E8F80AC0920001D0920101E09293
:1021D0000201F0920301C701B6019F77FF90EF90D3
:1021E000DF90CF90BF90AF909F908F9008956093B5
:1021F00000017093010180930201909303010895FF
:102200001F93FC0199278827BC01E8941191103293
:10221000E9F3193010F01E30C8F31B3251F01D32B3
:1022200049F4689406C00E943011610F711D811D30
:10223000911D119110531A30B0F33EF49095809592
:10224000709561957F4F8F4F9F4F1F91089591110A
:102250000C949C11803219F089508550C8F708956C
:10226000592F482F372F262F660F771F881F991F4A
:10227000660F771F881F991F620F731F841F951F9A
:10228000660F771F881F991F0895BB27FB015527ED
:10229000AA27880F991FAA1FA41710F0A41B8395C3
:1022A0005051B9F7A05DAA3308F0A95DA19300973A
:1022B00079F7B111B1931192CB010C949F11E8946D
:1022C00009C097FB3EF490958095709561957F4F7E
:1022D0008F4F9F4F9923A9F0F92F96E9BB2793952C
:1022E000F695879577956795B795F111F8CFFAF43C
:1022F000BB0F11F460FF1BC06F5F7F4F8F4F9F4F6D
:1023000016C0882311F096E911C0772321F09EE8CA
:10231000872F762F05C0662371F096E8862F70E030
:1023200060E02AF09A95660F771F881FDAF7880F0A
:102330009695879597F90895992788270895DC0140
:10234000FC01672F71917723E1F7329704C07C91EC
:102350006D9370836291AE17BF07C8F3089597F924
:102360009F6780E870E060E008959FEF80EC08953B
:1023700000240A9416161706180609060895002464
:102380000A9412161306140605060895092E0394DE
:10239000000C11F4882352F0BB0F40F4BF2B11F452
:1023A00060FF04C06F5F7F4F8F4F9F4F089557FDB1
:1023B0009058440F551F59F05F3F71F04795880FB3
:1023C00097FB991F61F09F3F79F08795089512164A
:1023D00013061406551FF2CF4695F1DF08C01616F6
:1023E00017061806991FF1CF8695710561050894A7
:1023F0000895E894BB2766277727CB0197F90895BE
:10240000F999FECF92BD81BDF89A992780B50895BC
:10241000262FF999FECF1FBA92BD81BD20BD0FB600
:10242000F894FA9AF99A0FBE01960895A1E21A2E2D
:10243000AA1BBB1BFD010DC0AA1FBB1FEE1FFF1F68
:10244000A217B307E407F50720F0A21BB30BE40BB8
:10245000F50B661F771F881F991F1A9469F76095FF
:102460007095809590959B01AC01BD01CF010895B9
:10247000052E97FB1EF400940E944F1257FD07D0C3
:102480000E94161207FC03D04EF40C944F12509584
:102490004095309521953F4F4F4F5F4F0895909550
:1024A0008095709561957F4F8F4F9F4F08950E9443
:1024B000A112A59F900DB49F900DA49F800D911D1A
:1024C00011240895B7FF0C9457120E945712821BD3
:1024D000930B08952F923F924F925F926F927F924B
:1024E0008F929F92AF92BF92CF92DF92EF92FF9224
:1024F0000F931F93CF93DF93CDB7DEB7CA1BDB0BD0
:102500000FB6F894DEBF0FBECDBF09942A88398874
:1025100048885F846E847D848C849B84AA84B9847B
:10252000C884DF80EE80FD800C811B81AA81B98187
:10253000CE0FD11D0FB6F894DEBF0FBECDBFED019B
:102540000895A29FB001B39FC001A39F700D811D8C
:102550001124911DB29F700D811D1124911D0895AC
:102560000E94C4120C94C6110E94BF1158F00E9420
:10257000B81140F029F45F3F29F00C94AF115111CC
:102580000C94FA110C94B5110E94D71168F3992399
:10259000B1F3552391F3951B550BBB27AA2762175F
:1025A0007307840738F09F5F5F4F220F331F441F6C
:1025B000AA1FA9F335D00E2E3AF0E0E832D09150A0
:1025C0005040E695001CCAF72BD0FE2F29D0660F8D
:1025D000771F881FBB1F261737074807AB07B0E8D0
:1025E00009F0BB0B802DBF01FF2793585F4F3AF0D6
:1025F0009E3F510578F00C94AF110C94FA115F3F97
:10260000E4F3983ED4F3869577956795B795F7955B
:102610009F5FC9F7880F911D9695879597F9089543
:10262000E1E0660F771F881FBB1F621773078407DF
:10263000BA0720F0621B730B840BBA0BEE1F88F7EE
:10264000E09508950E9429136894B1110C94FA1131
:1026500008950E94DF1188F09F5798F0B92F9927AD
:10266000B751B0F0E1F0660F771F881F991F1AF07D
:10267000BA95C9F714C0B13091F00E94F911B1E0D8
:1026800008950C94F911672F782F8827B85F39F0D7
:10269000B93FCCF3869577956795B395D9F73EF416
:1026A00090958095709561957F4F8F4F9F4F0895BE
:1026B000991B79E004C0991F961708F0961B881F94
:1026C0007A95C9F780950895EE0FFF1F0590F49154
:1026D000E02D09940F931F93CF93DF9382309105E0
:1026E00010F482E090E0E0916304F091640430E043
:1026F00020E0B0E0A0E0309799F42115310509F40D
:102700004AC0281B390B24303105D8F58A819B81BA
:102710006115710589F1FB0193838283FE0111C06C
:10272000408151810281138148175907E0F0481711
:10273000590799F4109761F012960C93129713961B
:102740001C933296CF01DF91CF911F910F91089585
:102750000093630410936404F4CF2115310551F004
:102760004217530738F0A901DB019A01BD01DF01CF
:10277000F801C1CFEF01F9CF909364048093630413
:10278000CDCFFE01E20FF31F8193919322503109C7
:1027900039832883D7CF2091610430916204232BA1
:1027A00041F4209106013091070130936204209397
:1027B000610420910401309105012115310541F496
:1027C0002DB73EB74091080150910901241B350BEC
:1027D000E0916104F0916204E217F307A0F42E1B6C
:1027E0003F0B2817390778F0AC014E5F5F4F241775
:1027F000350748F04E0F5F1F509362044093610409
:10280000819391939FCFF0E0E0E09CCFCF93DF9353
:102810000097E9F0FC01329713821282A0916304C1
:10282000B0916404ED0130E020E01097A1F4208124
:102830003181820F931F2091610430916204281727
:10284000390709F061C0F0936204E0936104DF91FD
:10285000CF910895EA01CE17DF07E8F54A815B8141
:102860009E0141155105B1F7E901FB83EA834991C6
:102870005991C40FD51FEC17FD0761F48081918138
:102880000296840F951FE901998388838281938141
:102890009B838A83F0E0E0E012968D919C911397E0
:1028A0000097B9F52D913C911197CD010296820FB9
:1028B000931F20916104309162042817390739F67B
:1028C000309751F51092640410926304B09362043F
:1028D000A0936104BCCFD383C28340815181840F14
:1028E000951FC817D90761F44E5F5F4F88819981A2
:1028F000480F591F518340838A819B819383828330
:102900002115310509F0B0CFF0936404E09363041E
:102910009ECFFD01DC01C0CF13821282D7CFB0E081
:10292000A0E0E5E9F4E10C946C128C01009751F4FD
:10293000CB010E946A138C01C801CDB7DEB7E0E17C
:102940000C948812FC01E60FF71F9C0122503109FC
:10295000E217F30708F49DC0D901CD91DC911197DE
:10296000C617D70798F0C530D10530F3CE010497CC
:102970008617970708F3C61BD70B2297C193D193ED
:102980006D937C93CF010E940614D6CF5B01AC1AE5
:10299000BD0A4C018C0E9D1EA0916304B09164048D
:1029A000512C412CF12CE12C109731F580916104D0
:1029B000909162048815990509F05CC04616570687
:1029C00008F058C08091040190910501009741F4EE
:1029D0008DB79EB74091080150910901841B950B5A
:1029E000E817F90708F055C0F0936204E09361041A
:1029F000F90171836083A0CF8D919C9111971296FC
:102A00006C90129713967C901397A815B90559F5F9
:102A10006C0142E0C40ED11CCA14DB0420F1AC01ED
:102A20004A195B09DA011296159780F06282738267
:102A300051834083D9016D937C93E114F10471F0CB
:102A4000D7011396FC93EE93129776CF22968C0FB4
:102A50009D1FF90191838083F301EFCFF09364040C
:102A6000E093630469CF4816590608F42C017D01F0
:102A7000D3019ACFCB010E946A137C01009749F0E1
:102A8000AE01B8010E945C15C8010E9406148701BE
:102A900053CF10E000E050CF9111089581548A5136
:102AA00008F4805E855A08959111089581568A51DF
:102AB00008F4805285580895FB01DC0102C00190A2
:102AC0000D9241505040D8F70895FB01DC018D91E3
:102AD000019080190110D9F3990B0895FB01DC01D5
:102AE00001900D920020E1F7089512E0CFE2D2E0CC
:102AF00004C0FE010E9464132196C033D107C9F7B8
:042B0000F894FFCF77
:102B040001000000000065048000000000001C05B6
:102B14003C0469046905DA047804CC04000000006C
:102B240098059505890517040D0A0053746172749C
:102B3400696E6720536572766F2054657374210043
:102B4400536572766F205465737420446F6E6521EB
:102B54000053656E64696E6720506C75736521005F
:102B6400506C757365204563686F20726563696591
:102B7400766564210044697374616E63653A20006C
:102B8400556E6971756549443A20003000526F6290
:102B94006F726163657220416C706861204D75E2EB
:102BA40084A22069732061626F757420746F206938
:102BB4006E6974696174652E2E00526F626F726162
:102BC40063657220416C706861204D75E284A220B7
:102BD4005374617274696E67204265652044616E46
:102BE4006365212E2E00526F626F726163657220DD
:102BF400416C706861204D75E284A220456E646961
:102C04006E67204265652044616E6365212E2E0047
:102C1400526F626F726163657220416C70686120EB
:102C24004D75E284A22069732073657420746F204B
:102C34006D6F64653A2000526F626F7261636572F2
:102C440020416C706861204D75E284A220696E6930
:102C54007469617465642E2E0079004D6F6465207B
:102C640069732073657420746F3A20310032003325
:102C74000034003500360037004C656674204D6F13
:102C8400746F7220436865636B21004C6566742021
:102C94004D6F746F7220436865636B20446F6E657B
:102CA40021005269676874204D6F746F7220436805
:102CB40065636B21005269676874204D6F746F728D
:102CC40020436865636B20446F6E65210053746113
:102CD4007274696E6720536F6E61722054657374E9
:102CE4002100536F6E6172205465737420446F6EBB
:102CF4006521005374617274696E6720426F746851
:102D0400204D6F746F72205465737421004D6F767B
:102D1400696E6720666F72776172642E2E2E004F83
:102D240062737461636C652041766F6964616E637C
:102D3400652E2E2E004D6F76696E67204261636B9F
:082D4400776172642E2E2E004F
:00000001FF
