:100000000C9463000C948B000C948B000C948B006C
:100010000C948B000C948B000C948B000C948B0034
:100020000C948B000C948B000C948B000C944E075A
:100030000C948B000C948B000C948B000C948B0014
:100040000C94AC060C948B000C941C070C94F606D4
:100050000C948B000C948B000C948B000C948B00F4
:100060000C948B000C948B000000000023002600F1
:10007000290000000000240027002A0000000000E2
:10008000250028002B0004040404040404040202D4
:100090000202020203030303030301020408102007
:1000A0004080010204081020010204081020000012
:1000B0000008000201000003040700000000000027
:1000C00000004F087A0F11241FBECFEFD8E0DEBF2B
:1000D000CDBF16E0A0E0B1E0E8E4F9E202C005908F
:1000E0000D92AC38B107D9F727E0ACE8B6E001C013
:1000F0001D92A93AB207E1F710E0C2E6D0E004C0D1
:100100002197FE010E948612C136D107C9F70E94CD
:1001100001090C9497140C9400008F929F92AF9257
:10012000BF92CF92DF92EF92FF9280919E0758E5A7
:10013000C52E52E0D52EC81AD10887FDD394CC0C19
:10014000DD1CCC0CDD1C0D2C000CEE08FF08809192
:100150009D0778E8872E912C881A910887FD939443
:10016000880C991C880C991C092C000CAA08BB0847
:1001700080919C078F3FD1F190E0FC01EE0FFF1FB3
:10018000E80FF91FE958F84F8181928133E0880F19
:10019000991F3A95E1F7B0E0A0E044E0B595A79546
:1001A000979587954A95D1F702969C012F5F3F4F0F
:1001B000032E000C440B550B281939094A095B0919
:1001C000A4EBB0E00E947911A70196012819390922
:1001D0004A095B090E945A11C901FF90EF90DF9014
:1001E000CF90BF90AF909F908F90089590E080E067
:1001F000DCCFCF92DF92EF92FF92DC01A03282E05F
:10020000B807D4F5A53BB10514F0A4EBB0E04091DC
:100210009D0728E830E0241B310947FD3395220F64
:10022000331F220F331F6901330FEE08FF0840917F
:100230009E0728E532E0241B310947FD3395220F44
:10024000331F220F331F032E000C440B550B2C19A8
:100250003D094E095F09B7FF02C0B0E0A0E00E946F
:10026000841124EB30E040E050E00E945A11C20EAD
:10027000D31EE41EF51ED601E0919C07EC3080F5FC
:1002800020919D0788E890E0821B910927FD9395B6
:10029000880F991F880F991FA817B90784F020911C
:1002A0009E0788E592E0821B910927FD9395880FB0
:1002B000991F880F991FA817B9070CF4CD01029751
:1002C000880F991F4FB7F8942E2F30E0F901EE0FE9
:1002D000FF1FE20FF31FE958F84F928381834FBF4E
:1002E000FF90EF90DF90CF90089590E0FC01E255F1
:1002F000FF4F2491FC01E656FF4F3491FC01EA5771
:10030000FF4FE491EE23C9F0222339F0233001F1AD
:10031000A8F4213019F1223029F1F0E0EE0FFF1F8F
:10032000E458FF4FA591B4918FB7F894EC91611107
:1003300026C030953E233C938FBF08952730A9F007
:100340002830C9F0243049F7809180008F7D03C0A8
:10035000809180008F7780938000DFCF84B58F7786
:1003600084BDDBCF84B58F7DFBCF8091B0008F77CC
:100370008093B000D2CF8091B0008F7DF9CF3E2B1B
:10038000DACFCF93DF9390E0FC01E656FF4F249144
:100390008A579F4FFC0184918823D1F090E0880F09
:1003A000991FFC01EE58FF4FA591B491FC01E45850
:1003B000FF4FC591D49161110EC09FB7F8948C91F5
:1003C000E22FE0958E238C932881E223E8839FBF60
:1003D000DF91CF9108958FB7F894EC91E22BEC93D5
:1003E0008FBFF6CF3FB7F894809194069091950611
:1003F000A0919606B091970626B5A89B05C02F3F01
:1004000019F00196A11DB11D3FBFBA2FA92F982F3A
:100410008827BC01CD01620F711D811D911D42E035
:10042000660F771F881F991F4A95D1F708958F92FD
:100430009F92AF92BF92CF92DF92EF92FF926B01A9
:100440007C010E94F2014B015C01C114D104E10462
:10045000F104B9F00E94F201681979098A099B092F
:10046000683E73408105910580F321E0C21AD108EE
:10047000E108F10888EE880E83E0981EA11CB11CEB
:10048000E4CFFF90EF90DF90CF90BF90AF909F9020
:100490008F9008950895AF92BF92CF92DF92EF921E
:1004A000FF920F931F93CF93DF936C017B018B011E
:1004B000040F151FEB015E01AE18BF08C017D1076E
:1004C00059F06991D601ED91FC910190F081E02DF8
:1004D000C6010995892B79F7C501DF91CF911F914D
:1004E0000F91FF90EF90DF90CF90BF90AF90089565
:1004F000FC01538D448D252F30E0842F90E0821B2A
:10050000930B541710F0CF96089501970895FC01AE
:10051000918D828D981761F0A28DAE0FBF2FB11D06
:100520005D968C91928D9F5F9F73928F90E008955E
:100530008FEF9FEF08952FB7F894809198069091D0
:100540009906A0919A06B0919B062FBF8093A406AE
:100550009093A506A093A606B093A7068CE996E013
:100560000E94870297FF26C02FB7F89480919806C3
:1005700090919906A0919A06B0919B062FBF409149
:10058000A4065091A5066091A6067091A706841B4B
:10059000950BA60BB70B4091A0065091A106609158
:1005A000A2067091A30684179507A607B707B0F2B5
:1005B0008FEF9FEF0895FC01918D828D981731F098
:1005C000828DE80FF11D858D90E008958FEF9FEFEC
:1005D0000895FC01918D228D892F90E0805C9F4FC2
:1005E000821B91098F73992708958CE996E00E94E8
:1005F000E90221E0892B09F420E0822F089580E0B0
:1006000090E0892B29F00E94F50281110C940000E2
:100610000895FC01A48DA80FB92FB11DA35ABF4F97
:100620002C91848D90E001968F739927848FA689F1
:10063000B7892C93A089B1898C91837080648C9345
:10064000938D848D981306C00288F389E02D8081F4
:100650008F7D80830895EF92FF920F931F93CF9326
:10066000DF93EC0181E0888F9B8D8C8D98131AC0ED
:10067000E889F989808185FF15C09FB7F894EE89D4
:10068000FF896083E889F989808183708064808331
:100690009FBF81E090E0DF91CF911F910F91FF907C
:1006A000EF900895F62E0B8D10E00F5F1F4F0F7324
:1006B0001127E02E8C8D8E110CC00FB607FCFACFDF
:1006C000E889F989808185FFF5CFCE010E94090371
:1006D000F1CFEB8DEC0FFD2FF11DE35AFF4FF082B0
:1006E0009FB7F8940B8FEA89FB8980818062CFCF16
:1006F000CF93DF93EC01888D8823B9F0AA89BB8959
:10070000E889F9898C9185FD03C0808186FD0DC043
:100710000FB607FCF7CF8C9185FFF2CF808185FF64
:10072000EDCFCE010E940903E9CFDF91CF9108956B
:1007300090E080E0089508958AE697E00C94A40381
:100740008AE697E00C94A70390E080E0089590E09B
:1007500080E00895FB0101900020E9F73197AF0197
:10076000461B570BDC01ED91FC910280F381E02DDB
:1007700009948F929F92AF92BF92EF92FF920F9344
:100780001F93CF93DF93CDB7DEB7A1970FB6F89441
:10079000DEBF0FBECDBF7C01FA01CB0119A2223012
:1007A00008F42AE08E010F5D1F4F822E912CB12C90
:1007B000A12CBF01A50194010E943811F901CA01C1
:1007C0006A300CF5605DD8016E938D01232B242BCC
:1007D000252B79F790E080E0109721F0BD01C7014B
:1007E0000E94AA03A1960FB6F894DEBF0FBECDBF3C
:1007F000DF91CF911F910F91FF90EF90BF90AF903D
:100800009F908F900895695CDECFCF92DF92EF9238
:10081000FF92CF93DF93AB01BC0177FF1DC06A014C
:100820007C016DE28CE996E00E942B03EC014427E9
:100830005527BA014C195D096E097F092AE08CE938
:1008400096E00E94B9038C0F9D1FDF91CF91FF901E
:10085000EF90DF90CF9008952AE08CE996E0DF9149
:10086000CF91FF90EF90DF90CF900C94B903CF938E
:10087000DF93BC018CE996E00E94AA03EC0168E2D8
:1008800071E08CE996E00E94AA038C0F9D1FDF9116
:10089000CF910895CF93DF93FC014481558160810E
:1008A00071818CE996E00E944B02EC0168E271E0F4
:1008B0008CE996E00E94AA038C0F9D1FDF91CF91D7
:1008C0000895682F90E080E00C942A11CF93DF9375
:1008D000EC0188819981009711F00E9428131982F8
:1008E00018821D821C821B821A82DF91CF9108958B
:1008F000FC0180819181009711F00C9428130895D8
:10090000FC0180819181009711F00C94221060E02D
:1009100070E0CB010895FC0124813581232B39F44B
:1009200021E0FB018081882349F020E007C080811D
:1009300091810E94871421E0892BB9F7822F0895B5
:100940000F931F93CF93DF93EC01888199810097D8
:1009500059F02A813B812617370730F081E0DF917B
:10096000CF911F910F9108958B016F5F7F4F0E9470
:10097000B113009759F0998388831B830A832C81D4
:100980003D81232B59F7FC011082E8CF80E0E7CFAF
:10099000EF92FF920F931F93CF93DF936115710531
:1009A00041F480E0DF91CF911F910F91FF90EF9084
:1009B000089541155105B1F07B01EC010C811D81B9
:1009C000040F151FB8010E94A004882351F3288149
:1009D00039818C819D81B701820F931F0E949014F1
:1009E0001D830C8381E0DECFCF93DF93EC01FB010D
:1009F00001900020E9F73197AF01461B570B0E9489
:100A0000C804811103C0CE010E946604CE01DF91AB
:100A1000CF910895EF92FF920F931F93CF93DF939F
:100A2000EC017B018A01BA010E94A00481110BC074
:100A3000CE010E946604CE01DF91CF911F910F91EC
:100A4000FF90EF9008951D830C83B70188819981F1
:100A50000E949014F0CF0F931F93CF93DF9300D099
:100A6000CDB7DEB78C01FC01118210821382128295
:100A70001582148250E040E06AE271E00E940A05AB
:100A80000E949B0297FD0BC089831A8241E050E0CF
:100A9000BE016F5F7F4FC8010E94C804F1CFC8013B
:100AA0000F900F90DF91CF911F910F910895CF93E9
:100AB000DF93EC01FB018617970749F06081718194
:100AC0006115710541F0448155810E940A05CE01EE
:100AD000DF91CF9108950E946604F9CFFC01118245
:100AE000108213821282158214826FE977E00C94CF
:100AF0005705EF92FF920F931F93CF93DF9300D090
:100B000000D000D0CDB7DEB77C01CE0101960E94A7
:100B10006E056BE271E0CE0101960E94F4040E9422
:100B20004A04CE0101960E94780461E08DE00E94A3
:100B3000750110E000E062E471E08CE996E00E944B
:100B4000AA03B801012E000C880B990B0E94050422
:100B50008DE491E00E943704C8010E94F9006FE023
:100B600070E080E090E00E9417020E0D1F1D053B13
:100B700011050CF360E08DE00E94750168EE73E0F2
:100B800080E090E00E94170261E08DE00E94750114
:100B900004EB10E062E471E08CE996E00E94AA03A5
:100BA000B801012E000C880B990B0E9405048DE4FE
:100BB00091E00E943704C8010E94F9006FE070E0E4
:100BC00080E090E00E9417020E191F0917FFE2CF84
:100BD00060E08DE00E947501CE0101960E946E05D5
:100BE00061E671E0CE0101960E94F4040E944A047D
:100BF000CE0101960E9478048CE996E00E94780369
:100C000026960FB6F894DEBF0FBECDBFDF91CF9111
:100C10001F910F91FF90EF9008950F931F93CF9323
:100C2000DF9300D000D000D0CDB7DEB7CE01019663
:100C30000E946E0564E771E0CE0101960E94F40403
:100C40000E944A04CE0101960E94780460E089E087
:100C50000E94750183E090E00197F1F761E089E07F
:100C60000E94750183E290E00197F1F7E4EAF0E079
:100C70006491E0E9F0E0E491F0E0EE0FFF1FE85945
:100C8000FF4F8591949100E412E42FE030E0462F6D
:100C90000E940A08611571058105910529F06F5FB1
:100CA0007F4F8F4F9F4F9F700E9483102DEC3CEC25
:100CB00048E652E40E94D2110E94441260938D06CD
:100CC00070938E0680938F06909390066AE070E092
:100CD00080E090E00E941702CE0101960E946E050E
:100CE00065E871E0CE0101960E94F4040E944A0476
:100CF000CE0101960E947804CE0101960E946E05F5
:100D00006CE971E0CE0101960E94F404FC0144817B
:100D10005581608171818CE996E00E944B02CE0181
:100D200001960E94780460918D0670918E068091E4
:100D30008F06909190060E94050489EA91E00E9436
:100D4000370426960FB6F894DEBF0FBECDBFDF91F5
:100D5000CF911F910F9108951F920F920FB60F928E
:100D600011242F933F938F939F93AF93BF938091C1
:100D7000980690919906A0919A06B0919B063091A1
:100D8000930623E0230F2D3758F50196A11DB11DC1
:100D9000209393068093980690939906A0939A06C1
:100DA000B0939B068091940690919506A09196062B
:100DB000B09197060196A11DB11D80939406909362
:100DC0009506A0939606B0939706BF91AF919F9119
:100DD0008F913F912F910F900FBE0F901F901895FC
:100DE00026E8230F0296A11DB11DD2CF1F920F92AC
:100DF0000FB60F9211242F933F934F935F936F93EE
:100E00007F938F939F93AF93BF93EF93FF938CE95F
:100E100096E00E940903FF91EF91BF91AF919F91DE
:100E20008F917F916F915F914F913F912F910F9093
:100E30000FBE0F901F9018951F920F920FB60F9232
:100E400011242F938F939F93EF93FF93E091AC0620
:100E5000F091AD068081E091B206F091B30682FD7B
:100E60001BC090818091B5068F5F8F732091B6066D
:100E7000821741F0E091B506F0E0E456F94F958F06
:100E80008093B506FF91EF919F918F912F910F90D5
:100E90000FBE0F901F9018958081F4CF1F920F9274
:100EA0000FB60F9211242F933F934F935F936F933D
:100EB0007F938F939F93AF93BF93CF93DF93EF93E2
:100EC000FF9380918C06C0919B07D0E087FF24C0E0
:100ED000109285001092840080918C068F5F809321
:100EE0008C0680918C06082E000C990B8C179D07A0
:100EF00024F480918C068C30C4F180918400909110
:100F00008500049680349C4908F47AC0809184005E
:100F100090918500049676C080918C06082E000C76
:100F2000990B8C179D07C4F6E0918C068E2FEE0F5F
:100F3000990BFC01EE0FFF1FE80FF91FE958F84F5E
:100F4000808186FFC9CFE0918C068E2FEE0F990B22
:100F5000FC01EE0FFF1FE80FF91FE958F84F8081E1
:100F600060E08F730E947501B7CF209184003091AB
:100F70008500E0918C068E2FEE0F990BFC01EE0F91
:100F8000FF1FE80FF91FE958F84F81819281820F06
:100F9000931F9093890080938800E0918C068E2F98
:100FA000EE0F990BFC01EE0FFF1FE80FF91FE95838
:100FB000F84F808186FF11C0E0918C068E2FEE0FD6
:100FC000990BFC01EE0FFF1FE80FF91FE958F84FCE
:100FD000808161E08F730E947501FF91EF91DF9135
:100FE000CF91BF91AF919F918F917F916F915F91C1
:100FF0004F913F912F910F900FBE0F901F9018951A
:1010000080E49CE990938900809388008FEF80931F
:101010008C06E3CFCF92DF92EF92FF920F931F9354
:10102000E82FF92F05C0015011092109310961F19B
:10103000908196239417B9F305C001501109210935
:10104000310911F1908196239413F7CFC12CD12C43
:10105000E12CF12C0AC08FEFC81AD80AE80AF80A66
:101060000C151D052E053F0579F080818623841718
:1010700091F36C2D7D2D8E2D9F2D1F910F91FF9043
:10108000EF90DF90CF90089560E070E080E090E016
:101090001F910F91FF90EF90DF90CF9008951092E5
:1010A0009F0610929E0688EE93E0A0E0B0E0809349
:1010B000A0069093A106A093A206B093A3068EE08B
:1010C00091E090939D0680939C0685EC90E0909330
:1010D000A9068093A80684EC90E09093AB068093D9
:1010E000AA0680EC90E09093AD068093AC0681EC6C
:1010F00090E09093AF068093AE0682EC90E09093E0
:10110000B1068093B00686EC90E09093B30680938E
:10111000B2061092B5061092B6061092B70610925B
:10112000B80688E893E1A0E0B0E080935C07909374
:101130005D07A0935E07B0935F0710926807109257
:101140006407109265071092660710926707109265
:10115000690710923B0710923A07109239071092D4
:101160006D0710926C0780E291E090936B0780937B
:101170006A07AEE6B7E090E080E021E2E1E0F0E06F
:101180008630910510F4F0E0E0E0AC01425F5F4F83
:10119000E40FF51F20935700E491ED9301968930F9
:1011A000910561F71092A00710929F071092A20775
:1011B0001092A1071092A4071092A30750E040E0FC
:1011C0006AE271E08FE997E00E940A0580919B072F
:1011D0008C3098F491E0980F90939B0780939C0734
:1011E00090E0FC01EE0FFF1FE80FF91FE958F84FE0
:1011F00088EB9BE09283818308958FEF80939C0717
:101200000895CF93DF93CDB7DEB72F970FB6F8943D
:10121000DEBF0FBECDBF789484B5826084BD84B537
:10122000816084BD85B5826085BD85B5816085BDE1
:1012300080916E00816080936E0010928100809199
:101240008100826080938100809181008160809321
:101250008100809180008160809380008091B10046
:1012600084608093B1008091B00081608093B00071
:1012700080917A00846080937A0080917A00826005
:1012800080937A0080917A00816080937A008091C7
:101290007A00806880937A001092C1000E94CA0F81
:1012A0002CED35E040E050E00E945A116C507E4F2A
:1012B0008F4F9F4F0E941702E091AC06F091AD0650
:1012C00082E08083E091A806F091A9061082E09167
:1012D000AA06F091AB068FEC80831092B406E091E1
:1012E000B006F091B10686E08083E091AE06F09101
:1012F000AF06808180618083E091AE06F091AF06F9
:10130000808188608083E091AE06F091AF06808195
:1013100080688083E091AE06F091AF0680818F7D7A
:1013200080838EEA91E00E94370489EE91E00E946A
:1013300037046BED72E08CE996E00E94AA031EE68A
:10134000C12E17E0D12E07E717E07601F701819152
:101350007F01803130F461EE74E08CE996E00E9408
:10136000AA03F7013197408150E070E060E020E18E
:101370008CE996E00E94B90364EE72E08CE996E095
:101380000E94AA030E151F0509F768E271E08CE9B7
:1013900096E00E94AA038E010F5F1F4FF601819114
:1013A0006F011B861A861D861C861F861E8640E1DD
:1013B000B80190E00E946710F80101900020E9F761
:1013C0003197AF01401B510BB801CE010A960E9424
:1013D0000A05C8010E946E054E855F856A857B857A
:1013E000C8010E94C804811103C0C8010E9466049C
:1013F000B8018FE997E00E945705C8010E94780460
:10140000CE010A960E947804CE14DF0439F6E090EB
:101410009F07F090A007E114F10471F0F7018191AA
:101420007F01882349F0082E000C990B0E94761446
:10143000F70131978083F2CF61E084E00E94C1011F
:1014400061E085E00E94C10161E086E00E94C10187
:1014500061E087E00E94C10161E089E00E94C10172
:1014600060E08AE00E94C10180919C078C3008F006
:1014700051C061E088E00E94C10180919C07282F43
:1014800030E0F901EE0FFF1FE20FF31FE958F84FAC
:101490009081907C9860908310929D0710929E0797
:1014A0002CE0622F0E947A12829FB001112430E05A
:1014B00020E0AB01420F531FFA01EE0FFF1FE40FB4
:1014C000F51FE958F84F908196FD16C02F5F3F4FEA
:1014D0002C30310571F781110FC01092800082E02D
:1014E000809381001092850010928400B19A8091BF
:1014F0006F00826080936F00E0919C078E2F90E0D8
:10150000FC01EE0FFF1FE80FF91FE958F84F80812B
:1015100080648083C8010E946E0566EE72E0C80197
:101520000E94F4040E944A04C8010E9478048CE9D5
:1015300096E00E947803C8010E946E0565E173E0A1
:10154000C8010E94F4040E944A04C8010E94780461
:1015500061E087E00E9475010E94CA0F28EEC22E4A
:1015600023E0D22EE12CF12CA70196010E945A1102
:1015700068517C4F8F4F9F4F0E94170260E087E0B9
:101580000E94750161E085E00E9475010E94CA0F0A
:10159000A70196010E945A1168517C4F8F4F9F4FAF
:1015A0000E94170260E085E00E947501C8010E9458
:1015B0006E0563E473E0C8010E94F4040E944A04CB
:1015C000C8010E94780490E080E00E942211282F38
:1015D00030E03093920620939106883038F01092D4
:1015E00092061092910680E00E9461046FE673E01B
:1015F0008CE996E00E94AA03609191067091920690
:10160000072E000C880B990B0E94050468E271E01C
:101610008CE996E00E94AA03C8010E946E0566E963
:1016200073E0C8010E94F4040E944A04C8010E94A9
:1016300078048CE996E00E94780360E273E080E031
:1016400090E00E94170280E797E1A0E0B0E080936D
:10165000A0069093A106A093A206B093A3068AEBDE
:1016600093E00E943704CE010A960E942B05AA84BB
:10167000BB84A114B10431F0EE84FF846501E11450
:10168000F104B1F4EA84FB84E114F10409F448C0E4
:10169000F70181917F01882309F442C0082E000CD4
:1016A000990B0E946E14F70131978083F1CF64018A
:1016B0004601FFEF8F1A9F0AF6018081082E000C69
:1016C000990B0E944910892B91F7F1E0EF1AF1086C
:1016D000EA0CFB1CF7018081082E000C990B0E947C
:1016E0004910892B39F0EC14FD0420F0F1E0EF1AD9
:1016F000F108F0CFA7014F5F5F4F4C195D095F877D
:101700004E87AC14BD0420F4B601C5010E947E14BE
:10171000EA85FB858E859F85E80FF91F1082B2CF81
:1017200060EF73E0CE010A960E948B04882309F4CF
:101730000DC182EF93E00E9437048CE996E00E948D
:10174000E902892BD1F3C8010E942B058A859B856C
:10175000009709F41DC169817A816115710509F449
:1017600015C14C855D852D813E814217530708F4D4
:101770000DC10E9490148D819E819F878E871E824D
:101780001D82C8010E94780460E374E0CE010A96CD
:101790000E948B04882361F081E090E09093920690
:1017A000809391060E94610480E294E00E943704D5
:1017B00062E474E0CE010A960E948B04882361F0F3
:1017C00082E090E090939206809391060E946104DB
:1017D00082E394E00E94370464E574E0CE010A9647
:1017E0000E948B04882361F083E090E0909392063E
:1017F000809391060E94610484E494E00E9437047F
:1018000066E674E0CE010A960E948B04882361F09C
:1018100084E090E090939206809391060E94610488
:1018200086E594E00E94370468E774E0CE010A96EA
:101830000E948B04882361F085E090E090939206EB
:10184000809391060E94610488E694E00E94370428
:101850006AE874E0CE010A960E948B04882361F046
:1018600086E090E090939206809391060E94610436
:101870008AE794E00E9437046FEC74E0CE010A9688
:101880000E948B04882341F18CE894E00E94370485
:101890008CE996E00E94E902892BD1F3C8010E94ED
:1018A0002B05C8010E9480046B010E948D00C816A0
:1018B000D90619F0C6010E94F90087E090E09093E4
:1018C0009206809391060E9461048FEB94E00E943F
:1018D0003704C8010E94780461EE74E0CE010A96D4
:1018E0000E948B04882359F0109292061092910660
:1018F00080E00E94610481ED94E00E9437046AE276
:1019000071E0CE010A960E948B04882359F0109250
:1019100092061092910680E00E94610481ED94E0AD
:101920000E943704CE010A960E9480046B30710534
:10193000810591055CF0109292061092910680E06C
:101940000E94610481ED94E00E9437048CE996E0E6
:101950000E947803CE010A960E94780480E0E82E67
:1019600080E0F82EE0919106F09192063197E730F1
:10197000F10508F0A2C1E154F34F0C948612D90C82
:10198000460DA70DE70DEC0D470E4A0E0E942813D9
:1019900089819A819B878A878B819C819D878C878F
:1019A0008D819E819F878E871A8219821C821B825D
:1019B000E6CEC8010E946E0563EE74E0C8010E9485
:1019C000F4040E944A04C8010E94780468EC70E0A4
:1019D00080E090E00E94170260E084E00E947501C0
:1019E00061E085E00E94750187EF94E00E94370472
:1019F00064EF71E080E090E00E94170260E084E014
:101A00000E94750160E085E00E9475018AE095E022
:101A10000E94370464EF71E080E090E00E941702BA
:101A200060E085E00E94750161E084E00E9475013C
:101A30008DE195E00E94370464EF71E080E090E072
:101A40000E94170261E084E00E94750161E085E078
:101A50000E9475018AE095E00E94370464EF71E00E
:101A600080E090E00E941702C8010E946E0562E3C8
:101A700075E0C8010E94F4040E944A04C8010E9453
:101A800078048CE996E00E94780395C0C8010E9412
:101A90006E056BE475E0C8010E94F4040E944A04DC
:101AA000C8010E94780468EC70E080E090E00E9439
:101AB000170260E086E00E94750161E087E00E9405
:101AC000750180E695E00E94370464EF71E080E0E4
:101AD00090E00E94170260E086E00E94750160E0DD
:101AE00087E00E94750184E795E00E94370464EF67
:101AF00071E080E090E00E94170260E087E00E94C1
:101B0000750161E086E00E94750188E895E00E9419
:101B1000370464EF71E080E090E00E94170261E01A
:101B200086E00E94750161E087E00E94750184E70C
:101B300095E00E94370464EF71E080E090E00E943D
:101B40001702C8010E946E056EE975E092CF61E050
:101B50008DE00E947501C8010E946E0568EB75E07A
:101B6000C8010E94F4040E944A04C8010E9478043B
:101B70000E940D0668EE73E080E090E00E9417027C
:101B8000C8010E946E056FEC75E0C8010E94F40464
:101B90000E944A04C8010E9478048CE996E00E94E1
:101BA000780360E08DE00E94750160E273E080E000
:101BB00090E00E941702E114F10409F4D3CE0E94D0
:101BC000F502882309F4CECE0E940000CBCE81E03E
:101BD00090E00E947905EFCF8CE996E00E947803AF
:101BE00061E08DE00E947501C8010E946E0562EE01
:101BF00075E0C8010E94F4040E944A04C8010E94D2
:101C0000780460E084E00E94750160E086E00E9454
:101C1000750161E085E00E94750161E087E00E9446
:101C200075018EEF95E00E94370460ED77E080E06B
:101C300090E00E94170260E085E00E94750160E07C
:101C400087E00E94750161E084E00E94750161E017
:101C500086E00E94750181E196E00E94370460ED04
:101C600077E080E090E00E941702C8010E946E05B4
:101C700061E671E0C8010E94F4040E944A04C801B0
:101C80000E94780460E08DE00E94750194CF8FE09F
:101C900090E09FCF66E276E08CE996E00E94AA038E
:101CA0000E948D00BC01990F880B990B0E940504BE
:101CB0008EE396E00E9437047ECF61E08DE00E94C3
:101CC00075010E940D0660E08DE00E947501809113
:101CD0008D0690918E06A0918F06B0919006449744
:101CE000A109B10981399440A105B105E8F4C80101
:101CF0000E946E056AE476E0C8010E94F4040E9426
:101D00004A04C8010E94780461E087E00E947501DE
:101D100060E086E00E94750161E085E00E94750147
:101D200060E084E00E94750180918D0690918E069E
:101D3000A0918F06B09190060797A109B1090C9761
:101D4000A105B10508F065C0C8010E946E056EE5E9
:101D500076E0C8010E94F4040E944A04C8010E946F
:101D6000780460E087E00E94750160E086E00E94F0
:101D7000750160E085E00E94750160E084E00E94EA
:101D8000750164EF71E080E090E00E94170260E06E
:101D900087E00E94750161E086E00E94750160E0C5
:101DA00085E00E94750161E084E00E94750164EFA6
:101DB00071E080E090E00E94170260E087E00E94FE
:101DC000750160E086E00E94750160E085E00E9498
:101DD000750160E084E00E94750164E670E080E0D7
:101DE00090E00E94170261E087E00E94750160E0C8
:101DF00086E00E94750160E084E00E94750160E069
:101E000085E00E94750164EF71E080E090E00E943F
:101E1000170280918D0690918E06A0918F06B09149
:101E200090060797A105B10598F5C8010E946E05B7
:101E300066E776E0C8010E94F4040E944A04C801E3
:101E40000E94780460E087E00E94750160E086E00F
:101E50000E94750160E085E00E94750160E084E009
:101E60000E94750164E670E080E090E00E94170235
:101E700060E087E00E94750161E086E00E947501E4
:101E800060E085E00E94750161E084E00E947501D8
:101E900080918D0690918E06A0918F06B09190064C
:101EA000853A9440A105B1050CF4EBCDC8010E9420
:101EB0006E0566E776E0C8010E94F4040E944A04B9
:101EC000C8010E94780460E087E00E94750161E02B
:101ED00086E00E94750160E085E00E94750161E086
:101EE00084E00E94750164E670E080E090E00E946A
:101EF0001702C7CD8FE997E00C9478048F929F92D8
:101F0000AF92BF92CF92DF92EF92FF92CF93DF9387
:101F1000EC01688179818A819B8161157105810558
:101F2000910521F464E279ED8BE597E02DE133EF43
:101F300041E050E00E945A1149015A019B01AC0155
:101F4000A7EAB1E40E9479116B017C01ACEEB4EF19
:101F5000A50194010E948711C60ED71EE81EF91E26
:101F6000F7FE06C081E0C81AD108E10880E8F80A47
:101F7000C882D982EA82FB82C701B6019F77DF91CE
:101F8000CF91FF90EF90DF90CF90BF90AF909F9058
:101F90008F9008958F929F92AF92BF92CF92DF92CF
:101FA000EF92FF9260910001709101018091020116
:101FB00090910301611571058105910521F464E299
:101FC00079ED8BE597E02DE133EF41E050E00E94A1
:101FD0005A1149015A019B01AC01A7EAB1E40E94E0
:101FE00079116B017C01ACEEB4EFA50194010E9464
:101FF0008711C60ED71EE81EF91EF7FE06C081E047
:10200000C81AD108E10880E8F80AC0920001D0920D
:102010000101E0920201F0920301C701B6019F772E
:10202000FF90EF90DF90CF90BF90AF909F908F90F8
:1020300008956093000170930101809302019093D1
:10204000030108951F93FC0199278827BC01E89498
:1020500011911032E9F3193010F01E30C8F31B3221
:1020600051F01D3249F4689406C00E945210610F6D
:10207000711D811D911D119110531A30B0F33EF462
:1020800090958095709561957F4F8F4F9F4F1F91D1
:10209000089591110C94BE10803219F0895085502A
:1020A000C8F70895592F482F372F262F660F771F0F
:1020B000881F991F660F771F881F991F620F731F54
:1020C000841F951F660F771F881F991F0895BB27D0
:1020D000FB015527AA27880F991FAA1FA41710F0E4
:1020E000A41B83955051B9F7A05DAA3308F0A95DF0
:1020F000A193009779F7B111B1931192CB010C9490
:10210000C110E89409C097FB3EF4909580957095B6
:1021100061957F4F8F4F9F4F9923A9F0F92F96E933
:10212000BB279395F695879577956795B795F111A8
:10213000F8CFFAF4BB0F11F460FF1BC06F5F7F4F45
:102140008F4F9F4F16C0882311F096E911C0772357
:1021500021F09EE8872F762F05C0662371F096E860
:10216000862F70E060E02AF09A95660F771F881F2F
:10217000DAF7880F9695879597F908959927882714
:102180000895DC01FC01672F71917723E1F7329705
:1021900004C07C916D9370836291AE17BF07C8F342
:1021A000089597F99F6780E870E060E008959FEFD9
:1021B00080EC089500240A941616170618060906DE
:1021C000089500240A9412161306140605060895AD
:1021D000092E0394000C11F4882352F0BB0F40F435
:1021E000BF2B11F460FF04C06F5F7F4F8F4F9F4F75
:1021F000089557FD9058440F551F59F05F3F71F0F7
:102200004795880F97FB991F61F09F3F79F087955D
:102210000895121613061406551FF2CF4695F1DFE6
:1022200008C0161617061806991FF1CF8695710576
:10223000610508940895E894BB2766277727CB01AA
:1022400097F90895F999FECF92BD81BDF89A992723
:1022500080B50895262FF999FECF1FBA92BD81BD92
:1022600020BD0FB6F894FA9AF99A0FBE0196089518
:10227000A1E21A2EAA1BBB1BFD010DC0AA1FBB1F8A
:10228000EE1FFF1FA217B307E407F50720F0A21BFC
:10229000B30BE40BF50B661F771F881F991F1A9469
:1022A00069F760957095809590959B01AC01BD0193
:1022B000CF010895052E97FB1EF400940E94711122
:1022C00057FD07D00E94381107FC03D04EF40C9440
:1022D000711150954095309521953F4F4F4F5F4F6D
:1022E000089590958095709561957F4F8F4F9F4F82
:1022F00008950E94C311A59F900DB49F900DA49FB7
:10230000800D911D11240895B7FF0C9479110E943E
:102310007911821B930B08952F923F924F925F92F7
:102320006F927F928F929F92AF92BF92CF92DF92E5
:10233000EF92FF920F931F93CF93DF93CDB7DEB74A
:10234000CA1BDB0B0FB6F894DEBF0FBECDBF0994DE
:102350002A88398848885F846E847D848C849B8435
:10236000AA84B984C884DF80EE80FD800C811B8143
:10237000AA81B981CE0FD11D0FB6F894DEBF0FBE72
:10238000CDBFED010895A29FB001B39FC001A39FEF
:10239000700D811D1124911DB29F700D811D11249E
:1023A000911D08950E94E6110C94E8100E94E1101E
:1023B00058F00E94DA1040F029F45F3F29F00C94A5
:1023C000D11051110C941C110C94D7100E94F910CB
:1023D00068F39923B1F3552391F3951B550BBB2754
:1023E000AA2762177307840738F09F5F5F4F220F99
:1023F000331F441FAA1FA9F335D00E2E3AF0E0E890
:1024000032D091505040E695001CCAF72BD0FE2FD9
:1024100029D0660F771F881FBB1F2617370748076D
:10242000AB07B0E809F0BB0B802DBF01FF27935825
:102430005F4F3AF09E3F510578F00C94D1100C9408
:102440001C115F3FE4F3983ED4F38695779567952A
:10245000B795F7959F5FC9F7880F911D969587955A
:1024600097F90895E1E0660F771F881FBB1F621779
:1024700073078407BA0720F0621B730B840BBA0B37
:10248000EE1F88F7E09508950E944B126894B111F1
:102490000C941C1108950E94011188F09F5798F028
:1024A000B92F9927B751B0F0E1F0660F771F881F59
:1024B000991F1AF0BA95C9F714C0B13091F00E9473
:1024C0001B11B1E008950C941B11672F782F8827FA
:1024D000B85F39F0B93FCCF3869577956795B3959A
:1024E000D9F73EF490958095709561957F4F8F4F09
:1024F0009F4F0895991B79E004C0991F961708F023
:10250000961B881F7A95C9F780950895EE0FFF1FD7
:102510000590F491E02D09940F931F93CF93DF93CF
:102520008230910510F482E090E0E091A707F091ED
:10253000A80730E020E0B0E0A0E0309799F4211542
:10254000310509F44AC0281B390B24303105D8F570
:102550008A819B816115710589F1FB0193838283D7
:10256000FE0111C040815181028113814817590732
:10257000E0F04817590799F4109761F012960C9300
:10258000129713961C933296CF01DF91CF911F9132
:102590000F9108950093A7071093A807F4CF211572
:1025A000310551F04217530738F0A901DB019A01B8
:1025B000BD01DF01F801C1CFEF01F9CF9093A8076A
:1025C0008093A707CDCFFE01E20FF31F8193919374
:1025D0002250310939832883D7CF2091A507309124
:1025E000A607232B41F42091060130910701309377
:1025F000A6072093A507209104013091050121151C
:10260000310541F42DB73EB74091080150910901C1
:10261000241B350BE091A507F091A607E217F307FD
:10262000A0F42E1B3F0B2817390778F0AC014E5F42
:102630005F4F2417350748F04E0F5F1F5093A607D2
:102640004093A507819391939FCFF0E0E0E09CCF6A
:10265000CF93DF930097E9F0FC0132971382128247
:10266000A091A707B091A807ED0130E020E01097F6
:10267000A1F420813181820F931F2091A507309111
:10268000A6072817390709F061C0F093A607E09361
:10269000A507DF91CF910895EA01CE17DF07E8F58E
:1026A0004A815B819E0141155105B1F7E901FB8328
:1026B000EA8349915991C40FD51FEC17FD0761F4C6
:1026C000808191810296840F951FE9019983888307
:1026D000828193819B838A83F0E0E0E012968D9162
:1026E0009C9113970097B9F52D913C911197CD01CD
:1026F0000296820F931F2091A5073091A6072817F5
:10270000390739F6309751F51092A8071092A707AC
:10271000B093A607A093A507BCCFD383C283408103
:102720005181840F951FC817D90761F44E5F5F4F21
:1027300088819981480F591F518340838A819B81E9
:10274000938382832115310509F0B0CFF093A80758
:10275000E093A7079ECFFD01DC01C0CF1382128258
:10276000D7CFB0E0A0E0E7EBF3E10C948E118C0141
:10277000009751F4CB010E948C128C01C801CDB797
:10278000DEB7E0E10C94AA11FC01E60FF71F9C01F3
:1027900022503109E217F30708F49DC0D901CD9109
:1027A000DC911197C617D70798F0C530D10530F3E3
:1027B000CE0104978617970708F3C61BD70B2297FD
:1027C000C193D1936D937C93CF010E942813D6CFF0
:1027D0005B01AC1ABD0A4C018C0E9D1EA091A7078F
:1027E000B091A807512C412CF12CE12C109731F518
:1027F0008091A5079091A6078815990509F05CC0FE
:102800004616570608F058C08091040190910501C2
:10281000009741F48DB79EB740910801509109018E
:10282000841B950BE817F90708F055C0F093A6072D
:10283000E093A507F90171836083A0CF8D919C91EE
:10284000119712966C90129713967C901397A81577
:10285000B90559F56C0142E0C40ED11CCA14DB0461
:1028600020F1AC014A195B09DA011296159780F044
:102870006282738251834083D9016D937C93E1140A
:10288000F10471F0D7011396FC93EE93129776CF73
:1028900022968C0F9D1FF90191838083F301EFCF66
:1028A000F093A807E093A70769CF4816590608F4E4
:1028B0002C017D01D3019ACFCB010E948C127C01A7
:1028C000009749F0AE01B8010E947E14C8010E9431
:1028D0002813870153CF10E000E050CF91110895E5
:1028E00081548A5108F4805E855A089591110895A3
:1028F00081568A5108F4805285580895FB01DC0105
:1029000002C001900D9241505040D8F70895FB014C
:10291000DC018D91019080190110D9F3990B089574
:10292000FB01DC0101900D920020E1F7089510E019
:10293000C2E6D0E004C0FE010E9486122196C33692
:08294000D107C9F7F894FFCF9D
:10294800010000000000A9078000000000002B0320
:102958004B0278027803E9028702DB0200000000DC
:10296800A703A40398034A020D0A003A205374618E
:102978007274696E6720536572766F20546573743C
:102988002100536572766F2061743A2000206465D7
:102998006772656528732920706F736974696F6E33
:1029A800003A20536572766F205465737420446F23
:1029B8006E6521003A2053656E64696E6720506C1D
:1029C80075736521003A20506C75736520456368FE
:1029D8006F20726563696576656421003A204469F1
:1029E8007374616E63653A200020636D2E00436F37
:1029F8007079726967687420C2A920323031332D2A
:102A08003230323320494E4E4F424154452C204CEF
:102A18004C432E20416C6C20726967687473207275
:102A2800657365727665642E00526F626F726163BA
:102A3800657220416C70686120616E6420526F621B
:102A48006F726163657220416C706861204D7520FA
:102A580061726520207265676973746572656420A8
:102A680074726164656D61726B7320616E642F6F3F
:102A7800722074726164656D61726B73206F662079
:102A8800494E4E4F424154452C204C4C432E206910
:102A98006E2074686520556E69746564205374618E
:102AA8007465732C204E6577205A65616C616E647D
:102AB80020616E64206F7468657220636F756E7430
:102AC800726965732E20416C6C206F746865722082
:102AD80074726164656D61726B7320616E642070DD
:102AE800726F64756374206E616D65732062652012
:102AF8007468652074726164656D61726B73206FB0
:102B0800662074686569722072657370656374699C
:102B18007665206F776E6572732E00556E697175D4
:102B28006549443A20003A20526F626F72616365CA
:102B38007220416C706861204D75E284A22069732F
:102B48002061626F757420746F20696E69746961A1
:102B580074652E2E003A20526F626F72616365723F
:102B680020416C706861204D75E284A22053746125
:102B78007274696E67204265652044616E636521E1
:102B88002E2E003A20526F626F7261636572204187
:102B98006C706861204D75E284A220456E64696E90
:102BA80067204265652044616E6365212E2E0052C0
:102BB8006F626F726163657220416C706861204D4D
:102BC80075E284A22069732073657420746F206D88
:102BD8006F64653A20003A20526F626F72616365D4
:102BE8007220416C706861204D75E284A220696E84
:102BF800697469617465642E2E00446F20796F755D
:102C08002077616E7420746F2073657475702074FA
:102C18006865206D6F646520666F722074686973DB
:102C2800206465766963653F202028792F6E290026
:102C38007900536574206D6F64652062792074791A
:102C480070696E6720612076616C756520626574B5
:102C58007765656E203020616E642039393A2D0021
:102C68004D6F64652069732073657420746F3A2012
:102C780031004D6F64652069732073657420746F2B
:102C88003A2032004D6F64652069732073657420A3
:102C9800746F3A2033004D6F646520697320736543
:102CA8007420746F3A2034004D6F64652069732076
:102CB80073657420746F3A2035004D6F6465206920
:102CC800732073657420746F3A203600506C656108
:102CD800736520656E74657220616E20616E676C25
:102CE800652076616C75652066726F6D2030207482
:102CF8006F2031383020646567726565732E004D2A
:102D08006F64652069732073657420746F3A203787
:102D1800004D6F64652069732073657420746F3A81
:102D28002030003A204C656674204D6F746F722015
:102D3800436865636B21004C656674204D6F746F42
:102D48007220466F7277617264004C656674204D1C
:102D58006F746F722053746F70706564004C656691
:102D680074204D6F746F72204261636B7761726477
:102D780073003A204C656674204D6F746F7220435F
:102D88006865636B20446F6E6521003A205269675D
:102D98006874204D6F746F7220436865636B2100FF
:102DA8005269676874204D6F746F7220466F72772E
:102DB800617264005269676874204D6F746F722085
:102DC80053746F70706564005269676874204D6F42
:102DD800746F72204261636B7761726473003A208A
:102DE8005269676874204D6F746F72204368656319
:102DF8006B20446F6E6521003A20537461727469C8
:102E08006E6720536F6E6172205465737421003AA7
:102E180020536F6E6172205465737420446F6E6521
:102E280021003A205374617274696E6720426F748E
:102E380068204D6F746F7220546573742100426F5F
:102E48007468204D6F746F7220466F727761726478
:102E580000426F7468204D6F746F72204261636B1B
:102E6800776172647300536F6E6172205365727676
:102E78006F207061726B65642061743A2000206471
:102E880065677265652873292E003A204D6F76694B
:102E98006E6720666F72776172642E2E2E003A205C
:102EA8004F62737461636C652041766F6964616E0B
:102EB80063652E2E2E003A204D6F76696E6720428C
:0C2EC80061636B776172642E2E2E000097
:00000001FF
