:100000000C9463000C948B000C948B000C948B006C
:100010000C948B000C948B000C948B000C948B0034
:100020000C948B000C948B000C948B000C94B105F9
:100030000C948B000C948B000C948B000C948B0014
:100040000C940F050C948B000C947F050C945905AF
:100050000C948B000C948B000C948B000C948B00F4
:100060000C948B000C948B000000000023002600F1
:10007000290000000000240027002A0000000000E2
:10008000250028002B0004040404040404040202D4
:100090000202020203030303030301020408102007
:1000A0004080010204081020010204081020000012
:1000B0000008000201000003040700000000000027
:1000C00000005A06B30C11241FBECFEFD8E0DEBFEC
:1000D000CDBF15E0A0E0B1E0E2EAF3E202C0059096
:1000E0000D92A23FB107D9F727E0A2EFB5E001C01A
:1000F0001D92AB30B207E1F710E0C2E6D0E004C0D9
:100100002197FE010E94B30FC136D107C9F70E94A3
:10011000F1060C94C4110C94000090E0FC01E2552F
:10012000FF4F2491FC01E656FF4F3491FC01EA5742
:10013000FF4FE491EE23C9F0222339F0233001F17F
:10014000A8F4213019F1223029F1F0E0EE0FFF1F61
:10015000E458FF4FA591B4918FB7F894EC916111D9
:1001600026C030953E233C938FBF08952730A9F0D9
:100170002830C9F0243049F7809180008F7D03C07A
:10018000809180008F7780938000DFCF84B58F7758
:1001900084BDDBCF84B58F7DFBCF8091B0008F779E
:1001A0008093B000D2CF8091B0008F7DF9CF3E2BED
:1001B000DACFCF93DF9390E0FC01E656FF4F249116
:1001C0008A579F4FFC0184918823D1F090E0880FDB
:1001D000991FFC01EE58FF4FA591B491FC01E45822
:1001E000FF4FC591D49161110EC09FB7F8948C91C7
:1001F000E22FE0958E238C932881E223E8839FBF32
:10020000DF91CF9108958FB7F894EC91E22BEC93A6
:100210008FBFF6CF3FB7F89480911E0690911F06CE
:10022000A0912006B091210626B5A89B05C02F3FBE
:1002300019F00196A11DB11D3FBFBA2FA92F982F0C
:100240008827BC01CD01620F711D811D911D42E007
:10025000660F771F881F991F4A95D1F708958F92CF
:100260009F92AF92BF92CF92DF92EF92FF926B017B
:100270007C010E940A014B015C01C114D104E1041C
:10028000F104B9F00E940A01681979098A099B09E9
:10029000683E73408105910580F321E0C21AD108C0
:1002A000E108F10888EE880E83E0981EA11CB11CBD
:1002B000E4CFFF90EF90DF90CF90BF90AF909F90F2
:1002C0008F9008950895AF92BF92CF92DF92EF92F0
:1002D000FF920F931F93CF93DF936C017B018B01F0
:1002E000040F151FEB015E01AE18BF08C017D10740
:1002F00059F06991D601ED91FC910190F081E02DCA
:10030000C6010995892B79F7C501DF91CF911F911E
:100310000F91FF90EF90DF90CF90BF90AF90089536
:10032000FC01538D448D252F30E0842F90E0821BFB
:10033000930B541710F0CF96089501970895FC0180
:10034000918D828D981761F0A28DAE0FBF2FB11DD8
:100350005D968C91928D9F5F9F73928F90E0089530
:100360008FEF9FEF08952FB7F89480912206909118
:100370002306A0912406B09125062FBF80932E0658
:1003800090932F06A0933006B093310686E296E054
:100390000E949F0197FF26C02FB7F89480912206F4
:1003A00090912306A0912406B09125062FBF40917D
:1003B0002E0650912F066091300670913106841BF5
:1003C000950BA60BB70B40912A0650912B06609116
:1003D0002C0670912D0684179507A607B707B0F273
:1003E0008FEF9FEF0895FC01918D828D981731F06A
:1003F000828DE80FF11D858D90E008958FEF9FEFBE
:100400000895FC01918D228D892F90E0805C9F4F93
:10041000821B91098F739927089586E296E00E94C6
:10042000010221E0892B09F420E0822F089580E069
:1004300090E0892B29F00E940D0281110C9400009C
:100440000895FC01A48DA80FB92FB11DA35ABF4F69
:100450002C91848D90E001968F739927848FA689C3
:10046000B7892C93A089B1898C91837080648C9317
:10047000938D848D981306C00288F389E02D8081C6
:100480008F7D80830895EF92FF920F931F93CF93F8
:10049000DF93EC0181E0888F9B8D8C8D98131AC0BF
:1004A000E889F989808185FF15C09FB7F894EE89A6
:1004B000FF896083E889F989808183708064808303
:1004C0009FBF81E090E0DF91CF911F910F91FF904E
:1004D000EF900895F62E0B8D10E00F5F1F4F0F73F6
:1004E0001127E02E8C8D8E110CC00FB607FCFACFB1
:1004F000E889F989808185FFF5CFCE010E9421022C
:10050000F1CFEB8DEC0FFD2FF11DE35AFF4FF08281
:100510009FB7F8940B8FEA89FB8980818062CFCFE7
:10052000CF93DF93EC01888D8823B9F0AA89BB892A
:10053000E889F9898C9185FD03C0808186FD0DC015
:100540000FB607FCF7CF8C9185FFF2CF808185FF36
:10055000EDCFCE010E942102E9CFDF91CF91089526
:1005600090E080E00895089584EF96E00C94BC023A
:1005700084EF96E00C94BF0290E080E0089590E054
:1005800080E00895FB0101900020E9F73197AF0169
:10059000461B570BDC01ED91FC910280F381E02DAD
:1005A00009948F929F92AF92BF92EF92FF920F9316
:1005B0001F93CF93DF93CDB7DEB7A1970FB6F89413
:1005C000DEBF0FBECDBF7C01FA01CB0119A22230E4
:1005D00008F42AE08E010F5D1F4F822E912CB12C62
:1005E000A12CBF01A50194010E94710EF901CA015D
:1005F0006A300CF5605DD8016E938D01232B242B9E
:10060000252B79F790E080E0109721F0BD01C7011C
:100610000E94C202A1960FB6F894DEBF0FBECDBFF6
:10062000DF91CF911F910F91FF90EF90BF90AF900E
:100630009F908F900895695CDECFCF93DF93BC01CC
:1006400086E296E00E94C202EC0168E271E086E276
:1006500096E00E94C2028C0F9D1FDF91CF910895FA
:10066000CF93DF93FC01448155816081718186E2E3
:1006700096E00E946301EC0168E271E086E296E098
:100680000E94C2028C0F9D1FDF91CF910895682FA9
:1006900090E080E00C94630ECF93DF93EC018881AF
:1006A0009981009711F00E945510198218821D82BD
:1006B0001C821B821A82DF91CF910895FC018081F8
:1006C0009181009711F00C9455100895FC0124813C
:1006D0003581232B39F421E0FB018081882349F007
:1006E00020E007C0808191810E94B41121E0892B14
:1006F000B9F7822F08950F931F93CF93DF93EC01E7
:1007000088819981009759F02A813B812617370704
:1007100030F081E0DF91CF911F910F9108958B010F
:100720006F5F7F4F0E94DE10009759F09983888396
:100730001B830A832C813D81232B59F7FC011082F6
:10074000E8CF80E0E7CFEF92FF920F931F93CF9314
:10075000DF936115710541F480E0DF91CF911F9126
:100760000F91FF90EF90089541155105B1F07B0175
:10077000EC010C811D81040F151FB8010E947B0341
:10078000882351F3288139818C819D81B701820FA3
:10079000931F0E94BD111D830C8381E0DECFCF9398
:1007A000DF93EC01FB0101900020E9F73197AF01E5
:1007B000461B570B0E94A303811103C0CE010E9468
:1007C0004C03CE01DF91CF910895EF92FF920F93EA
:1007D0001F93CF93DF93EC017B018A01BA010E9442
:1007E0007B0381110BC0CE010E944C03CE01DF912F
:1007F000CF911F910F91FF90EF9008951D830C836F
:10080000B701888199810E94BD11F0CF0F931F938A
:10081000CF93DF9300D0CDB7DEB78C01FC011182FE
:100820001082138212821582148250E040E06AE244
:1008300071E00E94E5030E94B30197FD0BC089831C
:100840001A8241E050E0BE016F5F7F4FC8010E94F5
:10085000A303F1CFC8010F900F90DF91CF911F91AB
:100860000F910895CF93DF93EC01FB018617970753
:1008700049F0608171816115710541F044815581B4
:100880000E94E503CE01DF91CF9108950E944C03B1
:10089000F9CFFC0111821082138212821582148218
:1008A00061E077E00C943204CF92DF92EF92FF92F6
:1008B0000F931F93CF93DF9300D000D000D0CDB71C
:1008C000DEB7CE0101960E9449046BE271E0CE01D1
:1008D00001960E94CF030E943003CE0101960E9430
:1008E0005E0360E089E00E948D0083E090E0019764
:1008F000F1F761E089E00E948D0083E290E00197CA
:10090000F1F7E4EAF0E06491E0E9F0E0E491F0E08E
:10091000EE0FFF1FE859FF4F8591949100E412E418
:100920002FE030E0462F0E94150661157105810504
:10093000910529F06F5F7F4F8F4F9F4F9F700E94EF
:10094000BC0D2DEC3CEC48E652E40E940B0F0E94DB
:100950007D0F609317067093180680931906909385
:100960001A066AE070E080E090E00E942F01CE015C
:1009700001960E9449046CE371E0CE0101960E9449
:10098000CF030E943003CE0101960E945E03CE0188
:1009900001960E94490463E571E0CE0101960E9430
:1009A000CF03FC01448155816081718186E296E02C
:1009B0000E946301CE0101960E945E03C09017065B
:1009C000D0901806E0901906F0901A062AE0B701B8
:1009D000A601F7FE0DC06DE286E296E00E9443029A
:1009E00044275527BA014C195D096E097F092AE091
:1009F00086E296E00E94D10280E691E00E941D030B
:100A000026960FB6F894DEBF0FBECDBFDF91CF9113
:100A10001F910F91FF90EF90DF90CF9008951F925C
:100A20000F920FB60F9211242F933F938F939F93A2
:100A3000AF93BF938091220690912306A091240644
:100A4000B091250630911D0623E0230F2D3758F570
:100A50000196A11DB11D20931D068093220690933F
:100A60002306A0932406B093250680911E0690913C
:100A70001F06A0912006B09121060196A11DB11D6F
:100A800080931E0690931F06A0932006B093210624
:100A9000BF91AF919F918F913F912F910F900FBE7A
:100AA0000F901F90189526E8230F0296A11DB11DE7
:100AB000D2CF1F920F920FB60F9211242F933F9314
:100AC0004F935F936F937F938F939F93AF93BF9356
:100AD000EF93FF9386E296E00E942102FF91EF914F
:100AE000BF91AF919F918F917F916F915F914F9146
:100AF0003F912F910F900FBE0F901F9018951F924E
:100B00000F920FB60F9211242F938F939F93EF9311
:100B1000FF93E0913606F09137068081E0913C0624
:100B2000F0913D0682FD1BC0908180913F068F5F52
:100B30008F7320914006821741F0E0913F06F0E06C
:100B4000EA5DF94F958F80933F06FF91EF919F915A
:100B50008F912F910F900FBE0F901F90189580814D
:100B6000F4CF1F920F920FB60F9211242F933F9341
:100B70008F939F93EF93FF938091160687FF1FC07B
:100B80001092850010928400809116068F5F8093EA
:100B900016068091160687FF04C0809116068C30D9
:100BA000ACF08091840090918500049680349C493B
:100BB00090F1809184009091850004962EC08091E0
:100BC000160687FFE1CF80911606DECF20918400C4
:100BD00030918500E09116068E2FEE0F990BFC01E7
:100BE000EE0FFF1FE80FF91FEE50FA4F818192813F
:100BF000820F931F9093890080938800809116063E
:100C0000FF91EF919F918F913F912F910F900FBE88
:100C10000F901F90189580E49CE990938900809331
:100C200088008FEF80931606EBCFCF92DF92EF9282
:100C3000FF920F931F93E82FF92F05C00150110960
:100C40002109310961F1908196239417B9F305C008
:100C5000015011092109310911F190819623941352
:100C6000F7CFC12CD12CE12CF12C0AC08FEFC81A80
:100C7000D80AE80AF80A0C151D052E053F0579F07B
:100C800080818623841791F36C2D7D2D8E2D9F2DD1
:100C90001F910F91FF90EF90DF90CF90089560E04B
:100CA00070E080E090E01F910F91FF90EF90DF9057
:100CB000CF900895109229061092280688EE93E0AE
:100CC000A0E0B0E080932A0690932B06A0932C0618
:100CD000B0932D068EE091E0909327068093260630
:100CE00085EC90E0909333068093320684EC90E09C
:100CF000909335068093340680EC90E0909337060D
:100D00008093360681EC90E0909339068093380604
:100D100082EC90E090933B0680933A0686EC90E05C
:100D200090933D0680933C0610923F061092400639
:100D3000109241061092420688E893E1A0E0B0E0EC
:100D40008093E6069093E706A093E806B093E90641
:100D50001092F2061092EE061092EF061092F00634
:100D60001092F1061092F3061092C5061092C40676
:100D70001092C3061092F7061092F60680E291E0F8
:100D80009093F5068093F406A8EFB6E090E080E03B
:100D900021E2E1E0F0E08630910510F4F0E0E0E0DF
:100DA000AC01425F5F4FE40FF51F20935700E491C1
:100DB000ED9301968930910561F710920207109228
:100DC0000107109204071092030710920607109271
:100DD000050750E040E06AE271E081E097E00C94A2
:100DE000E503CF93DF93CDB7DEB72F970FB6F89417
:100DF000DEBF0FBECDBF789484B5826084BD84B55C
:100E0000816084BD85B5826085BD85B5816085BD05
:100E100080916E00816080936E00109281008091BD
:100E20008100826080938100809181008160809345
:100E30008100809180008160809380008091B1006A
:100E400084608093B1008091B00081608093B00095
:100E500080917A00846080937A0080917A00826029
:100E600080937A0080917A00816080937A008091EB
:100E70007A00806880937A001092C1000E94030D6E
:100E80002CED35E040E050E00E94930E6C507E4F18
:100E90008F4F9F4F0E942F01E0913606F091370649
:100EA00082E08083E0913206F09133061082E09177
:100EB0003406F09135068FEC808310923E06E09167
:100EC0003A06F0913B0686E08083E0913806F09187
:100ED0003906808180618083E0913806F09139067F
:100EE000808188608083E0913806F09139068081A6
:100EF00080688083E0913806F091390680818F7D8B
:100F0000808385E691E00E941D0380EA91E00E94C3
:100F10001D0362E972E086E296E00E94C20238EFA9
:100F2000C32E36E0D32E7601F70181917F01803107
:100F300030F461E474E086E296E00E94C202F701B8
:100F40003197408150E070E060E020E186E296E079
:100F50000E94D1026BE972E086E296E00E94C20232
:100F6000F1E0EF16F7E0FF06F9F668E271E086E2DD
:100F700096E00E94C2028E010F5F1F4FF601819121
:100F80006F011B861A861D861C861F861E8640E101
:100F9000B80190E00E94A00DF80101900020E9F74F
:100FA0003197AF01401B510BB801CE010A960E9448
:100FB000E503C8010E9449044E855F856A857B85EB
:100FC000C8010E94A303811103C0C8010E944C0301
:100FD000B80181E097E00E943204C8010E945E03DC
:100FE000CE010A960E945E03EC14FD0439F6E090EF
:100FF0000107F0900207E114F10471F0F70181910B
:101000007F01882349F0082E000C990B0E94A31140
:10101000F70131978083F2CF61E084E00E94D9002C
:1010200061E085E00E94D90061E086E00E94D9007D
:1010300061E087E00E94D90061E089E00E94D90068
:1010400060E08AE00E94D900C8010E9449046DE96D
:1010500072E0C8010E94CF030E943003C8010E94C1
:101060005E0386E296E00E949002C8010E94490455
:101070006CEC72E0C8010E94CF030E943003C801EB
:101080000E945E0361E087E00E948D000E94030DD4
:1010900028EEC22E23E0D22EE12CF12CA7019601DE
:1010A0000E94930E68517C4F8F4F9F4F0E942F01DB
:1010B00060E087E00E948D0061E085E00E948D0085
:1010C0000E94030DA70196010E94930E68517C4F68
:1010D0008F4F9F4F0E942F0160E085E00E948D009E
:1010E000C8010E9449046AEF72E0C8010E94CF0360
:1010F0000E943003C8010E945E0390E080E00E94DD
:101100005B0E282F30E030931C0620931B068630A0
:1011100038F010921C0610921B0680E00E944703D4
:1011200066E273E086E296E00E94C202C0901B066F
:10113000D0901C060D2C000CEE08FF082AE0B70129
:10114000A601F7FE0DC06DE286E296E00E94430222
:1011500044275527BA014C195D096E097F092AE019
:1011600086E296E00E94D10268E271E086E296E0B3
:101170000E94C202C8010E9449046DE473E0C801E4
:101180000E94CF030E943003C8010E945E0386E2E2
:1011900096E00E94900260E273E080E090E00E949E
:1011A0002F0180E797E1A0E0B0E080932A069093BA
:1011B0002B06A0932C06B0932D0681E793E00E94A6
:1011C0001D03CE010A960E940604AA84BB84A114C2
:1011D000B10431F0EE84FF846501E114F104B1F44F
:1011E000EA84FB84E114F10409F448C0F701819119
:1011F0007F01882309F442C0082E000C990B0E943D
:101200009B11F70131978083F1CF64014601FFEF15
:101210008F1A9F0AF6018081082E000C990B0E94FC
:10122000820D892B91F7F1E0EF1AF108EA0CFB1C13
:10123000F7018081082E000C990B0E94820D892BEA
:1012400039F0EC14FD0420F0F1E0EF1AF108F0CFD2
:10125000A7014F5F5F4F4C195D095F874E87AC1444
:10126000BD0420F4B601C5010E94AB11EA85FB85DF
:101270008E859F85E80FF91F1082B2CF67EA73E071
:10128000CE010A960E946603882309F4CBC089EA3E
:1012900093E00E941D0386E296E00E940102892BE2
:1012A000D1F3C8010E9406048A859B85009709F442
:1012B000F5C169817A816115710509F4EDC14C852B
:1012C0005D852D813E814217530708F4E5C10E94D8
:1012D000BD118D819E819F878E871E821D82C801D0
:1012E0000E945E0367EE73E0CE010A960E946603D9
:1012F000882361F081E090E090931C0680931B06A8
:101300000E94470387ED93E00E941D0369EF73E09D
:10131000CE010A960E946603882361F082E090E085
:1013200090931C0680931B060E94470389EE93E06E
:101330000E941D036BE074E0CE010A960E946603D2
:10134000882361F083E090E090931C0680931B0655
:101350000E9447038BEF93E00E941D036DE174E050
:10136000CE010A960E946603882361F084E090E033
:1013700090931C0680931B060E9447038DE094E027
:101380000E941D036FE274E0CE010A960E9466037C
:10139000882361F085E090E090931C0680931B0603
:1013A0000E9447038FE194E00E941D0361E474E012
:1013B000CE010A960E946603882359F010921C06FB
:1013C00010921B0680E00E94470381E394E00E9494
:1013D0001D036AE271E0CE010A960E94660388232B
:1013E00059F010921C0610921B0680E00E944703E1
:1013F00081E394E00E941D038A859B85009791F00C
:101400000E945B0D6B307105810591055CF01092B7
:101410001C0610921B0680E00E94470381E394E0C3
:101420000E941D0386E296E00E949002CE010A9679
:101430000E945E0380E0E82E80E0F82E80911B067B
:1014400090911C068330910509F459C20CF037C104
:101450008130910509F47AC1029709F4EFC161E086
:101460008DE00E948D000E94540460E08DE00E9497
:101470008D008091170690911806A0911906B091E1
:101480001A064497A109B10981399440A105B10513
:10149000E8F4C8010E94490460EB75E0C8010E94AD
:1014A000CF030E943003C8010E945E0361E087E021
:1014B0000E948D0060E086E00E948D0061E085E082
:1014C0000E948D0060E084E00E948D0080911706EC
:1014D00090911806A0911906B0911A060797A109D4
:1014E000B1090C97A105B10508F065C0C8010E94BB
:1014F000490464EC75E0C8010E94CF030E943003E8
:10150000C8010E945E0360E087E00E948D0060E0F9
:1015100086E00E948D0060E085E00E948D0060E022
:1015200084E00E948D0064EF71E080E090E00E9412
:101530002F0160E087E00E948D0061E086E00E945C
:101540008D0060E085E00E948D0061E084E00E94F3
:101550008D0064EF71E080E090E00E942F0160E078
:1015600087E00E948D0060E086E00E948D0060E0D0
:1015700085E00E948D0060E084E00E948D0064E6BA
:1015800070E080E090E00E942F0161E087E00E941F
:101590008D0060E086E00E948D0060E084E00E94A3
:1015A0008D0060E085E00E948D0064EF71E080E0D6
:1015B00090E00E942F018091170690911806A0914B
:1015C0001906B0911A060797A105B10598F5C8014B
:1015D0000E9449046CED75E0C8010E94CF030E948F
:1015E0003003C8010E945E0360E087E00E948D0026
:1015F00060E086E00E948D0060E085E00E948D0042
:1016000060E084E00E948D0064E670E080E090E09D
:101610000E942F0160E087E00E948D0061E086E07B
:101620000E948D0060E085E00E948D0061E084E012
:101630000E948D008091170690911806A0911906BE
:10164000B0911A06853A9440A105B1050CF4E6C0A4
:10165000C8010E9449046CED75E0C8010E94CF03E7
:101660000E943003C8010E945E0360E087E00E9490
:101670008D0061E086E00E948D0060E085E00E94C0
:101680008D0061E084E00E948D0064E670E080E0FF
:1016900090E00E942F01C2C00E94551089819A815A
:1016A0009B878A878B819C819D878C878D819E817A
:1016B0009F878E871A8219821C821B820ECE8430ED
:1016C000910509F437C1059709F0C9CEC8010E94F8
:1016D00049046CE675E0C8010E94CF030E94300304
:1016E000C8010E945E0360E084E00E948D0060E01B
:1016F00086E00E948D0061E085E00E948D0061E03F
:1017000087E00E948D0088E895E00E941D0360ED4F
:1017100077E080E090E00E942F0160E085E00E9489
:101720008D0060E087E00E948D0061E084E00E940F
:101730008D0061E086E00E948D008BE995E00E94BB
:101740001D0360ED77E080E090E005C1C8010E94D4
:10175000490463E474E0C8010E94CF030E9430038F
:10176000C8010E945E0368EC70E080E090E00E9497
:101770002F0160E084E00E948D0061E085E00E941E
:101780008D0087E594E00E941D0364EF71E080E026
:1017900090E00E942F0160E084E00E948D0060E0F4
:1017A00085E00E948D008AE694E00E941D0364EFAC
:1017B00071E080E090E00E942F0160E085E00E94EF
:1017C0008D0061E084E00E948D008DE794E00E942E
:1017D0001D0364EF71E080E090E00E942F0161E062
:1017E00084E00E948D0061E085E00E948D008AE621
:1017F00094E00E941D0364EF71E080E090E00E949D
:101800002F01C8010E94490462E974E0C8010E94E6
:10181000CF030E943003C8010E945E0386E296E077
:101820000E949002E114F10409F408CE0E940D0216
:10183000882309F403CE0E94000000CEC8010E9454
:1018400049046BEA74E0C8010E94CF030E94300390
:10185000C8010E945E0368EC70E080E090E00E94A6
:101860002F0160E086E00E948D0061E087E00E9429
:101870008D0080EC94E00E941D0364EF71E080E035
:1018800090E00E942F0160E086E00E948D0060E001
:1018900087E00E948D0084ED94E00E941D0364EFB8
:1018A00071E080E090E00E942F0160E087E00E94FC
:1018B0008D0061E086E00E948D0088EE94E00E9439
:1018C0001D0364EF71E080E090E00E942F0161E071
:1018D00086E00E948D0061E087E00E948D0084ED2B
:1018E00094E00E941D0364EF71E080E090E00E94AC
:1018F0002F01C8010E9449046EEF74E087CFC80130
:101900000E94490468E175E0C8010E94CF030E946B
:101910003003C8010E945E030E94540468EE73E025
:1019200080E090E00E942F01C8010E9449046FE20C
:1019300075E06CCFC8010E94490462E475E0C801FB
:101940000E94CF030E943003C8010E945E0368EE2C
:1019500073E080E090E00E942F01C8010E944904DA
:1019600069E575E053CF81E097E00C945E038F92B8
:101970009F92AF92BF92CF92DF92EF92FF92CF935E
:10198000DF93EC01688179818A819B816115710502
:101990008105910521F464E279ED8BE597E02DE175
:1019A00033EF41E050E00E94930E49015A019B0140
:1019B000AC01A7EAB1E40E94B20E6B017C01ACEE6F
:1019C000B4EFA50194010E94C00EC60ED71EE81EFA
:1019D000F91EF7FE06C081E0C81AD108E10880E8C8
:1019E000F80AC882D982EA82FB82C701B6019F77D2
:1019F000DF91CF91FF90EF90DF90CF90BF90AF90AD
:101A00009F908F9008958F929F92AF92BF92CF92A6
:101A1000DF92EF92FF92609100017091010180913D
:101A2000020190910301611571058105910521F471
:101A300064E279ED8BE597E02DE133EF41E050E092
:101A40000E94930E49015A019B01AC01A7EAB1E43F
:101A50000E94B20E6B017C01ACEEB4EFA5019401C3
:101A60000E94C00EC60ED71EE81EF91EF7FE06C065
:101A700081E0C81AD108E10880E8F80AC0920001A4
:101A8000D0920101E0920201F0920301C701B60178
:101A90009F77FF90EF90DF90CF90BF90AF909F9097
:101AA0008F9008956093000170930101809302016B
:101AB0009093030108951F93FC0199278827BC0187
:101AC000E89411911032E9F3193010F01E30C8F388
:101AD0001B3251F01D3249F4689406C00E948B0DF0
:101AE000610F711D811D911D119110531A30B0F3BA
:101AF0003EF490958095709561957F4F8F4F9F4FE5
:101B00001F91089591110C94F70D803219F08950AE
:101B10008550C8F70895592F482F372F262F660F65
:101B2000771F881F991F660F771F881F991F620FE5
:101B3000731F841F951F660F771F881F991F0895B5
:101B4000BB27FB015527AA27880F991FAA1FA41797
:101B500010F0A41B83955051B9F7A05DAA3308F08B
:101B6000A95DA193009779F7B111B1931192CB01BF
:101B70000C94FA0DE89409C097FB3EF4909580957B
:101B8000709561957F4F8F4F9F4F9923A9F0F92F43
:101B900096E9BB279395F695879577956795B795C1
:101BA000F111F8CFFAF4BB0F11F460FF1BC06F5FA7
:101BB0007F4F8F4F9F4F16C0882311F096E911C0B9
:101BC000772321F09EE8872F762F05C0662371F0DA
:101BD00096E8862F70E060E02AF09A95660F771FEE
:101BE000881FDAF7880F9695879597F908959927B2
:101BF00088270895DC01FC01672F71917723E1F7B5
:101C0000329704C07C916D9370836291AE17BF07C9
:101C1000C8F3089597F99F6780E870E060E0089541
:101C20009FEF80EC089500240A94161617061806F4
:101C30000906089500240A941216130614060506D0
:101C40000895092E0394000C11F4882352F0BB0F61
:101C500040F4BF2B11F460FF04C06F5F7F4F8F4FC4
:101C60009F4F089557FD9058440F551F59F05F3FFF
:101C700071F04795880F97FB991F61F09F3F79F0AE
:101C800087950895121613061406551FF2CF469530
:101C9000F1DF08C0161617061806991FF1CF8695B2
:101CA0007105610508940895E894BB276627772796
:101CB000CB0197F90895F999FECF92BD81BDF89AAD
:101CC000992780B50895262FF999FECF1FBA92BDA6
:101CD00081BD20BD0FB6F894FA9AF99A0FBE01960D
:101CE0000895A1E21A2EAA1BBB1BFD010DC0AA1F5D
:101CF000BB1FEE1FFF1FA217B307E407F50720F075
:101D0000A21BB30BE40BF50B661F771F881F991FEF
:101D10001A9469F760957095809590959B01AC0138
:101D2000BD01CF010895052E97FB1EF400940E947B
:101D3000AA0E57FD07D00E94710E07FC03D04EF487
:101D40000C94AA0E50954095309521953F4F4F4FDA
:101D50005F4F089590958095709561957F4F8F4F57
:101D60009F4F08950E94FC0EA59F900DB49F900D6B
:101D7000A49F800D911D11240895B7FF0C94B20EFD
:101D80000E94B20E821B930B08952F923F924F92A6
:101D90005F926F927F928F929F92AF92BF92CF92FB
:101DA000DF92EF92FF920F931F93CF93DF93CDB704
:101DB000DEB7CA1BDB0B0FB6F894DEBF0FBECDBF7C
:101DC00009942A88398848885F846E847D848C844D
:101DD0009B84AA84B984C884DF80EE80FD800C8156
:101DE0001B81AA81B981CE0FD11D0FB6F894DEBF39
:101DF0000FBECDBFED010895A29FB001B39FC001FA
:101E0000A39F700D811D1124911DB29F700D811D26
:101E10001124911D08950E941F0F0C94210E0E9401
:101E20001A0E58F00E94130E40F029F45F3F29F07B
:101E30000C940A0E51110C94550E0C94100E0E9425
:101E4000320E68F39923B1F3552391F3951B550B8B
:101E5000BB27AA2762177307840738F09F5F5F4F7D
:101E6000220F331F441FAA1FA9F335D00E2E3AF0BC
:101E7000E0E832D091505040E695001CCAF72BD0D4
:101E8000FE2F29D0660F771F881FBB1F2617370725
:101E90004807AB07B0E809F0BB0B802DBF01FF2757
:101EA00093585F4F3AF09E3F510578F00C940A0E1C
:101EB0000C94550E5F3FE4F3983ED4F386957795E6
:101EC0006795B795F7959F5FC9F7880F911D969510
:101ED000879597F90895E1E0660F771F881FBB1F6C
:101EE000621773078407BA0720F0621B730B840B19
:101EF000BA0BEE1F88F7E09508950E94840F68944E
:101F0000B1110C94550E08950E943A0E88F09F5717
:101F100098F0B92F9927B751B0F0E1F0660F771F0D
:101F2000881F991F1AF0BA95C9F714C0B13091F003
:101F30000E94540EB1E008950C94540E672F782F30
:101F40008827B85F39F0B93FCCF3869577956795C8
:101F5000B395D9F73EF490958095709561957F4F34
:101F60008F4F9F4F0895EE0FFF1F0590F491E02DC6
:101F700009940F931F93CF93DF938230910510F450
:101F800082E090E0E0910907F0910A0730E020E05C
:101F9000B0E0A0E0309799F42115310509F44AC06A
:101FA000281B390B24303105D8F58A819B816115B6
:101FB000710589F1FB0193838283FE0111C0408189
:101FC00051810281138148175907E0F048175907DA
:101FD00099F4109761F012960C93129713961C9334
:101FE0003296CF01DF91CF911F910F910895009309
:101FF000090710930A07F4CF2115310551F0421754
:10200000530738F0A901DB019A01BD01DF01F80196
:10201000C1CFEF01F9CF90930A0780930907CDCF85
:10202000FE01E20FF31F819391932250310939830E
:102030002883D7CF2091070730910807232B41F43D
:10204000209106013091070130930807209307077C
:1020500020910401309105012115310541F42DB77E
:102060003EB74091080150910901241B350BE091C6
:102070000707F0910807E217F307A0F42E1B3F0BA8
:102080002817390778F0AC014E5F5F4F24173507EA
:1020900048F04E0F5F1F5093080740930707819346
:1020A00091939FCFF0E0E0E09CCFCF93DF93009738
:1020B000E9F0FC01329713821282A0910907B091D6
:1020C0000A07ED0130E020E01097A1F42081318172
:1020D000820F931F209107073091080728173907AF
:1020E00009F061C0F0930807E0930707DF91CF91F3
:1020F0000895EA01CE17DF07E8F54A815B819E016A
:1021000041155105B1F7E901FB83EA8349915991E2
:10211000C40FD51FEC17FD0761F4808191810296F1
:10212000840F951FE90199838883828193819B8322
:102130008A83F0E0E0E012968D919C9113970097CE
:10214000B9F52D913C911197CD010296820F931F05
:1021500020910707309108072817390739F630977B
:1021600051F510920A0710920907B0930807A0933F
:102170000707BCCFD383C28340815181840F951F51
:10218000C817D90761F44E5F5F4F88819981480F66
:10219000591F518340838A819B81938382832115B8
:1021A000310509F0B0CFF0930A07E09309079ECFFD
:1021B000FD01DC01C0CF13821282D7CFB0E0A0E0D6
:1021C000E4EEF0E10C94C70E8C01009751F4CB01C2
:1021D0000E94B90F8C01C801CDB7DEB7E0E10C94C5
:1021E000E30EFC01E60FF71F9C0122503109E217B4
:1021F000F30708F49DC0D901CD91DC911197C61762
:10220000D70798F0C530D10530F3CE010497861773
:10221000970708F3C61BD70B2297C193D1936D93F1
:102220007C93CF010E945510D6CF5B01AC1ABD0A3A
:102230004C018C0E9D1EA0910907B0910A07512CEC
:10224000412CF12CE12C109731F5809107079091EA
:1022500008078815990509F05CC04616570608F06E
:1022600058C08091040190910501009741F48DB709
:102270009EB74091080150910901841B950BE81706
:10228000F90708F055C0F0930807E0930707F90134
:1022900071836083A0CF8D919C91119712966C9061
:1022A000129713967C901397A815B90559F56C01F0
:1022B00042E0C40ED11CCA14DB0420F1AC014A195F
:1022C0005B09DA011296159780F06282738251835E
:1022D0004083D9016D937C93E114F10471F0D7012F
:1022E0001396FC93EE93129776CF22968C0F9D1F38
:1022F000F90191838083F301EFCFF0930A07E09314
:10230000090769CF4816590608F42C017D01D3014D
:102310009ACFCB010E94B90F7C01009749F0AE0122
:10232000B8010E94AB11C8010E945510870153CF1C
:1023300010E000E050CF9111089581548A5108F4C3
:10234000805E855A08959111089581568A5108F446
:10235000805285580895FB01DC0102C001900D9266
:1023600041505040D8F70895FB01DC018D91019058
:1023700080190110D9F3990B0895FB01DC0101903C
:102380000D920020E1F7089510E0C2E6D0E004C00D
:10239000FE010E94B30F2196C336D107C9F7F89406
:0223A000FFCF6D
:1023A2000100000000000B07800000000000430253
:1023B20063019001900201029F01F30100000000FD
:1023C200BF02BC02B00262010D0A003A2053656EE0
:1023D20064696E6720506C75736521003A20506CF9
:1023E200757365204563686F2072656369657665FC
:1023F2006421003A2044697374616E63653A200077
:1024020020636D2E00436F7079726967687420C211
:10241200A920323031332D3230323320494E4E4FE3
:10242200424154452C204C4C432E20416C6C20726E
:1024320069676874732072657365727665642E00CD
:10244200526F626F726163657220416C70686120C5
:10245200616E6420526F626F726163657220416CBB
:10246200706861204D752061726520207265676910
:102472007374657265642074726164656D61726BF8
:102482007320616E642F6F722074726164656D6176
:10249200726B73206F6620494E4E4F424154452C59
:1024A200204C4C432E20696E2074686520556E695D
:1024B200746564205374617465732C204E657720B3
:1024C2005A65616C616E6420616E64206F74686528
:1024D2007220636F756E74726965732E20416C6C25
:1024E200206F746865722074726164656D61726BCD
:1024F2007320616E642070726F64756374206E6104
:102502006D6573206265207468652074726164650C
:102512006D61726B73206F662074686569722072D8
:10252200657370656374697665206F776E65727323
:102532002E00556E6971756549443A20003A205261
:102542006F626F726163657220416C706861204DC9
:1025520075E284A22069732061626F757420746FC2
:1025620020696E6974696174652E2E003A20526F7B
:10257200626F726163657220416C706861204D7593
:10258200E284A2205374617274696E6720426565A9
:102592002044616E6365212E2E003A20526F626FD5
:1025A200726163657220416C706861204D75E284CE
:1025B200A220456E64696E67204265652044616EA3
:1025C2006365212E2E00526F626F72616365722005
:1025D200416C706861204D75E284A220697320739A
:1025E200657420746F206D6F64653A20003A205242
:1025F2006F626F726163657220416C706861204D19
:1026020075E284A220696E697469617465642E2E14
:1026120000446F20796F752077616E7420746F208B
:10262200736574757020746865206D6F64652066CB
:102632006F722074686973206465766963653F20F0
:102642002028792F6E29007900536574206D6F64FC
:102652006520627920747970696E672061207661E5
:102662006C7565206265747765656E203020616ED9
:10267200642039393A2D004D6F64652069732073E7
:10268200657420746F3A2031004D6F646520697360
:102692002073657420746F3A2032004D6F64652098
:1026A20069732073657420746F3A2033004D6F6430
:1026B200652069732073657420746F3A2034004D6D
:1026C2006F64652069732073657420746F3A2035D6
:1026D200004D6F64652069732073657420746F3ACE
:1026E2002030003A204C656674204D6F746F722062
:1026F200436865636B21004C656674204D6F746F8F
:102702007220466F7277617264004C656674204D68
:102712006F746F722053746F70706564004C6566DD
:1027220074204D6F746F72204261636B77617264C3
:1027320073003A204C656674204D6F746F722043AB
:102742006865636B20446F6E6521003A20526967A9
:102752006874204D6F746F7220436865636B21004B
:102762005269676874204D6F746F7220466F72777A
:10277200617264005269676874204D6F746F7220D1
:1027820053746F70706564005269676874204D6F8E
:10279200746F72204261636B7761726473003A20D6
:1027A2005269676874204D6F746F72204368656365
:1027B2006B20446F6E6521003A2053746172746914
:1027C2006E6720536F6E6172205465737421003AF4
:1027D20020536F6E6172205465737420446F6E656E
:1027E20021003A205374617274696E6720536572D6
:1027F200766F205465737421003A20536572766FA8
:10280200205465737420446F6E6521003A2053741E
:10281200617274696E6720426F7468204D6F746FC5
:102822007220546573742100426F7468204D6F7476
:102832006F7220466F727761726400426F74682013
:102842004D6F746F72204261636B776172647300C3
:102852003A204D6F76696E6720666F727761726497
:102862002E2E2E003A204F62737461636C652041F4
:10287200766F6964616E63652E2E2E003A204D6F6D
:1028820076696E67204261636B776172642E2E2EC9
:02289200000044
:00000001FF
