:100000000C9463000C948B000C948B000C948B006C
:100010000C948B000C948B000C948B000C948B0034
:100020000C948B000C948B000C948B000C94380671
:100030000C948B000C948B000C948B000C948B0014
:100040000C9496050C948B000C9406060C94E00519
:100050000C948B000C948B000C948B000C948B00F4
:100060000C948B000C948B000000000023002600F1
:10007000290000000000240027002A0000000000E2
:10008000250028002B0004040404040404040202D4
:100090000202020203030303030301020408102007
:1000A0004080010204081020010204081020000012
:1000B0000008000201000003040700000000000027
:1000C00000003907350E11241FBECFEFD8E0DEBF88
:1000D000CDBF16E0A0E0B1E0EEEBF6E202C0059085
:1000E0000D92A031B107D9F727E0A0E1B6E001C039
:1000F0001D92AD32B207E1F710E0C2E6D0E004C0D5
:100100002197FE010E944111C136D107C9F70E9413
:10011000EB070C9452130C9400008F929F92AF92B5
:10012000BF92FF920F931F93CF93DF938F3F980758
:1001300009F461C0853B910511F484EB90E0F090E7
:1001400020072BE02F1508F44CC02091220708E56A
:1001500012E0021B110927FD1395000F111F000F5C
:10016000111F20912107C8E8D0E0C21BD10927FD4B
:10017000D395CC0FDD1FCC0FDD1F4E010D2E000CD3
:10018000AA08BB089801012E000C440B550B281936
:1001900039094A095B09DC010E943F1024EB30E079
:1001A00040E050E00E941510820E931EA41EB51E62
:1001B0008C169D062CF0E801801691060CF4E401E3
:1001C0002297CC0FDD1F2FB7F8948F2D90E0FC0104
:1001D000EE0FFF1FE80FF91FE550F94FD283C183DF
:1001E0002FBFDF91CF911F910F91FF90BF90AF90E4
:1001F0009F908F90089590E080E0A1CF90E0FC0167
:10020000E255FF4F2491FC01E656FF4F3491FC016B
:10021000EA57FF4FE491EE23C9F0222339F023304F
:1002200001F1A8F4213019F1223029F1F0E0EE0FAC
:10023000FF1FE458FF4FA591B4918FB7F894EC914C
:10024000611126C030953E233C938FBF089527301F
:10025000A9F02830C9F0243049F7809180008F7DC3
:1002600003C0809180008F7780938000DFCF84B5BA
:100270008F7784BDDBCF84B58F7DFBCF8091B000BD
:100280008F778093B000D2CF8091B0008F7DF9CF6F
:100290003E2BDACFCF93DF9390E0FC01E656FF4F81
:1002A00024918A579F4FFC0184918823D1F090E0DC
:1002B000880F991FFC01EE58FF4FA591B491FC01E6
:1002C000E458FF4FC591D49161110EC09FB7F894C7
:1002D0008C91E22FE0958E238C932881E223E88392
:1002E0009FBFDF91CF9108958FB7F894EC91E22BE7
:1002F000EC938FBFF6CF3FB7F8948091180690919A
:100300001906A0911A06B0911B0626B5A89B05C038
:100310002F3F19F00196A11DB11D3FBFBA2FA92F84
:10032000982F8827BC01CD01620F711D811D911D81
:1003300042E0660F771F881F991F4A95D1F70895ED
:100340008F929F92AF92BF92CF92DF92EF92FF92E5
:100350006B017C010E947B014B015C01C114D10443
:10036000E104F104B9F00E947B01681979098A0956
:100370009B09683E73408105910580F321E0C21A14
:10038000D108E108F10888EE880E83E0981EA11CD0
:10039000B11CE4CFFF90EF90DF90CF90BF90AF9073
:1003A0009F908F9008950895AF92BF92CF92DF9261
:1003B000EF92FF920F931F93CF93DF936C017B011A
:1003C0008B01040F151FEB015E01AE18BF08C017AB
:1003D000D10759F06991D601ED91FC910190F0811E
:1003E000E02DC6010995892B79F7C501DF91CF91E1
:1003F0001F910F91FF90EF90DF90CF90BF90AF9043
:100400000895FC01538D448D252F30E0842F90E01A
:10041000821B930B541710F0CF96089501970895FF
:10042000FC01918D828D981761F0A28DAE0FBF2FC8
:10043000B11D5D968C91928D9F5F9F73928F90E01E
:1004400008958FEF9FEF08952FB7F89480911C06C1
:1004500090911D06A0911E06B0911F062FBF80939C
:10046000280690932906A0932A06B0932B0680E2D3
:1004700096E00E94100297FF26C02FB7F894809153
:100480001C0690911D06A0911E06B0911F062FBF5D
:10049000409128065091290660912A0670912B06FA
:1004A000841B950BA60BB70B409124065091250693
:1004B000609126067091270684179507A607B7074F
:1004C000B0F28FEF9FEF0895FC01918D828D981708
:1004D00031F0828DE80FF11D858D90E008958FEF4A
:1004E0009FEF0895FC01918D228D892F90E0805C13
:1004F0009F4F821B91098F739927089580E296E0A0
:100500000E94720221E0892B09F420E0822F0895D5
:1005100080E090E0892B29F00E947E0281110C94EA
:1005200000000895FC01A48DA80FB92FB11DA35A96
:10053000BF4F2C91848D90E001968F739927848F03
:10054000A689B7892C93A089B1898C918370806426
:100550008C93938D848D981306C00288F389E02DC7
:1005600080818F7D80830895EF92FF920F931F9378
:10057000CF93DF93EC0181E0888F9B8D8C8D981356
:100580001AC0E889F989808185FF15C09FB7F89462
:10059000EE89FF896083E889F989808183708064AE
:1005A00080839FBF81E090E0DF91CF911F910F91F9
:1005B000FF90EF900895F62E0B8D10E00F5F1F4F08
:1005C0000F731127E02E8C8D8E110CC00FB607FC17
:1005D000FACFE889F989808185FFF5CFCE010E94A5
:1005E0009202F1CFEB8DEC0FFD2FF11DE35AFF4F7F
:1005F000F0829FB7F8940B8FEA89FB898081806233
:10060000CFCFCF93DF93EC01888D8823B9F0AA89EF
:10061000BB89E889F9898C9185FD03C0808186FDBD
:100620000DC00FB607FCF7CF8C9185FFF2CF80810C
:1006300085FFEDCFCE010E949202E9CFDF91CF91ED
:10064000089590E080E0089508958EEE96E00C9471
:100650002D038EEE96E00C94300390E080E0089538
:1006600090E080E00895FB0101900020E9F73197C8
:10067000AF01461B570BDC01ED91FC910280F38129
:10068000E02D09948F929F92AF92BF92EF92FF92CA
:100690000F931F93CF93DF93CDB7DEB7A1970FB61C
:1006A000F894DEBF0FBECDBF7C01FA01CB0119A2C9
:1006B000223008F42AE08E010F5D1F4F822E912C0C
:1006C000B12CA12CBF01A50194010E94F30FF901E7
:1006D000CA016A300CF5605DD8016E938D01232B41
:1006E000242B252B79F790E080E0109721F0BD01B5
:1006F000C7010E943303A1960FB6F894DEBF0FBE68
:10070000CDBFDF91CF911F910F91FF90EF90BF90E0
:10071000AF909F908F900895695CDECFCF92DF926B
:10072000EF92FF92CF93DF93AB01BC0177FF1DC027
:100730006A017C016DE280E296E00E94B402EC0165
:1007400044275527BA014C195D096E097F092AE033
:1007500080E296E00E9442038C0F9D1FDF91CF91B3
:10076000FF90EF90DF90CF9008952AE080E296E02E
:10077000DF91CF91FF90EF90DF90CF900C944203E8
:10078000CF93DF93BC0180E296E00E943303EC013B
:1007900068E271E080E296E00E9433038C0F9D1FB7
:1007A000DF91CF910895CF93DF93FC014481558170
:1007B0006081718180E296E00E94D401EC0168E2E0
:1007C00071E080E296E00E9433038C0F9D1FDF9161
:1007D000CF910895682F90E080E00C94E50FCF93BF
:1007E000DF93EC0188819981009711F00E94E31159
:1007F000198218821D821C821B821A82DF91CF917E
:100800000895FC0180819181009711F00C94E3110F
:100810000895FC0124813581232B39F421E0FB016B
:100820008081882349F020E007C0808191810E9467
:10083000421321E0892BB9F7822F08950F931F935C
:10084000CF93DF93EC0188819981009759F02A8139
:100850003B812617370730F081E0DF91CF911F9160
:100860000F9108958B016F5F7F4F0E946C1200976C
:1008700059F0998388831B830A832C813D81232B24
:1008800059F7FC011082E8CF80E0E7CFEF92FF92AA
:100890000F931F93CF93DF936115710541F480E0AF
:1008A000DF91CF911F910F91FF90EF900895411527
:1008B0005105B1F07B01EC010C811D81040F151F66
:1008C000B8010E941E04882351F3288139818C814C
:1008D0009D81B701820F931F0E944B131D830C83D0
:1008E00081E0DECFCF93DF93EC01FB01019000208C
:1008F000E9F73197AF01461B570B0E94460481115F
:1009000003C0CE010E94EF03CE01DF91CF91089585
:10091000EF92FF920F931F93CF93DF93EC017B0134
:100920008A01BA010E941E0481110BC0CE010E94EF
:10093000EF03CE01DF91CF911F910F91FF90EF90C8
:1009400008951D830C83B701888199810E944B1300
:10095000F0CF0F931F93CF93DF9300D0CDB7DEB7C7
:100960008C01FC0111821082138212821582148282
:1009700050E040E06AE271E00E9488040E94240294
:1009800097FD0BC089831A8241E050E0BE016F5F82
:100990007F4FC8010E944604F1CFC8010F900F900D
:1009A000DF91CF911F910F910895CF93DF93EC01C9
:1009B000FB018617970749F0608171816115710508
:1009C00041F0448155810E948804CE01DF91CF918E
:1009D00008950E94EF03F9CFFC0111821082138267
:1009E00012821582148263E277E00C94D5040F938F
:1009F0001F93CF93DF9300D000D000D0CDB7DEB7E8
:100A0000CE0101960E94EC046BE271E0CE010196EA
:100A10000E9472040E94D303CE0101960E94010439
:100A200060E089E00E94FE0083E090E00197F1F72A
:100A300061E089E00E94FE0083E290E00197F1F717
:100A4000E4EAF0E06491E0E9F0E0E491F0E0EE0F38
:100A5000FF1FE859FF4F8591949100E412E42FE0C5
:100A600030E0462F0E94F40661157105810591055D
:100A700029F06F5F7F4F8F4F9F4F9F700E943E0FF7
:100A80002DEC3CEC48E652E40E948D100E94FF10D1
:100A900060931106709312068093130690931406C8
:100AA0006AE070E080E090E00E94A001CE01019633
:100AB0000E94EC046CE371E0CE0101960E94720486
:100AC0000E94D303CE0101960E940104CE0101963B
:100AD0000E94EC0463E571E0CE0101960E9472046D
:100AE000FC01448155816081718180E296E00E9421
:100AF000D401CE0101960E9401046091110670910B
:100B0000120680911306909114060E948E0380E6CF
:100B100091E00E94C00326960FB6F894DEBF0FBE88
:100B2000CDBFDF91CF911F910F9108951F920F922A
:100B30000FB60F9211242F933F938F939F93AF93F0
:100B4000BF9380911C0690911D06A0911E06B09146
:100B50001F063091170623E0230F2D3758F5019615
:100B6000A11DB11D2093170680931C0690931D06AE
:100B7000A0931E06B0931F06809118069091190647
:100B8000A0911A06B0911B060196A11DB11D80937C
:100B9000180690931906A0931A06B0931B06BF91EE
:100BA000AF919F918F913F912F910F900FBE0F901A
:100BB0001F90189526E8230F0296A11DB11DD2CFD4
:100BC0001F920F920FB60F9211242F933F934F93C2
:100BD0005F936F937F938F939F93AF93BF93EF93A5
:100BE000FF9380E296E00E949202FF91EF91BF9105
:100BF000AF919F918F917F916F915F914F913F91B5
:100C00002F910F900FBE0F901F9018951F920F926B
:100C10000FB60F9211242F938F939F93EF93FF930F
:100C2000E0913006F09131068081E0913606F09136
:100C3000370682FD1BC09081809139068F5F8F73CC
:100C400020913A06821741F0E0913906F0E0E05E2B
:100C5000F94F958F80933906FF91EF919F918F9176
:100C60002F910F900FBE0F901F9018958081F4CF99
:100C70001F920F920FB60F9211242F933F934F9311
:100C80005F936F937F938F939F93AF93BF93CF9314
:100C9000DF93EF93FF9380911006C0911F07D0E080
:100CA00087FF24C010928500109284008091100666
:100CB0008F5F8093100680911006082E000C990B10
:100CC0008C179D0724F4809110068C30C4F180911C
:100CD000840090918500049680349C4908F47AC081
:100CE0008091840090918500049676C080911006D2
:100CF000082E000C990B8C179D07C4F6E091100686
:100D00008E2FEE0F990BFC01EE0FFF1FE80FF91F5E
:100D1000E550F94F808186FFC9CFE09110068E2FF4
:100D2000EE0F990BFC01EE0FFF1FE80FF91FE550C6
:100D3000F94F808160E08F730E94FE00B7CF209151
:100D4000840030918500E09110068E2FEE0F990BF4
:100D5000FC01EE0FFF1FE80FF91FE550F94F8181ED
:100D60009281820F931F9093890080938800E09175
:100D700010068E2FEE0F990BFC01EE0FFF1FE80FF0
:100D8000F91FE550F94F808186FF11C0E0911006F0
:100D90008E2FEE0F990BFC01EE0FFF1FE80FF91FCE
:100DA000E550F94F808161E08F730E94FE00FF9152
:100DB000EF91DF91CF91BF91AF919F918F917F91F3
:100DC0006F915F914F913F912F910F900FBE0F90B8
:100DD0001F90189580E49CE9909389008093880087
:100DE0008FEF80931006E3CFCF92DF92EF92FF92C6
:100DF0000F931F93E82FF92F05C001501109210906
:100E0000310961F1908196239417B9F305C001501F
:100E100011092109310911F1908196239413F7CF1B
:100E2000C12CD12CE12CF12C0AC08FEFC81AD80AA2
:100E3000E80AF80A0C151D052E053F0579F080819A
:100E40008623841791F36C2D7D2D8E2D9F2D1F9160
:100E50000F91FF90EF90DF90CF90089560E070E0E9
:100E600080E090E01F910F91FF90EF90DF90CF9086
:100E70000895109223061092220688EE93E0A0E0D7
:100E8000B0E08093240690932506A0932606B093A5
:100E900027068EE091E0909321068093200685EC52
:100EA00090E090932D0680932C0684EC90E0909334
:100EB0002F0680932E0680EC90E09093310680936D
:100EC000300681EC90E0909333068093320682ECFA
:100ED00090E0909335068093340686EC90E09093F2
:100EE0003706809336061092390610923A06109211
:100EF0003B0610923C0688E893E1A0E0B0E08093C6
:100F0000E0069093E106A093E206B093E306109208
:100F1000EC061092E8061092E9061092EA0610928A
:100F2000EB061092ED061092BF061092BE061092CC
:100F3000BD061092F1061092F00680E291E09093C7
:100F4000EF068093EE06A2EFB6E090E080E021E2AB
:100F5000E1E0F0E08630910510F4F0E0E0E0AC0173
:100F6000425F5F4FE40FF51F20935700E491ED932C
:100F700001968930910561F710922407109223079A
:100F80001092260710922507109228071092270723
:100F900050E040E06AE271E083E297E00E9488045A
:100FA00080911F078C3098F491E0980F90931F0761
:100FB0008093200790E0FC01EE0FFF1FE80FF91F60
:100FC000E550F94F88EB9BE09283818308958FEF82
:100FD000809320070895CF93DF93CDB7DEB72F9787
:100FE0000FB6F894DEBF0FBECDBF789484B5826093
:100FF00084BD84B5816084BD85B5826085BD85B5BD
:10100000816085BD80916E00816080936E0010923A
:1010100081008091810082608093810080918100B5
:101020008160809381008091800081608093800046
:101030008091B10084608093B1008091B0008160A4
:101040008093B00080917A00846080937A008091D0
:101050007A00826080937A0080917A008160809328
:101060007A0080917A00806880937A001092C100A3
:101070000E94850E2CED35E040E050E00E941510F6
:101080006C507E4F8F4F9F4F0E94A001E091300621
:10109000F091310682E08083E0912C06F0912D06DC
:1010A0001082E0912E06F0912F068FEC8083109233
:1010B0003806E0913406F091350686E08083E091B1
:1010C0003206F0913306808180618083E0913206A0
:1010D000F0913306808188608083E0913206F09140
:1010E0003306808180688083E0913206F091330678
:1010F00080818F7D808385E691E00E94C00380EA35
:1011000091E00E94C00362E972E080E296E00E94F2
:10111000330312EFC12E16E0D12E7601F701819133
:101120007F01803130F461E474E080E296E00E9457
:101130003303F7013197408150E070E060E020E137
:1011400080E296E00E9442036BE972E080E296E062
:101150000E943303FBEFEF16F6E0FF06F9F668E2B4
:1011600071E080E296E00E9433038E010F5F1F4F13
:10117000F60181916F011B861A861D861C861F86CB
:101180001E8640E1B80190E00E94220FF801019014
:101190000020E9F73197AF01401B510BB801CE0198
:1011A0000A960E948804C8010E94EC044E855F855F
:1011B0006A857B85C8010E944604811103C0C8016D
:1011C0000E94EF03B80183E297E00E94D504C801B2
:1011D0000E940104CE010A960E940104EC14FD0451
:1011E00039F6E0902307F0902407E114F10469F048
:1011F000F7018081882349F0082E000C990B0E948A
:101200003113F70181937F01F3CF61E084E00E9405
:101210004A0161E085E00E944A0161E086E00E94A7
:101220004A0161E087E00E944A0161E089E00E9492
:101230004A0160E08AE00E944A01809120078C30D8
:1012400008F051C061E088E00E944A0180912007C7
:10125000282F30E0F901EE0FFF1FE20FF31FE550DA
:10126000F94F9081907C98609083109221071092A2
:1012700022072CE0622F0E943511829FB0011124B9
:1012800030E020E0AB01420F531FFA01EE0FFF1FC9
:10129000E40FF51FE550F94F908196FD16C02F5FC2
:1012A0003F4F2C30310571F781110FC01092800033
:1012B00082E0809381001092850010928400B19AA0
:1012C00080916F00826080936F00E09120078E2FE5
:1012D00090E0FC01EE0FFF1FE80FF91FE550F94FFA
:1012E000808180648083C8010E94EC046DE972E013
:1012F000C8010E9472040E94D303C8010E94010425
:1013000080E296E00E940103C8010E94EC046CECAC
:1013100072E0C8010E9472040E94D303C8010E94B7
:10132000010461E087E00E94FE000E94850E28EE25
:10133000C22E23E0D22EE12CF12CA70196010E94AF
:10134000151068517C4F8F4F9F4F0E94A00160E0A5
:1013500087E00E94FE0061E085E00E94FE000E949E
:10136000850EA70196010E94151068517C4F8F4F82
:101370009F4F0E94A00160E085E00E94FE00C8012E
:101380000E94EC046AEF72E0C8010E9472040E949D
:10139000D303C8010E94010490E080E00E94DD0FA9
:1013A000282F30E03093160620931506863038F04B
:1013B000109216061092150680E00E94EA0366E27B
:1013C00073E080E296E00E9433036091150670910D
:1013D0001606072E000C880B990B0E948E0368E2FC
:1013E00071E080E296E00E943303C8010E94EC04A1
:1013F0006DE473E0C8010E9472040E94D303C80127
:101400000E94010480E296E00E94010360E273E022
:1014100080E090E00E94A00180E797E1A0E0B0E0CA
:101420008093240690932506A0932606B093270662
:1014300081E793E00E94C003CE010A960E94A904AE
:10144000AA84BB84A114B10431F0EE84FF84650149
:10145000E114F104A9F4EA84FB84E114F10409F431
:1014600047C0F7018081882309F442C0082E000C90
:10147000990B0E942913F70181937F01F2CF640138
:101480004601FFEF8F1A9F0AF6018081082E000C9B
:10149000990B0E94040F892B91F7F1E0EF1AF108E4
:1014A000EA0CFB1CF7018081082E000C990B0E94AE
:1014B000040F892B39F0EC14FD0420F0F1E0EF1A51
:1014C000F108F0CFA7014F5F5F4F4C195D095F87AF
:1014D0004E87AC14BD0420F4B601C5010E94391337
:1014E000EA85FB858E859F85E80FF91F1082B3CFB3
:1014F00067EA73E0CE010A960E940904882309F482
:10150000CBC089EA93E00E94C00380E296E00E948B
:101510007202892BD1F3C8010E94A9048A859B8598
:10152000009709F4F5C169817A816115710509F4A3
:10153000EDC14C855D852D813E814217530708F42E
:10154000E5C10E944B138D819E819F878E871E82ED
:101550001D82C8010E94010467EE73E0CE010A9665
:101560000E940904882361F081E090E090931606C0
:10157000809315060E94EA0387ED93E00E94C00362
:1015800069EF73E0CE010A960E940904882361F096
:1015900082E090E090931606809315060E94EA037D
:1015A00089EE93E00E94C0036BE074E0CE010A96DE
:1015B0000E940904882361F083E090E0909316066E
:1015C000809315060E94EA038BEF93E00E94C0030C
:1015D0006DE174E0CE010A960E940904882361F04F
:1015E00084E090E090931606809315060E94EA032B
:1015F0008DE094E00E94C0036FE274E0CE010A9691
:101600000E940904882361F085E090E0909316061B
:10161000809315060E94EA038FE194E00E94C003C4
:1016200061E474E0CE010A960E940904882359F00F
:10163000109216061092150680E00E94EA0381E3DC
:1016400094E00E94C0036AE271E0CE010A960E9413
:101650000904882359F0109216061092150680E0AE
:101660000E94EA0381E394E00E94C0038A859B857F
:10167000009791F00E94DD0E6B3071058105910598
:101680005CF0109216061092150680E00E94EA03A4
:1016900081E394E00E94C00380E296E00E9401038F
:1016A000CE010A960E94010490E0E92E90E0F92E06
:1016B00080911506909116068330910509F45BC25E
:1016C0000CF037C18130910509F47CC1029709F40F
:1016D000F1C161E08DE00E94FE000E94F70460E02D
:1016E0008DE00E94FE008091110690911206A0915B
:1016F0001306B09114064497A109B10981399440A9
:10170000A105B105E8F4C8010E94EC046FEC75E096
:10171000C8010E9472040E94D303C8010E94010400
:1017200061E087E00E94FE0060E086E00E94FE002B
:1017300061E085E00E94FE0060E084E00E94FE001F
:101740008091110690911206A0911306B091140693
:101750000797A109B1090C97A105B10508F065C06B
:10176000C8010E94EC0463EE75E0C8010E94720497
:101770000E94D303C8010E94010460E087E00E9438
:10178000FE0060E086E00E94FE0060E085E00E94CE
:10179000FE0060E084E00E94FE0064EF71E080E003
:1017A00090E00E94A00160E087E00E94FE0061E0FE
:1017B00086E00E94FE0060E085E00E94FE0061E09D
:1017C00084E00E94FE0064EF71E080E090E00E94FF
:1017D000A00160E087E00E94FE0060E086E00E94D9
:1017E000FE0060E085E00E94FE0060E084E00E9470
:1017F000FE0064E670E080E090E00E94A00161E0FD
:1018000087E00E94FE0060E086E00E94FE0060E04B
:1018100084E00E94FE0060E085E00E94FE0064EF2C
:1018200071E080E090E00E94A0018091110690910B
:101830001206A0911306B09114060797A105B105F1
:1018400098F5C8010E94EC046BEF75E0C8010E9496
:1018500072040E94D303C8010E94010460E087E083
:101860000E94FE0060E086E00E94FE0060E085E0ED
:101870000E94FE0060E084E00E94FE0064E670E0EA
:1018800080E090E00E94A00160E087E00E94FE00FE
:1018900061E086E00E94FE0060E085E00E94FE00BC
:1018A00061E084E00E94FE00809111069091120692
:1018B000A0911306B0911406853A9440A105B10594
:1018C0000CF4E8C0C8010E94EC046BEF75E0C8019D
:1018D0000E9472040E94D303C8010E94010460E0C8
:1018E00087E00E94FE0061E086E00E94FE0060E06A
:1018F00085E00E94FE0061E084E00E94FE0064E654
:1019000070E080E090E00E94A001C4C00E94E3115A
:1019100089819A819B878A878B819C819D878C870F
:101920008D819E819F878E871A8219821C821B82DD
:101930000ECE8430910509F439C1059709F0C9CE5E
:10194000C8010E94EC046BE875E0C8010E947204B3
:101950000E94D303C8010E94010460E084E00E9459
:10196000FE0060E086E00E94FE0061E085E00E94EB
:10197000FE0061E087E00E94FE0087EA95E00E9499
:10198000C00360ED77E080E090E00E94A00160E09D
:1019900085E00E94FE0060E087E00E94FE0061E0BA
:1019A00084E00E94FE0061E086E00E94FE008AEB77
:1019B00095E00E94C00360ED77E080E090E00E9437
:1019C000A0014DC1C8010E94EC0463E474E0C801A9
:1019D0000E9472040E94D303C8010E94010468ECB3
:1019E00070E080E090E00E94A00160E084E00E944E
:1019F000FE0061E085E00E94FE0087E594E00E9421
:101A0000C00364EF71E080E090E00E94A00160E01C
:101A100084E00E94FE0060E085E00E94FE008AE60D
:101A200094E00E94C00364EF71E080E090E00E94C7
:101A3000A00160E085E00E94FE0061E084E00E9479
:101A4000FE008DE794E00E94C00364EF71E080E047
:101A500090E00E94A00161E084E00E94FE0061E04D
:101A600085E00E94FE008AE694E00E94C00364EFD5
:101A700071E080E090E00E94A001C8010E94EC04A7
:101A800062E974E0C8010E9472040E94D303C80195
:101A90000E94010480E296E00E940103E114F10437
:101AA00009F406CE0E947E02882309F401CE0E942A
:101AB0000000FECDC8010E94EC046BEA74E0C8018E
:101AC0000E9472040E94D303C8010E94010468ECC2
:101AD00070E080E090E00E94A00160E086E00E945B
:101AE000FE0061E087E00E94FE0080EC94E00E942E
:101AF000C00364EF71E080E090E00E94A00160E02C
:101B000086E00E94FE0060E087E00E94FE0084ED17
:101B100094E00E94C00364EF71E080E090E00E94D6
:101B2000A00160E087E00E94FE0061E086E00E9484
:101B3000FE0088EE94E00E94C00364EF71E080E054
:101B400090E00E94A00161E086E00E94FE0061E05A
:101B500087E00E94FE0084ED94E00E94C00364EFE1
:101B600071E080E090E00E94A001C8010E94EC04B6
:101B70006EEF74E087CFC8010E94EC0468E175E065
:101B8000C8010E9472040E94D303C8010E9401048C
:101B90000E94F70468EE73E080E090E00E94A001EC
:101BA000C8010E94EC046FE275E06CCFC8010E948E
:101BB000EC0462E475E0C8010E9472040E94D30341
:101BC000C8010E940104812C912C540169E575E043
:101BD00080E296E00E943303C501B4010E948E03A7
:101BE00084E695E00E94C003C4010E948D006FE06E
:101BF00070E080E090E00E94A001FFEF8F1A9F0A42
:101C0000AF0ABF0A25EB82169104A104B104F1F6D4
:101C100084EB882E912CA12CB12C69E575E080E233
:101C200096E00E943303C501B4010E948E0384E64E
:101C300095E00E94C003C4010E948D006FE070E037
:101C400080E090E00E94A00181E0881A9108A1083C
:101C5000B108EFEF8E169E06AE06BE06F1F6C8017D
:101C60000E94EC0468E775E00DCF83E297E00C94E6
:101C700001048F929F92AF92BF92CF92DF92EF9228
:101C8000FF92CF93DF93EC01688179818A819B81F8
:101C9000611571058105910521F464E279ED8BE50B
:101CA00097E02DE133EF41E050E00E94151049012B
:101CB0005A019B01AC01A7EAB1E40E9434106B0108
:101CC0007C01ACEEB4EFA50194010E944210C60E57
:101CD000D71EE81EF91EF7FE06C081E0C81AD1081B
:101CE000E10880E8F80AC882D982EA82FB82C7014B
:101CF000B6019F77DF91CF91FF90EF90DF90CF906B
:101D0000BF90AF909F908F9008958F929F92AF92C7
:101D1000BF92CF92DF92EF92FF926091000170919B
:101D20000101809102019091030161157105810506
:101D3000910521F464E279ED8BE597E02DE133EF35
:101D400041E050E00E94151049015A019B01AC018D
:101D5000A7EAB1E40E9434106B017C01ACEEB4EF51
:101D6000A50194010E944210C60ED71EE81EF91E5E
:101D7000F7FE06C081E0C81AD108E10880E8F80A39
:101D8000C0920001D0920101E0920201F0920301A1
:101D9000C701B6019F77FF90EF90DF90CF90BF9083
:101DA000AF909F908F900895609300017093010110
:101DB000809302019093030108951F93FC019927DA
:101DC0008827BC01E89411911032E9F3193010F022
:101DD0001E30C8F31B3251F01D3249F4689406C01E
:101DE0000E940D0F610F711D811D911D11911053E6
:101DF0001A30B0F33EF490958095709561957F4FC1
:101E00008F4F9F4F1F91089591110C94790F80323D
:101E100019F089508550C8F70895592F482F372F4A
:101E2000262F660F771F881F991F660F771F881F41
:101E3000991F620F731F841F951F660F771F881FDE
:101E4000991F0895BB27FB015527AA27880F991FC3
:101E5000AA1FA41710F0A41B83955051B9F7A05DD9
:101E6000AA3308F0A95DA193009779F7B111B19356
:101E70001192CB010C947C0FE89409C097FB3EF4BF
:101E800090958095709561957F4F8F4F9F4F9923C7
:101E9000A9F0F92F96E9BB279395F6958795779545
:101EA0006795B795F111F8CFFAF4BB0F11F460FF05
:101EB0001BC06F5F7F4F8F4F9F4F16C0882311F05D
:101EC00096E911C0772321F09EE8872F762F05C071
:101ED000662371F096E8862F70E060E02AF09A950C
:101EE000660F771F881FDAF7880F9695879597F901
:101EF0000895992788270895DC01FC01672F7191C7
:101F00007723E1F7329704C07C916D9370836291DF
:101F1000AE17BF07C8F3089597F99F6780E870E090
:101F200060E008959FEF80EC089500240A9416164F
:101F3000170618060906089500240A9412161306B7
:101F4000140605060895092E0394000C11F4882345
:101F500052F0BB0F40F4BF2B11F460FF04C06F5F61
:101F60007F4F8F4F9F4F089557FD9058440F551F37
:101F700059F05F3F71F04795880F97FB991F61F00B
:101F80009F3F79F087950895121613061406551F82
:101F9000F2CF4695F1DF08C0161617061806991FEE
:101FA000F1CF86957105610508940895E894BB27E3
:101FB00066277727CB0197F90895F999FECF92BD4F
:101FC00081BDF89A992780B50895262FF999FECFFB
:101FD0001FBA92BD81BD20BD0FB6F894FA9AF99A46
:101FE0000FBE01960895A1E21A2EAA1BBB1BFD018C
:101FF0000DC0AA1FBB1FEE1FFF1FA217B307E407E8
:10200000F50720F0A21BB30BE40BF50B661F771F3F
:10201000881F991F1A9469F760957095809590951F
:102020009B01AC01BD01CF010895052E97FB1EF465
:1020300000940E942C1057FD07D00E94F30F07FC5C
:1020400003D04EF40C942C1050954095309521956A
:102050003F4F4F4F5F4F08959095809570956195D4
:102060007F4F8F4F9F4F08950E947E10A59F900D28
:10207000B49F900DA49F800D911D11240895B7FF6A
:102080000C9434100E943410821B930B08952F92ED
:102090003F924F925F926F927F928F929F92AF92F8
:1020A000BF92CF92DF92EF92FF920F931F93CF9345
:1020B000DF93CDB7DEB7CA1BDB0B0FB6F894DEBFDC
:1020C0000FBECDBF09942A88398848885F846E8402
:1020D0007D848C849B84AA84B984C884DF80EE804C
:1020E000FD800C811B81AA81B981CE0FD11D0FB655
:1020F000F894DEBF0FBECDBFED010895A29FB001E1
:10210000B39FC001A39F700D811D1124911DB29F2B
:10211000700D811D1124911D08950E94A1100C9431
:10212000A30F0E949C0F58F00E94950F40F029F4D5
:102130005F3F29F00C948C0F51110C94D70F0C9425
:10214000920F0E94B40F68F39923B1F3552391F3D2
:10215000951B550BBB27AA2762177307840738F016
:102160009F5F5F4F220F331F441FAA1FA9F335D073
:102170000E2E3AF0E0E832D091505040E695001C27
:10218000CAF72BD0FE2F29D0660F771F881FBB1FE1
:10219000261737074807AB07B0E809F0BB0B802DBF
:1021A000BF01FF2793585F4F3AF09E3F510578F0EB
:1021B0000C948C0F0C94D70F5F3FE4F3983ED4F34C
:1021C000869577956795B795F7959F5FC9F7880FBF
:1021D000911D9695879597F90895E1E0660F771F11
:1021E000881FBB1F621773078407BA0720F0621BA2
:1021F000730B840BBA0BEE1F88F7E09508950E94CD
:1022000006116894B1110C94D70F08950E94BC0F69
:1022100088F09F5798F0B92F9927B751B0F0E1F0A7
:10222000660F771F881F991F1AF0BA95C9F714C057
:10223000B13091F00E94D60FB1E008950C94D60F02
:10224000672F782F8827B85F39F0B93FCCF3869590
:1022500077956795B395D9F73EF4909580957095ED
:1022600061957F4F8F4F9F4F0895991B79E004C070
:10227000991F961708F0961B881F7A95C9F78095C5
:102280000895EE0FFF1F0590F491E02D09940F9330
:102290001F93CF93DF938230910510F482E090E09A
:1022A000E0912B07F0912C0730E020E0B0E0A0E0B7
:1022B000309799F42115310509F44AC0281B390BD0
:1022C00024303105D8F58A819B816115710589F12A
:1022D000FB0193838283FE0111C040815181028101
:1022E000138148175907E0F04817590799F41097D8
:1022F00061F012960C93129713961C933296CF01AD
:10230000DF91CF911F910F91089500932B071093A8
:102310002C07F4CF2115310551F04217530738F03F
:10232000A901DB019A01BD01DF01F801C1CFEF0175
:10233000F9CF90932C0780932B07CDCFFE01E20FAE
:10234000F31F819391932250310939832883D7CF8A
:102350002091290730912A07232B41F4209106016F
:102360003091070130932A07209329072091040117
:10237000309105012115310541F42DB73EB740914B
:10238000080150910901241B350BE0912907F091B8
:102390002A07E217F307A0F42E1B3F0B2817390773
:1023A00078F0AC014E5F5F4F2417350748F04E0FB1
:1023B0005F1F50932A0740932907819391939FCFE2
:1023C000F0E0E0E09CCFCF93DF930097E9F0FC01D1
:1023D000329713821282A0912B07B0912C07ED0146
:1023E00030E020E01097A1F420813181820F931F0B
:1023F0002091290730912A072817390709F061C071
:10240000F0932A07E0932907DF91CF910895EA011D
:10241000CE17DF07E8F54A815B819E014115510522
:10242000B1F7E901FB83EA8349915991C40FD51FA4
:10243000EC17FD0761F4808191810296840F951F4E
:10244000E90199838883828193819B838A83F0E069
:10245000E0E012968D919C9113970097B9F52D911C
:102460003C911197CD010296820F931F209129076D
:1024700030912A072817390739F6309751F510920D
:102480002C0710922B07B0932A07A0932907BCCFE3
:10249000D383C28340815181840F951FC817D90708
:1024A00061F44E5F5F4F88819981480F591F5183B6
:1024B00040838A819B81938382832115310509F0B2
:1024C000B0CFF0932C07E0932B079ECFFD01DC01EA
:1024D000C0CF13821282D7CFB0E0A0E0E2E7F2E1F2
:1024E0000C9449108C01009751F4CB010E944711C4
:1024F0008C01C801CDB7DEB7E0E10C946510FC019A
:10250000E60FF71F9C0122503109E217F30708F488
:102510009DC0D901CD91DC911197C617D70798F0CE
:10252000C530D10530F3CE0104978617970708F31D
:10253000C61BD70B2297C193D1936D937C93CF0188
:102540000E94E311D6CF5B01AC1ABD0A4C018C0E80
:102550009D1EA0912B07B0912C07512C412CF12CE2
:10256000E12C109731F58091290790912A07881561
:10257000990509F05CC04616570608F058C08091CE
:10258000040190910501009741F48DB79EB74091E9
:10259000080150910901841B950BE817F90708F011
:1025A00055C0F0932A07E0932907F90171836083EE
:1025B000A0CF8D919C91119712966C9012971396C3
:1025C0007C901397A815B90559F56C0142E0C40E2B
:1025D000D11CCA14DB0420F1AC014A195B09DA01F1
:1025E0001296159780F06282738251834083D901DD
:1025F0006D937C93E114F10471F0D7011396FC9371
:10260000EE93129776CF22968C0F9D1FF90191833E
:102610008083F301EFCFF0932C07E0932B0769CF72
:102620004816590608F42C017D01D3019ACFCB013D
:102630000E9447117C01009749F0AE01B8010E9449
:102640003913C8010E94E311870153CF10E000E065
:1026500050CF9111089581548A5108F4805E855AB3
:1026600008959111089581568A5108F48052855831
:102670000895FB01DC0102C001900D9241505040D1
:10268000D8F70895FB01DC018D91019080190110AC
:10269000D9F3990B0895FB01DC0101900D92002004
:1026A000E1F7089510E0C2E6D0E004C0FE010E9408
:0E26B00041112196C336D107C9F7F894FFCF28
:1026BE000100000000002D07800000000000B402A1
:1026CE00D401010201037202100264020000000034
:1026DE0030032D032103D3010D0A003A2053656EFA
:1026EE0064696E6720506C75736521003A20506CDA
:1026FE00757365204563686F2072656369657665DD
:10270E006421003A2044697374616E63653A200057
:10271E0020636D2E00436F7079726967687420C2F2
:10272E00A920323031332D3230323320494E4E4FC4
:10273E00424154452C204C4C432E20416C6C20724F
:10274E0069676874732072657365727665642E00AE
:10275E00526F626F726163657220416C70686120A6
:10276E00616E6420526F626F726163657220416C9C
:10277E00706861204D7520617265202072656769F1
:10278E007374657265642074726164656D61726BD9
:10279E007320616E642F6F722074726164656D6157
:1027AE00726B73206F6620494E4E4F424154452C3A
:1027BE00204C4C432E20696E2074686520556E693E
:1027CE00746564205374617465732C204E65772094
:1027DE005A65616C616E6420616E64206F74686509
:1027EE007220636F756E74726965732E20416C6C06
:1027FE00206F746865722074726164656D61726BAE
:10280E007320616E642070726F64756374206E61E4
:10281E006D657320626520746865207472616465ED
:10282E006D61726B73206F662074686569722072B9
:10283E00657370656374697665206F776E65727304
:10284E002E00556E6971756549443A20003A205242
:10285E006F626F726163657220416C706861204DAA
:10286E0075E284A22069732061626F757420746FA3
:10287E0020696E6974696174652E2E003A20526F5C
:10288E00626F726163657220416C706861204D7574
:10289E00E284A2205374617274696E67204265658A
:1028AE002044616E6365212E2E003A20526F626FB6
:1028BE00726163657220416C706861204D75E284AF
:1028CE00A220456E64696E67204265652044616E84
:1028DE006365212E2E00526F626F726163657220E6
:1028EE00416C706861204D75E284A220697320737B
:1028FE00657420746F206D6F64653A20003A205223
:10290E006F626F726163657220416C706861204DF9
:10291E0075E284A220696E697469617465642E2EF5
:10292E0000446F20796F752077616E7420746F206C
:10293E00736574757020746865206D6F64652066AC
:10294E006F722074686973206465766963653F20D1
:10295E002028792F6E29007900536574206D6F64DD
:10296E006520627920747970696E672061207661C6
:10297E006C7565206265747765656E203020616EBA
:10298E00642039393A2D004D6F64652069732073C8
:10299E00657420746F3A2031004D6F646520697341
:1029AE002073657420746F3A2032004D6F64652079
:1029BE0069732073657420746F3A2033004D6F6411
:1029CE00652069732073657420746F3A2034004D4E
:1029DE006F64652069732073657420746F3A2035B7
:1029EE00004D6F64652069732073657420746F3AAF
:1029FE002030003A204C656674204D6F746F722043
:102A0E00436865636B21004C656674204D6F746F6F
:102A1E007220466F7277617264004C656674204D49
:102A2E006F746F722053746F70706564004C6566BE
:102A3E0074204D6F746F72204261636B77617264A4
:102A4E0073003A204C656674204D6F746F7220438C
:102A5E006865636B20446F6E6521003A205269678A
:102A6E006874204D6F746F7220436865636B21002C
:102A7E005269676874204D6F746F7220466F72775B
:102A8E00617264005269676874204D6F746F7220B2
:102A9E0053746F70706564005269676874204D6F6F
:102AAE00746F72204261636B7761726473003A20B7
:102ABE005269676874204D6F746F72204368656346
:102ACE006B20446F6E6521003A20537461727469F5
:102ADE006E6720536F6E6172205465737421003AD5
:102AEE0020536F6E6172205465737420446F6E654F
:102AFE0021003A205374617274696E6720536572B7
:102B0E00766F20546573742100536572766F206161
:102B1E00743A2000206465677265652873292070F9
:102B2E006F736974696F6E003A20536572766F2009
:102B3E005465737420446F6E6521003A205374619E
:102B4E007274696E6720426F7468204D6F746F7275
:102B5E0020546573742100426F7468204D6F746F3A
:102B6E007220466F727761726400426F7468204DF6
:102B7E006F746F72204261636B7761726473003A97
:102B8E00204D6F76696E6720666F72776172642E64
:102B9E002E2E003A204F62737461636C652041766D
:102BAE006F6964616E63652E2E2E003A204D6F762E
:102BBE00696E67204261636B776172642E2E2E0000
:00000001FF
