:100000000C9462000C948A000C948A000C948A0070
:100010000C948A000C948A000C948A000C948A0038
:100020000C948A000C948A000C948A000C948A0028
:100030000C948A000C948A000C948A000C948A0018
:100040000C9489020C948A000C94F9020C94D3024B
:100050000C948A000C948A000C948A000C948A00F8
:100060000C948A000C948A000000000023002600F3
:10007000290000000000240027002A0000000000E2
:10008000250028002B0004040404040404040202D4
:100090000202020203030303030301020408102007
:1000A0004080010204081020010204081020000012
:1000B0000008000201000003040700000000000027
:1000C0000000E30511241FBECFEFD8E0DEBFCDBF97
:1000D00011E0A0E0B1E0EAEAF0E102C005900D9283
:1000E000A438B107D9F722E0A4E8B1E001C01D921D
:1000F000AE32B207E1F710E0C2E6D0E004C02197CB
:10010000FE010E944D08C136D107C9F70E94700355
:100110000C9453080C94000090E0FC01E255FF4F52
:100120002491FC01E656FF4F3491FC01EA57FF4F42
:10013000E491EE23C9F0222339F0233001F1A8F431
:10014000213019F1223029F1F0E0EE0FFF1FE458C1
:10015000FF4FA591B4918FB7F894EC91611126C02F
:1001600030953E233C938FBF08952730A9F0283067
:10017000C9F0243049F7809180008F7D03C08091C1
:1001800080008F7780938000DFCF84B58F7784BD28
:10019000DBCF84B58F7DFBCF8091B0008F778093CC
:1001A000B000D2CF8091B0008F7DF9CF3E2BDACF57
:1001B000CF93DF9390E0FC01E656FF4F24918A57DE
:1001C0009F4FFC0184918823D1F090E0880F991F04
:1001D000FC01EE58FF4FA591B491FC01E458FF4F8C
:1001E000C591D49161110EC09FB7F8948C91E22F04
:1001F000E0958E238C932881E223E8839FBFDF91D3
:10020000CF9108958FB7F894EC91E22BEC938FBFC8
:10021000F6CF3FB7F89480918D0190918E01A09117
:100220008F01B091900126B5A89B05C02F3F19F012
:100230000196A11DB11D3FBFBA2FA92F982F882766
:10024000BC01CD01620F711D811D911D42E0660F41
:10025000771F881F991F4A95D1F708958F929F9213
:10026000AF92BF92CF92DF92EF92FF926B017C012F
:100270000E9409014B015C01C114D104E104F104A5
:10028000B9F00E940901681979098A099B09683E39
:1002900073408105910580F321E0C21AD108E1087D
:1002A000F10888EE880E83E0981EA11CB11CE4CFF3
:1002B000FF90EF90DF90CF90BF90AF909F908F9086
:1002C0000895AF92BF92CF92DF92EF92FF920F9379
:1002D0001F93CF93DF936C017B018B01040F151FDC
:1002E000EB015E01AE18BF08C017D10759F0699144
:1002F000D601ED91FC910190F081E02DC6010995A8
:10030000892B79F7C501DF91CF911F910F91FF9054
:10031000EF90DF90CF90BF90AF900895FC01538D88
:10032000448D252F30E0842F90E0821B930B5417CF
:1003300010F0CF96089501970895FC01918D828D5C
:10034000981761F0A28DAE0FBF2FB11D5D968C91F5
:10035000928D9F5F9F73928F90E008958FEF9FEF34
:100360000895FC01918D828D981731F0828DE80FF0
:10037000F11D858D90E008958FEF9FEF0895FC01AA
:10038000918D228D892F90E0805C9F4F821B910977
:100390008F739927089581E991E00E94BF0121E0C0
:1003A000892B09F420E0822F089580E090E0892BCA
:1003B00029F00E94CB0181110C9400000895FC01EA
:1003C000A48DA80FB92FB11DA35ABF4F2C91848DB6
:1003D00090E001968F739927848FA689B7892C9313
:1003E000A089B1898C91837080648C93938D848D66
:1003F000981306C00288F389E02D80818F7D808369
:100400000895EF92FF920F931F93CF93DF93EC0128
:1004100081E0888F9B8D8C8D98131AC0E889F989AB
:10042000808185FF15C09FB7F894EE89FF896083AE
:10043000E889F98980818370806480839FBF81E02F
:1004400090E0DF91CF911F910F91FF90EF90089571
:10045000F62E0B8D10E00F5F1F4F0F731127E02E4C
:100460008C8D8E110CC00FB607FCFACFE889F98984
:10047000808185FFF5CFCE010E94DF01F1CFEB8DAA
:10048000EC0FFD2FF11DE35AFF4FF0829FB7F89458
:100490000B8FEA89FB8980818062CFCFCF93DF9376
:1004A000EC01888D8823B9F0AA89BB89E889F9898C
:1004B0008C9185FD03C0808186FD0DC00FB607FCC1
:1004C000F7CF8C9185FFF2CF808185FFEDCFCE01F4
:1004D0000E94DF01E9CFDF91CF910895FC010190E7
:1004E0000020E9F73197AF01481B590BBC0181E9A6
:1004F00091E00C946101CF93DF930E946E02EC01B6
:1005000086E191E00E946E028C0F9D1FDF91CF91DA
:1005100008951F920F920FB60F9211242F933F93BD
:100520008F939F93AF93BF938091890190918A019C
:10053000A0918B01B0918C013091880123E0230FB1
:100540002D3758F50196A11DB11D20938801809388
:10055000890190938A01A0938B01B0938C018091C3
:100560008D0190918E01A0918F01B0919001019623
:10057000A11DB11D80938D0190938E01A0938F01D9
:10058000B0939001BF91AF919F918F913F912F9127
:100590000F900FBE0F901F90189526E8230F02961C
:1005A000A11DB11DD2CF1F920F920FB60F92112431
:1005B0002F933F934F935F936F937F938F939F936B
:1005C000AF93BF93EF93FF9381E991E00E94DF0126
:1005D000FF91EF91BF91AF919F918F917F916F911B
:1005E0005F914F913F912F910F900FBE0F901F90F1
:1005F00018951F920F920FB60F9211242F938F937D
:100600009F93EF93FF93E091A101F091A20180816C
:10061000E091A701F091A80182FD1BC0908180911B
:10062000AA018F5F8F732091AB01821741F0E09197
:10063000AA01F0E0EF56FE4F958F8093AA01FF913B
:10064000EF919F918F912F910F900FBE0F901F9060
:1006500018958081F4CFCF92DF92EF92FF920F93A3
:100660001F93E82FF92F05C0015011092109310905
:1006700061F1908196239417B9F305C001501109D7
:100680002109310911F1908196239413F7CFC12CE0
:10069000D12CE12CF12C0AC08FEFC81AD80AE80A35
:1006A000F80A0C151D052E053F0579F0808186237B
:1006B000841791F36C2D7D2D8E2D9F2D1F910F9101
:1006C000FF90EF90DF90CF90089560E070E080E0C1
:1006D00090E01F910F91FF90EF90DF90CF900895E1
:1006E000CF93DF93CDB7DEB7A1970FB6F894DEBFF7
:1006F0000FBECDBF789484B5826084BD84B581601F
:1007000084BD85B5826085BD85B5816085BD8091DC
:100710006E00816080936E00109281008091810054
:10072000826080938100809181008160809381004C
:10073000809180008160809380008091B10084600E
:100740008093B1008091B00081608093B00080916F
:100750007A00846080937A0080917A00826080932E
:100760007A0080917A00816080937A0080917A008B
:10077000806880937A001092C1000E945C062CED84
:1007800035E040E050E00E94B4066C507E4F8F4F41
:100790009F4F0E942E01E091A101F091A20182E001
:1007A0008083E0919D01F0919E011082E0919F0174
:1007B000F091A0018FEC80831092A901E091A50136
:1007C000F091A60186E08083E091A301F091A4015D
:1007D000808180618083E091A301F091A4018081F8
:1007E00088608083E091A301F091A40180818068FA
:1007F0008083E091A301F091A40180818F7D8083AB
:1008000061E084E00E94D80061E085E00E94D800A9
:1008100061E086E00E94D80061E087E00E94D80095
:1008200061E089E00E94D80060E08AE00E94D80080
:1008300061E087E00E948C0060ED77E080E090E06E
:100840000E942E0161E085E00E948C0060ED77E05F
:1008500080E090E00E942E0133E2C32ED12C44EAC6
:10086000A42E40E0B42E50E9852E50E0952E60E095
:10087000662E60E0762E61E08DE00E948C0089E1BA
:1008800091E00E947B0260E089E00E948C0083E09E
:1008900090E00197F1F761E089E00E948C00C601C9
:1008A0000197F1F7F5016491F4018491E82FF0E0EC
:1008B000EE0FFF1FE859FF4F8591949100E412E479
:1008C0002FE030E0462F0E942B0361157105810552
:1008D000910529F06F5F7F4F8F4F9F4F9F700E9450
:1008E000C1072DEC3CEC48E652E40E9417070E9439
:1008F00089076093840170938501809386019093AA
:1009000087016AE070E080E090E00E942E0188E2BA
:1009100091E00E947B028DE391E00E946E022090A4
:10092000840130908501409086015090870157FEE8
:100930002FC16DE281E991E00E9401022227332755
:10094000A901221933094409550919A2CE0181963A
:100950002C011AE0E12EF12C00E010E0CA01B901EF
:10096000A80197010E94E606605DF20162932F01E3
:10097000211531054105510589F74114510419F03C
:10098000C2010E946E0286E191E00E946E0260E068
:100990008DE00E948C008091840190918501A0914E
:1009A0008601B09187014497A109B109813994402A
:1009B000A105B105A0F488E491E00E947B0261E00A
:1009C00087E00E948C0060E086E00E948C0061E07D
:1009D00085E00E948C0060E084E00E948C008091A1
:1009E000840190918501A0918601B09187010797BC
:1009F000A109B1090C97A105B10508F05CC08AE511
:100A000091E00E947B0260E087E00E948C0060E041
:100A100086E00E948C0060E085E00E948C0060E02F
:100A200084E00E948C0064EF71E080E090E00E941E
:100A30002E0160E087E00E948C0061E086E00E9469
:100A40008C0060E085E00E948C0061E084E00E9400
:100A50008C0064EF71E080E090E00E942E0160E085
:100A600087E00E948C0060E086E00E948C0060E0DD
:100A700085E00E948C0060E084E00E948C0064E6C7
:100A800070E080E090E00E942E0161E087E00E942B
:100A90008C0060E086E00E948C0060E084E00E94B0
:100AA0008C0060E085E00E948C0064EF71E080E0E3
:100AB00090E00E942E018091840190918501A09187
:100AC0008601B09187010797A105B10550F580E730
:100AD00091E00E947B0260E087E00E948C0060E071
:100AE00086E00E948C0060E085E00E948C0060E05F
:100AF00084E00E948C0064E670E080E090E00E9458
:100B00002E0160E087E00E948C0061E086E00E9498
:100B10008C0060E085E00E948C0061E084E00E942F
:100B20008C008091840190918501A0918601B09103
:100B30008701853A9440A105B105D4F080E791E0A2
:100B40000E947B0260E087E00E948C0061E086E00A
:100B50000E948C0060E085E00E948C0061E084E0EF
:100B60000E948C0064E670E080E090E00E942E011C
:100B700081E991E00E944E026114710409F47BCE78
:100B80000E94CB01882309F476CE0E94000073CE28
:100B9000A201910119A2CE0181962C011AE0E12E49
:100BA000F12C00E010E0CA01B901A80197010E94F0
:100BB000E606605DF20162932F01211531054105C2
:100BC000510589F7DACEE1E9F1E01382128288EE6D
:100BD00093E0A0E0B0E084839583A683B78388E0A8
:100BE00091E09183808385EC90E09587848784EC05
:100BF00090E09787868780EC90E0918B808B81ECEA
:100C000090E0938B828B82EC90E0958B848B86ECCA
:100C100090E0978B868B118E128E138E148E089512
:100C20008F929F92AF92BF92CF92DF92EF92FF92FC
:100C3000CF93DF93EC01688179818A819B81611573
:100C400071058105910521F464E279ED8BE597E06A
:100C50002DE133EF41E050E00E94B40649015A0112
:100C60009B01AC01A7EAB1E40E94D3066B017C01B1
:100C7000ACEEB4EFA50194010E94E106C60ED71EAA
:100C8000E81EF91EF7FE06C081E0C81AD108E10887
:100C900080E8F80AC882D982EA82FB82C701B601DD
:100CA0009F77DF91CF91FF90EF90DF90CF90BF9033
:100CB000AF909F908F9008958F929F92AF92BF9226
:100CC000CF92DF92EF92FF9260910001709101014B
:100CD00080910201909103016115710581059105D3
:100CE00021F464E279ED8BE597E02DE133EF41E00B
:100CF00050E00E94B40649015A019B01AC01A7EAE9
:100D0000B1E40E94D3066B017C01ACEEB4EFA50107
:100D100094010E94E106C60ED71EE81EF91EF7FEDA
:100D200006C081E0C81AD108E10880E8F80AC0923C
:100D30000001D0920101E0920201F0920301C7018B
:100D4000B6019F77FF90EF90DF90CF90BF90AF906C
:100D50009F908F900895609300017093010180939C
:100D60000201909303010895052E97FB1EF4009451
:100D70000E94CB0657FD07D00E94E60607FC03D071
:100D80004EF40C94CB0650954095309521953F4FED
:100D90004F4F5F4F089590958095709561957F4F67
:100DA0008F4F9F4F08950E940807A59F900DB49FF5
:100DB000900DA49F800D911D11240895B7FF0C94F0
:100DC000D3060E94D306821B930B0895A1E21A2E2C
:100DD000AA1BBB1BFD010DC0AA1FBB1FEE1FFF1FDF
:100DE000A217B307E407F50720F0A21BB30BE40B2F
:100DF000F50B661F771F881F991F1A9469F7609576
:100E00007095809590959B01AC01BD01CF0108952F
:100E1000A29FB001B39FC001A39F700D811D11243B
:100E2000911DB29F700D811D1124911D08950E9486
:100E30002B070C9413080E940C0858F00E94050818
:100E400040F029F45F3F29F00C94FC0751110C94F9
:100E500047080C9402080E94240868F39923B1F310
:100E6000552391F3951B550BBB27AA2762177307D0
:100E7000840738F09F5F5F4F220F331F441FAA1F64
:100E8000A9F335D00E2E3AF0E0E832D09150504020
:100E9000E695001CCAF72BD0FE2F29D0660F771FCE
:100EA000881FBB1F261737074807AB07B0E809F0B4
:100EB000BB0B802DBF01FF2793585F4F3AF09E3F39
:100EC000510578F00C94FC070C9447085F3FE4F35D
:100ED000983ED4F3869577956795B795F7959F5F7C
:100EE000C9F7880F911D9695879597F90895E1E0C8
:100EF000660F771F881FBB1F621773078407BA0727
:100F000020F0621B730B840BBA0BEE1F88F7E09581
:100F100008950E9490076894B1110C9447080895B1
:100F20000E942C0888F09F5798F0B92F9927B75145
:100F3000B0F0E1F0660F771F881F991F1AF0BA957D
:100F4000C9F714C0B13091F00E944608B1E008958D
:100F50000C944608672F782F8827B85F39F0B93F7F
:100F6000CCF3869577956795B395D9F73EF4909530
:100F70008095709561957F4F8F4F9F4F0895E894AE
:100F800009C097FB3EF490958095709561957F4FD1
:100F90008F4F9F4F9923A9F0F92F96E9BB2793957F
:100FA000F695879577956795B795F111F8CFFAF48F
:100FB000BB0F11F460FF1BC06F5F7F4F8F4F9F4FC0
:100FC00016C0882311F096E911C0772321F09EE81E
:100FD000872F762F05C0662371F096E8862F70E084
:100FE00060E02AF09A95660F771F881FDAF7880F5E
:100FF0009695879597F9089597F99F6780E870E02F
:1010000060E008959FEF80EC089500240A9416167E
:10101000170618060906089500240A9412161306E6
:10102000140605060895092E0394000C11F4882374
:1010300052F0BB0F40F4BF2B11F460FF04C06F5F90
:101040007F4F8F4F9F4F089557FD9058440F551F66
:1010500059F05F3F71F04795880F97FB991F61F03A
:101060009F3F79F087950895121613061406551FB1
:10107000F2CF4695F1DF08C0161617061806991F1D
:10108000F1CF86957105610508940895E894BB2712
:1010900066277727CB0197F90895EE0FFF1F05907C
:0A10A000F491E02D0994F894FFCFBD
:1010AA000100000000000000010261018E014E02F1
:1010BA00BF019D01B1010D0A0053656E64696E6737
:1010CA0020506C7573652100506C757365204563FB
:1010DA00686F207265636965766564210044697387
:1010EA0074616E63653A20004D6F76696E6720669B
:1010FA006F72776172642E2E2E004F627374616371
:10110A006C652041766F6964616E63652E2E2E00D0
:10111A004D6F76696E67204261636B776172642EE8
:04112A002E2E000065
:00000001FF
