:100000000C94E8020C9410030C9410030C9410034D
:100010000C9410030C9410030C9410030C94100314
:100020000C9410030C9410030C9410030C94210BEB
:100030000C9410030C9410030C9410030C941003F4
:100040000C947F0A0C9410030C94EF0A0C94C90AC8
:100050000C9410030C9410030C9410030C941003D4
:100060000C9410030C9410034D6F76696E67204258
:1000700061636B776172642E2E2E0052696768741B
:10008000205475726E004C656674205475726E0053
:1000900052696768747369646520536F6E6172207A
:1000A0004C6F636174696F6E2E004C656674736982
:1000B000646520536F6E6172204C6F636174696F69
:1000C0006E2E000000000023002600290020636D32
:1000D0002E0044697374616E63653A2000506C753C
:1000E0007365204563686F20726563696576656432
:1000F000210053656E64696E6720506C75736521CD
:1001000000536572766F205465737420446F6E657A
:1001100021002064656772656528732920706F73FC
:100120006974696F6E00536572766F2061743A204E
:10013000002064656772656528732920706F736994
:1001400074696F6E00536572766F2061743A200097
:100150005374617274696E6720536572766F2054B0
:1001600065737421004D6F64652069732073657435
:1001700020746F3A2000506C6561736520656E7461
:10018000657220616E20616E676C652076616C75AA
:10019000652066726F6D203020746F2031383020FA
:1001A000646567726565732E00536574206D6F64B6
:1001B0006520627920747970696E672061207661AC
:1001C0006C7565206265747765656E203020616EA0
:1001D000642039393A2D00446F20796F752077619A
:1001E0006E7420746F207365747570207468652058
:1001F0006D6F646520666F72207468697320646532
:10020000766963653F202028792F6E2900526F623E
:100210006F726163657220416C706861204D75E298
:1002200084A220696E697469617465642E2E00521F
:100230006F626F726163657220416C706861204DFE
:1002400075E284A22069732073657420746F206D39
:100250006F64653A2000526F626F7261636572204D
:10026000416C706861204D75E284A220456E64691E
:100270006E67204265652044616E6365212E2E0005
:10028000526F626F726163657220416C70686120A9
:100290004D75E284A2205374617274696E672042C6
:1002A00065652044616E6365212E2E00526F626F7A
:1002B000726163657220416C706861204D75E284E3
:1002C000A22069732061626F757420746F20696E5B
:1002D0006974696174652E2E00526F626F7261637A
:1002E000657220416C70686120616E6420526F629B
:1002F0006F726163657220416C706861204D75207A
:100300006172652020726567697374657265642027
:1003100074726164656D61726B7320616E642F6FBE
:10032000722074726164656D61726B73206F6620F8
:10033000494E4E4F424154452C204C4C432E20698F
:100340006E2074686520556E69746564205374610D
:100350007465732C204E6577205A65616C616E64FC
:1003600020616E64206F7468657220636F756E74AF
:10037000726965732E20416C6C206F746865722001
:1003800074726164656D61726B7320616E6420705C
:10039000726F64756374206E616D65732062652091
:1003A0007468652074726164656D61726B73206F2F
:1003B000662074686569722072657370656374691C
:1003C0007665206F776E6572732E00436F70797259
:1003D0006967687420C2A920323031332D3230323F
:1003E0003320494E4E4F424154452C204C4C432E15
:1003F00020416C6C20726967687473207265736544
:10040000727665642E0049443A20004C656674207B
:100410004D6F746F722053746F70706564004C651B
:100420006674204D6F746F72204261636B776172E6
:100430006473004C656674204D6F746F7220537442
:100440006F70706564004C656674204D6F746F72D8
:1004500020466F7277617264005269676874204D3C
:100460006F746F722053746F7070656400526967A7
:100470006874204D6F746F72204261636B77617294
:100480006473005269676874204D6F746F722053F3
:10049000746F70706564005269676874204D6F7482
:1004A0006F7220466F727761726400536F6E617273
:1004B000205465737420446F6E652100537461721B
:1004C00074696E6720536F6E617220546573742176
:1004D00000536572766F205465737420446F6E65A7
:1004E0002100426F7468204D6F746F722042616307
:1004F0006B776172647300426F7468204D6F746F24
:100500007220466F7277617264005374617274690D
:100510006E6720426F7468204D6F746F722054654F
:1005200073742100206465677265652873292E0045
:10053000536F6E617220536572766F207061726BBB
:1005400065642061743A20002069732064657465D5
:10055000637465642E205573696E672064656661F7
:10056000756C74204D6F64652E004E6F207375633B
:1005700068206D6F64652061733A20000000000000
:10058000240027002A0000000000250028002B007E
:100590000404040404040404020202020202030329
:1005A0000303030301020408102040800102040831
:1005B00010200102040810200000000800020100C1
:1005C000000304070000000000000000220C871157
:1005D00011241FBECFEFD8E0DEBFCDBF11E0A0E0F9
:1005E000B1E0E2E6FDE202C005900D92AC3CB1073D
:1005F000D9F722E0ACECB1E001C01D92A93EB207F0
:10060000E1F712E0C7EED2E004C02197FE010E949C
:100610009314C63ED107C9F70E94D40C0C94A416BB
:100620000C9400008F929F92AF92BF92CF92DF9274
:10063000EF92FF928091DE0258E5C52E52E0D52E52
:10064000C81AD10887FDD394CC0CDD1CCC0CDD1C62
:100650000D2C000CEE08FF088091DD0278E8872E53
:10066000912C881A910887FD9394880C991C880C0A
:10067000991C092C000CAA08BB088091DC028F3F52
:10068000D1F190E0FC01EE0FFF1FE80FF91FE954D4
:10069000FD4F8181928133E0880F991F3A95E1F7F0
:1006A000B0E0A0E044E0B595A795979587954A9569
:1006B000D1F702969C012F5F3F4F032E000C440B95
:1006C000550B281939094A095B09A4EBB0E00E94CF
:1006D0008613A7019601281939094A095B090E9466
:1006E0006713C901FF90EF90DF90CF90BF90AF905C
:1006F0009F908F90089590E080E0DCCFCF92DF92C2
:10070000EF92FF92DC01A03282E0B807D4F5A53B5E
:10071000B10514F0A4EBB0E04091DD0228E830E030
:10072000241B310947FD3395220F331F220F331F3E
:100730006901330FEE08FF084091DE0228E532E040
:10074000241B310947FD3395220F331F220F331F1E
:10075000032E000C440B550B2C193D094E095F0963
:10076000B7FF02C0B0E0A0E00E94911324EB30E09C
:1007700040E050E00E946713C20ED31EE41EF51E37
:10078000D601E091DC02EC3080F52091DD0288E8B2
:1007900090E0821B910927FD9395880F991F880F80
:1007A000991FA817B90784F02091DE0288E592E02E
:1007B000821B910927FD9395880F991F880F991F18
:1007C000A817B9070CF4CD010297880F991F4FB7EE
:1007D000F8942E2F30E0F901EE0FFF1FE20FF31F08
:1007E000E954FD4F928381834FBFFF90EF90DF90DC
:1007F000CF90089590E0FC01E854FA4F2491FC0159
:10080000EC55FA4F3491FC01E057FA4FE491EE2396
:10081000C9F0222339F0233001F1A8F4213019F175
:10082000223029F1F0E0EE0FFF1FEA57FA4FA591B1
:10083000B4918FB7F894EC91611126C030953E23A6
:100840003C938FBF08952730A9F02830C9F0243099
:1008500049F7809180008F7D03C0809180008F7761
:1008600080938000DFCF84B58F7784BDDBCF84B5E4
:100870008F7DFBCF8091B0008F778093B000D2CF77
:100880008091B0008F7DF9CF3E2BDACFCF93DF93ED
:1008900090E0FC01EC55FA4F249180579A4FFC01EF
:1008A00084918823D1F090E0880F991FFC01E458CF
:1008B000FA4FA591B491FC01EA57FA4FC591D49132
:1008C00061110EC09FB7F8948C91E22FE0958E23B2
:1008D0008C932881E223E8839FBFDF91CF91089515
:1008E0008FB7F894EC91E22BEC938FBFF6CF3FB724
:1008F000F8948091D4019091D501A091D601B09146
:10090000D70126B5A89B05C02F3F19F00196A11D60
:10091000B11D3FBFBA2FA92F982F8827BC01CD0149
:10092000620F711D811D911D42E0660F771F881FA8
:10093000991F4A95D1F708958F929F92AF92BF92D7
:10094000CF92DF92EF92FF926B017C010E947704BD
:100950004B015C01C114D104E104F104B9F00E941F
:100960007704681979098A099B09683E73408105F3
:10097000910580F321E0C21AD108E108F10888EE60
:10098000880E83E0981EA11CB11CE4CFFF90EF906D
:10099000DF90CF90BF90AF909F908F900895089573
:1009A000EF92FF920F931F93CF93DF938C017B0104
:1009B000D0E0C0E0F701EC0FFD1F6491662361F009
:1009C000D801ED91FC910190F081E02DC8010995CD
:1009D000892B11F02196EECFCE01DF91CF911F919F
:1009E0000F91FF90EF900895AF92BF92CF92DF9258
:1009F000EF92FF920F931F93CF93DF936C017B01D4
:100A00008B01040F151FEB015E01AE18BF08C01764
:100A1000D10759F06991D601ED91FC910190F081D7
:100A2000E02DC6010995892B79F7C501DF91CF919A
:100A30001F910F91FF90EF90DF90CF90BF90AF90FC
:100A40000895FC01538D448D252F30E0842F90E0D4
:100A5000821B930B541710F0CF96089501970895B9
:100A6000FC01918D828D981761F0A28DAE0FBF2F82
:100A7000B11D5D968C91928D9F5F9F73928F90E0D8
:100A800008958FEF9FEF08952FB7F8948091D801C4
:100A90009091D901A091DA01B091DB012FBF809331
:100AA000E4019093E501A093E601B093E7018CED9A
:100AB00091E00E94300597FF26C02FB7F8948091EF
:100AC000D8019091D901A091DA01B091DB012FBF3B
:100AD0004091E4015091E5016091E6017091E701D8
:100AE000841B950BA60BB70B4091E0015091E101DF
:100AF0006091E2017091E30184179507A607B7079B
:100B0000B0F28FEF9FEF0895FC01918D828D9817C1
:100B100031F0828DE80FF11D858D90E008958FEF03
:100B20009FEF0895FC01918D228D892F90E0805CCC
:100B30009F4F821B91098F73992708958CED91E047
:100B40000E94920521E0892B09F420E0822F08956C
:100B500080E090E0892B29F00E949E0581110C9481
:100B600000000895FC01A48DA80FB92FB11DA35A50
:100B7000BF4F2C91848D90E001968F739927848FBD
:100B8000A689B7892C93A089B1898C9183708064E0
:100B90008C93938D848D981306C00288F389E02D81
:100BA00080818F7D80830895EF92FF920F931F9332
:100BB000CF93DF93EC0181E0888F9B8D8C8D981310
:100BC0001AC0E889F989808185FF15C09FB7F8941C
:100BD000EE89FF896083E889F98980818370806468
:100BE00080839FBF81E090E0DF91CF911F910F91B3
:100BF000FF90EF900895F62E0B8D10E00F5F1F4FC2
:100C00000F731127E02E8C8D8E110CC00FB607FCD0
:100C1000FACFE889F989808185FFF5CFCE010E945E
:100C2000B205F1CFEB8DEC0FFD2FF11DE35AFF4F15
:100C3000F0829FB7F8940B8FEA89FB8980818062EC
:100C4000CFCFCF93DF93EC01888D8823B9F0AA89A9
:100C5000BB89E889F9898C9185FD03C0808186FD77
:100C60000DC00FB607FCF7CF8C9185FFF2CF8081C6
:100C700085FFEDCFCE010E94B205E9CFDF91CF9184
:100C8000089590E080E0089508958AEA92E00C9437
:100C90004D068AEA92E00C94500690E080E00895B8
:100CA00090E080E0089561E087E00E94FA0360E050
:100CB00086E00E94FA0360E084E00E94FA0360E0AC
:100CC00085E00C94FA0360E086E00E94FA0360E09D
:100CD00084E00E94FA0361E087E00E94FA0361E089
:100CE00085E00C94FA0360E085E00E94FA0360E07E
:100CF00087E00E94FA0361E086E00E94FA0361E067
:100D000084E00C94FA0360E087E00E94FA0360E05C
:100D100086E00E94FA0360E085E00E94FA0360E04A
:100D200084E00C94FA03FB0101900020E9F731976D
:100D3000AF01461B570BDC01ED91FC910280F38162
:100D4000E02D09948F929F92AF92BF92EF92FF9203
:100D50000F931F93CF93DF93CDB7DEB7A1970FB655
:100D6000F894DEBF0FBECDBF7C01FA01CB0119A202
:100D7000223008F42AE08E010F5D1F4F822E912C45
:100D8000B12CA12CBF01A50194010E944513F901CA
:100D9000CA016A300CF5605DD8016E938D01232B7A
:100DA000242B252B79F790E080E0109721F0BD01EE
:100DB000C7010E949306A1960FB6F894DEBF0FBE3E
:100DC000CDBFDF91CF911F910F91FF90EF90BF901A
:100DD000AF909F908F900895695CDECFCF92DF92A5
:100DE000EF92FF92CF93DF93AB01BC0177FF1DC061
:100DF0006A017C016DE28CED91E00E94D405EC016A
:100E000044275527BA014C195D096E097F092AE06C
:100E10008CED91E00E94A2068C0F9D1FDF91CF9177
:100E2000FF90EF90DF90CF9008952AE08CED91E055
:100E3000DF91CF91FF90EF90DF90CF900C94A206BE
:100E40000F931F93CF93DF93EC010E94D0048C018A
:100E500068E271E0CE010E949306800F911FDF913E
:100E6000CF911F910F9108950F931F93CF93DF930D
:100E70008C0160E571E08CED91E00E94200761E05B
:100E80008DE00E94FA03D0E0C0E065E471E08CEDF3
:100E900091E00E94D004BE010D2E000C880B990B2E
:100EA0000E94EE0661E371E08CED91E00E94200764
:100EB000CE010E947E036FE070E080E090E00E942F
:100EC0009C04C00FD11FC53BD105FCF260E08DE052
:100ED0000E94FA0368EE73E080E090E00E949C04B8
:100EE00061E08DE00E94FA03C4EBD0E066E271E0BD
:100EF0008CED91E00E94D004BE010D2E000C880BF9
:100F0000990B0E94EE0662E171E08CED91E00E9487
:100F10002007CE010E947E036FE070E080E090E049
:100F20000E949C04C01BD10BD7FFE0CF60E08DE096
:100F30000E94FA0361E071E08CED91E00E942007CD
:100F40008CED91E0DF91CF911F910F910C942106D0
:100F5000CF93DF93BC018CED91E00E949306EC01EE
:100F600068E271E08CED91E00E9493068C0F9D1F6A
:100F7000DF91CF910895CF93DF93EC018881998120
:100F8000009711F00E943515198218821D821C826B
:100F90001B821A82DF91CF910895FC01808191819B
:100FA000009711F00C9435150895FC018081918112
:100FB000009711F00C942F1260E070E0CB010895BF
:100FC000AF92BF92CF92DF92EF92FF920F931F9357
:100FD000CF93DF93DC01CD90DC901197C114D10445
:100FE00039F01496CD91DC918C017601209761F453
:100FF000DF91CF911F910F91FF90EF90DF90CF90F5
:10100000BF90AF90089575015701BFEFAB1ABB0AAF
:10101000F7018081082E000C990B0E945612892B33
:1010200091F72197CC0DDD1D8881082E000C990BBE
:101030000E945612892B29F0CE15DF0510F021975A
:10104000F3CFAE014F5F5F4F4E195F09D801159680
:101050005C934E931497CE14DF0420F4B701C601BD
:101060000E948B16D801ED91FC91119714968D91E9
:101070009C91E80FF91F1082BBCF0F931F93CF9362
:10108000DF93EC0188819981009759F02A813B8197
:101090002617370730F081E0DF91CF911F910F9134
:1010A00008958B016F5F7F4F0E94BE15009759F026
:1010B000998388831B830A832C813D81232B59F7D5
:1010C000FC011082E8CF80E0E7CFEF92FF920F9310
:1010D0001F93CF93DF93EC017B018A01BA010E9439
:1010E0003D0881110BC0CE010E94BB07CE01DF91EC
:1010F000CF911F910F91FF90EF9008951D830C8366
:10110000B701888199810E949D16F0CFEF92FF92DE
:101110000F931F93CF93DF9300D0CDB7DEB78C0131
:10112000FC0111821082138212821582148250E017
:1011300040E06AE271E00E9465080E94440597FD64
:101140001EC089831A82F801E480F580FFEFEF1A50
:10115000FF0AB701C8010E943D08882371F3F80116
:101160002081318184819581BE016F5F7F4F820F25
:10117000931F0E949D16F801F582E482DECFC8011C
:101180000F900F90DF91CF911F910F91FF90EF90F3
:101190000895CF93DF93EC01FB018617970749F081
:1011A000608171816115710541F0448155810E9412
:1011B0006508CE01DF91CF9108950E94BB07F9CF5A
:1011C000CF92DF92EF92FF920F931F9362EF70E046
:1011D0008CED91E00E94200760E089E00E94FA0314
:1011E00083E090E00197F1F761E089E00E94FA0363
:1011F00083E290E00197F1F7EEEAF5E06491EAE925
:10120000F5E0E491F0E0EE0FFF1FED53FF4F859105
:10121000949100E412E42FE030E0462F0E94DD0BB1
:10122000611571058105910529F06F5F7F4F8F4F23
:101230009F4F9F700E9490122DEC3CEC48E652E4C8
:101240000E94DF130E9451146B017C016AE070E080
:1012500080E090E00E949C046DED70E08CED91E0E8
:101260000E94200762ED70E08CED91E00E94D004B6
:10127000C701B6010E94EE066DEC70E08CED91E0C6
:101280000E942007C701B6011F910F91FF90EF90B8
:10129000DF90CF9008958F929F92AF92BF92CF929E
:1012A000DF92EF92FF9261E08DE00E94FA030E94CC
:1012B000E0086B017C01C092CC01D092CD01E0929C
:1012C000CE01F092CF0160E08DE00E94FA0324E1AC
:1012D000C21AD108E108F10881E9C81684E0D806ED
:1012E000E104F10430F48BE291E00E94A8070E942F
:1012F00063068091CC019091CD01A091CE01B09177
:10130000CF010797A109B1090C97A105B10508F014
:1013100093C08DE391E00E94A8070E94830664EFCA
:1013200071E080E090E00E949C040E94730664EFEC
:1013300071E080E090E00E949C040E94830664E6D5
:1013400070E080E090E00E949C048091D101909137
:10135000D201089709F0D0C06AEA70E08CED91E004
:101360000E9420078EE190E00E947E0364EF71E00E
:1013700080E090E00E949C040E94E00864E670E037
:1013800080E090E00E949C040E94E0084B015C0118
:1013900064E670E080E090E00E949C0460E970E008
:1013A0008CED91E00E94200786E990E00E947E0388
:1013B00064EF71E080E090E00E949C040E94E008ED
:1013C00064E670E080E090E00E949C040E94E008E7
:1013D0006B017C0164E670E080E090E00E949C0478
:1013E0008091CC019091CD01A091CE01B091CF011F
:1013F00088169906AA06BB060CF45FC08C149D04DF
:10140000AE04BF040CF459C066E870E08CED91E0C6
:101410000E9420070E9453066AE872E080E090E094
:101420000E949C048AE590E00E947E0364EF71E0D4
:1014300080E090E00E949C048091CC019091CD01CD
:10144000A091CE01B091CF010797A105B10570F42D
:1014500083E591E00E94A8070E94830664E670E09D
:1014600080E090E00E949C040E9473068091CC0171
:101470009091CD01A091CE01B091CF01853A9440D9
:10148000A105B10574F068E670E08CED91E00E9472
:1014900020070E94730664E670E080E090E00E94FE
:1014A0009C048CED91E0FF90EF90DF90CF90BF9087
:1014B000AF909F908F900C942106C816D906EA062B
:1014C000FB06BCF06BE770E08CED91E00E9420071A
:1014D00061E085E00E94FA0360E087E00E94FA0381
:1014E00060E086E00E94FA0360E084E00E94FA0374
:1014F00093CF0E94730696CF0E94530697CF1F92F8
:101500000F920FB60F9211242F933F938F939F93B7
:10151000AF93BF938091D8019091D901A091DA0146
:10152000B091DB013091D30123E0230F2D3758F523
:101530000196A11DB11D2093D3018093D8019093F2
:10154000D901A093DA01B093DB018091D40190918D
:10155000D501A091D601B091D7010196A11DB11D71
:101560008093D4019093D501A093D601B093D70175
:10157000BF91AF919F918F913F912F910F900FBE8F
:101580000F901F90189526E8230F0296A11DB11DFC
:10159000D2CF1F920F920FB60F9211242F933F9329
:1015A0004F935F936F937F938F939F93AF93BF936B
:1015B000EF93FF938CED91E00E94B205FF91EF91C4
:1015C000BF91AF919F918F917F916F915F914F915B
:1015D0003F912F910F900FBE0F901F9018951F9263
:1015E0000F920FB60F9211242F938F939F93EF9327
:1015F000FF93E091EC01F091ED018081E091F20127
:10160000F091F30182FD1BC090818091F5018F5F05
:101610008F732091F601821741F0E091F501F0E01F
:10162000E452FE4F958F8093F501FF91EF919F91CA
:101630008F912F910F900FBE0F901F901895808162
:10164000F4CF1F920F920FB60F9211242F933F9356
:101650004F935F936F937F938F939F93AF93BF93BA
:10166000CF93DF93EF93FF938091D001C091DB0282
:10167000D0E087FF24C010928500109284008091F2
:10168000D0018F5F8093D0018091D001082E000C93
:10169000990B8C179D0724F48091D0018C30C4F1F4
:1016A0008091840090918500049680349C4908F4D0
:1016B0007AC08091840090918500049676C08091D4
:1016C000D001082E000C990B8C179D07C4F6E091F1
:1016D000D0018E2FEE0F990BFC01EE0FFF1FE80FCC
:1016E000F91FE954FD4F808186FFC9CFE091D001F9
:1016F0008E2FEE0F990BFC01EE0FFF1FE80FF91F65
:10170000E954FD4F808160E08F730E94FA03B7CFE8
:101710002091840030918500E091D0018E2FEE0F52
:10172000990BFC01EE0FFF1FE80FF91FE954FD4F65
:1017300081819281820F931F90938900809388000A
:10174000E091D0018E2FEE0F990BFC01EE0FFF1FE1
:10175000E80FF91FE954FD4F808186FF11C0E09129
:10176000D0018E2FEE0F990BFC01EE0FFF1FE80F3B
:10177000F91FE954FD4F808161E08F730E94FA03E5
:10178000FF91EF91DF91CF91BF91AF919F918F9199
:101790007F916F915F914F913F912F910F900FBE6D
:1017A0000F901F90189580E49CE990938900809396
:1017B00088008FEF8093D001E3CFCF92DF92EF923A
:1017C000FF920F931F93E82FF92F05C001501109C5
:1017D0002109310961F1908196239417B9F305C06D
:1017E000015011092109310911F1908196239413B7
:1017F000F7CFC12CD12CE12CF12C0AC08FEFC81AE5
:10180000D80AE80AF80A0C151D052E053F0579F0DF
:1018100080818623841791F36C2D7D2D8E2D9F2D35
:101820001F910F91FF90EF90DF90CF90089560E0AF
:1018300070E080E090E01F910F91FF90EF90DF90BB
:10184000CF9008951092DF011092DE0188EE93E0B0
:10185000A0E0B0E08093E0019093E101A093E20169
:10186000B093E3018EE091E09093DD018093DC0181
:1018700085EC90E09093E9018093E80184EC90E09E
:101880009093EB018093EA0180EC90E09093ED015E
:101890008093EC0181EC90E09093EF018093EE0156
:1018A00082EC90E09093F1018093F00186EC90E05F
:1018B0009093F3018093F2011092F5011092F601DA
:1018C0001092F7011092F80188E893E1A0E0B0E0EF
:1018D00080939C0290939D02A0939E02B0939F02DE
:1018E0001092A8021092A4021092A5021092A602D1
:1018F0001092A7021092A90210927B0210927A0213
:10190000109279021092AD021092AC0280E291E046
:101910009093AB028093AA02AEEAB2E090E080E03E
:1019200021E2E1E0F0E08630910510F4F0E0E0E043
:10193000AC01425F5F4FE40FF51F20935700E49125
:10194000ED9301968930910561F71092E0021092B3
:10195000DF021092E2021092E1021092E402109271
:10196000E30250E040E06AE271E08FED92E00E9415
:1019700065088091DB028C3098F491E0980F909389
:10198000DB028093DC0290E0FC01EE0FFF1FE80F0A
:10199000F91FE954FD4F88EB9BE092838183089502
:1019A0008FEF8093DC020895CF93DF93CDB7DEB73E
:1019B0002F970FB6F894DEBF0FBECDBF789484B5D5
:1019C000826084BD84B5816084BD85B5826085BD3B
:1019D00085B5816085BD80916E00816080936E00C9
:1019E00010928100809181008260809381008091BB
:1019F000810081608093810080918000816080936C
:101A000080008091B10084608093B1008091B0002B
:101A100081608093B00080917A00846080937A0026
:101A200080917A00826080937A0080917A00816050
:101A300080937A0080917A00806880937A00109277
:101A4000C100E091EC01F091ED0182E08083E09132
:101A5000E801F091E9011082E091EA01F091EB01D7
:101A60008FEC80831092F401E091F001F091F1018C
:101A700086E08083E091EE01F091EF01808180614A
:101A80008083E091EE01F091EF0180818860808396
:101A9000E091EE01F091EF01808180688083E09118
:101AA000EE01F091EF0180818F7D80836BEC73E01C
:101AB0008CED91E00E94200769ED72E08CED91E0E1
:101AC0000E94200766E671E08CED91E00E9493068B
:101AD0001EEAA12E12E0B12E07EB12E07501F7010C
:101AE00081917F01803130F461E771E08CED91E00C
:101AF0000E949306F7013197408150E070E060E06A
:101B000020E18CED91E00E94A2066FE671E08CED81
:101B100091E00E9493060E151F0509F768E271E037
:101B20008CED91E00E9493068E010F5F1F4FF5012F
:101B300081915F011B861A861D861C861F861E8664
:101B400040E1B80190E00E947412F8010190002079
:101B5000E9F73197AF01401B510BB801CE010A964E
:101B60000E9465081A8219821C821B821E821D82B5
:101B70006FED72E0C8010E94C9088A849B848114B9
:101B8000910409F43FC0CE84DF84C114D104A9F0CC
:101B90008D819E81C80ED91EB601C8010E943D08E4
:101BA000882381F129813A818D819E81B401820F40
:101BB000931F0E949D16DE82CD82B8018FED92E0C8
:101BC0000E94C908C8010E94CD07CE010A960E9452
:101BD000CD07EA14FB0409F0AACFE090DF02F090F1
:101BE000E002E114F10491F0F70181917F01882373
:101BF00069F0082E000C990B0E948316F7013197AB
:101C00008083F2CFC8010E94BB07D7CF61E084E098
:101C10000E94460461E085E00E94460461E086E09F
:101C20000E94460461E087E00E94460461E089E08A
:101C30000E94460460E08AE00E9446048091DC0233
:101C40008C3008F051C061E088E00E944604809129
:101C5000DC02282F30E0F901EE0FFF1FE20FF31F27
:101C6000E954FD4F9081907C986090831092DD0242
:101C70001092DE022CE0622F0E948714829FB00136
:101C8000112430E020E0AB01420F531FFA01EE0FA8
:101C9000FF1FE40FF51FE954FD4F908196FD16C01C
:101CA0002F5F3F4F2C30310571F781110FC010921B
:101CB000800082E080938100109285001092840061
:101CC000B19A80916F00826080936F00E091DC0296
:101CD0008E2F90E0FC01EE0FFF1FE80FF91FE95473
:101CE000FD4F8081806480836CEA72E08CED91E02E
:101CF0000E9420078CED91E00E94210660E872E0CE
:101D00008CED91E00E94200761E087E00E94FA03D9
:101D10000E94D71128EEC22E23E0D22EE12CF12C06
:101D2000A70196010E94671368517C4F8F4F9F4F08
:101D30000E949C0460E087E00E94FA0361E085E075
:101D40000E94FA030E94D711A70196010E9467130F
:101D500068517C4F8F4F9F4F0E949C0460E085E04C
:101D60000E94FA0366E572E08CED91E00E94200784
:101D700080E197E20E942F13282F30E03093D201A8
:101D80002093D101843648F01092D2011092D101F3
:101D900060E080E197E20E9437136FE272E08CED21
:101DA00091E00E94D0046091D1017091D201072E80
:101DB000000C880B990B0E94EE0668E271E08CED36
:101DC00091E00E9493066DE072E08CED91E00E943C
:101DD00020078CED91E00E94210660E273E080E034
:101DE00090E00E949C0480E797E1A0E0B0E080933F
:101DF000E0019093E101A093E201B093E30167ED6C
:101E000071E08CED91E00E942007CE010A960E94BD
:101E10008608CE010A960E94E007EA84FB84E1145A
:101E2000F10471F0F70181917F01882349F0082EB8
:101E3000000C990B0E947B16F70131978083F2CF3B
:101E40008E859F85892B09F4ABC063E771E08A8595
:101E50009B850E949416892B09F0A2C069EA71E063
:101E60008CED91E00E9420078CED91E00E9492059C
:101E7000892BD1F3C8010E9486088A859B8500972B
:101E800009F4D0C069817A816115710509F4C8C06F
:101E90004C855D852D813E814217530708F4C0C0F3
:101EA0000E949D168D819E819F878E871E821D8236
:101EB000C8010E94CD07CE010A960E94E0071A824F
:101EC00019821C821B821E821D82BE01665F7F4FAB
:101ED000C8010E94C908C8010E94D507CB016093C0
:101EE000D1019093D20180E197E20E94371365E619
:101EF00071E08CED91E00E94D0046091D10170916D
:101F0000D201072E000C880B990B0E94EE0668E2A6
:101F100071E08CED91E00E949306C8010E94CD070C
:101F20008E859F85892BE1F165E771E08A859B8528
:101F30000E949416892BA1F566E771E08CED91E083
:101F40000E9420078CED91E00E949205892BD1F32D
:101F5000C8010E948608C8010E94E007C8010E94CB
:101F6000D5078FE097E20E94371368EC70E080E0BD
:101F700090E00E949C04C8010E94D5076B010E945A
:101F80001203C816D90619F0C6010E947E0368EC38
:101F900070E080E090E00E949C04C8010E94CD07A0
:101FA0008CED91E00E9421068AE590E00E947E037C
:101FB00068E572E080E090E00E949C04CE010A9601
:101FC0000E94CD0700E010E066E074E08CED91E047
:101FD0000E94D0044091E3025091E4026091DF023C
:101FE0007091E0028CED91E00E94F40468E271E0EF
:101FF0008CED91E00E949306E091D101F091D20125
:10200000E830F10508F06AC1E85FFF4E0C949314C4
:10201000841123109110EE1015111A114F11521145
:102020000E94351589819A819B878A878B819C8143
:102030009D878C878D819E819F878E871A821982CA
:102040001C821B8233CF87E791E00E94A80768ECCF
:1020500070E080E090E00E949C0460E084E00E94D8
:10206000FA0361E085E00E94FA0366E474E08CED17
:1020700091E00E94200764EF71E080E090E00E9410
:102080009C0460E084E00E94FA0360E085E00E9426
:10209000FA0363E374E08CED91E00E94200764EFA3
:1020A00071E080E090E00E949C0460E085E00E9486
:1020B000FA0361E084E00E94FA036EE174E08CEDC3
:1020C00091E00E94200764EF71E080E090E00E94C0
:1020D0009C0461E084E00E94FA0361E085E00E94D4
:1020E000FA036BE074E08CED91E00E94200764EF4E
:1020F00071E080E090E00E949C0489E891E00E94F9
:10210000A8078CED91E00E9421060115110509F444
:102110005BCF0E949E05882309F456CF0E940000E1
:1021200053CF80EA91E00E94A80768EC70E080E05D
:1021300090E00E949C0460E086E00E94FA0361E067
:1021400087E00E94FA0367E974E08CED91E00E9459
:10215000200764EF71E080E090E00E949C0460E062
:1021600086E00E94FA0360E087E00E94FA0363E8D9
:1021700074E08CED91E00E94200764EF71E080E054
:1021800090E00E949C0460E087E00E94FA0361E016
:1021900086E00E94FA036DE674E08CED91E00E9407
:1021A000200764EF71E080E090E00E949C0461E011
:1021B00086E00E94FA0361E087E00E94FA0369E585
:1021C00074E08CED91E00E94200764EF71E080E004
:1021D00090E00E949C0483EB91E091CF61E08DE060
:1021E0000E94FA036CEB74E08CED91E00E942007F2
:1021F0000E94E00868EE73E080E090E00E949C049A
:102200006BEA74E08CED91E00E9420078CED91E088
:102210000E94210660E08DE00E94FA0360E273E014
:1022200080E090E00E949C0470CF81E090E00E94EA
:1022300034076BCF8CED91E00E94210661E08DE0C8
:102240000E94FA036AE075E08CED91E00E9420079D
:102250000E94630667EF74E08CED91E00E94200716
:1022600060ED77E080E090E00E949C040E9473069D
:1022700062EE74E08CED91E00E94200760ED77E063
:1022800080E090E00E949C0461ED74E08CED91E0B0
:102290000E94200760E08DE00E94FA0336CF8FE0B5
:1022A00090E0C5CF8FE097E20E942F1390E00E944C
:1022B0007E0360E375E08CED91E00E94D0040E9403
:1022C0001203BC01990F880B990B0E94EE0664E281
:1022D00075E08CED91E00E94200717CF6AE675E06B
:1022E0008CED91E00E94D0046091D1017091D201F7
:1022F000072E000C880B990B0E94EE0668E475E02F
:102300008CED91E00E9420070E944B09FECE8FEDDC
:1023100092E00C94CD078F929F92AF92BF92CF9292
:10232000DF92EF92FF92CF93DF93EC016881798186
:102330008A819B81611571058105910521F464E213
:1023400079ED8BE597E02DE133EF41E050E00E941D
:10235000671349015A019B01AC01A7EAB1E40E944D
:1023600086136B017C01ACEEB4EFA50194010E94D1
:102370009413C60ED71EE81EF91EF7FE06C081E0B4
:10238000C81AD108E10880E8F80AC882D982EA822E
:10239000FB82C701B6019F77DF91CF91FF90EF904D
:1023A000DF90CF90BF90AF909F908F9008958F92C5
:1023B0009F92AF92BF92CF92DF92EF92FF92609185
:1023C000000170910101809102019091030161155A
:1023D00071058105910521F464E279ED8BE597E0C3
:1023E0002DE133EF41E050E00E94671349015A01AB
:1023F0009B01AC01A7EAB1E40E9486136B017C014A
:10240000ACEEB4EFA50194010E949413C60ED71E42
:10241000E81EF91EF7FE06C081E0C81AD108E108DF
:1024200080E8F80AC0920001D0920101E092020116
:10243000F0920301C701B6019F77FF90EF90DF9004
:10244000CF90BF90AF909F908F90089560930001C0
:1024500070930101809302019093030108951F93EB
:10246000FC0199278827BC01E89411911032E9F307
:10247000193010F01E30C8F31B3251F01D3249F4F0
:10248000689406C00E945F12610F711D811D911D2D
:10249000119110531A30B0F33EF4909580957095D9
:1024A00061957F4F8F4F9F4F1F91089591110C940D
:1024B000CB12803219F089508550C8F70895592FF2
:1024C000482F372F262F660F771F881F991F660FFB
:1024D000771F881F991F620F731F841F951F660F38
:1024E000771F881F991F0895BB27FB015527AA272F
:1024F000880F991FAA1FA41710F0A41B8395505191
:10250000B9F7A05DAA3308F0A95DA193009779F708
:10251000B111B1931192CB010C94CE12E89409C081
:1025200097FB3EF490958095709561957F4F8F4F06
:102530009F4F9923A9F0F92F96E9BB279395F6951C
:10254000879577956795B795F111F8CFFAF4BB0F9A
:1025500011F460FF1BC06F5F7F4F8F4F9F4F16C0FE
:10256000882311F096E911C0772321F09EE8872F88
:10257000762F05C0662371F096E8862F70E060E044
:102580002AF09A95660F771F881FDAF7880F9695BD
:10259000879597F90895992788270895DC01FC010C
:1025A000672F71917723E1F7329704C07C916D9387
:1025B00070836291AE17BF07C8F3089597F99F67BC
:1025C00080E870E060E008959FEF80EC08950024BB
:1025D0000A941616170618060906089500240A9488
:1025E00012161306140605060895092E0394000C0E
:1025F00011F4882352F0BB0F40F4BF2B11F460FF9D
:1026000004C06F5F7F4F8F4F9F4F089557FD9058C5
:10261000440F551F59F05F3F71F04795880F97FBA6
:10262000991F61F09F3F79F0879508951216130660
:102630001406551FF2CF4695F1DF08C0161617068F
:102640001806991FF1CF86957105610508940895C4
:10265000E894BB2766277727CB0197F90895F99966
:10266000FECF92BD81BDF89A992780B50895262F97
:10267000F999FECF1FBA92BD81BD20BD0FB6F89467
:10268000FA9AF99A0FBE01960895A1E21A2EAA1B92
:10269000BB1BFD010DC0AA1FBB1FEE1FFF1FA21712
:1026A000B307E407F50720F0A21BB30BE40BF50B0F
:1026B000661F771F881F991F1A9469F76095709598
:1026C000809590959B01AC01BD01CF010895052E29
:1026D00097FB1EF400940E947E1357FD07D00E94C2
:1026E000451307FC03D04EF40C947E13509540958F
:1026F000309521953F4F4F4F5F4F089590958095AE
:10270000709561957F4F8F4F9F4F08950E94D01312
:10271000A59F900DB49F900DA49F800D911D112435
:102720000895B7FF0C9486130E948613821B930BA7
:1027300008952F923F924F925F926F927F928F9265
:102740009F92AF92BF92CF92DF92EF92FF920F9340
:102750001F93CF93DF93CDB7DEB7CA1BDB0B0FB64A
:10276000F894DEBF0FBECDBF09942A883988488807
:102770005F846E847D848C849B84AA84B984C8849D
:10278000DF80EE80FD800C811B81AA81B981CE0F94
:10279000D11D0FB6F894DEBF0FBECDBFED01089579
:1027A000A29FB001B39FC001A39F700D811D112492
:1027B000911DB29F700D811D1124911D08950E94DD
:1027C000F3130C94F5120E94EE1258F00E94E712D7
:1027D00040F029F45F3F29F00C94DE1251110C9463
:1027E00029130C94E4120E94061368F39923B1F3A1
:1027F000552391F3951B550BBB27AA276217730727
:10280000840738F09F5F5F4F220F331F441FAA1FBA
:10281000A9F335D00E2E3AF0E0E832D09150504076
:10282000E695001CCAF72BD0FE2F29D0660F771F24
:10283000881FBB1F261737074807AB07B0E809F00A
:10284000BB0B802DBF01FF2793585F4F3AF09E3F8F
:10285000510578F00C94DE120C9429135F3FE4F3D9
:10286000983ED4F3869577956795B795F7959F5FD2
:10287000C9F7880F911D9695879597F90895E1E01E
:10288000660F771F881FBB1F621773078407BA077D
:1028900020F0621B730B840BBA0BEE1F88F7E095D8
:1028A00008950E9458146894B1110C942913089546
:1028B0000E940E1388F09F5798F0B92F9927B751AF
:1028C000B0F0E1F0660F771F881F991F1AF0BA95D4
:1028D000C9F714C0B13091F00E942813B1E00895F7
:1028E0000C942813672F782F8827B85F39F0B93FE9
:1028F000CCF3869577956795B395D9F73EF4909587
:102900008095709561957F4F8F4F9F4F0895991BCC
:1029100079E004C0991F961708F0961B881F7A95D6
:10292000C9F780950895EE0FFF1F0590F491E02DF3
:1029300009940F931F93CF93DF938230910510F486
:1029400082E090E0E091E702F091E80230E020E0E0
:10295000B0E0A0E0309799F42115310509F44AC0A0
:10296000281B390B24303105D8F58A819B816115EC
:10297000710589F1FB0193838283FE0111C04081BF
:1029800051810281138148175907E0F04817590710
:1029900099F4109761F012960C93129713961C936A
:1029A0003296CF01DF91CF911F910F91089500933F
:1029B000E7021093E802F4CF2115310551F04217D8
:1029C000530738F0A901DB019A01BD01DF01F801CD
:1029D000C1CFEF01F9CF9093E8028093E702CDCF0A
:1029E000FE01E20FF31F8193919322503109398345
:1029F0002883D7CF2091E5023091E602232B41F4C2
:102A000020910601309107013093E6022093E50200
:102A100020910401309105012115310541F42DB7B4
:102A20003EB74091080150910901241B350BE091FC
:102A3000E502F091E602E217F307A0F42E1B3F0B2C
:102A40002817390778F0AC014E5F5F4F2417350720
:102A500048F04E0F5F1F5093E6024093E5028193CA
:102A600091939FCFF0E0E0E09CCFCF93DF9300976E
:102A7000E9F0FC01329713821282A091E702B09133
:102A8000E802ED0130E020E01097A1F420813181CF
:102A9000820F931F2091E5023091E6022817390733
:102AA00009F061C0F093E602E093E502DF91CF9177
:102AB0000895EA01CE17DF07E8F54A815B819E01A0
:102AC00041155105B1F7E901FB83EA834991599119
:102AD000C40FD51FEC17FD0761F480819181029628
:102AE000840F951FE90199838883828193819B8359
:102AF0008A83F0E0E0E012968D919C911397009705
:102B0000B9F52D913C911197CD010296820F931F3B
:102B10002091E5023091E6022817390739F63097FF
:102B200051F51092E8021092E702B093E602A093EA
:102B3000E502BCCFD383C28340815181840F951FAE
:102B4000C817D90761F44E5F5F4F88819981480F9C
:102B5000591F518340838A819B81938382832115EE
:102B6000310509F0B0CFF093E802E093E7029ECF81
:102B7000FD01DC01C0CF13821282D7CFB0E0A0E00C
:102B8000E4ECF5E10C949B138C01009751F4CB011C
:102B90000E9499148C01C801CDB7DEB7E0E10C9416
:102BA000B713FC01E60FF71F9C0122503109E21711
:102BB000F30708F49DC0D901CD91DC911197C61798
:102BC000D70798F0C530D10530F3CE0104978617AA
:102BD000970708F3C61BD70B2297C193D1936D9328
:102BE0007C93CF010E943515D6CF5B01AC1ABD0A8C
:102BF0004C018C0E9D1EA091E702B091E802512C71
:102C0000412CF12CE12C109731F58091E502909147
:102C1000E6028815990509F05CC04616570608F0CB
:102C200058C08091040190910501009741F48DB73F
:102C30009EB74091080150910901841B950BE8173C
:102C4000F90708F055C0F093E602E093E502F901B8
:102C500071836083A0CF8D919C91119712966C9097
:102C6000129713967C901397A815B90559F56C0126
:102C700042E0C40ED11CCA14DB0420F1AC014A1995
:102C80005B09DA011296159780F062827382518394
:102C90004083D9016D937C93E114F10471F0D70165
:102CA0001396FC93EE93129776CF22968C0F9D1F6E
:102CB000F90191838083F301EFCFF093E802E09371
:102CC000E70269CF4816590608F42C017D01D301AB
:102CD0009ACFCB010E9499147C01009749F0AE0174
:102CE000B8010E948B16C8010E943515870153CF89
:102CF00010E000E050CF9111089581548A5108F4FA
:102D0000805E855A08959111089581568A5108F47C
:102D1000805285580895FB01DC0102C001900D929C
:102D200041505040D8F70895FB01DC018D9101908E
:102D300080190110D9F3990B0895FB01DC01019072
:102D40000D920020E1F7089512E0C7EED2E004C032
:102D5000FE010E9493142196C83ED107C9F7F8944A
:022D6000FFCFA3
:102D6200010000000000E902800000000000D4051C
:102D7200F4042105210692053005840500000000B7
:102D820050064D064106CF040D0A004D6F76696E5E
:102D92006720666F72776172642E2E2E004F627307
:102DA2007461636C652041766F6964616E63652E40
:102DB2002E2E004D6F76696E67204261636B7761DC
:102DC20072642E2E2E00556E6971756549443A2043
:102DD200003000790037004C656674204D6F746FC7
:102DE2007220436865636B21004C656674204D6FE9
:102DF200746F7220436865636B20446F6E652100B7
:102E02005269676874204D6F746F722043686563FE
:102E12006B21005269676874204D6F746F72204392
:0C2E22006865636B20446F6E6521000042
:00000001FF
