:100000000C9463000C948B000C948B000C948B006C
:100010000C948B000C948B000C948B000C948B0034
:100020000C948B000C948B000C948B000C948B0024
:100030000C948B000C948B000C948B000C948B0014
:100040000C9482030C948B000C94F2030C94CC035C
:100050000C948B000C948B000C948B000C948B00F4
:100060000C948B000C948B000000000023002600F1
:10007000290000000000240027002A0000000000E2
:10008000250028002B0004040404040404040202D4
:100090000202020203030303030301020408102007
:1000A0004080010204081020010204081020000012
:1000B0000008000201000003040700000000000027
:1000C000000069045E0811241FBECFEFD8E0DEBF38
:1000D000CDBF12E0A0E0B1E0E0E2FAE102C005909D
:1000E0000D92AA34B107D9F723E0AAE4B2E001C027
:1000F0001D92A730B207E1F710E0C2E6D0E004C0DD
:100100002197FE010E940B0BC136D107C9F70E944F
:10011000E8040C94030D0C94000090E0FC01E255FF
:10012000FF4F2491FC01E656FF4F3491FC01EA5742
:10013000FF4FE491EE23C9F0222339F0233001F17F
:10014000A8F4213019F1223029F1F0E0EE0FFF1F61
:10015000E458FF4FA591B4918FB7F894EC916111D9
:1001600026C030953E233C938FBF08952730A9F0D9
:100170002830C9F0243049F7809180008F7D03C07A
:10018000809180008F7780938000DFCF84B58F7758
:1001900084BDDBCF84B58F7DFBCF8091B0008F779E
:1001A0008093B000D2CF8091B0008F7DF9CF3E2BED
:1001B000DACFCF93DF9390E0FC01E656FF4F249116
:1001C0008A579F4FFC0184918823D1F090E0880FDB
:1001D000991FFC01EE58FF4FA591B491FC01E45822
:1001E000FF4FC591D49161110EC09FB7F8948C91C7
:1001F000E22FE0958E238C932881E223E8839FBF32
:10020000DF91CF9108958FB7F894EC91E22BEC93A6
:100210008FBFF6CF3FB7F89480915302909154026C
:10022000A0915502B091560226B5A89B05C02F3F5C
:1002300019F00196A11DB11D3FBFBA2FA92F982F0C
:100240008827BC01CD01620F711D811D911D42E007
:10025000660F771F881F991F4A95D1F708958F92CF
:100260009F92AF92BF92CF92DF92EF92FF926B017B
:100270007C010E940A014B015C01C114D104E1041C
:10028000F104B9F00E940A01681979098A099B09E9
:10029000683E73408105910580F321E0C21AD108C0
:1002A000E108F10888EE880E83E0981EA11CB11CBD
:1002B000E4CFFF90EF90DF90CF90BF90AF909F90F2
:1002C0008F900895AF92BF92CF92DF92EF92FF92FC
:1002D0000F931F93CF93DF936C017B018B01040F6E
:1002E000151FEB015E01AE18BF08C017D10759F00A
:1002F0006991D601ED91FC910190F081E02DC6014C
:100300000995892B79F7C501DF91CF911F910F9145
:10031000FF90EF90DF90CF90BF90AF900895FC01D9
:10032000538D448D252F30E0842F90E0821B930B5A
:10033000541710F0CF96089501970895FC01918D00
:10034000828D981761F0A28DAE0FBF2FB11D5D9603
:100350008C91928D9F5F9F73928F90E008958FEFA5
:100360009FEF0895FC01918D828D981731F0828D59
:10037000E80FF11D858D90E008958FEF9FEF0895B0
:10038000FC01918D228D892F90E0805C9F4F821B14
:1003900091098F739927089587E592E00E94C00123
:1003A00021E0892B09F420E0822F089580E090E07D
:1003B000892B29F00E94CC0181110C940000089532
:1003C000FC01A48DA80FB92FB11DA35ABF4F2C91CA
:1003D000848D90E001968F739927848FA689B789C1
:1003E0002C93A089B1898C91837080648C93938DB8
:1003F000848D981306C00288F389E02D80818F7D5B
:1004000080830895EF92FF920F931F93CF93DF9312
:10041000EC0181E0888F9B8D8C8D98131AC0E88940
:10042000F989808185FF15C09FB7F894EE89FF890F
:100430006083E889F98980818370806480839FBFAD
:1004400081E090E0DF91CF911F910F91FF90EF90AD
:100450000895F62E0B8D10E00F5F1F4F0F731127BD
:10046000E02E8C8D8E110CC00FB607FCFACFE889F8
:10047000F989808185FFF5CFCE010E94E001F1CF9F
:10048000EB8DEC0FFD2FF11DE35AFF4FF0829FB76C
:10049000F8940B8FEA89FB8980818062CFCFCF935C
:1004A000DF93EC01888D8823B9F0AA89BB89E8899C
:1004B000F9898C9185FD03C0808186FD0DC00FB642
:1004C00007FCF7CF8C9185FFF2CF808185FFEDCFC0
:1004D000CE010E94E001E9CFDF91CF910895FC01A8
:1004E00001900020E9F73197AF01481B590BBC017F
:1004F00087E592E00C946201CF93DF93FC01448185
:1005000055816081718187E592E00E946201EC0172
:100510008CE191E00E946F028C0F9D1FDF91CF91C3
:1005200008958F929F92AF92BF920F931F93CF9394
:10053000DF93CDB7DEB7A1970FB6F894DEBF0FBE3D
:10054000CDBF19A2423008F44AE08E010F5D1F4F63
:10055000842E912CB12CA12CA50194010E94320A69
:10056000E62FB901CA01EA30F4F4E05DD801EE9358
:100570008D01232B242B252B79F790E080E0109719
:1005800019F0CD010E946F02A1960FB6F894DEBF5C
:100590000FBECDBFDF91CF911F910F91BF90AF9054
:1005A0009F908F900895E95CE1CF0F931F93CF93B5
:1005B000DF93EC0188819981009759F02A813B8172
:1005C0002617370730F081E0DF91CF911F910F910F
:1005D00008958B016F5F7F4F0E94360C009759F092
:1005E000998388831B830A832C813D81232B59F7B0
:1005F000FC011082E8CF80E0E7CFCF93DF93EC01DE
:1006000088819981009711F00E94AD0B19821882A0
:100610001D821C821B821A82DF91CF910895EF9276
:10062000FF920F931F93CF93DF938C017B01FB010C
:1006300001900020E9F73197E61BF70BD1F0DC01C0
:100640001496CD91DC91CE0FDF1FBE010E94D50222
:100650008823B9F0F8012081318184819581B70127
:10066000820F931F0E94FC0CD8011596DC93CE9349
:100670001497C801DF91CF911F910F91FF90EF90D8
:100680000895C8010E94FD02F4CFEF92FF920F93EC
:100690001F93CF93DF93EC018617970781F0FB013F
:1006A000008111810115110539F0E480F580B70151
:1006B0000E94D50281110BC0CE010E94FD02CE0125
:1006C000DF91CF911F910F91FF90EF900895FD82E0
:1006D000EC82B801888199810E94FC0CF0CFFC016A
:1006E0001182108213821282158214826DEF72E0E1
:1006F0000C944503FC0180819181009711F00C94CA
:10070000AD0B08951F920F920FB60F9211242F93E5
:100710003F938F939F93AF93BF9380914F0290919C
:100720005002A0915102B091520230914E0223E04A
:10073000230F2D3758F50196A11DB11D20934E02B0
:1007400080934F0290935002A0935102B0935202B3
:100750008091530290915402A0915502B09156029B
:100760000196A11DB11D8093530290935402A09352
:100770005502B0935602BF91AF919F918F913F91D7
:100780002F910F900FBE0F901F90189526E8230F02
:100790000296A11DB11DD2CF1F920F920FB60F92DC
:1007A00011242F933F934F935F936F937F938F9376
:1007B0009F93AF93BF93EF93FF9387E592E00E94DF
:1007C000E001FF91EF91BF91AF919F918F917F9148
:1007D0006F915F914F913F912F910F900FBE0F90AE
:1007E0001F9018951F920F920FB60F9211242F93FE
:1007F0008F939F93EF93FF93E0916702F0916802CC
:100800008081E0916D02F0916E0282FD1BC09081AB
:10081000809170028F5F8F7320917102821741F077
:10082000E0917002F0E0E95AFD4F958F80937002DD
:10083000FF91EF919F918F912F910F900FBE0F908D
:100840001F9018958081F4CFCF92DF92EF92FF92A4
:100850000F931F93E82FF92F05C0015011092109AB
:10086000310961F1908196239417B9F305C00150C5
:1008700011092109310911F1908196239413F7CFC1
:10088000C12CD12CE12CF12C0AC08FEFC81AD80A48
:10089000E80AF80A0C151D052E053F0579F0808140
:1008A0008623841791F36C2D7D2D8E2D9F2D1F9106
:1008B0000F91FF90EF90DF90CF90089560E070E08F
:1008C00080E090E01F910F91FF90EF90DF90CF902C
:1008D000089510925A021092590288EE93E0A0E017
:1008E000B0E080935B0290935C02A0935D02B093B2
:1008F0005E028EE091E0909358028093570285EC5F
:1009000090E0909364028093630284EC90E0909373
:1009100066028093650280EC90E090936802809379
:10092000670281EC90E090936A028093690282EC06
:1009300090E090936C0280936B0286EC90E0909331
:100940006E0280936D0210927002109271021092EA
:10095000720210927302A4EFB2E090E080E021E214
:10096000E1E0F0E08630910510F4F0E0E0E0AC0169
:10097000425F5F4FE40FF51F20935700E491ED9322
:1009800001968930910561F71092FE021092FD02E6
:10099000109200031092FF021092020310920103C2
:1009A00070E060E08DEF92E00E94D502811104C0FA
:1009B0008DEF92E00C94FD0210920203109201035D
:1009C0006EE171E08091FD029091FE020C94FC0CAE
:1009D000CF93DF93CDB7DEB72A970FB6F894DEBF7B
:1009E0000FBECDBF789484B5826084BD84B581602C
:1009F00084BD85B5826085BD85B5816085BD8091EA
:100A00006E00816080936E00109281008091810061
:100A10008260809381008091810081608093810059
:100A2000809180008160809380008091B10084601B
:100A30008093B1008091B00081608093B00080917C
:100A40007A00846080937A0080917A00826080933B
:100A50007A0080917A00816080937A0080917A0098
:100A6000806880937A001092C1000E94AE082CED3D
:100A700035E040E050E00E94C9096C507E4F8F4F36
:100A80009F4F0E942F01E0916702F091680282E07F
:100A90008083E0916302F09164021082E09165022C
:100AA000F09166028FEC808310926F02E0916B02EE
:100AB000F0916C0286E08083E0916902F0916A0215
:100AC000808180618083E0916902F0916A02808177
:100AD00088608083E0916902F0916A028081806879
:100AE0008083E0916902F0916A0280818F7D80832A
:100AF0008FE191E00E946F0204EF12E06801F601BD
:100B000081916F01803120F48AE291E00E946F02AE
:100B1000F6013197608170E090E080E040E10E9452
:100B2000910288E291E00E946F02FDEFCF16F2E0A1
:100B3000DF0629F78CE191E00E946F028FE191E0DE
:100B40000E946F025E0127E0A20EB11C7801F8013D
:100B50008081803120F48AE291E00E946F020F5F71
:100B60001F4FF701608170E090E080E04AE00E9452
:100B70009102F8013197F080CE0101960E946F0337
:100B80004AE0B5018F2D90E00E940609F501019021
:100B90000020E9F73197EA19FB09B9F0ED80FE80F2
:100BA000EE0EFF1EB701CE0101960E94D5028823EA
:100BB00009F47FC229813A818D819E81B501820F1E
:100BC000931F0E94FC0CFE82ED82BE016F5F7F4F7F
:100BD0008DEF92E00E944503CE0101960E947A03B8
:100BE00088E291E00E946F02C016D10609F0AECFF4
:100BF0008CE191E00E946F0261E084E00E94D900E4
:100C000061E085E00E94D90061E086E00E94D900A1
:100C100061E087E00E94D90061E089E00E94D9008C
:100C200060E08AE00E94D900CE0101960E946F0325
:100C30006CE271E0CE0101960E940F030E947C02DB
:100C4000CE0101960E947A0387E592E00E944F024E
:100C5000CE0101960E946F036BE571E0CE01019613
:100C60000E940F030E947C02CE0101960E947A032B
:100C700061E087E00E948D000E94AE0828EEC22E3F
:100C800023E0D22EE12CF12CA70196010E94C90984
:100C900068517C4F8F4F9F4F0E942F0161E085E08C
:100CA0000E948D000E94AE08A70196010E94C9090A
:100CB00068517C4F8F4F9F4F0E942F0188E891E031
:100CC0000E946F028CE191E00E946F0282EB91E042
:100CD0000E946F028CE191E00E946F0287E592E032
:100CE0000E944F0260E273E080E090E00E942F01DA
:100CF00033E0E32EF12C43E2C42ED12C54EAA52E8E
:100D000050E0B52E60E9862E60E0962E70E0672EEA
:100D100070E0772E61E08DE00E948D00CE0101969B
:100D20000E946F0364ED71E0CE0101960E940F03F3
:100D30000E947C02CE0101960E947A0360E089E065
:100D40000E948D00C7010197F1F761E089E00E94E0
:100D50008D00C6010197F1F7F5016491F4018491CA
:100D6000E82FF0E0EE0FFF1FE859FF4F85919491B7
:100D700000E412E42FE030E0462F0E9424046115C5
:100D800071058105910529F06F5F7F4F8F4F9F4F50
:100D90009F700E943D092DEC3CEC48E652E40E9415
:100DA000630A0E94D50A60934A0270934B028093B3
:100DB0004C0290934D026AE070E080E090E00E9467
:100DC0002F01CE0101960E946F0365EE71E0CE0106
:100DD00001960E940F030E947C02CE0101960E94A0
:100DE0007A03CE0101960E946F036CEF71E0CE0191
:100DF00001960E940F03FC0144815581608171813D
:100E000087E592E00E946201CE0101960E947A037A
:100E100020904A0230904B0240904C0250904D027C
:100E20004AE0C201B10157FE0DC06DE287E592E0D4
:100E30000E94020266277727CB0162197309840991
:100E400095094AE00E9491028CE191E00E946F02B4
:100E500060E08DE00E948D0080914A0290914B02EB
:100E6000A0914C02B0914D024497A109B10981397A
:100E70009440A105B10500F5CE0101960E946F03D3
:100E800069E072E0CE0101960E940F030E947C028D
:100E9000CE0101960E947A0361E087E00E948D00F6
:100EA00060E086E00E948D0061E085E00E948D0098
:100EB00060E084E00E948D0080914A0290914B0294
:100EC000A0914C02B0914D020797A109B1090C976E
:100ED000A105B10508F068C0CE0101960E946F031C
:100EE0006DE172E0CE0101960E940F030E947C0228
:100EF000CE0101960E947A0360E087E00E948D0097
:100F000060E086E00E948D0060E085E00E948D0038
:100F100060E084E00E948D0064EF71E080E090E08A
:100F20000E942F0160E087E00E948D0061E086E072
:100F30000E948D0060E085E00E948D0061E084E009
:100F40000E948D0064EF71E080E090E00E942F012C
:100F500060E087E00E948D0060E086E00E948D00E6
:100F600060E085E00E948D0060E084E00E948D00DA
:100F700064E670E080E090E00E942F0161E087E08D
:100F80000E948D0060E086E00E948D0060E084E0B9
:100F90000E948D0060E085E00E948D0064EF71E0AA
:100FA00080E090E00E942F0180914A0290914B02D4
:100FB000A0914C02B0914D020797A105B105B0F583
:100FC000CE0101960E946F0365E372E0CE010196A7
:100FD0000E940F030E947C02CE0101960E947A03B8
:100FE00060E087E00E948D0060E086E00E948D0056
:100FF00060E085E00E948D0060E084E00E948D004A
:1010000064E670E080E090E00E942F0160E087E0FD
:101010000E948D0061E086E00E948D0060E085E026
:101020000E948D0061E084E00E948D0080914A0260
:1010300090914B02A0914C02B0914D02853A9440A0
:10104000A105B10534F1CE0101960E946F0365E35D
:1010500072E0CE0101960E940F030E947C02CE0135
:1010600001960E947A0360E087E00E948D0061E0B3
:1010700086E00E948D0060E085E00E948D0061E0C6
:1010800084E00E948D0064E670E080E090E00E94C1
:101090002F0187E592E00E944F026114710409F468
:1010A00039CE0E94CC01882309F434CE0E9400007E
:1010B00031CECE0101960E94FD0287CD8DEF92E0E8
:1010C0000C947A038F929F92AF92BF92CF92DF924D
:1010D000EF92FF92CF93DF93EC01688179818A814F
:1010E0009B81611571058105910521F464E279ED1B
:1010F0008BE597E02DE133EF41E050E00E94C90914
:1011000049015A019B01AC01A7EAB1E40E94E80938
:101110006B017C01ACEEB4EFA50194010E94F609CD
:10112000C60ED71EE81EF91EF7FE06C081E0C81ADB
:10113000D108E10880E8F80AC882D982EA82FB82F5
:10114000C701B6019F77DF91CF91FF90EF90DF90BD
:10115000CF90BF90AF909F908F9008958F929F9265
:10116000AF92BF92CF92DF92EF92FF926091000117
:101170007091010180910201909103016115710547
:101180008105910521F464E279ED8BE597E02DE18D
:1011900033EF41E050E00E94C90949015A019B0127
:1011A000AC01A7EAB1E40E94E8096B017C01ACEE56
:1011B000B4EFA50194010E94F609C60ED71EE81EE1
:1011C000F91EF7FE06C081E0C81AD108E10880E8E0
:1011D000F80AC0920001D0920101E0920201F0925F
:1011E0000301C701B6019F77FF90EF90DF90CF908A
:1011F000BF90AF909F908F9008956093000170937F
:10120000010180930201909303010895BB274A30A6
:1012100031F4992322F4BDE2909581959F4F0C946F
:101220001209BB27FB015527AA27880F991FAA1F60
:10123000A41710F0A41B83955051B9F7A05DAA33F1
:1012400008F0A95DA193009779F7B111B1931192BC
:10125000CB010C942B09DC01FC01672F71917723E2
:10126000E1F7329704C07C916D9370836291AE1761
:10127000BF07C8F30895E89409C097FB3EF4909522
:101280008095709561957F4F8F4F9F4F9923A9F05F
:10129000F92F96E9BB279395F695879577956795EE
:1012A000B795F111F8CFFAF4BB0F11F460FF1BC032
:1012B0006F5F7F4F8F4F9F4F16C0882311F096E9C5
:1012C00011C0772321F09EE8872F762F05C0662373
:1012D00071F096E8862F70E060E02AF09A95660F2C
:1012E000771F881FDAF7880F9695879597F90895E5
:1012F00097F99F6780E870E060E008959FEF80ECC9
:10130000089500240A94161617061806090608956B
:1013100000240A9412161306140605060895092ED1
:101320000394000C11F4882352F0BB0F40F4BF2B40
:1013300011F460FF04C06F5F7F4F8F4F9F4F089580
:1013400057FD9058440F551F59F05F3F71F0479576
:10135000880F97FB991F61F09F3F79F0879508955B
:10136000121613061406551FF2CF4695F1DF08C07A
:10137000161617061806991FF1CF86957105610597
:1013800008940895E894BB2766277727CB0197F93F
:101390000895052E97FB1EF400940E94E00957FD66
:1013A00007D00E94320A07FC03D04EF40C94E009E7
:1013B00050954095309521953F4F4F4F5F4F089581
:1013C00090958095709561957F4F8F4F9F4F0895B1
:1013D0000E94540AA59F900DB49F900DA49F800D6C
:1013E000911D11240895B7FF0C94E8090E94E809A3
:1013F000821B930B08952F923F924F925F926F92B0
:101400007F928F929F92AF92BF92CF92DF92EF9294
:10141000FF920F931F93CF93DF93CDB7DEB7CA1B15
:10142000DB0B0FB6F894DEBF0FBECDBF09942A8840
:10143000398848885F846E847D848C849B84AA84E8
:10144000B984C884DF80EE80FD800C811B81AA8175
:10145000B981CE0FD11D0FB6F894DEBF0FBECDBF40
:10146000ED010895A1E21A2EAA1BBB1BFD010DC0C0
:10147000AA1FBB1FEE1FFF1FA217B307E407F50744
:1014800020F0A21BB30BE40BF50B661F771F881F20
:10149000991F1A9469F760957095809590959B01B6
:1014A000AC01BD01CF010895A29FB001B39FC0015F
:1014B000A39F700D811D1124911DB29F700D811D80
:1014C0001124911D08950E94770A0C948F090E949F
:1014D000880958F00E94810940F029F45F3F29F003
:1014E0000C94780951110C94C3090C947E090E9444
:1014F000A00968F39923B1F3552391F3951B550B7C
:10150000BB27AA2762177307840738F09F5F5F4FD6
:10151000220F331F441FAA1FA9F335D00E2E3AF015
:10152000E0E832D091505040E695001CCAF72BD02D
:10153000FE2F29D0660F771F881FBB1F261737077E
:101540004807AB07B0E809F0BB0B802DBF01FF27B0
:1015500093585F4F3AF09E3F510578F00C9478090C
:101560000C94C3095F3FE4F3983ED4F386957795D6
:101570006795B795F7959F5FC9F7880F911D969569
:10158000879597F90895E1E0660F771F881FBB1FC5
:10159000621773078407BA0720F0621B730B840B72
:1015A000BA0BEE1F88F7E09508950E94DC0A689454
:1015B000B1110C94C30908950E94A80988F09F579F
:1015C00098F0B92F9927B751B0F0E1F0660F771F67
:1015D000881F991F1AF0BA95C9F714C0B13091F05D
:1015E0000E94C209B1E008950C94C209672F782FB8
:1015F0008827B85F39F0B93FCCF386957795679522
:10160000B395D9F73EF490958095709561957F4F8D
:101610008F4F9F4F0895EE0FFF1F0590F491E02D1F
:1016200009940F931F93CF93DF938230910510F4A9
:1016300082E090E0E0910503F091060330E020E0C5
:10164000B0E0A0E0309799F42115310509F44AC0C3
:10165000281B390B24303105D8F58A819B8161150F
:10166000710589F1FB0193838283FE0111C04081E2
:1016700051810281138148175907E0F04817590733
:1016800099F4109761F012960C93129713961C938D
:101690003296CF01DF91CF911F910F910895009362
:1016A000050310930603F4CF2115310551F04217BD
:1016B000530738F0A901DB019A01BD01DF01F801F0
:1016C000C1CFEF01F9CF9093060380930503CDCFEF
:1016D000FE01E20FF31F8193919322503109398368
:1016E0002883D7CF2091030330910403232B41F4A7
:1016F00020910601309107013093040320930303E6
:1017000020910401309105012115310541F42DB7D7
:101710003EB74091080150910901241B350BE0911F
:101720000303F0910403E217F307A0F42E1B3F0B11
:101730002817390778F0AC014E5F5F4F2417350743
:1017400048F04E0F5F1F50930403409303038193AF
:1017500091939FCFF0E0E0E09CCFCF93DF93009791
:10176000E9F0FC01329713821282A0910503B09137
:101770000603ED0130E020E01097A1F420813181D3
:10178000820F931F20910303309104032817390718
:1017900009F061C0F0930403E0930303DF91CF915C
:1017A0000895EA01CE17DF07E8F54A815B819E01C3
:1017B00041155105B1F7E901FB83EA83499159913C
:1017C000C40FD51FEC17FD0761F48081918102964B
:1017D000840F951FE90199838883828193819B837C
:1017E0008A83F0E0E0E012968D919C911397009728
:1017F000B9F52D913C911197CD010296820F931F5F
:1018000020910303309104032817390739F63097E4
:1018100051F51092060310920503B0930403A093B0
:101820000303BCCFD383C28340815181840F951FB2
:10183000C817D90761F44E5F5F4F88819981480FBF
:10184000591F518340838A819B8193838283211511
:10185000310509F0B0CFF0930603E09305039ECF66
:10186000FD01DC01C0CF13821282D7CFB0E0A0E02F
:10187000ECE3FCE00C94FD098C01009751F4CB01E2
:101880000E94110B8C01C801CDB7DEB7E0E10C94CA
:10189000190AFC01E60FF71F9C0122503109E217DB
:1018A000F30708F49DC0D901CD91DC911197C617BB
:1018B000D70798F0C530D10530F3CE0104978617CD
:1018C000970708F3C61BD70B2297C193D1936D934B
:1018D0007C93CF010E94AD0BD6CF5B01AC1ABD0A41
:1018E0004C018C0E9D1EA0910503B0910603512C56
:1018F000412CF12CE12C109731F58091030390914C
:1019000004038815990509F05CC04616570608F0CF
:1019100058C08091040190910501009741F48DB762
:101920009EB74091080150910901841B950BE8175F
:10193000F90708F055C0F0930403E0930303F9019D
:1019400071836083A0CF8D919C91119712966C90BA
:10195000129713967C901397A815B90559F56C0149
:1019600042E0C40ED11CCA14DB0420F1AC014A19B8
:101970005B09DA011296159780F0628273825183B7
:101980004083D9016D937C93E114F10471F0D70188
:101990001396FC93EE93129776CF22968C0F9D1F91
:1019A000F90191838083F301EFCFF0930603E09375
:1019B000050369CF4816590608F42C017D01D301AF
:1019C0009ACFCB010E94110B7C01009749F0AE0128
:1019D000B8010E94F30CC8010E94AD0B870153CFE0
:1019E00010E000E050CFFB01DC0102C001900D923D
:1019F00041505040D8F70895FB01DC0101900D9251
:101A00000020E1F7089510E0C2E6D0E004C0FE0136
:101A10000E940B0B2196C336D107C9F7F894FFCF6C
:101A20000100000000000703800000000000020227
:101A300062018F014F02C0019E01B2010D0A0055E3
:101A40006E6971756549443A200030003A20526F42
:101A5000626F726163657220416C706861204D75C0
:101A6000E284A22069732061626F757420746F2014
:101A7000696E6974696174652E2E003A526F626FE7
:101A8000726163657220416C706861204D75E284FB
:101A9000A2205374617274696E67204265652044A8
:101AA000616E6365212E2E00526F626F72616365F5
:101AB0007220416C706861204D75E284A220456EF1
:101AC00064696E67204265652044616E6365212EFE
:101AD0002E00526F626F726163657220416C706894
:101AE00061204D75E284A220696E69746961746534
:101AF000642E2E003A2053656E64696E6720506C28
:101B000075736521003A20506C75736520456368D4
:101B10006F20726563696576656421003A204469C7
:101B20007374616E63653A20003A204D6F76696E7A
:101B30006720666F72776172642E2E2E003A204FF6
:101B400062737461636C652041766F6964616E6372
:101B5000652E2E2E003A204D6F76696E6720426109
:0A1B6000636B776172642E2E2E0075
:00000001FF
