:100000000C9463000C948B000C948B000C948B006C
:100010000C948B000C948B000C948B000C948B0034
:100020000C948B000C948B000C948B000C948B0024
:100030000C948B000C948B000C948B000C948B0014
:100040000C9411050C948B000C9481050C945B05A9
:100050000C948B000C948B000C948B000C948B00F4
:100060000C948B000C948B000000000023002600F1
:10007000290000000000240027002A0000000000E2
:10008000250028002B0004040404040404040202D4
:100090000202020203030303030301020408102007
:1000A0004080010204081020010204081020000012
:1000B0000008000201000003040700000000000027
:1000C0000000F805B10B11241FBECFEFD8E0DEBF52
:1000D000CDBF15E0A0E0B1E0E6E2F1E202C005909C
:1000E0000D92A835B107D9F726E0A8E5B5E001C023
:1000F0001D92AC34B207E1F710E0C2E6D0E004C0D4
:100100002197FE010E94750EC136D107C9F70E94E2
:100110008F060C9486100C94000090E0FC01E255D0
:10012000FF4F2491FC01E656FF4F3491FC01EA5742
:10013000FF4FE491EE23C9F0222339F0233001F17F
:10014000A8F4213019F1223029F1F0E0EE0FFF1F61
:10015000E458FF4FA591B4918FB7F894EC916111D9
:1001600026C030953E233C938FBF08952730A9F0D9
:100170002830C9F0243049F7809180008F7D03C07A
:10018000809180008F7780938000DFCF84B58F7758
:1001900084BDDBCF84B58F7DFBCF8091B0008F779E
:1001A0008093B000D2CF8091B0008F7DF9CF3E2BED
:1001B000DACFCF93DF9390E0FC01E656FF4F249116
:1001C0008A579F4FFC0184918823D1F090E0880FDB
:1001D000991FFC01EE58FF4FA591B491FC01E45822
:1001E000FF4FC591D49161110EC09FB7F8948C91C7
:1001F000E22FE0958E238C932881E223E8839FBF32
:10020000DF91CF9108958FB7F894EC91E22BEC93A6
:100210008FBFF6CF3FB7F89480915F05909160054E
:10022000A0916105B091620526B5A89B05C02F3F3E
:1002300019F00196A11DB11D3FBFBA2FA92F982F0C
:100240008827BC01CD01620F711D811D911D42E007
:10025000660F771F881F991F4A95D1F708958F92CF
:100260009F92AF92BF92CF92DF92EF92FF926B017B
:100270007C010E940A014B015C01C114D104E1041C
:10028000F104B9F00E940A01681979098A099B09E9
:10029000683E73408105910580F321E0C21AD108C0
:1002A000E108F10888EE880E83E0981EA11CB11CBD
:1002B000E4CFFF90EF90DF90CF90BF90AF909F90F2
:1002C0008F9008950895AF92BF92CF92DF92EF92F0
:1002D000FF920F931F93CF93DF936C017B018B01F0
:1002E000040F151FEB015E01AE18BF08C017D10740
:1002F00059F06991D601ED91FC910190F081E02DCA
:10030000C6010995892B79F7C501DF91CF911F911E
:100310000F91FF90EF90DF90CF90BF90AF90089536
:10032000FC01538D448D252F30E0842F90E0821BFB
:10033000930B541710F0CF96089501970895FC0180
:10034000918D828D981761F0A28DAE0FBF2FB11DD8
:100350005D968C91928D9F5F9F73928F90E0089530
:100360008FEF9FEF08952FB7F894809163059091D8
:100370006405A0916505B09166052FBF80936F0558
:1003800090937005A0937105B093720587E695E090
:100390000E949F0197FF26C02FB7F89480916305B4
:1003A00090916405A0916505B09166052FBF4091BD
:1003B0006F05509170056091710570917205841BF5
:1003C000950BA60BB70B40916B0550916C05609196
:1003D0006D0570916E0584179507A607B707B0F2F3
:1003E0008FEF9FEF0895FC01918D828D981731F06A
:1003F000828DE80FF11D858D90E008958FEF9FEFBE
:100400000895FC01918D228D892F90E0805C9F4F93
:10041000821B91098F739927089587E695E00E94C2
:10042000010221E0892B09F420E0822F089580E069
:1004300090E0892B29F00E940D0281110C9400009C
:100440000895FC01A48DA80FB92FB11DA35ABF4F69
:100450002C91848D90E001968F739927848FA689C3
:10046000B7892C93A089B1898C91837080648C9317
:10047000938D848D981306C00288F389E02D8081C6
:100480008F7D80830895EF92FF920F931F93CF93F8
:10049000DF93EC0181E0888F9B8D8C8D98131AC0BF
:1004A000E889F989808185FF15C09FB7F894EE89A6
:1004B000FF896083E889F989808183708064808303
:1004C0009FBF81E090E0DF91CF911F910F91FF904E
:1004D000EF900895F62E0B8D10E00F5F1F4F0F73F6
:1004E0001127E02E8C8D8E110CC00FB607FCFACFB1
:1004F000E889F989808185FFF5CFCE010E9421022C
:10050000F1CFEB8DEC0FFD2FF11DE35AFF4FF08281
:100510009FB7F8940B8FEA89FB8980818062CFCFE7
:10052000CF93DF93EC01888D8823B9F0AA89BB892A
:10053000E889F9898C9185FD03C0808186FD0DC015
:100540000FB607FCF7CF8C9185FFF2CF808185FF36
:10055000EDCFCE010E942102E9CFDF91CF91089526
:1005600090E080E00895089585E396E00C94BC0245
:1005700085E396E00C94BF0290E080E0089590E05F
:1005800080E00895FB0101900020E9F73197AF0169
:10059000461B570BDC01ED91FC910280F381E02DAD
:1005A0000994CF93DF93FC0144815581608171816F
:1005B00087E695E00E946301EC0168E271E087E65E
:1005C00095E00E94C2028C0F9D1FDF91CF9108958C
:1005D0008F929F92AF92BF92EF92FF920F931F93D1
:1005E000CF93DF93CDB7DEB7A1970FB6F894DEBFF8
:1005F0000FBECDBF7C01FA01CB0119A2223008F455
:100600002AE08E010F5D1F4F822E912CB12CA12C60
:10061000BF01A50194010E94330DF901CA016A309E
:100620000CF5605DD8016E938D01232B242B252BB7
:1006300079F790E080E0109721F0BD01C7010E949A
:10064000C202A1960FB6F894DEBF0FBECDBFDF91F8
:10065000CF911F910F91FF90EF90BF90AF909F901F
:100660008F900895695CDECFCF93DF93BC0187E65E
:1006700095E00E94C202EC0168E271E087E695E035
:100680000E94C2028C0F9D1FDF91CF910895682FA9
:1006900090E080E00C94250DCF93DF93EC018881EE
:1006A0009981009711F00E94170F198218821D82FC
:1006B0001C821B821A82DF91CF910895FC018081F8
:1006C0009181009711F00C94170F0895FC0124817B
:1006D0003581232B39F421E0FB018081882349F007
:1006E00020E007C0808191810E94761021E0892B53
:1006F000B9F7822F08950F931F93CF93DF93EC01E7
:1007000088819981009759F02A813B812617370704
:1007100030F081E0DF91CF911F910F9108958B010F
:100720006F5F7F4F0E94A00F009759F099838883D5
:100730001B830A832C813D81232B59F7FC011082F6
:10074000E8CF80E0E7CFEF92FF920F931F93CF9314
:10075000DF936115710541F480E0DF91CF911F9126
:100760000F91FF90EF90089541155105B1F07B0175
:10077000EC010C811D81040F151FB8010E947B0341
:10078000882351F3288139818C819D81B701820FA3
:10079000931F0E947F101D830C8381E0DECFCF93D7
:1007A000DF93EC01FB0101900020E9F73197AF01E5
:1007B000461B570B0E94A303811103C0CE010E9468
:1007C0004C03CE01DF91CF910895EF92FF920F93EA
:1007D0001F93CF93DF93EC017B018A01BA010E9442
:1007E0007B0381110BC0CE010E944C03CE01DF912F
:1007F000CF911F910F91FF90EF9008951D830C836F
:10080000B701888199810E947F10F0CF0F931F93C9
:10081000CF93DF9300D0CDB7DEB78C01FC011182FE
:100820001082138212821582148250E040E06AE244
:1008300071E00E94E5030E94B30197FD0BC089831C
:100840001A8241E050E0BE016F5F7F4FC8010E94F5
:10085000A303F1CFC8010F900F90DF91CF911F91AB
:100860000F910895CF93DF93EC01FB018617970753
:1008700049F0608171816115710541F044815581B4
:100880000E94E503CE01DF91CF9108950E944C03B1
:10089000F9CFFC0111821082138212821582148218
:1008A00062E476E00C943204CF92DF92EF92FF92F2
:1008B0000F931F93CF93DF9300D000D000D0CDB71C
:1008C000DEB7CE0101960E9449046BE271E0CE01D1
:1008D00001960E94CF030E94D102CE0101960E9490
:1008E0005E0360E089E00E948D0083E090E0019764
:1008F000F1F761E089E00E948D0083E290E00197CA
:10090000F1F7E4EAF0E06491E0E9F0E0E491F0E08E
:10091000EE0FFF1FE859FF4F8591949100E412E418
:100920002FE030E0462F0E94B30561157105810567
:10093000910529F06F5F7F4F8F4F9F4F9F700E94EF
:100940007E0C2DEC3CEC48E652E40E94CD0D0E945A
:100950003F0E609358057093590580935A05909304
:100960005B056AE070E080E090E00E942F01CE011C
:1009700001960E9449046CE371E0CE0101960E9449
:10098000CF030E94D102CE0101960E945E03CE01E8
:1009900001960E94490463E571E0CE0101960E9430
:1009A000CF03FC01448155816081718187E695E028
:1009B0000E946301CE0101960E945E03C09058051B
:1009C000D0905905E0905A05F0905B052AE0B701F8
:1009D000A601F7FE0DC06DE287E695E00E94430296
:1009E00044275527BA014C195D096E097F092AE091
:1009F00087E695E00E94E80268E271E087E695E00C
:100A00000E94C20226960FB6F894DEBF0FBECDBF7D
:100A1000DF91CF911F910F91FF90EF90DF90CF90DA
:100A200008951F920F920FB60F9211242F933F93A8
:100A30008F939F93AF93BF938091630590916405CB
:100A4000A0916505B091660530915E0523E0230F06
:100A50002D3758F50196A11DB11D20935E05809399
:100A6000630590936405A0936505B0936605809136
:100A70005F0590916005A0916105B09162050196B6
:100A8000A11DB11D80935F0590936005A093610542
:100A9000B0936205BF91AF919F918F913F912F913C
:100AA0000F900FBE0F901F90189526E8230F029607
:100AB000A11DB11DD2CF1F920F920FB60F9211241C
:100AC0002F933F934F935F936F937F938F939F9356
:100AD000AF93BF93EF93FF9387E695E00E942102C7
:100AE000FF91EF91BF91AF919F918F917F916F9106
:100AF0005F914F913F912F910F900FBE0F901F90DC
:100B000018951F920F920FB60F9211242F938F9367
:100B10009F93EF93FF93E0917705F09178058081A3
:100B2000E0917D05F0917E0582FD1BC09081809152
:100B300080058F5F8F7320918105821741F0E091CE
:100B40008005F0E0E959FA4F958F80938005FF9179
:100B5000EF919F918F912F910F900FBE0F901F904B
:100B600018958081F4CFCF92DF92EF92FF920F938E
:100B70001F93E82FF92F05C00150110921093109F0
:100B800061F1908196239417B9F305C001501109C2
:100B90002109310911F1908196239413F7CFC12CCB
:100BA000D12CE12CF12C0AC08FEFC81AD80AE80A20
:100BB000F80A0C151D052E053F0579F08081862366
:100BC000841791F36C2D7D2D8E2D9F2D1F910F91EC
:100BD000FF90EF90DF90CF90089560E070E080E0AC
:100BE00090E01F910F91FF90EF90DF90CF900895CC
:100BF00010926A051092690588EE93E0A0E0B0E0DB
:100C000080936B0590936C05A0936D05B0936E0572
:100C10008EE091E0909368058093670585EC90E005
:100C2000909374058093730584EC90E0909376051F
:100C30008093750580EC90E090937805809377051C
:100C400081EC90E090937A058093790582EC90E0B6
:100C500090937C0580937B0586EC90E090937E05D5
:100C600080937D0510928005109281051092820577
:100C70001092830588E893E1A0E0B0E08093270616
:100C800090932806A0932906B0932A061092330663
:100C900010922F06109230061092310610923206F2
:100CA0001092340610920606109205061092040661
:100CB000109238061092370680E291E09093360643
:100CC00080933506A9E3B6E090E080E021E2E1E020
:100CD000F0E08630910510F4F0E0E0E0AC01425F16
:100CE0005F4FE40FF51F20935700E491ED930196B9
:100CF0008930910561F710924306109242061092D6
:100D0000450610924406109247061092460650E09F
:100D100040E06AE271E082E496E00C94E503CF9350
:100D2000DF93CDB7DEB72F970FB6F894DEBF0FBEB7
:100D3000CDBF789484B5826084BD84B5816084BD64
:100D400085B5826085BD85B5816085BD80916E0069
:100D5000816080936E00109281008091810082609A
:100D600080938100809181008160809381008091D7
:100D700080008160809380008091B10084608093C6
:100D8000B1008091B00081608093B00080917A00C2
:100D9000846080937A0080917A00826080937A00E8
:100DA00080917A00816080937A0080917A008068D7
:100DB00080937A001092C1000E94010C2CED35E066
:100DC00040E050E00E94550D6C507E4F8F4F9F4F7A
:100DD0000E942F01E0917705F091780582E08083F1
:100DE000E0917305F09174051082E0917505F09122
:100DF00076058FEC808310927F05E0917B05F09162
:100E00007C0586E08083E0917905F0917A05808108
:100E100080618083E0917905F0917A058081886016
:100E20008083E0917905F0917A05808180688083E4
:100E3000E0917905F0917A0580818F7D808380E64D
:100E400091E00E9434038BE991E00E9434036BE847
:100E500072E087E695E00E94C20239E3C32E36E0D5
:100E6000D32E7601F70181917F01803130F465E165
:100E700074E087E695E00E94C202F7013197408155
:100E800050E070E060E020E187E695E00E94E80233
:100E900064E972E087E695E00E94C202F2E4EF1690
:100EA000F6E0FF06F9F668E271E087E695E00E9459
:100EB000C2028E010F5F1F4FF60181916F011B86E9
:100EC0001A861D861C861F861E8640E1B80190E0AA
:100ED0000E94620CF80101900020E9F73197AF0100
:100EE000401B510BB801CE010A960E94E503C801D0
:100EF0000E9449044E855F856A857B85C8010E94F2
:100F0000A303811103C0C8010E944C03B80182E40D
:100F100096E00E943204C8010E945E03CE010A9648
:100F20000E945E03EC14FD0439F6E0904206F09056
:100F30004306E114F10471F0F70181917F018823E8
:100F400049F0082E000C990B0E946510F7013197AB
:100F50008083F2CF61E084E00E94D90061E085E007
:100F60000E94D90061E086E00E94D90061E087E03C
:100F70000E94D90061E089E00E94D90060E08AE027
:100F80000E94D900C8010E94490466E972E0C801C4
:100F90000E94CF030E94D102C8010E945E0387E62F
:100FA00095E00E949002C8010E94490465EC72E03D
:100FB000C8010E94CF030E94D102C8010E945E03B3
:100FC00061E087E00E948D000E94010C28EEC22E95
:100FD00023E0D22EE12CF12CA70196010E94550DA1
:100FE00068517C4F8F4F9F4F0E942F0160E087E038
:100FF0000E948D0061E085E00E948D000E94010C3E
:10100000A70196010E94550D68517C4F8F4F9F4F4D
:101010000E942F0160E085E00E948D00C8010E94BF
:10102000490463EF72E0C8010E94CF030E94D1021D
:10103000C8010E945E0390E080E00E941D0D282FF1
:1010400030E030935D0520935C05843038F01092D9
:101050005D0510925C0580E00E9447036FE173E03C
:1010600087E695E00E94C202C0905C05D0905D05C5
:101070000D2C000CEE08FF082AE0B701A601F7FED0
:101080000DC06DE287E695E00E9443024427552794
:10109000BA014C195D096E097F092AE087E695E0DF
:1010A0000E94E80268E271E087E695E00E94C202D1
:1010B000C8010E94490466E473E0C8010E94CF039E
:1010C0000E94D102C8010E945E0387E695E00E945B
:1010D000900260E273E080E090E00E942F0180E7E0
:1010E00097E1A0E0B0E080936B0590936C05A0932E
:1010F0006D05B0936E058AE693E00E943403CE013D
:101100000A960E940604AA84BB84A114B10431F09B
:10111000EE84FF846501E114F104B1F4EA84FB84F8
:10112000E114F10409F448C0F70181917F0188239B
:1011300009F442C0082E000C990B0E945D10F701C3
:1011400031978083F1CF64014601FFEF8F1A9F0A28
:10115000F6018081082E000C990B0E94590C892BF6
:1011600091F7F1E0EF1AF108EA0CFB1CF70180811E
:10117000082E000C990B0E94590C892B39F0EC14A5
:10118000FD0420F0F1E0EF1AF108F0CFA7014F5F66
:101190005F4F4C195D095F874E87AC14BD0420F486
:1011A000B601C5010E946D10EA85FB858E859F857D
:1011B000E80FF91F1082B2CF60EA73E0CE010A9601
:1011C0000E946603882309F48DC082EA93E00E949E
:1011D000340387E695E00E940102892BD1F3C80110
:1011E0000E9406048A859B85009709F410C16981D5
:1011F0007A816115710509F408C14C855D852D81E1
:101200003E814217530708F400C10E947F108D8170
:101210009E819F878E871E821D82C8010E945E0369
:101220006FED73E0CE010A960E946603882361F099
:1012300081E090E090935D0580935C050E944703F8
:101240008FEC93E00E94340361EF73E0CE010A96C5
:101250000E946603882361F082E090E090935D0530
:1012600080935C050E94470381EE93E00E94340363
:1012700063E074E0CE010A960E946603882361F061
:1012800083E090E090935D0580935C050E944703A6
:1012900083EF93E00E94340365E174E0CE010A9687
:1012A0000E946603882359F010925D0510925C0538
:1012B00080E00E94470385E094E00E9434036AE2E4
:1012C00071E0CE010A960E946603882359F01092BD
:1012D0005D0510925C0580E00E94470385E094E084
:1012E0000E94340387E695E00E949002CE010A96A0
:1012F0000E945E0380E0E82E80E0F82E80915C057D
:1013000090915D058230910509F492C0833091057A
:1013100009F4EFC0019709F007C1C8010E94490410
:1013200067E174E0C8010E94CF030E94D102C801A6
:101330000E945E0368EC70E080E090E00E942F0164
:1013400060E084E00E948D0061E085E00E948D00F5
:101350008BE294E00E94340364EF71E080E090E05F
:101360000E942F0160E084E00E948D0060E085E033
:101370000E948D008EE394E00E94340364EF71E0DC
:1013800080E090E00E942F0160E085E00E948D00E7
:1013900061E084E00E948D0081E594E00E943403C6
:1013A00064EF71E080E090E00E942F0161E084E052
:1013B0000E948D0061E085E00E948D008EE394E044
:1013C0000E94340364EF71E080E090E00E942F01FE
:1013D000C8010E94490466E674E0C8010E94CF0378
:1013E0000E94D102C8010E945E0387E695E00E9438
:1013F0009002E114F10409F481CF0E940D028823C8
:1014000009F47CCF0E94000079CF0E94170F8981D8
:101410009A819B878A878B819C819D878C878D8110
:101420009E819F878E871A8219821C821B82F3CE2F
:10143000C8010E9449046FE774E0C8010E94CF030D
:101440000E94D102C8010E945E0368EC70E080E057
:1014500090E00E942F0160E086E00E948D0061E034
:1014600087E00E948D0084E994E00E94340364EFD9
:1014700071E080E090E00E942F0160E086E00E9431
:101480008D0060E087E00E948D0088EA94E00E9471
:10149000340364EF71E080E090E00E942F0160E08F
:1014A00087E00E948D0061E086E00E948D008CEB59
:1014B00094E00E94340364EF71E080E090E00E94C9
:1014C0002F0161E086E00E948D0061E087E00E94CC
:1014D0008D0088EA94E00E94340364EF71E080E0BC
:1014E00090E00E942F01C8010E94490462ED74E05F
:1014F00074CFC8010E9449046CEE74E0C8010E94D8
:10150000CF030E94D102C8010E945E030E945404CE
:1015100068EE73E080E090E00E942F01C8010E9415
:10152000490463E075E059CF61E08DE00E948D00D1
:101530000E94540460E08DE00E948D008091580567
:1015400090915905A0915A05B0915B054497A10966
:10155000B10981399440A105B105E8F4C8010E94A0
:10156000490466E175E0C8010E94CF030E94D102E0
:10157000C8010E945E0361E087E00E948D0060E088
:1015800086E00E948D0061E085E00E948D0060E0B1
:1015900084E00E948D008091580590915905A0919A
:1015A0005A05B0915B050797A109B1090C97A105F0
:1015B000B10508F065C0C8010E9449046AE275E0FF
:1015C000C8010E94CF030E94D102C8010E945E039D
:1015D00060E087E00E948D0060E086E00E948D0060
:1015E00060E085E00E948D0060E084E00E948D0054
:1015F00064EF71E080E090E00E942F0160E087E0FE
:101600000E948D0061E086E00E948D0060E085E030
:101610000E948D0061E084E00E948D0064EF71E023
:1016200080E090E00E942F0160E087E00E948D0042
:1016300060E086E00E948D0060E085E00E948D0001
:1016400060E084E00E948D0064E670E080E090E05D
:101650000E942F0161E087E00E948D0060E086E03B
:101660000E948D0060E084E00E948D0060E085E0D3
:101670000E948D0064EF71E080E090E00E942F01F5
:101680008091580590915905A0915A05B0915B053C
:101690000797A105B10598F5C8010E94490462E4C5
:1016A00075E0C8010E94CF030E94D102C8010E94C8
:1016B0005E0360E087E00E948D0060E086E00E94AB
:1016C0008D0060E085E00E948D0060E084E00E9473
:1016D0008D0064E670E080E090E00E942F0160E001
:1016E00087E00E948D0061E086E00E948D0060E04E
:1016F00085E00E948D0061E084E00E948D00809171
:10170000580590915905A0915A05B0915B05853A0D
:101710009440A105B1050CF468CEC8010E944904AB
:1017200062E475E0C8010E94CF030E94D102C801A3
:101730000E945E0360E087E00E948D0061E086E029
:101740000E948D0060E085E00E948D0061E084E0F1
:101750000E948D0064E670E080E090E00E942F011E
:1017600044CE82E496E00C945E038F929F92AF92F7
:10177000BF92CF92DF92EF92FF92CF93DF93EC0173
:10178000688179818A819B81611571058105910547
:1017900021F464E279ED8BE597E02DE133EF41E050
:1017A00050E00E94550D49015A019B01AC01A7EA86
:1017B000B1E40E94740D6B017C01ACEEB4EFA501A5
:1017C00094010E94820DC60ED71EE81EF91EF7FE78
:1017D00006C081E0C81AD108E10880E8F80AC8828A
:1017E000D982EA82FB82C701B6019F77DF91CF9150
:1017F000FF90EF90DF90CF90BF90AF909F908F9031
:1018000008958F929F92AF92BF92CF92DF92EF9204
:10181000FF9260910001709101018091020190910D
:101820000301611571058105910521F464E279EDEB
:101830008BE597E02DE133EF41E050E00E94550D3C
:1018400049015A019B01AC01A7EAB1E40E94740D61
:101850006B017C01ACEEB4EFA50194010E94820DF6
:10186000C60ED71EE81EF91EF7FE06C081E0C81A94
:10187000D108E10880E8F80AC0920001D092010185
:10188000E0920201F0920301C701B6019F77FF9039
:10189000EF90DF90CF90BF90AF909F908F90089582
:1018A0006093000170930101809302019093030102
:1018B000089591110C94B90C803219F0895085501B
:1018C000C8F70895BB27FB015527AA27880F991F42
:1018D000AA1FA41710F0A41B83955051B9F7A05D5F
:1018E000AA3308F0A95DA193009779F7B111B193DC
:1018F0001192CB010C94BC0CE89409C097FB3EF408
:1019000090958095709561957F4F8F4F9F4F99234C
:10191000A9F0F92F96E9BB279395F69587957795CA
:101920006795B795F111F8CFFAF4BB0F11F460FF8A
:101930001BC06F5F7F4F8F4F9F4F16C0882311F0E2
:1019400096E911C0772321F09EE8872F762F05C0F6
:10195000662371F096E8862F70E060E02AF09A9591
:10196000660F771F881FDAF7880F9695879597F986
:101970000895992788270895DC01FC01672F71914C
:101980007723E1F7329704C07C916D937083629165
:10199000AE17BF07C8F3089597F99F6780E870E016
:1019A00060E008959FEF80EC089500240A941616D5
:1019B000170618060906089500240A94121613063D
:1019C000140605060895092E0394000C11F48823CB
:1019D00052F0BB0F40F4BF2B11F460FF04C06F5FE7
:1019E0007F4F8F4F9F4F089557FD9058440F551FBD
:1019F00059F05F3F71F04795880F97FB991F61F091
:101A00009F3F79F087950895121613061406551F07
:101A1000F2CF4695F1DF08C0161617061806991F73
:101A2000F1CF86957105610508940895E894BB2768
:101A300066277727CB0197F90895F999FECF92BDD4
:101A400081BDF89A992780B50895262FF999FECF80
:101A50001FBA92BD81BD20BD0FB6F894FA9AF99ACB
:101A60000FBE01960895A1E21A2EAA1BBB1BFD0111
:101A70000DC0AA1FBB1FEE1FFF1FA217B307E4076D
:101A8000F50720F0A21BB30BE40BF50B661F771FC5
:101A9000881F991F1A9469F76095709580959095A5
:101AA0009B01AC01BD01CF010895052E97FB1EF4EB
:101AB00000940E946C0D57FD07D00E94330D07FC67
:101AC00003D04EF40C946C0D5095409530952195B3
:101AD0003F4F4F4F5F4F089590958095709561955A
:101AE0007F4F8F4F9F4F08950E94BE0DA59F900D71
:101AF000B49F900DA49F800D911D11240895B7FFF0
:101B00000C94740D0E94740D821B930B08952F92F8
:101B10003F924F925F926F927F928F929F92AF927D
:101B2000BF92CF92DF92EF92FF920F931F93CF93CA
:101B3000DF93CDB7DEB7CA1BDB0B0FB6F894DEBF61
:101B40000FBECDBF09942A88398848885F846E8487
:101B50007D848C849B84AA84B984C884DF80EE80D1
:101B6000FD800C811B81AA81B981CE0FD11D0FB6DA
:101B7000F894DEBF0FBECDBFED010895A29FB00166
:101B8000B39FC001A39F700D811D1124911DB29FB1
:101B9000700D811D1124911D08950E94E10D0C947A
:101BA000E30C0E94DC0C58F00E94D50C40F029F4A4
:101BB0005F3F29F00C94CC0C51110C94170D0C9430
:101BC000D20C0E94F40C68F39923B1F3552391F3DE
:101BD000951B550BBB27AA2762177307840738F09C
:101BE0009F5F5F4F220F331F441FAA1FA9F335D0F9
:101BF0000E2E3AF0E0E832D091505040E695001CAD
:101C0000CAF72BD0FE2F29D0660F771F881FBB1F66
:101C1000261737074807AB07B0E809F0BB0B802D44
:101C2000BF01FF2793585F4F3AF09E3F510578F070
:101C30000C94CC0C0C94170D5F3FE4F3983ED4F356
:101C4000869577956795B795F7959F5FC9F7880F44
:101C5000911D9695879597F90895E1E0660F771F96
:101C6000881FBB1F621773078407BA0720F0621B27
:101C7000730B840BBA0BEE1F88F7E09508950E9452
:101C8000460E6894B1110C94170D08950E94FC0C37
:101C900088F09F5798F0B92F9927B751B0F0E1F02D
:101CA000660F771F881F991F1AF0BA95C9F714C0DD
:101CB000B13091F00E94160DB1E008950C94160D0C
:101CC000672F782F8827B85F39F0B93FCCF3869516
:101CD00077956795B395D9F73EF490958095709573
:101CE00061957F4F8F4F9F4F0895EE0FFF1F059017
:101CF000F491E02D09940F931F93CF93DF938230DB
:101D0000910510F482E090E0E0914A06F0914B06D4
:101D100030E020E0B0E0A0E0309799F421153105E3
:101D200009F44AC0281B390B24303105D8F58A81C3
:101D30009B816115710589F1FB0193838283FE010B
:101D400011C0408151810281138148175907E0F089
:101D50004817590799F4109761F012960C9312974F
:101D600013961C933296CF01DF91CF911F910F9163
:101D7000089500934A0610934B06F4CF21153105C0
:101D800051F04217530738F0A901DB019A01BD0158
:101D9000DF01F801C1CFEF01F9CF90934B0680939B
:101DA0004A06CDCFFE01E20FF31F8193919322509B
:101DB000310939832883D7CF2091480630914906CD
:101DC000232B41F4209106013091070130934906FD
:101DD0002093480620910401309105012115310519
:101DE00041F42DB73EB74091080150910901241BE1
:101DF000350BE0914806F0914906E217F307A0F48D
:101E00002E1B3F0B2817390778F0AC014E5F5F4F50
:101E10002417350748F04E0F5F1F50934906409333
:101E20004806819391939FCFF0E0E0E09CCFCF9361
:101E3000DF930097E9F0FC01329713821282A091A0
:101E40004A06B0914B06ED0130E020E01097A1F476
:101E500020813181820F931F2091480630914906DD
:101E60002817390709F061C0F0934906E093480646
:101E7000DF91CF910895EA01CE17DF07E8F54A8197
:101E80005B819E0141155105B1F7E901FB83EA83AE
:101E900049915991C40FD51FEC17FD0761F480815A
:101EA00091810296840F951FE9019983888382812D
:101EB00093819B838A83F0E0E0E012968D919C9160
:101EC00013970097B9F52D913C911197CD0102968A
:101ED000820F931F20914806309149062817390731
:101EE00039F6309751F510924B0610924A06B0938E
:101EF0004906A0934806BCCFD383C2834081518159
:101F0000840F951FC817D90761F44E5F5F4F888112
:101F10009981480F591F518340838A819B81938304
:101F200082832115310509F0B0CFF0934B06E09381
:101F30004A069ECFFD01DC01C0CF13821282D7CFAB
:101F4000B0E0A0E0E6EAFFE00C94890D8C01009778
:101F500051F4CB010E947B0E8C01C801CDB7DEB7D6
:101F6000E0E10C94A50DFC01E60FF71F9C01225047
:101F70003109E217F30708F49DC0D901CD91DC9136
:101F80001197C617D70798F0C530D10530F3CE01A9
:101F900004978617970708F3C61BD70B2297C193A0
:101FA000D1936D937C93CF010E94170FD6CF5B0125
:101FB000AC1ABD0A4C018C0E9D1EA0914A06B09130
:101FC0004B06512C412CF12CE12C109731F58091CE
:101FD0004806909149068815990509F05CC0461697
:101FE000570608F058C080910401909105010097B0
:101FF00041F48DB79EB74091080150910901841BAF
:10200000950BE817F90708F055C0F0934906E093DF
:102010004806F90171836083A0CF8D919C9111973F
:1020200012966C90129713967C901397A815B90589
:1020300059F56C0142E0C40ED11CCA14DB0420F136
:10204000AC014A195B09DA011296159780F0628299
:10205000738251834083D9016D937C93E114F10421
:1020600071F0D7011396FC93EE93129776CF2296D8
:102070008C0F9D1FF90191838083F301EFCFF093C3
:102080004B06E0934A0669CF4816590608F42C011E
:102090007D01D3019ACFCB010E947B0E7C0100977A
:1020A00049F0AE01B8010E946D10C8010E94170FDF
:1020B000870153CF10E000E050CF91110895815473
:1020C0008A5108F4805E855A0895911108958156C9
:1020D0008A5108F4805285580895FB01DC0102C042
:1020E00001900D9241505040D8F70895FB01DC015A
:1020F0008D91019080190110D9F3990B0895FB017E
:10210000DC0101900D920020E1F7089510E0C2E695
:10211000D0E004C0FE010E94750E2196C336D1079F
:06212000C9F7F894FFCF9F
:102126000100000000004C06800000000000430291
:1021360063019001900201029F01F301000000007B
:10214600BF02BC02B00262010D0A003A2053656E5E
:1021560064696E6720506C75736521003A20506C77
:10216600757365204563686F20726563696576657A
:102176006421003A2044697374616E63653A2000F5
:10218600436F7079726967687420C2A92032303152
:10219600332D3230323320494E4E4F424154452C76
:1021A600204C4C432E20416C6C2072696768747316
:1021B6002072657365727665642E00526F626F7267
:1021C6006163657220416C70686120616E642052A3
:1021D6006F626F726163657220416C706861204D39
:1021E6007520617265202072656769737465726512
:1021F600642074726164656D61726B20616E642F18
:102206006F722074726164656D61726B206F6620F7
:10221600494E4E4F424154452C204C4C432E20698A
:102226006E2074686520556E697465642053746108
:102236007465732C204E6577205A65616C616E64F7
:1022460020616E64206F7468657220636F756E74AA
:10225600726965732E20416C6C206F7468657220FC
:1022660074726164656D61726B7320616E64207057
:10227600726F64756374206E616D6573206265208C
:102286007468652074726164656D61726B73206F2A
:102296006620746865697220726573706563746917
:1022A6007665206F776E6572732E00556E6971754F
:1022B6006549443A20003A20526F626F7261636545
:1022C6007220416C706861204D75E284A2206973AA
:1022D6002061626F757420746F20696E697469611C
:1022E60074652E2E003A20526F626F7261636572BA
:1022F60020416C706861204D75E284A220537461A0
:102306007274696E67204265652044616E6365215B
:102316002E2E003A20526F626F7261636572204101
:102326006C706861204D75E284A220456E64696E0A
:1023360067204265652044616E6365212E2E00523A
:102346006F626F726163657220416C706861204DC7
:1023560075E284A22069732073657420746F206D02
:102366006F64653A20003A20526F626F726163654E
:102376007220416C706861204D75E284A220696EFE
:10238600697469617465642E2E00446F20796F75D7
:102396002077616E7420746F207365747570207475
:1023A6006865206D6F646520666F72207468697356
:1023B600206465766963653F202028792F6E2900A1
:1023C6007900536574206D6F646520627920747995
:1023D60070696E6720612076616C75652062657430
:1023E6007765656E203020616E6420333A2D004D8E
:1023F6006F64652069732073657420746F3A2031A9
:10240600004D6F64652069732073657420746F3A9C
:102416002032004D6F6465206973207365742074E3
:102426006F3A2033004D6F646520697320736574BD
:1024360020746F3A2030003A204C656674204D6F48
:10244600746F7220436865636B21004C6566742067
:102456004D6F746F7220466F7277617264004C65BF
:102466006674204D6F746F722053746F707065645C
:10247600004C656674204D6F746F72204261636B09
:102486007761726473003A204C656674204D6F74F0
:102496006F7220436865636B20446F6E6521003A56
:1024A600205269676874204D6F746F7220436865A7
:1024B600636B21005269676874204D6F746F7220D8
:1024C600466F7277617264005269676874204D6F57
:1024D600746F722053746F70706564005269676818
:1024E60074204D6F746F72204261636B7761726402
:1024F60073003A205269676874204D6F746F7220BA
:10250600436865636B20446F6E6521003A205374FF
:10251600617274696E6720536F6E617220546573C1
:102526007421003A20536F6E6172205465737420D3
:10253600446F6E6521003A204D6F76696E6720669E
:102546006F72776172642E2E2E003A204F6273747A
:1025560061636C652041766F6964616E63652E2EDA
:102566002E003A204D6F76696E67204261636B7765
:082576006172642E2E2E00009C
:00000001FF
