:100000000C9463000C948B000C948B000C948B006C
:100010000C948B000C948B000C948B000C948B0034
:100020000C948B000C948B000C948B000C948B0024
:100030000C948B000C948B000C948B000C948B0014
:100040000C9463040C948B000C94D3040C94AD04B6
:100050000C948B000C948B000C948B000C948B00F4
:100060000C948B000C948B000000000023002600F1
:10007000290000000000240027002A0000000000E2
:10008000250028002B0004040404040404040202D4
:100090000202020203030303030301020408102007
:1000A0004080010204081020010204081020000012
:1000B0000008000201000003040700000000000027
:1000C00000004A057A0811241FBECFEFD8E0DEBF3A
:1000D000CDBF12E0A0E0B1E0E2E5FAE102C0059098
:1000E0000D92A035B107D9F723E0A0E5B2E001C039
:1000F0001D92AD30B207E1F710E0C2E6D0E004C0D7
:100100002197FE010E941C0BC136D107C9F70E943E
:10011000B9050C941C0D0C94000090E0FC01E25514
:10012000FF4F2491FC01E656FF4F3491FC01EA5742
:10013000FF4FE491EE23C9F0222339F0233001F17F
:10014000A8F4213019F1223029F1F0E0EE0FFF1F61
:10015000E458FF4FA591B4918FB7F894EC916111D9
:1001600026C030953E233C938FBF08952730A9F0D9
:100170002830C9F0243049F7809180008F7D03C07A
:10018000809180008F7780938000DFCF84B58F7758
:1001900084BDDBCF84B58F7DFBCF8091B0008F779E
:1001A0008093B000D2CF8091B0008F7DF9CF3E2BED
:1001B000DACFCF93DF9390E0FC01E656FF4F249116
:1001C0008A579F4FFC0184918823D1F090E0880FDB
:1001D000991FFC01EE58FF4FA591B491FC01E45822
:1001E000FF4FC591D49161110EC09FB7F8948C91C7
:1001F000E22FE0958E238C932881E223E8839FBF32
:10020000DF91CF9108958FB7F894EC91E22BEC93A6
:100210008FBFF6CF3FB7F8948091590290915A0260
:10022000A0915B02B0915C0226B5A89B05C02F3F50
:1002300019F00196A11DB11D3FBFBA2FA92F982F0C
:100240008827BC01CD01620F711D811D911D42E007
:10025000660F771F881F991F4A95D1F708958F92CF
:100260009F92AF92BF92CF92DF92EF92FF926B017B
:100270007C010E940A014B015C01C114D104E1041C
:10028000F104B9F00E940A01681979098A099B09E9
:10029000683E73408105910580F321E0C21AD108C0
:1002A000E108F10888EE880E83E0981EA11CB11CBD
:1002B000E4CFFF90EF90DF90CF90BF90AF909F90F2
:1002C0008F900895AF92BF92CF92DF92EF92FF92FC
:1002D0000F931F93CF93DF936C017B018B01040F6E
:1002E000151FEB015E01AE18BF08C017D10759F00A
:1002F0006991D601ED91FC910190F081E02DC6014C
:100300000995892B79F7C501DF91CF911F910F9145
:10031000FF90EF90DF90CF90BF90AF900895FC01D9
:10032000538D448D252F30E0842F90E0821B930B5A
:10033000541710F0CF96089501970895FC01918D00
:10034000828D981761F0A28DAE0FBF2FB11D5D9603
:100350008C91928D9F5F9F73928F90E008958FEFA5
:100360009FEF0895FC01918D828D981731F0828D59
:10037000E80FF11D858D90E008958FEF9FEF0895B0
:10038000FC01918D228D892F90E0805C9F4F821B14
:1003900091098F73992708958DE592E00E94C0011D
:1003A00021E0892B09F420E0822F089580E090E07D
:1003B000892B29F00E94CC0181110C940000089532
:1003C000FC01A48DA80FB92FB11DA35ABF4F2C91CA
:1003D000848D90E001968F739927848FA689B789C1
:1003E0002C93A089B1898C91837080648C93938DB8
:1003F000848D981306C00288F389E02D80818F7D5B
:1004000080830895EF92FF920F931F93CF93DF9312
:10041000EC0181E0888F9B8D8C8D98131AC0E88940
:10042000F989808185FF15C09FB7F894EE89FF890F
:100430006083E889F98980818370806480839FBFAD
:1004400081E090E0DF91CF911F910F91FF90EF90AD
:100450000895F62E0B8D10E00F5F1F4F0F731127BD
:10046000E02E8C8D8E110CC00FB607FCFACFE889F8
:10047000F989808185FFF5CFCE010E94E001F1CF9F
:10048000EB8DEC0FFD2FF11DE35AFF4FF0829FB76C
:10049000F8940B8FEA89FB8980818062CFCFCF935C
:1004A000DF93EC01888D8823B9F0AA89BB89E8899C
:1004B000F9898C9185FD03C0808186FD0DC00FB642
:1004C00007FCF7CF8C9185FFF2CF808185FFEDCFC0
:1004D000CE010E94E001E9CFDF91CF910895FC01A8
:1004E00001900020E9F73197AF01481B590BBC017F
:1004F0008DE592E00C9462018F929F92AF92BF9231
:100500000F931F93CF93DF93CDB7DEB7A1970FB6AD
:10051000F894DEBF0FBECDBF19A2423008F44AE006
:100520008E010F5D1F4F842E912CB12CA12CA501A3
:1005300094010E94430AE62FB901CA01EA30F4F49B
:10054000E05DD801EE938D01232B242B252B79F729
:1005500090E080E0109719F0CD010E946F02A19603
:100560000FB6F894DEBF0FBECDBFDF91CF911F91C4
:100570000F91BF90AF909F908F900895E95CE1CF6D
:10058000CF93DF93FC0144815581608171818DE5BA
:1005900092E00E946201EC018CE191E00E946F0206
:1005A0008C0F9D1FDF91CF910895CF93DF930E9411
:1005B0006F02EC018CE191E00E946F028C0F9D1F95
:1005C000DF91CF9108950F931F93CF93DF93EC01A9
:1005D00088819981009759F02A813B812617370736
:1005E00030F081E0DF91CF911F910F9108958B0141
:1005F0006F5F7F4F0E94470C009759F09983888363
:100600001B830A832C813D81232B59F7FC01108227
:10061000E8CF80E0E7CFEF92FF920F931F93CF9345
:10062000DF936115710541F480E0DF91CF911F9157
:100630000F91FF90EF90089541155105B1F07B01A6
:10064000EC010C811D81040F151FB8010E94E3020B
:10065000882351F3288139818C819D81B701820FD4
:10066000931F0E94150D1D830C8381E0DECFCF9375
:10067000DF93EC0188819981009711F00E94BE0BF5
:10068000198218821D821C821B821A82DF91CF91EF
:100690000895CF93DF93EC01FB0101900020E9F76F
:1006A0003197AF01461B570B0E940B03811103C00A
:1006B000CE010E943703CE01DF91CF910895EF92D2
:1006C000FF920F931F93CF93DF93EC017B018A017D
:1006D000BA010E94E30281110BC0CE010E943703D0
:1006E000CE01DF91CF911F910F91FF90EF90089570
:1006F0001D830C83B701888199810E94150DF0CF6D
:10070000CF93DF93EC01FB018617970749F06081D7
:1007100071816115710541F0448155810E945F032B
:10072000CE01DF91CF9108950E943703F9CFFC01EC
:1007300011821082138212821582148263E073E0A8
:100740000C948003FC0180819181009711F00C943E
:10075000BE0B0895CF92DF92EF92FF920F931F93FB
:10076000CF93DF9300D000D000D0CDB7DEB7CE015D
:1007700001960E9497036FE171E0CE0101960E94FD
:1007800049030E94C002CE0101960E94A20360E0CC
:1007900089E00E948D0083E090E00197F1F761E02D
:1007A00089E00E948D0083E290E00197F1F7E4EA8E
:1007B000F0E06491E0E9F0E0E491F0E0EE0FFF1F7B
:1007C000E859FF4F8591949100E412E42FE030E066
:1007D000462F0E940505611571058105910529F0D7
:1007E0006F5F7F4F8F4F9F4F9F700E944E092DEC80
:1007F0003CEC48E652E40E94740A0E94E60A6093C8
:1008000050027093510280935202909353026AE017
:1008100070E080E090E00E942F01CE0101960E94DE
:10082000970360E371E0CE0101960E9449030E94A4
:10083000C002CE0101960E94A203CE0101960E9441
:10084000970367E471E0CE0101960E944903FC0121
:1008500044815581608171818DE592E00E94620141
:10086000CE0101960E94A203C0905002D090510286
:10087000E0905202F09053024AE0C701B601F7FE41
:100880000DC06DE28DE592E00E9402026627772797
:10089000CB016C197D098E099F094AE00E947C02F8
:1008A0008CE191E00E946F0226960FB6F894DEBFAD
:1008B0000FBECDBFDF91CF911F910F91FF90EF90B1
:1008C000DF90CF9008951F920F920FB60F921124D0
:1008D0002F933F938F939F93AF93BF938091550234
:1008E00090915602A0915702B09158023091540253
:1008F00023E0230F2D3758F50196A11DB11D20933C
:1009000054028093550290935602A0935702B093DD
:1009100058028091590290915A02A0915B02B091C5
:100920005C020196A11DB11D8093590290935A0259
:10093000A0935B02B0935C02BF91AF919F918F91A6
:100940003F912F910F900FBE0F901F90189526E8A2
:10095000230F0296A11DB11DD2CF1F920F920FB689
:100960000F9211242F933F934F935F936F937F9335
:100970008F939F93AF93BF93EF93FF938DE592E097
:100980000E94E001FF91EF91BF91AF919F918F91F4
:100990007F916F915F914F913F912F910F900FBE7B
:1009A0000F901F9018951F920F920FB60F9211245F
:1009B0002F938F939F93EF93FF93E0916D02F091AC
:1009C0006E028081E0917302F091740282FD1BC07F
:1009D0009081809176028F5F8F73209177028217CA
:1009E00041F0E0917602F0E0E35AFD4F958F80935D
:1009F0007602FF91EF919F918F912F910F900FBEF3
:100A00000F901F9018958081F4CFCF92DF92EF92D4
:100A1000FF920F931F93E82FF92F05C00150110982
:100A20002109310961F1908196239417B9F305C02A
:100A3000015011092109310911F190819623941374
:100A4000F7CFC12CD12CE12CF12C0AC08FEFC81AA2
:100A5000D80AE80AF80A0C151D052E053F0579F09D
:100A600080818623841791F36C2D7D2D8E2D9F2DF3
:100A70001F910F91FF90EF90DF90CF90089560E06D
:100A800070E080E090E01F910F91FF90EF90DF9079
:100A9000CF9008951092600210925F0288EE93E06A
:100AA000A0E0B0E08093610290936202A0936302A1
:100AB000B09364028EE091E090935E0280935D02B9
:100AC00085EC90E090936A028093690284EC90E058
:100AD00090936C0280936B0280EC90E090936E0296
:100AE00080936D0281EC90E09093700280936F028E
:100AF00082EC90E0909372028093710286EC90E019
:100B0000909374028093730210927602109277028F
:100B10001092780210927902AAEFB2E090E080E0A1
:100B200021E2E1E0F0E08630910510F4F0E0E0E051
:100B3000AC01425F5F4FE40FF51F20935700E49133
:100B4000ED9301968930910561F71092040310929C
:100B500003031092060310920503109208031092EB
:100B6000070350E040E06EE171E083E093E00C9415
:100B70005F03CF93DF93CDB7DEB72F970FB6F8940F
:100B8000DEBF0FBECDBF789484B5826084BD84B5CE
:100B9000816084BD85B5826085BD85B5816085BD78
:100BA00080916E00816080936E0010928100809130
:100BB00081008260809381008091810081608093B8
:100BC0008100809180008160809380008091B100DD
:100BD00084608093B1008091B00081608093B00008
:100BE00080917A00846080937A0080917A0082609C
:100BF00080937A0080917A00816080937A0080915E
:100C00007A00806880937A001092C1000E94CA081E
:100C10002CED35E040E050E00E94DA096C507E4F48
:100C20008F4F9F4F0E942F01E0916D02F0916E0255
:100C300082E08083E0916902F0916A021082E09183
:100C40006B02F0916C028FEC808310927502E09140
:100C50007102F091720286E08083E0916F02F09160
:100C60007002808180618083E0916F02F091700258
:100C7000808188608083E0916F02F09170028081B2
:100C800080688083E0916F02F091700280818F7D97
:100C9000808384E591E00E946F024AEFE42E42E0F7
:100CA000F42E8701F80181918F01803120F48FE5C6
:100CB00091E00E946F02F8013197608170E090E04E
:100CC00080E040E10E947C028DE591E00E946F028D
:100CD000F3E003301F0731F78CE191E00E946F02CF
:100CE0008E010F5F1F4FF70181917F011B861A86CE
:100CF0001D861C861F861E8640E1B80190E00E947A
:100D00002209F80101900020E9F73197AF01401B5B
:100D1000510BB801CE010A960E945F03C8010E94E0
:100D200097034E855F856A857B85C8010E940B030A
:100D3000811103C0C8010E943703B80183E093E02A
:100D40000E948003C8010E94A203CE010A960E945D
:100D5000A203F3E0EF16F3E0FF0629F6E0900303A9
:100D6000F0900403E114F10471F0F70181917F0127
:100D7000882349F0082E000C990B0E94040DF701FE
:100D800031978083F2CF61E084E00E94D90061E076
:100D900085E00E94D90061E086E00E94D90061E010
:100DA00087E00E94D90061E089E00E94D90060E0FC
:100DB0008AE00E94D900C8010E94970361E671E0B1
:100DC000C8010E9449030E94C002C8010E94A203F8
:100DD0008DE592E00E944F02C8010E94970360E9EE
:100DE00071E0C8010E9449030E94C002C8010E942C
:100DF000A20361E087E00E948D000E94CA0828EEED
:100E0000C22E23E0D22EE12CF12CA70196010E94E4
:100E1000DA0968517C4F8F4F9F4F0E942F0160E08D
:100E200087E00E948D0061E085E00E948D000E94B5
:100E3000CA08A70196010E94DA0968517C4F8F4FBA
:100E40009F4F0E942F0160E085E00E948D00C80145
:100E50000E9497036EEB71E0C8010E9449030E9453
:100E6000C002C8010E94A203C8010E9497036AEE53
:100E700071E0C8010E9449030E94C002C8010E949B
:100E8000A2038DE592E00E944F0260E273E080E0F1
:100E900090E00E942F0130E0E32E30E0F32E61E07D
:100EA0008DE00E948D000E94AA0360E08DE00E9408
:100EB0008D008091500290915102A0915202B09108
:100EC00053024497A109B10981399440A105B105A4
:100ED000E8F4C8010E9497036EE072E0C8010E9426
:100EE00049030E94C002C8010E94A20361E087E09A
:100EF0000E948D0060E086E00E948D0061E085E048
:100F00000E948D0060E084E00E948D00809150027C
:100F100090915102A0915202B09153020797A109FA
:100F2000B1090C97A105B10508F065C0C8010E9480
:100F3000970362E272E0C8010E9449030E94C00266
:100F4000C8010E94A20360E087E00E948D0060E07B
:100F500086E00E948D0060E085E00E948D0060E0E8
:100F600084E00E948D0064EF71E080E090E00E94D8
:100F70002F0160E087E00E948D0061E086E00E9422
:100F80008D0060E085E00E948D0061E084E00E94B9
:100F90008D0064EF71E080E090E00E942F0160E03E
:100FA00087E00E948D0060E086E00E948D0060E096
:100FB00085E00E948D0060E084E00E948D0064E680
:100FC00070E080E090E00E942F0161E087E00E94E5
:100FD0008D0060E086E00E948D0060E084E00E9469
:100FE0008D0060E085E00E948D0064EF71E080E09C
:100FF00090E00E942F018091500290915102A091A7
:101000005202B09153020797A105B10598F5C801A6
:101010000E9497036AE372E0C8010E9449030E949C
:10102000C002C8010E94A20360E087E00E948D0018
:1010300060E086E00E948D0060E085E00E948D0007
:1010400060E084E00E948D0064E670E080E090E063
:101050000E942F0160E087E00E948D0061E086E041
:101060000E948D0060E085E00E948D0061E084E0D8
:101070000E948D008091500290915102A0915202E5
:10108000B0915302853A9440A105B1051CF1C80105
:101090000E9497036AE372E0C8010E9449030E941C
:1010A000C002C8010E94A20360E087E00E948D0098
:1010B00061E086E00E948D0060E085E00E948D0086
:1010C00061E084E00E948D0064E670E080E090E0E2
:1010D0000E942F018DE592E00E944F02E114F1047D
:1010E00009F4DDCE0E94CC01882309F4D8CE0E94F9
:1010F0000000D5CE83E093E00C94A2038F929F92E0
:10110000AF92BF92CF92DF92EF92FF92CF93DF9395
:10111000EC01688179818A819B8161157105810566
:10112000910521F464E279ED8BE597E02DE133EF51
:1011300041E050E00E94DA0949015A019B01AC01EB
:10114000A7EAB1E40E94F9096B017C01ACEEB4EFAF
:10115000A50194010E94070AC60ED71EE81EF91EBB
:10116000F7FE06C081E0C81AD108E10880E8F80A55
:10117000C882D982EA82FB82C701B6019F77DF91DC
:10118000CF91FF90EF90DF90CF90BF90AF909F9066
:101190008F9008958F929F92AF92BF92CF92DF92DD
:1011A000EF92FF9260910001709101018091020124
:1011B00090910301611571058105910521F464E2A7
:1011C00079ED8BE597E02DE133EF41E050E00E94AF
:1011D000DA0949015A019B01AC01A7EAB1E40E9476
:1011E000F9096B017C01ACEEB4EFA50194010E94FA
:1011F000070AC60ED71EE81EF91EF7FE06C081E0DC
:10120000C81AD108E10880E8F80AC0920001D0921B
:101210000101E0920201F0920301C701B6019F773C
:10122000FF90EF90DF90CF90BF90AF909F908F9006
:1012300008956093000170930101809302019093DF
:1012400003010895BB27FB015527AA27880F991F83
:10125000AA1FA41710F0A41B83955051B9F7A05DE5
:10126000AA3308F0A95DA193009779F7B111B19362
:101270001192CB010C943C09DC01FC01672F7191A8
:101280007723E1F7329704C07C916D93708362916C
:10129000AE17BF07C8F30895E89409C097FB3EF462
:1012A00090958095709561957F4F8F4F9F4F9923B3
:1012B000A9F0F92F96E9BB279395F6958795779531
:1012C0006795B795F111F8CFFAF4BB0F11F460FFF1
:1012D0001BC06F5F7F4F8F4F9F4F16C0882311F049
:1012E00096E911C0772321F09EE8872F762F05C05D
:1012F000662371F096E8862F70E060E02AF09A95F8
:10130000660F771F881FDAF7880F9695879597F9EC
:10131000089597F99F6780E870E060E008959FEF77
:1013200080EC089500240A9416161706180609067C
:10133000089500240A94121613061406050608954B
:10134000092E0394000C11F4882352F0BB0F40F4D3
:10135000BF2B11F460FF04C06F5F7F4F8F4F9F4F13
:10136000089557FD9058440F551F59F05F3F71F095
:101370004795880F97FB991F61F09F3F79F08795FC
:101380000895121613061406551FF2CF4695F1DF85
:1013900008C0161617061806991FF1CF8695710515
:1013A000610508940895E894BB2766277727CB0149
:1013B00097F90895052E97FB1EF400940E94F109F9
:1013C00057FD07D00E94430A07FC03D04EF40C944B
:1013D000F10950954095309521953F4F4F4F5F4F04
:1013E000089590958095709561957F4F8F4F9F4F91
:1013F00008950E94650AA59F900DB49F900DA49F2B
:10140000800D911D11240895B7FF0C94F9090E94D5
:10141000F909821B930B08952F923F924F925F928E
:101420006F927F928F929F92AF92BF92CF92DF92F4
:10143000EF92FF920F931F93CF93DF93CDB7DEB759
:10144000CA1BDB0B0FB6F894DEBF0FBECDBF0994ED
:101450002A88398848885F846E847D848C849B8444
:10146000AA84B984C884DF80EE80FD800C811B8152
:10147000AA81B981CE0FD11D0FB6F894DEBF0FBE81
:10148000CDBFED010895A1E21A2EAA1BBB1BFD01E1
:101490000DC0AA1FBB1FEE1FFF1FA217B307E40753
:1014A000F50720F0A21BB30BE40BF50B661F771FAB
:1014B000881F991F1A9469F760957095809590958B
:1014C0009B01AC01BD01CF010895A29FB001B39F64
:1014D000C001A39F700D811D1124911DB29F700D3D
:1014E000811D1124911D08950E94880A0C94A00961
:1014F0000E94990958F00E94920940F029F45F3F38
:1015000029F00C94890951110C94D4090C948F0979
:101510000E94B10968F39923B1F3552391F3951B08
:10152000550BBB27AA2762177307840738F09F5F04
:101530005F4F220F331F441FAA1FA9F335D00E2E71
:101540003AF0E0E832D091505040E695001CCAF7DE
:101550002BD0FE2F29D0660F771F881FBB1F2617A1
:1015600037074807AB07B0E809F0BB0B802DBF0178
:10157000FF2793585F4F3AF09E3F510578F00C9447
:1015800089090C94D4095F3FE4F3983ED4F386951F
:1015900077956795B795F7959F5FC9F7880F911D68
:1015A0009695879597F90895E1E0660F771F881F54
:1015B000BB1F621773078407BA0720F0621B730B07
:1015C000840BBA0BEE1F88F7E09508950E94ED0A90
:1015D0006894B1110C94D40908950E94B90988F057
:1015E0009F5798F0B92F9927B751B0F0E1F0660FE7
:1015F000771F881F991F1AF0BA95C9F714C0B13028
:1016000091F00E94D309B1E008950C94D309672F9B
:10161000782F8827B85F39F0B93FCCF38695779556
:101620006795B395D9F73EF490958095709561953F
:101630007F4F8F4F9F4F0895EE0FFF1F0590F4913E
:10164000E02D09940F931F93CF93DF938230910580
:1016500010F482E090E0E0910B03F0910C0330E095
:1016600020E0B0E0A0E0309799F42115310509F4AD
:101670004AC0281B390B24303105D8F58A819B815B
:101680006115710589F1FB0193838283FE0111C00D
:10169000408151810281138148175907E0F04817B2
:1016A000590799F4109761F012960C9312971396BC
:1016B0001C933296CF01DF91CF911F910F91089526
:1016C00000930B0310930C03F4CF2115310551F057
:1016D0004217530738F0A901DB019A01BD01DF0170
:1016E000F801C1CFEF01F9CF90930C0380930B0366
:1016F000CDCFFE01E20FF31F819391932250310968
:1017000039832883D7CF2091090330910A03232BF3
:1017100041F4209106013091070130930A03209390
:10172000090320910401309105012115310541F48F
:101730002DB73EB74091080150910901241B350B8C
:10174000E0910903F0910A03E217F307A0F42E1BBE
:101750003F0B2817390778F0AC014E5F5F4F241715
:10176000350748F04E0F5F1F50930A03409309035B
:10177000819391939FCFF0E0E0E09CCFCF93DF93F4
:101780000097E9F0FC01329713821282A0910B03BB
:10179000B0910C03ED0130E020E01097A1F420811E
:1017A0003181820F931F2091090330910A0328177A
:1017B000390709F061C0F0930A03E0930903DF9150
:1017C000CF910895EA01CE17DF07E8F54A815B81E2
:1017D0009E0141155105B1F7E901FB83EA83499167
:1017E0005991C40FD51FEC17FD0761F480819181D9
:1017F0000296840F951FE9019983888382819381E2
:101800009B838A83F0E0E0E012968D919C91139780
:101810000097B9F52D913C911197CD010296820F59
:10182000931F2091090330910A032817390739F6CD
:10183000309751F510920C0310920B03B0930A03EA
:10184000A0930903BCCFD383C28340815181840F0D
:10185000951FC817D90761F44E5F5F4F8881998142
:10186000480F591F518340838A819B8193838283D0
:101870002115310509F0B0CFF0930C03E0930B0371
:101880009ECFFD01DC01C0CF13821282D7CFB0E022
:10189000A0E0EDE4FCE00C940E0A8C01009751F4FA
:1018A000CB010E94220B8C01C801CDB7DEB7E0E16D
:1018B0000C942A0AFC01E60FF71F9C012250310903
:1018C000E217F30708F49DC0D901CD91DC9111977F
:1018D000C617D70798F0C530D10530F3CE0104976D
:1018E0008617970708F3C61BD70B2297C193D1938E
:1018F0006D937C93CF010E94BE0BD6CF5B01AC1AD7
:10190000BD0A4C018C0E9D1EA0910B03B0910C03DF
:10191000512C412CF12CE12C109731F580910903C9
:1019200090910A038815990509F05CC04616570680
:1019300008F058C08091040190910501009741F48E
:101940008DB79EB74091080150910901841B950BFA
:10195000E817F90708F055C0F0930A03E09309036C
:10196000F90171836083A0CF8D919C91119712969C
:101970006C90129713967C901397A815B90559F59A
:101980006C0142E0C40ED11CCA14DB0420F1AC018E
:101990004A195B09DA011296159780F06282738208
:1019A00051834083D9016D937C93E114F10471F06C
:1019B000D7011396FC93EE93129776CF22968C0F55
:1019C0009D1FF90191838083F301EFCFF0930C0306
:1019D000E0930B0369CF4816590608F42C017D01EA
:1019E000D3019ACFCB010E94220B7C01009749F0D2
:1019F000AE01B8010E940C0DC8010E94BE0B870108
:101A000053CF10E000E050CF9111089581568A51D4
:101A100008F4805285580895FB01DC0102C0019052
:101A20000D9241505040D8F70895FB01DC01019020
:101A30000D920020E1F7089510E0C2E6D0E004C066
:101A4000FE010E941C0B2196C336D107C9F7F894FA
:021A5000FFCFC6
:101A52000100000000000D038000000000000202EF
:101A620062018F014F02C0019E01B2010D0A003ACC
:101A72002053656E64696E6720506C757365210032
:101A82003A20506C757365204563686F20726563F8
:101A9200696576656421003A2044697374616E63F6
:101AA200653A2000556E6971756549443A200030E7
:101AB200003A20526F626F726163657220416C70EE
:101AC2006861204D75E284A22069732061626F759E
:101AD2007420746F20696E6974696174652E2E00BA
:101AE2003A20526F626F726163657220416C706856
:101AF20061204D75E284A2205374617274696E672D
:101B0200204265652044616E6365212E2E003A20D5
:101B1200526F626F726163657220416C70686120FE
:101B22004D75E284A220456E64696E672042656548
:101B32002044616E6365212E2E003A20526F626F3F
:101B4200726163657220416C706861204D75E28438
:101B5200A220696E697469617465642E2E003A2050
:101B62004D6F76696E6720666F72776172642E2E92
:101B72002E003A204F62737461636C652041766F68
:101B82006964616E63652E2E2E003A204D6F766970
:101B92006E67204261636B776172642E2E2E0000A5
:00000001FF
