:100000000C945D000C9485000C9485000C94850084
:100010000C9485000C9485000C9485000C9485004C
:100020000C9485000C9485000C9485000C9485003C
:100030000C9485000C9485000C9485000C9485002C
:100040000C9477020C9485000C94E7020C94C10286
:100050000C9485000C9485000C9485000C9485000C
:100060000C9485000C94850000000008000201003B
:100070000003040700000000000000000000000072
:10008000250028002B0000000000240027002A0083
:10009000040404040404040402020202020203032E
:1000A0000303030301020408102040800102040836
:1000B0001020010204081020E10311241FBECFEF1D
:1000C000D8E0DEBFCDBF11E0A0E0B1E0ECE2F8E0A7
:1000D00002C005900D92A435B107D9F721E0A4E53F
:1000E000B1E001C01D92AA3FB207E1F710E0CDE5F3
:1000F000D0E004C02197FE010E940E04CC35D10748
:10010000C9F70E9419030C9414040C94000090E0A9
:10011000FC01EC55FF4F249180579F4FFC018491C7
:10012000882399F090E0880F991FFC01EA57FF4F50
:10013000A591B491FC01E458FF4F859194918FB73C
:10014000F894EC91E22BEC938FBF089590E0FC01C2
:10015000E859FF4F2491FC01EC55FF4F3491FC010D
:10016000E057FF4FE491EE23C9F0222339F023300A
:1001700001F1A8F4213019F1223029F1F0E0EE0F5D
:10018000FF1FE458FF4FA591B4918FB7F894EC91FD
:10019000611126C030953E233C938FBF08952730D0
:1001A000A9F02830C9F0243049F7809180008F7D74
:1001B00003C0809180008F7780938000DFCF84B56B
:1001C0008F7784BDDBCF84B58F7DFBCF8091B0006E
:1001D0008F778093B000D2CF8091B0008F7DF9CF20
:1001E0003E2BDACF3FB7F8948091590190915A0194
:1001F000A0915B01B0915C0126B5A89B05C02F3F83
:1002000019F00196A11DB11D3FBFBA2FA92F982F3C
:100210008827BC01CD01620F711D811D911D42E037
:10022000660F771F881F991F4A95D1F708958F92FF
:100230009F92AF92BF92CF92DF92EF92FF920E9475
:10024000F2004B015C0184EFC82EDD24D394E12C35
:10025000F12C0E94F200681979098A099B09683E0D
:10026000734081059105A8F321E0C21AD108E10885
:10027000F10888EE880E83E0981EA11CB11CC11401
:10028000D104E104F10429F7FF90EF90DF90CF90C3
:10029000BF90AF909F908F900895AF92BF92CF92F2
:1002A000DF92EF92FF920F931F93CF93DF936C0136
:1002B0007B018B01040F151FEB015E01AE18BF0817
:1002C000C017D10759F06991D601ED91FC910190C9
:1002D000F081E02DC6010995892B79F7C501DF91E1
:1002E000CF911F910F91FF90EF90DF90CF90BF9033
:1002F000AF900895FC01538D448D252F30E0842F5D
:1003000090E0821B930B541710F0CF96089501973D
:100310000895FC01918D828D981761F0A28DAE0F2A
:10032000BF2FB11D5D968C91928D9F5F9F73928FB1
:1003300090E008958FEF9FEF0895FC01918D828DDD
:10034000981731F0828DE80FF11D858D90E00895AA
:100350008FEF9FEF0895FC01918D228D892F90E002
:10036000805C9F4F821B91098F73992708958DE5BB
:1003700091E00E94AB0121E0892B09F420E0822F5B
:10038000089580E090E0892B29F00E94B701811147
:100390000C9400000895FC01A48DA80FB92FB11D85
:1003A000A35ABF4F2C91848D90E001968F739927AB
:1003B000848FA689B7892C93A089B1898C91837089
:1003C00080648C93938D848D981306C00288F38982
:1003D000E02D80818F7D80830895EF92FF920F93AF
:1003E0001F93CF93DF93EC0181E0888F9B8D8C8DE1
:1003F00098131AC0E889F989808185FF15C09FB7D5
:10040000F894EE89FF896083E889F9898081837097
:10041000806480839FBF81E090E0DF91CF911F9146
:100420000F91FF90EF900895F62E0B8D10E00F5F67
:100430001F4F0F731127E02E8C8D8E110CC00FB63D
:1004400007FCFACFE889F989808185FFF5CFCE01D5
:100450000E94CB01F1CFEB8DEC0FFD2FF11DE35A84
:10046000FF4FF0829FB7F8940B8FEA89FB89808158
:100470008062CFCFCF93DF93EC01888D8823B9F0D2
:10048000AA89BB89E889F9898C9185FD03C080819F
:1004900086FD0DC00FB607FCF7CF8C9185FFF2CF1C
:1004A000808185FFEDCFCE010E94CB01E9CFDF91A6
:1004B000CF910895CF93DF93FC0101900020E9F7DD
:1004C0003197AF01481B590BBC018DE591E00E94AB
:1004D0004D01EC0142E050E062E171E08DE591E018
:1004E0000E944D018C0F9D1FDF91CF9108951F92A7
:1004F0000F920FB60F9211242F933F938F939F93D8
:10050000AF93BF938091550190915601A0915701EF
:10051000B09158013091540123E0230F2D3758F545
:100520000196A11DB11D2093540180935501909314
:100530005601A0935701B0935801809159019091B1
:100540005A01A0915B01B0915C010196A11DB11D02
:100550008093590190935A01A0935B01B0935C0181
:10056000BF91AF919F918F913F912F910F900FBEAF
:100570000F901F90189526E8230F0296A11DB11D1C
:10058000D2CF1F920F920FB60F9211242F933F9349
:100590004F935F936F937F938F939F93AF93BF938B
:1005A000EF93FF938DE591E00E94CB01FF91EF91D6
:1005B000BF91AF919F918F917F916F915F914F917B
:1005C0003F912F910F900FBE0F901F9018951F9283
:1005D0000F920FB60F9211242F938F939F93EF9347
:1005E000FF93E0916D01F0916E018081E0917301C4
:1005F000F091740182FD1BC09081809176018F5F24
:100600008F7320917701821741F0E0917601F0E03D
:10061000E35AFE4F958F80937601FF91EF919F9162
:100620008F912F910F900FBE0F901F901895808182
:10063000F4CF789484B5826084BD84B5816084BD34
:1006400085B5826085BD85B5816085BD80916E0070
:10065000816080936E0010928100809181008260A1
:1006600080938100809181008160809381008091DE
:1006700080008160809380008091B10084608093CD
:10068000B1008091B00081608093B00080917A00C9
:10069000846080937A0080917A00826080937A00EF
:1006A00080917A00816080937A0080917A008068DE
:1006B00080937A001092C100E0916D01F0916E017B
:1006C00082E08083E0916901F0916A011082E091FB
:1006D0006B01F0916C018FEC808310927501E091B9
:1006E0007101F091720186E08083E0916F01F091D9
:1006F0007001808180618083E0916F01F0917001D1
:10070000808188608083E0916F01F0917001808129
:1007100080688083E0916F01F091700180818F7D0E
:10072000808387E00E94870086E00E94870081E046
:100730000E94870061E081E00E94A600C0E0D0E056
:1007400061E087E00E94A60060E086E00E94A600CB
:1007500085E191E00E945A020E94170160E087E063
:100760000E94A60060E086E00E94A60089E291E077
:100770000E945A020E94170160E087E00E94A600D2
:1007800061E086E00E94A6008DE391E00E945A029B
:100790000E94170161E087E00E94A60061E086E008
:1007A0000E94A60089E291E00E945A020E9417016D
:1007B000209731F20E94B701882311F20E940000B5
:1007C000BFCFEDE5F1E01382128288EE93E0A0E066
:1007D000B0E084839583A683B78384E091E091831E
:1007E000808385EC90E09587848784EC90E0978700
:1007F000868780EC90E0918B808B81EC90E0938BEE
:10080000828B82EC90E0958B848B86EC90E0978BCA
:10081000868B118E128E138E148E0895EE0FFF1F8D
:0C0820000590F491E02D0994F894FFCFAE
:10082C0000000000ED014D017A013A02AB01890193
:10083C009D010D0A00526967687420576865656CE4
:10084C0020466F7277617264005269676874205732
:10085C006865656C2053746F7070656400526967CD
:10086C00687420576865656C204261636B776172B0
:04087C0064730000A1
:00000001FF
